{
  "contractName": "AddressUtilsMock",
  "abi": [
    {
      "constant": true,
      "inputs": [
        {
          "name": "_a",
          "type": "address"
        }
      ],
      "name": "convert",
      "outputs": [
        {
          "name": "",
          "type": "uint256"
        }
      ],
      "payable": false,
      "stateMutability": "pure",
      "type": "function"
    }
  ],
  "bytecode": "0x608060405234801561001057600080fd5b5060aa8061001f6000396000f30060806040526004361060255763ffffffff60e060020a600035041663def2489b8114602a575b600080fd5b348015603557600080fd5b506048600160a060020a0360043516605a565b60408051918252519081900360200190f35b6000606c82600160a060020a03166072565b92915050565b600160a060020a0316905600a165627a7a72305820ca8d5d7dc3020fce104f8e57af8f56859af6fbe72ac4546bb929eb63bf44533d0029",
  "source": "pragma solidity ^0.4.24;\n\nimport \"../libs/AddressUtils.sol\";\n\ncontract AddressUtilsMock {\n    using AddressUtils for address;\n\n    function convert(address _a) public pure returns (uint256) {\n        return _a.toUint256();\n    }\n}",
  "sourcePath": "/home/vauvenal5/repos/github/comp/ProvNet/eth/contracts/mocks/AddressUtilsMock.sol",
  "compiler": {
    "name": "solc",
    "version": "0.4.24+commit.e67f0147.Emscripten.clang"
  },
  "schemaVersion": "3.0.1",
  "updatedAt": "2019-01-14T14:35:46.460Z",
  "devdoc": {
    "methods": {}
  },
  "userdoc": {
    "methods": {}
  }
}