{
  "contractName": "AddressUtilsMock",
  "abi": [
    {
      "constant": true,
      "inputs": [
        {
          "name": "_a",
          "type": "address"
        }
      ],
      "name": "convert",
      "outputs": [
        {
          "name": "",
          "type": "uint256"
        }
      ],
      "payable": false,
      "stateMutability": "pure",
      "type": "function"
    }
  ],
  "bytecode": "0x608060405234801561001057600080fd5b5060ea8061001f6000396000f300608060405260043610603e5763ffffffff7c0100000000000000000000000000000000000000000000000000000000600035041663def2489b81146043575b600080fd5b348015604e57600080fd5b50606e73ffffffffffffffffffffffffffffffffffffffff600435166080565b60408051918252519081900360200190f35b6000609f8273ffffffffffffffffffffffffffffffffffffffff1660a5565b92915050565b73ffffffffffffffffffffffffffffffffffffffff16905600a165627a7a72305820bc1f8352d24fec0f69a4fc0a7f076c9744d9e79d5a23d359dd2a4e638c8b658c0029",
  "source": "pragma solidity ^0.4.24;\n\nimport \"../libs/AddressUtils.sol\";\n\ncontract AddressUtilsMock {\n    using AddressUtils for address;\n\n    function convert(address _a) public pure returns (uint256) {\n        return _a.toUint256();\n    }\n}",
  "sourcePath": "/home/vauvenal5/repos/github/ProvNet/eth/contracts/mocks/AddressUtilsMock.sol",
  "compiler": {
    "name": "solc",
    "version": "0.4.24+commit.e67f0147.Emscripten.clang"
  },
  "schemaVersion": "2.0.1",
  "updatedAt": "2019-01-05T17:47:03.097Z"
}