{
  "contractName": "LinkableContract",
  "abi": [
    {
      "constant": true,
      "inputs": [],
      "name": "getUsers",
      "outputs": [
        {
          "name": "",
          "type": "address[]"
        }
      ],
      "payable": false,
      "stateMutability": "view",
      "type": "function"
    },
    {
      "constant": true,
      "inputs": [],
      "name": "getSpecialRoles",
      "outputs": [
        {
          "name": "",
          "type": "uint256[]"
        }
      ],
      "payable": false,
      "stateMutability": "view",
      "type": "function"
    },
    {
      "constant": true,
      "inputs": [
        {
          "name": "_operator",
          "type": "address"
        },
        {
          "name": "_role",
          "type": "string"
        }
      ],
      "name": "checkRole",
      "outputs": [],
      "payable": false,
      "stateMutability": "view",
      "type": "function"
    },
    {
      "constant": false,
      "inputs": [
        {
          "name": "_user",
          "type": "address"
        },
        {
          "name": "_roles",
          "type": "uint256[]"
        }
      ],
      "name": "removeUserWithSpecialRoles",
      "outputs": [],
      "payable": false,
      "stateMutability": "nonpayable",
      "type": "function"
    },
    {
      "constant": false,
      "inputs": [
        {
          "name": "_user",
          "type": "address"
        },
        {
          "name": "_roles",
          "type": "uint256[]"
        }
      ],
      "name": "addUserWithSpecialRoles",
      "outputs": [],
      "payable": false,
      "stateMutability": "nonpayable",
      "type": "function"
    },
    {
      "constant": true,
      "inputs": [
        {
          "name": "_operator",
          "type": "address"
        },
        {
          "name": "_role",
          "type": "string"
        }
      ],
      "name": "hasRole",
      "outputs": [
        {
          "name": "",
          "type": "bool"
        }
      ],
      "payable": false,
      "stateMutability": "view",
      "type": "function"
    },
    {
      "constant": true,
      "inputs": [
        {
          "name": "_role",
          "type": "string"
        }
      ],
      "name": "isRoleOpen",
      "outputs": [
        {
          "name": "",
          "type": "bool"
        }
      ],
      "payable": false,
      "stateMutability": "view",
      "type": "function"
    },
    {
      "constant": true,
      "inputs": [
        {
          "name": "_address",
          "type": "address"
        }
      ],
      "name": "isOwner",
      "outputs": [
        {
          "name": "",
          "type": "bool"
        }
      ],
      "payable": false,
      "stateMutability": "view",
      "type": "function"
    },
    {
      "constant": false,
      "inputs": [
        {
          "name": "_user",
          "type": "address"
        },
        {
          "name": "_role",
          "type": "string"
        }
      ],
      "name": "addUser",
      "outputs": [],
      "payable": false,
      "stateMutability": "nonpayable",
      "type": "function"
    },
    {
      "constant": false,
      "inputs": [
        {
          "name": "_newSuperuser",
          "type": "address"
        }
      ],
      "name": "transferSuperuser",
      "outputs": [],
      "payable": false,
      "stateMutability": "nonpayable",
      "type": "function"
    },
    {
      "constant": false,
      "inputs": [],
      "name": "renounceOwnership",
      "outputs": [],
      "payable": false,
      "stateMutability": "nonpayable",
      "type": "function"
    },
    {
      "constant": false,
      "inputs": [
        {
          "name": "_user",
          "type": "address"
        },
        {
          "name": "_role",
          "type": "string"
        }
      ],
      "name": "removeUser",
      "outputs": [],
      "payable": false,
      "stateMutability": "nonpayable",
      "type": "function"
    },
    {
      "constant": true,
      "inputs": [],
      "name": "owner",
      "outputs": [
        {
          "name": "",
          "type": "address"
        }
      ],
      "payable": false,
      "stateMutability": "view",
      "type": "function"
    },
    {
      "constant": false,
      "inputs": [
        {
          "name": "_role",
          "type": "string"
        }
      ],
      "name": "setRoleOpen",
      "outputs": [],
      "payable": false,
      "stateMutability": "nonpayable",
      "type": "function"
    },
    {
      "constant": true,
      "inputs": [
        {
          "name": "_addr",
          "type": "address"
        }
      ],
      "name": "isSuperuser",
      "outputs": [
        {
          "name": "",
          "type": "bool"
        }
      ],
      "payable": false,
      "stateMutability": "view",
      "type": "function"
    },
    {
      "constant": true,
      "inputs": [
        {
          "name": "_role",
          "type": "uint256"
        }
      ],
      "name": "getSpecialRole",
      "outputs": [
        {
          "name": "",
          "type": "uint256"
        },
        {
          "name": "",
          "type": "string"
        }
      ],
      "payable": false,
      "stateMutability": "view",
      "type": "function"
    },
    {
      "constant": false,
      "inputs": [
        {
          "name": "_role",
          "type": "string"
        }
      ],
      "name": "setRoleClosed",
      "outputs": [],
      "payable": false,
      "stateMutability": "nonpayable",
      "type": "function"
    },
    {
      "constant": true,
      "inputs": [],
      "name": "ROLE_SUPERUSER",
      "outputs": [
        {
          "name": "",
          "type": "string"
        }
      ],
      "payable": false,
      "stateMutability": "view",
      "type": "function"
    },
    {
      "constant": false,
      "inputs": [
        {
          "name": "_newOwner",
          "type": "address"
        }
      ],
      "name": "transferOwnership",
      "outputs": [],
      "payable": false,
      "stateMutability": "nonpayable",
      "type": "function"
    },
    {
      "inputs": [],
      "payable": false,
      "stateMutability": "nonpayable",
      "type": "constructor"
    },
    {
      "anonymous": false,
      "inputs": [
        {
          "indexed": true,
          "name": "to",
          "type": "address"
        },
        {
          "indexed": false,
          "name": "tag",
          "type": "uint256"
        }
      ],
      "name": "LinkAdded",
      "type": "event"
    },
    {
      "anonymous": false,
      "inputs": [
        {
          "indexed": true,
          "name": "operator",
          "type": "address"
        },
        {
          "indexed": false,
          "name": "role",
          "type": "string"
        }
      ],
      "name": "RoleAdded",
      "type": "event"
    },
    {
      "anonymous": false,
      "inputs": [
        {
          "indexed": true,
          "name": "operator",
          "type": "address"
        },
        {
          "indexed": false,
          "name": "role",
          "type": "string"
        }
      ],
      "name": "RoleRemoved",
      "type": "event"
    },
    {
      "anonymous": false,
      "inputs": [
        {
          "indexed": true,
          "name": "previousOwner",
          "type": "address"
        }
      ],
      "name": "OwnershipRenounced",
      "type": "event"
    },
    {
      "anonymous": false,
      "inputs": [
        {
          "indexed": true,
          "name": "previousOwner",
          "type": "address"
        },
        {
          "indexed": true,
          "name": "newOwner",
          "type": "address"
        }
      ],
      "name": "OwnershipTransferred",
      "type": "event"
    },
    {
      "constant": false,
      "inputs": [
        {
          "name": "_user",
          "type": "address"
        },
        {
          "name": "special",
          "type": "uint256[]"
        },
        {
          "name": "removedSpecial",
          "type": "uint256[]"
        },
        {
          "name": "link",
          "type": "uint256[]"
        },
        {
          "name": "removedLink",
          "type": "uint256[]"
        }
      ],
      "name": "changeUser",
      "outputs": [],
      "payable": false,
      "stateMutability": "nonpayable",
      "type": "function"
    },
    {
      "constant": false,
      "inputs": [
        {
          "name": "_url",
          "type": "string"
        },
        {
          "name": "_contract",
          "type": "address"
        }
      ],
      "name": "addPingback",
      "outputs": [],
      "payable": false,
      "stateMutability": "nonpayable",
      "type": "function"
    },
    {
      "constant": false,
      "inputs": [
        {
          "name": "_url",
          "type": "string"
        },
        {
          "name": "_contract",
          "type": "address"
        },
        {
          "name": "hasProv",
          "type": "bool"
        },
        {
          "name": "_type",
          "type": "uint256"
        }
      ],
      "name": "setHasProvenanceLink",
      "outputs": [],
      "payable": false,
      "stateMutability": "nonpayable",
      "type": "function"
    },
    {
      "constant": false,
      "inputs": [
        {
          "name": "_contract",
          "type": "address"
        },
        {
          "name": "_type",
          "type": "uint256"
        }
      ],
      "name": "addLink",
      "outputs": [],
      "payable": false,
      "stateMutability": "nonpayable",
      "type": "function"
    },
    {
      "constant": false,
      "inputs": [
        {
          "name": "_contract",
          "type": "address"
        },
        {
          "name": "_type",
          "type": "uint256"
        }
      ],
      "name": "addHardLink",
      "outputs": [],
      "payable": false,
      "stateMutability": "nonpayable",
      "type": "function"
    },
    {
      "constant": true,
      "inputs": [],
      "name": "getLinkList",
      "outputs": [
        {
          "name": "",
          "type": "address[]"
        }
      ],
      "payable": false,
      "stateMutability": "view",
      "type": "function"
    },
    {
      "constant": true,
      "inputs": [
        {
          "name": "link",
          "type": "address"
        }
      ],
      "name": "getLink",
      "outputs": [
        {
          "name": "",
          "type": "address"
        },
        {
          "name": "",
          "type": "uint256[]"
        }
      ],
      "payable": false,
      "stateMutability": "view",
      "type": "function"
    },
    {
      "constant": false,
      "inputs": [
        {
          "name": "_type",
          "type": "uint256"
        },
        {
          "name": "title",
          "type": "string"
        }
      ],
      "name": "addLinkType",
      "outputs": [],
      "payable": false,
      "stateMutability": "nonpayable",
      "type": "function"
    },
    {
      "constant": true,
      "inputs": [
        {
          "name": "_type",
          "type": "uint256"
        }
      ],
      "name": "getLinkType",
      "outputs": [
        {
          "name": "",
          "type": "string"
        }
      ],
      "payable": false,
      "stateMutability": "view",
      "type": "function"
    },
    {
      "constant": true,
      "inputs": [],
      "name": "getLinkTypes",
      "outputs": [
        {
          "name": "",
          "type": "uint256[]"
        }
      ],
      "payable": false,
      "stateMutability": "view",
      "type": "function"
    },
    {
      "constant": false,
      "inputs": [
        {
          "name": "_type",
          "type": "uint256"
        },
        {
          "name": "_title",
          "type": "string"
        }
      ],
      "name": "setTagTitle",
      "outputs": [],
      "payable": false,
      "stateMutability": "nonpayable",
      "type": "function"
    }
  ],
  "bytecode": "0x60016080819052600260a08190526004805460ff19908116841761ff0019908116610200908117845561014060405260c086905260e0949094526003610100526101209290925260078054909116909317161762ff00001916620300001763ff000000191663040000001790553480156200007957600080fd5b5060008054600160a060020a0319163390811790915560408051808201909152600981527f73757065727573657200000000000000000000000000000000000000000000006020820152620000d8919064010000000062000305810204565b60045460408051808201909152600981527f73757065727573657200000000000000000000000000000000000000000000006020820152620001319160059160ff90911690640100000000620029da6200042b82021704565b60045460408051808201909152600681527f656469746f72000000000000000000000000000000000000000000000000000060208201526200018e9160059161010090910460ff16906401000000006200042b8102620029da1704565b60078054604080518082019091529182527f74727573746564000000000000000000000000000000000000000000000000006020830152620001e591600a9160ff1690640100000000620029da6200042b82021704565b60075460408051808201909152600581527f6b6e6f776e00000000000000000000000000000000000000000000000000000060208201526200024291600a9161010090910460ff16906401000000006200042b8102620029da1704565b60075460408051808201909152600881527f70696e676261636b0000000000000000000000000000000000000000000000006020820152620002a091600a916201000090910460ff16906401000000006200042b8102620029da1704565b60075460408051808201909152600881527f6c696e6b6261636b0000000000000000000000000000000000000000000000006020820152620002ff91600a91630100000090910460ff16906401000000006200042b8102620029da1704565b620007db565b62000381826001836040518082805190602001908083835b602083106200033e5780518252601f1990920191602091820191016200031d565b51815160209384036101000a6000190180199092169116179052920194855250604051938490030190922092915050640100000000620005a6810262002ce81704565b81600160a060020a03167fbfec83d64eaa953f2708271a023ab9ee82057f8f3578d548c1a4ba0b5b700489826040518080602001828103825283818151815260200191508051906020019080838360005b83811015620003ec578181015183820152602001620003d2565b50505050905090810190601f1680156200041a5780820380516001836020036101000a031916815260200191505b509250505060405180910390a25050565b604080517ff593633c000000000000000000000000000000000000000000000000000000008152600481018590526024810184905290518491849173__LinkedListLib_________________________9163f593633c916044808301926020929190829003018186803b158015620004a257600080fd5b505af4158015620004b7573d6000803e3d6000fd5b505050506040513d6020811015620004ce57600080fd5b5051156200053d57604080517f08c379a000000000000000000000000000000000000000000000000000000000815260206004820152600f60248201527f54616720646f6573206578697374210000000000000000000000000000000000604482015290519081900360640190fd5b620005598585600064010000000062002472620005cb82021704565b604080518082018252858152602080820186815260008881526001808b0184529490208351815590518051939491936200059c9392850192919091019062000736565b5050505050505050565b600160a060020a0316600090815260209190915260409020805460ff19166001179055565b620005e38360008484640100000000620005e9810204565b50505050565b60008062000601868564010000000062000686810204565b1580156200061f57506200061f868664010000000062000686810204565b156200067857506000848152602086815260408083208515158452909152902054620006578686868664010000000062000705810204565b6200066e8685838664010000000062000705810204565b600191506200067d565b600091505b50949350505050565b600081815260208381526040808320838052909152812054158015620006c2575060008281526020848152604080832060018452909152902054155b15620006fb5760008080526020848152604080832060018452909152902054821415620006f257506001620006ff565b506000620006ff565b5060015b92915050565b6000828152602085815260408083209315808452938252808320869055948252948552838120911581529352912055565b828054600181600116156101000203166002900490600052602060002090601f016020900481019282601f106200077957805160ff1916838001178555620007a9565b82800160010185558215620007a9579182015b82811115620007a95782518255916020019190600101906200078c565b50620007b7929150620007bb565b5090565b620007d891905b80821115620007b75760008155600101620007c2565b90565b612efa80620007eb6000396000f3006080604052600436106101645763ffffffff60e060020a600035041662ce8e3e8114610169578062fba027146101ce57806303b4b6ba1461025b57806306a0fb62146102815780630988ca8c1461029657806312f70d92146102fd57806313797c1514610360578063217fe6c6146103c35780632c897b8b1461043e5780632f54bf6e1461049757806346b09d55146104b85780634b68d431146104cd5780634ee7b90f1461053457806357c393fa14610549578063715018a61461056a57806380026a591461057f57806386af6f82146105e65780638da5cb5b1461064a5780639d6abe4f1461067b578063ac48486414610709578063b782118814610762578063bc17fb14146107c0578063bceee05e1461082f578063c106bca914610850578063ca376fbb146108e7578063cdf2bd0214610940578063d138e46f1461099e578063ebb4f48414610aac578063f2fde38b14610ac1578063fd51362914610ae2575b600080fd5b34801561017557600080fd5b5061017e610b06565b60408051602080825283518183015283519192839290830191858101910280838360005b838110156101ba5781810151838201526020016101a2565b505050509050019250505060405180910390f35b3480156101da57600080fd5b506101e6600435610bec565b6040805160208082528351818301528351919283929083019185019080838360005b83811015610220578181015183820152602001610208565b50505050905090810190601f16801561024d5780820380516001836020036101000a031916815260200191505b509250505060405180910390f35b34801561026757600080fd5b5061027f600160a060020a0360043516602435610c92565b005b34801561028d57600080fd5b5061017e611024565b3480156102a257600080fd5b5060408051602060046024803582810135601f810185900485028601850190965285855261027f958335600160a060020a031695369560449491939091019190819084018382808284375094975061107b9650505050505050565b34801561030957600080fd5b5060408051602060046024803582810135848102808701860190975280865261027f968435600160a060020a0316963696604495919490910192918291850190849080828437509497506110e99650505050505050565b34801561036c57600080fd5b5060408051602060046024803582810135848102808701860190975280865261027f968435600160a060020a03169636966044959194909101929182918501908490808284375094975061111d9650505050505050565b3480156103cf57600080fd5b5060408051602060046024803582810135601f810185900485028601850190965285855261042a958335600160a060020a03169536956044949193909101919081908401838280828437509497506111519650505050505050565b604080519115158252519081900360200190f35b34801561044a57600080fd5b506040805160206004803580820135601f810184900484028501840190955284845261042a9436949293602493928401919081908401838280828437509497506111c69650505050505050565b3480156104a357600080fd5b5061042a600160a060020a0360043516611231565b3480156104c457600080fd5b5061017e611245565b3480156104d957600080fd5b5060408051602060046024803582810135601f810185900485028601850190965285855261027f958335600160a060020a031695369560449491939091019190819084018382808284375094975061129c9650505050505050565b34801561054057600080fd5b5061017e611391565b34801561055557600080fd5b5061027f600160a060020a03600435166113e8565b34801561057657600080fd5b5061027f61148a565b34801561058b57600080fd5b5060408051602060046024803582810135601f810185900485028601850190965285855261027f958335600160a060020a03169536956044949193909101919081908401838280828437509497506114e99650505050505050565b3480156105f257600080fd5b506040805160206004803580820135601f810184900484028501840190955284845261027f94369492936024939284019190819084018382808284375094975050509235600160a060020a0316935061151b92505050565b34801561065657600080fd5b5061065f6115c2565b60408051600160a060020a039092168252519081900360200190f35b34801561068757600080fd5b5061069c600160a060020a03600435166115d1565b6040518083600160a060020a0316600160a060020a0316815260200180602001828103825283818151815260200191508051906020019060200280838360005b838110156106f45781810151838201526020016106dc565b50505050905001935050505060405180910390f35b34801561071557600080fd5b506040805160206004803580820135601f810184900484028501840190955284845261027f9436949293602493928401919081908401838280828437509497506116dd9650505050505050565b34801561076e57600080fd5b5060408051602060046024803582810135601f810185900485028601850190965285855261027f9583359536956044949193909101919081908401838280828437509497506118079650505050505050565b3480156107cc57600080fd5b506040805160206004803580820135601f810184900484028501840190955284845261027f94369492936024939284019190819084018382808284375094975050600160a060020a038535169550505050506020810135151590604001356118ad565b34801561083b57600080fd5b5061042a600160a060020a0360043516611aa7565b34801561085c57600080fd5b50610868600435611ad7565b6040518083815260200180602001828103825283818151815260200191508051906020019080838360005b838110156108ab578181015183820152602001610893565b50505050905090810190601f1680156108d85780820380516001836020036101000a031916815260200191505b50935050505060405180910390f35b3480156108f357600080fd5b506040805160206004803580820135601f810184900484028501840190955284845261027f943694929360249392840191908190840183828082843750949750611b959650505050505050565b34801561094c57600080fd5b5060408051602060046024803582810135601f810185900485028601850190965285855261027f958335953695604494919390910191908190840183828082843750949750611c7d9650505050505050565b3480156109aa57600080fd5b5060408051602060046024803582810135848102808701860190975280865261027f968435600160a060020a031696369660449591949091019291829185019084908082843750506040805187358901803560208181028481018201909552818452989b9a998901989297509082019550935083925085019084908082843750506040805187358901803560208181028481018201909552818452989b9a998901989297509082019550935083925085019084908082843750506040805187358901803560208181028481018201909552818452989b9a998901989297509082019550935083925085019084908082843750949750611cb79650505050505050565b348015610ab857600080fd5b506101e6611d12565b348015610acd57600080fd5b5061027f600160a060020a0360043516611d38565b348015610aee57600080fd5b5061027f600160a060020a0360043516602435611d69565b6060600373__LinkedListAdvancedExtensionLib________632fc5efe690916040518263ffffffff1660e060020a0281526004018082815260200191505060006040518083038186803b158015610b5d57600080fd5b505af4158015610b71573d6000803e3d6000fd5b505050506040513d6000823e601f3d908101601f191682016040526020811015610b9a57600080fd5b810190808051602060020a811115610bb157600080fd5b82016020810184811115610bc457600080fd5b81518560208202830111602060020a82111715610be057600080fd5b50909450505050505b90565b6060610bff600a8363ffffffff611f8d16565b60019081018054604080516020600295841615610100026000190190931694909404601f810183900483028501830190915280845290830182828015610c865780601f10610c5b57610100808354040283529160200191610c86565b820191906000526020600020905b815481529060010190602001808311610c6957829003601f168201915b50505050509050919050565b600081610ca6600a8263ffffffff61208316565b1515610d00576040805160e560020a62461bcd02815260206004820152602a6024820152600080516020612eaf833981519152604482015260b160020a691031b7b73a3930b1ba1702606482015290519081900360840190fd5b610d11600a8463ffffffff611f8d16565b60019081018054604080516020600295841615610100026000190190931694909404601f810183900483028501830190915280845290830182828015610d985780601f10610d6d57610100808354040283529160200191610d98565b820191906000526020600020905b815481529060010190602001808311610d7b57829003601f168201915b50505050506002816040518082805190602001908083835b60208310610dcf5780518252601f199092019160209182019101610db0565b51815160209384036101000a600019018019909216911617905292019485525060405193849003019092205460ff169150819050610e125750610e123382611151565b1515610e73576040805160e560020a62461bcd0281526020600482015260316024820152600080516020612e8f8339815191526044820152607860020a7068617320746f206861766520726f6c652102606482015290519081900360840190fd5b610e856008868663ffffffff61211616565b600754859350600160a060020a03841690632c897b8b90610eaf906301000000900460ff16610bec565b6040518263ffffffff1660e060020a0281526004018080602001828103825283818151815260200191508051906020019080838360005b83811015610efe578181015183820152602001610ee6565b50505050905090810190601f168015610f2b5780820380516001836020036101000a031916815260200191505b5092505050602060405180830381600087803b158015610f4a57600080fd5b505af1158015610f5e573d6000803e3d6000fd5b505050506040513d6020811015610f7457600080fd5b505115610ff0576007546040805160e060020a63fd513629028152306004820152630100000090920460ff16602483015251600160a060020a0385169163fd51362991604480830192600092919082900301818387803b158015610fd757600080fd5b505af1158015610feb573d6000803e3d6000fd5b505050505b604080518581529051600160a060020a03871691600080516020612e4f833981519152919081900360200190a25050505050565b6060600573__TagLib________________________________63469e038e90916040518263ffffffff1660e060020a0281526004018082815260200191505060006040518083038186803b158015610b5d57600080fd5b6110e5826001836040518082805190602001908083835b602083106110b15780518252601f199092019160209182019101611092565b51815160209384036101000a6000190180199092169116179052920194855250604051938490030190922092915050612221565b5050565b600054600160a060020a0316331480611106575061110633611aa7565b151561111157600080fd5b6110e582826005612236565b600054600160a060020a031633148061113a575061113a33611aa7565b151561114557600080fd5b6110e58282600561234a565b60006111bd836001846040518082805190602001908083835b602083106111895780518252601f19909201916020918201910161116a565b51815160209384036101000a6000190180199092169116179052920194855250604051938490030190922092915050612447565b90505b92915050565b60006002826040518082805190602001908083835b602083106111fa5780518252601f1990920191602091820191016111db565b51815160209384036101000a600019018019909216911617905292019485525060405193849003019092205460ff16949350505050565b600054600160a060020a0391821691161490565b6060600873__ProvLinkListLib_______________________6315be85ad90916040518263ffffffff1660e060020a0281526004018082815260200191505060006040518083038186803b158015610b5d57600080fd5b600054600160a060020a03163314806112b957506112b933611aa7565b15156112c457600080fd5b73__LinkedListLib_________________________63f593633c60036112f2600160a060020a038616612466565b6040518363ffffffff1660e060020a028152600401808381526020018281526020019250505060206040518083038186803b15801561133057600080fd5b505af4158015611344573d6000803e3d6000fd5b505050506040513d602081101561135a57600080fd5b505115156113875761138761137783600160a060020a0316612466565b600390600063ffffffff61247216565b6110e5828261247f565b6060600a73__TagLib________________________________63469e038e90916040518263ffffffff1660e060020a0281526004018082815260200191505060006040518083038186803b158015610b5d57600080fd5b6114163360408051908101604052806009815260200160b960020a6839bab832b93ab9b2b90281525061107b565b600160a060020a038116151561142b57600080fd5b6114593360408051908101604052806009815260200160b960020a6839bab832b93ab9b2b9028152506124b1565b6114878160408051908101604052806009815260200160b960020a6839bab832b93ab9b2b9028152506125c2565b50565b600054600160a060020a031633146114a157600080fd5b60008054604051600160a060020a03909116917ff8df31144d9c2f0f6b59d69b8b98abd5459d07f2742c4df920b25aae33c6482091a260008054600160a060020a0319169055565b600054600160a060020a0316331480611506575061150633611aa7565b151561151157600080fd5b6110e582826124b1565b80600061152f60088363ffffffff61269416565b60075460ff62010000909104811660009081526001830160205260409020549192501615156115a8576040805160e560020a62461bcd02815260206004820152601f60248201527f4c696e6b206973206e6f74206f70656e20666f722070696e676261636b732100604482015290519081900360640190fd5b6115bc60088486600163ffffffff6126b216565b50505050565b600054600160a060020a031681565b600060606115e660088463ffffffff61269416565b6040805160e060020a635f33ad290281526004810192909252600a60248301525173__ProvLinkLib___________________________91635f33ad29916044808301926000929190829003018186803b15801561164257600080fd5b505af4158015611656573d6000803e3d6000fd5b505050506040513d6000823e601f3d908101601f19168201604090815281101561167f57600080fd5b815160208301805191939283019291602060020a81111561169f57600080fd5b820160208101848111156116b257600080fd5b81518560208202830111602060020a821117156116ce57600080fd5b50949650945050505050915091565b600054600160a060020a03163314806116fa57506116fa33611aa7565b151561170557600080fd5b604080518082019091526009815260b960020a6839bab832b93ab9b2b9026020820152819061173a908263ffffffff61283b16565b15611792576040805160e560020a62461bcd0281526020600482015260296024820152600080516020612e6f833981519152604482015260b860020a6875706572757365722102606482015290519081900360840190fd5b60016002836040518082805190602001908083835b602083106117c65780518252601f1990920191602091820191016117a7565b51815160209384036101000a60001901801990921691161790529201948552506040519384900301909220805460ff19169315159390931790925550505050565b81611819600a8263ffffffff61208316565b1561186e576040805160e560020a62461bcd02815260206004820152601a60248201527f4c696e6b20747970652065786973747320616c6c72656164792e000000000000604482015290519081900360640190fd5b600054600160a060020a031633148061188b575061188b33611aa7565b151561189657600080fd5b6118a8600a848463ffffffff6129da16565b505050565b806118bf600a8263ffffffff61208316565b1515611919576040805160e560020a62461bcd02815260206004820152602a6024820152600080516020612eaf833981519152604482015260b160020a691031b7b73a3930b1ba1702606482015290519081900360840190fd5b61192a600a8363ffffffff611f8d16565b60019081018054604080516020600295841615610100026000190190931694909404601f8101839004830285018301909152808452908301828280156119b15780601f10611986576101008083540402835291602001916119b1565b820191906000526020600020905b81548152906001019060200180831161199457829003601f168201915b50505050506002816040518082805190602001908083835b602083106119e85780518252601f1990920191602091820191016119c9565b51815160209384036101000a600019018019909216911617905292019485525060405193849003019092205460ff169150819050611a2b5750611a2b3382611151565b1515611a8c576040805160e560020a62461bcd0281526020600482015260316024820152600080516020612e8f8339815191526044820152607860020a7068617320746f206861766520726f6c652102606482015290519081900360840190fd5b611a9f600886888763ffffffff6126b216565b505050505050565b60006111c08260408051908101604052806009815260200160b960020a6839bab832b93ab9b2b902815250611151565b6000606082611aed60058263ffffffff611f8d16565b600101808054600181600116156101000203166002900480601f016020809104026020016040519081016040528092919081815260200182805460018160011615610100020316600290048015611b855780601f10611b5a57610100808354040283529160200191611b85565b820191906000526020600020905b815481529060010190602001808311611b6857829003601f168201915b5050505050905091509150915091565b600054600160a060020a0316331480611bb25750611bb233611aa7565b1515611bbd57600080fd5b604080518082019091526009815260b960020a6839bab832b93ab9b2b90260208201528190611bf2908263ffffffff61283b16565b15611c4a576040805160e560020a62461bcd0281526020600482015260296024820152600080516020612e6f833981519152604482015260b860020a6875706572757365722102606482015290519081900360840190fd5b6000600283604051808280519060200190808383602083106117c65780518252601f1990920191602091820191016117a7565b600054600160a060020a0316331480611c9a5750611c9a33611aa7565b1515611ca557600080fd5b6110e5600a838363ffffffff612b0d16565b600054600160a060020a0316331480611cd45750611cd433611aa7565b1515611cdf57600080fd5b611ceb8583600a61234a565b611cf5858561111d565b611d018582600a612236565b611d0b85846110e9565b5050505050565b604080518082019091526009815260b960020a6839bab832b93ab9b2b902602082015281565b600054600160a060020a0316331480611d555750611d5533611aa7565b1515611d6057600080fd5b61148781612be8565b80611d7b600a8263ffffffff61208316565b1515611dd5576040805160e560020a62461bcd02815260206004820152602a6024820152600080516020612eaf833981519152604482015260b160020a691031b7b73a3930b1ba1702606482015290519081900360840190fd5b611de6600a8363ffffffff611f8d16565b60019081018054604080516020600295841615610100026000190190931694909404601f810183900483028501830190915280845290830182828015611e6d5780601f10611e4257610100808354040283529160200191611e6d565b820191906000526020600020905b815481529060010190602001808311611e5057829003601f168201915b50505050506002816040518082805190602001908083835b60208310611ea45780518252601f199092019160209182019101611e85565b51815160209384036101000a600019018019909216911617905292019485525060405193849003019092205460ff169150819050611ee75750611ee73382611151565b1515611f48576040805160e560020a62461bcd0281526020600482015260316024820152600080516020612e8f8339815191526044820152607860020a7068617320746f206861766520726f6c652102606482015290519081900360840190fd5b611f5a6008858563ffffffff61211616565b604080518481529051600160a060020a03861691600080516020612e4f833981519152919081900360200190a250505050565b600082828160000173__LinkedListLib_________________________63f593633c9091836040518363ffffffff1660e060020a028152600401808381526020018281526020019250505060206040518083038186803b158015611ff057600080fd5b505af4158015612004573d6000803e3d6000fd5b505050506040513d602081101561201a57600080fd5b5051151561206b576040805160e560020a62461bcd0281526020600482015260136024820152606860020a7254616720646f6573206e6f742065786973742102604482015290519081900360640190fd5b50505060009081526001919091016020526040902090565b6040805160e260020a633d64d8cf0281526004810184905260248101839052905160009173__LinkedListLib_________________________9163f593633c91604480820192602092909190829003018186803b1580156120e357600080fd5b505af41580156120f7573d6000803e3d6000fd5b505050506040513d602081101561210d57600080fd5b50519392505050565b600073__LinkedListLib_________________________63f593633c85612145600160a060020a038716612466565b6040518363ffffffff1660e060020a028152600401808381526020018281526020019250505060206040518083038186803b15801561218357600080fd5b505af4158015612197573d6000803e3d6000fd5b505050506040513d60208110156121ad57600080fd5b505115156121d9576121d96121ca84600160a060020a0316612466565b8590600063ffffffff61247216565b50600160a060020a0390911660008181526001938401602090815260408083208054600160a060020a031916909417845593825291840190915220805460ff19169091179055565b61222b8282612447565b15156110e557600080fd5b600080548190600160a060020a0316331480612256575061225633611aa7565b151561226157600080fd5b600091505b8351821015611d0b57612297848381518110151561228057fe5b60209081029091010151849063ffffffff611f8d16565b905061233f85826001018054600181600116156101000203166002900480601f0160208091040260200160405190810160405280929190818152602001828054600181600116156101000203166002900480156123355780601f1061230a57610100808354040283529160200191612335565b820191906000526020600020905b81548152906001019060200180831161231857829003601f168201915b50505050506114e9565b600190910190612266565b600080548190600160a060020a031633148061236a575061236a33611aa7565b151561237557600080fd5b600091505b8351821015611d0b57612394848381518110151561228057fe5b905061243c85826001018054600181600116156101000203166002900480601f0160208091040260200160405190810160405280929190818152602001828054600181600116156101000203166002900480156124325780601f1061240757610100808354040283529160200191612432565b820191906000526020600020905b81548152906001019060200180831161241557829003601f168201915b505050505061129c565b60019091019061237a565b600160a060020a03166000908152602091909152604090205460ff1690565b600160a060020a031690565b6115bc8360008484612c58565b600054600160a060020a031633148061249c575061249c33611aa7565b15156124a757600080fd5b6110e582826125c2565b61251b826001836040518082805190602001908083835b602083106124e75780518252601f1990920191602091820191016124c8565b51815160209384036101000a6000190180199092169116179052920194855250604051938490030190922092915050612cc6565b81600160a060020a03167fd211483f91fc6eff862467f8de606587a30c8fc9981056f051b897a418df803a826040518080602001828103825283818151815260200191508051906020019080838360005b8381101561258457818101518382015260200161256c565b50505050905090810190601f1680156125b15780820380516001836020036101000a031916815260200191505b509250505060405180910390a25050565b61262c826001836040518082805190602001908083835b602083106125f85780518252601f1990920191602091820191016125d9565b51815160209384036101000a6000190180199092169116179052920194855250604051938490030190922092915050612ce8565b81600160a060020a03167fbfec83d64eaa953f2708271a023ab9ee82057f8f3578d548c1a4ba0b5b700489826040518080602001828103825283818151815260200191508051906020019080838360008381101561258457818101518382015260200161256c565b600160a060020a031660009081526001919091016020526040902090565b838373__LinkedListLib_________________________63f593633c836126e1600160a060020a038516612466565b6040518363ffffffff1660e060020a028152600401808381526020018281526020019250505060206040518083038186803b15801561271f57600080fd5b505af4158015612733573d6000803e3d6000fd5b505050506040513d602081101561274957600080fd5b5051151561279b576040805160e560020a62461bcd0281526020600482015260146024820152606060020a734c696e6b20646f6573206e6f742065786973742102604482015290519081900360640190fd5b8286600101600087600160a060020a0316600160a060020a03168152602001908152602001600020600201856040518082805190602001908083835b602083106127f65780518252601f1990920191602091820191016127d7565b51815160209384036101000a60001901801990921691161790529201948552506040519384900301909220805460ff1916931515939093179092555050505050505050565b805182516000911461284f575060006111c0565b816040516020018082805190602001908083835b602083106128825780518252601f199092019160209182019101612863565b6001836020036101000a0380198251168184511680821785525050505050509050019150506040516020818303038152906040526040518082805190602001908083835b602083106128e55780518252601f1990920191602091820191016128c6565b51815160209384036101000a60001901801990921691161790526040519190930181900381208851909550889450908301928392508401908083835b602083106129405780518252601f199092019160209182019101612921565b6001836020036101000a0380198251168184511680821785525050505050509050019150506040516020818303038152906040526040518082805190602001908083835b602083106129a35780518252601f199092019160209182019101612984565b5181516020939093036101000a60001901801990911692169190911790526040519201829003909120939093149695505050505050565b6040805160e260020a633d64d8cf028152600481018590526024810184905290518491849173__LinkedListLib_________________________9163f593633c916044808301926020929190829003018186803b158015612a3a57600080fd5b505af4158015612a4e573d6000803e3d6000fd5b505050506040513d6020811015612a6457600080fd5b505115612ab0576040805160e560020a62461bcd02815260206004820152600f6024820152608860020a6e54616720646f65732065786973742102604482015290519081900360640190fd5b612ac28585600063ffffffff61247216565b604080518082018252858152602080820186815260008881526001808b018452949020835181559051805193949193612b0393928501929190910190612db6565b5050505050505050565b6040805160e260020a633d64d8cf028152600481018590526024810184905290518491849173__LinkedListLib_________________________9163f593633c916044808301926020929190829003018186803b158015612b6d57600080fd5b505af4158015612b81573d6000803e3d6000fd5b505050506040513d6020811015612b9757600080fd5b50511515612ac2576040805160e560020a62461bcd0281526020600482015260136024820152606860020a7254616720646f6573206e6f742065786973742102604482015290519081900360640190fd5b600160a060020a0381161515612bfd57600080fd5b60008054604051600160a060020a03808516939216917f8be0079c531659141344cd1fd0a4f28419497f9722a3daafe3b4186f6b6457e091a360008054600160a060020a031916600160a060020a0392909216919091179055565b600080612c658685612d0d565b158015612c775750612c778686612d0d565b15612cb857506000848152602086815260408083208515158452909152902054612ca386868686612d85565b612caf86858386612d85565b60019150612cbd565b600091505b50949350505050565b600160a060020a0316600090815260209190915260409020805460ff19169055565b600160a060020a0316600090815260209190915260409020805460ff19166001179055565b600081815260208381526040808320838052909152812054158015612d48575060008281526020848152604080832060018452909152902054155b15612d7d5760008080526020848152604080832060018452909152902054821415612d75575060016111c0565b5060006111c0565b5060016111c0565b6000828152602085815260408083209315808452938252808320869055948252948552838120911581529352912055565b828054600181600116156101000203166002900490600052602060002090601f016020900481019282601f10612df757805160ff1916838001178555612e24565b82800160010185558215612e24579182015b82811115612e24578251825591602001919060010190612e09565b50612e30929150612e34565b5090565b610be991905b80821115612e305760008155600101612e3a5600ff39d6a66aa59c7a33c3ad7aa82e56d5cba3c1038afd5575ab842ee55bf20e2e506172616d65746572206973206e6f7420616c6c6f77656420746f2062652073526f6c652068617320746f20626520696e616374697665206f722075736572204c696e6b207479706520646f6573206e6f74206578697374206f6e2074686973a165627a7a723058208ba62bb08fc30a6cf8a878d0810fcfa9989904dbb092cc8a4ea72e684d40c4070029",
  "source": "pragma solidity ^0.4.24;\n\nimport \"../libs/StringUtils.sol\";\nimport \"../libs/ProvLink/ProvLinkLib.sol\";\nimport \"../libs/ProvLink/ProvLinkListLib.sol\";\nimport \"../libs/TagLib.sol\";\n\nimport \"./UserAccessControl.sol\";\n\ncontract LinkableContract is UserAccessControl {\n    using ProvLinkLib for ProvLinkLib.Link;\n    using ProvLinkListLib for ProvLinkListLib.LinkList;\n    using StringUtils for string;\n    using TagLib for TagLib.TagList;\n\n    event LinkAdded(address indexed to, uint256 tag);\n\n    struct ReservedTags {\n        uint8 trusted;\n        uint8 known;\n        uint8 pingback;\n        uint8 linkback;\n    }\n\n    ReservedTags internal tags = ReservedTags(1,2,3,4);\n\n    ProvLinkListLib.LinkList private links;\n    TagLib.TagList private linkTypes;\n\n    constructor() public {\n        //todo-sv: how to handle default tags?\n        //--> fix them?\n        //--> introduce reserved tag slots?\n        linkTypes.addTag(tags.trusted, \"trusted\");\n        linkTypes.addTag(tags.known, \"known\");\n        linkTypes.addTag(tags.pingback, \"pingback\");\n        linkTypes.addTag(tags.linkback, \"linkback\");\n    }\n\n    modifier notReserved(uint256 _type) {\n        require(!linkTypes.hasTag(_type), \"Link type exists allready.\");\n        _;\n    }\n\n    modifier isPingbackable(address _contract) {\n        ProvLinkLib.Link storage link = links.getLink(_contract);\n        require(link.types[tags.pingback], \"Link is not open for pingbacks!\");\n        _;\n    }\n\n    modifier validLinkType(uint256 _type) {\n        require(linkTypes.hasTag(_type), \"Link type does not exist on this contract.\");\n        _;\n    }\n\n    /**\n        Users\n    */\n\n    function changeUser(address _user, uint256[] special, uint256[] removedSpecial, uint256[] link, uint256[] removedLink) \n    public \n    onlyOwnerOrSuperuser() {\n        UserAccessControl.addUserWithTagRoles(_user, link, linkTypes);\n        UserAccessControl.addUserWithSpecialRoles(_user, special);\n        UserAccessControl.removeUserWithTagRoles(_user, removedLink, linkTypes);\n        UserAccessControl.removeUserWithSpecialRoles(_user, removedSpecial);\n    }\n\n    function getLinkRolesForUser(address _user) \n    internal\n    view\n    returns(uint256[]) {\n        return getRoles(_user, linkTypes);\n    }\n\n    /**\n        Links \n    */\n\n    //todo-sv: who is allowed to set that a link has provenance?\n    //--> whoever is allowed to add the link in first place?\n    //--> Do we need a has provenance role?\n    function addPingback(string _url, address _contract) \n    public \n    isPingbackable(_contract) {\n        links.setLinkHasProvenance(_contract, _url, true);\n    }\n\n    function setHasProvenanceLink(string _url, address _contract, bool hasProv, uint256 _type) \n    public \n    validLinkType(_type) \n    onlyRoleOrOpenRole(linkTypes.getTag(_type).title) {\n        links.setLinkHasProvenance(_contract, _url, hasProv);\n    }\n\n    //admin basically first enables new list by creating new role :)\n    function addLink(address _contract, uint256 _type) \n    public \n    validLinkType(_type) \n    onlyRoleOrOpenRole(linkTypes.getTag(_type).title) {\n        links.addLink(_contract, _type);\n        LinkableContract linked = LinkableContract(_contract);\n        if(linked.isRoleOpen(getLinkType(tags.linkback))) {\n            linked.addHardLink(this, tags.linkback);\n        }\n        emit LinkAdded(_contract, _type);\n    }\n\n    /**\n        This function has alos the purpose to allow future proof linking.\n        If the contracts change a lot in future iterations this is a way to link contracts even if they are not linkable any more by addLink standards.\n     */\n    function addHardLink(address _contract, uint256 _type) \n    public \n    validLinkType(_type) \n    onlyRoleOrOpenRole(linkTypes.getTag(_type).title) {\n        links.addLink(_contract, _type);\n        emit LinkAdded(_contract, _type);\n    }\n\n    function getLinkList()\n    public\n    view\n    returns(address[]) {\n        return links.toReturnValue();\n    }\n\n    function getLink(address link)\n    public\n    view\n    returns(address, uint256[]) {\n        return links.getLink(link).toReturnValue(linkTypes);\n    }\n\n    /**\n        Tags\n    */\n\n    function addLinkType(uint256 _type, string title)\n    public\n    notReserved(_type)\n    //todo-sv: not existing check!!!\n    onlyOwnerOrSuperuser() {\n        linkTypes.addTag(_type, title);\n    }\n\n    function getLinkType(uint256 _type)\n    public \n    view\n    returns(string) {\n        return linkTypes.getTag(_type).title;\n    }\n\n    function getLinkTypes()\n    public\n    view\n    returns(uint256[]) {\n        return linkTypes.toReturnValue();\n    }\n\n    function setTagTitle(uint256 _type, string _title)\n    public\n    onlyOwnerOrSuperuser() {\n        linkTypes.setTagTitle(_type, _title);\n    }\n}",
  "sourcePath": "/home/vauvenal5/repos/github/comp/ProvNet/eth/contracts/contracts/LinkableContract.sol",
  "compiler": {
    "name": "solc",
    "version": "0.4.24+commit.e67f0147.Emscripten.clang"
  },
  "schemaVersion": "3.0.1",
  "updatedAt": "2019-01-14T14:35:46.435Z",
  "devdoc": {
    "methods": {
      "checkRole(address,string)": {
        "details": "reverts if addr does not have role",
        "params": {
          "_operator": "address",
          "_role": "the name of the role // reverts"
        }
      },
      "hasRole(address,string)": {
        "details": "determine if addr has role",
        "params": {
          "_operator": "address",
          "_role": "the name of the role"
        },
        "return": "bool"
      },
      "isSuperuser(address)": {
        "details": "getter to determine if address has superuser role"
      },
      "renounceOwnership()": {
        "details": "Allows the current owner to relinquish control of the contract."
      },
      "transferOwnership(address)": {
        "details": "Allows the current superuser or owner to transfer control of the contract to a newOwner.",
        "params": {
          "_newOwner": "The address to transfer ownership to."
        }
      },
      "transferSuperuser(address)": {
        "details": "Allows the current superuser to transfer his role to a newSuperuser.",
        "params": {
          "_newSuperuser": "The address to transfer ownership to."
        }
      }
    }
  },
  "userdoc": {
    "methods": {
      "addHardLink(address,uint256)": {
        "notice": "This function has alos the purpose to allow future proof linking. If the contracts change a lot in future iterations this is a way to link contracts even if they are not linkable any more by addLink standards."
      },
      "addLinkType(uint256,string)": {
        "notice": "Tags"
      },
      "addPingback(string,address)": {
        "notice": "Links "
      },
      "changeUser(address,uint256[],uint256[],uint256[],uint256[])": {
        "notice": "Users"
      },
      "renounceOwnership()": {
        "notice": "Renouncing to ownership will leave the contract without an owner. It will not be possible to call the functions with the `onlyOwner` modifier anymore."
      }
    }
  }
}