{
  "contractName": "LinkedListAdvancedExtensionLib",
  "abi": [
    {
      "constant": true,
      "inputs": [
        {
          "name": "self",
          "type": "LinkedListLib.LinkedList storage"
        }
      ],
      "name": "getKeysArray",
      "outputs": [
        {
          "name": "",
          "type": "uint256[]"
        }
      ],
      "payable": false,
      "stateMutability": "view",
      "type": "function"
    },
    {
      "constant": true,
      "inputs": [
        {
          "name": "self",
          "type": "LinkedListLib.LinkedList storage"
        }
      ],
      "name": "getKeysAddressArray",
      "outputs": [
        {
          "name": "",
          "type": "address[]"
        }
      ],
      "payable": false,
      "stateMutability": "view",
      "type": "function"
    }
  ],
  "bytecode": "0x610574610030600b82828239805160001a6073146000811461002057610022565bfe5b5030600052607381538281f30073000000000000000000000000000000000000000030146080604052600436106100495763ffffffff60e060020a6000350416631bca78ab811461004e5780632fc5efe6146100a9575b600080fd5b6100596004356100b4565b60408051602080825283518183015283519192839290830191858101910280838360005b8381101561009557818101518382015260200161007d565b505050509050019250505060405180910390f35b6100596004356101bf565b6060806100bf610531565b8373__LinkedListLib_________________________637bfa62fb90916040518263ffffffff1660e060020a0281526004018082815260200191505060206040518083038186803b15801561011357600080fd5b505af4158015610127573d6000803e3d6000fd5b505050506040513d602081101561013d57600080fd5b5051604080518281526020808402820101909152908015610168578160200160208202803883390190505b509150610174846102e5565b90505b610187818563ffffffff61030616565b156101b8576101958161051f565b8261019f83610523565b815181106101a957fe5b60209081029091010152610177565b5092915050565b6060806101ca610531565b8373__LinkedListLib_________________________637bfa62fb90916040518263ffffffff1660e060020a0281526004018082815260200191505060206040518083038186803b15801561021e57600080fd5b505af4158015610232573d6000803e3d6000fd5b505050506040513d602081101561024857600080fd5b5051604080518281526020808402820101909152908015610273578160200160208202803883390190505b50915061027f846102e5565b90505b610292818563ffffffff61030616565b156101b8576102a86102a38261051f565b61052e565b826102b283610523565b815181106102bc57fe5b73ffffffffffffffffffffffffffffffffffffffff909216602092830290910190910152610282565b6102ed610531565b5050604080518082019091526000808252602082015290565b60008060008373__LinkedListExtensionLib________________63ddf223b9909187600001516040518363ffffffff1660e060020a0281526004018083815260200182815260200192505050604080518083038186803b15801561036a57600080fd5b505af415801561037e573d6000803e3d6000fd5b505050506040513d604081101561039457600080fd5b50805160209091015190925090508115806104495750604080517fcd9495f90000000000000000000000000000000000000000000000000000000081526004810186905260248101839052905173__LinkedListExtensionLib________________9163cd9495f9916044808301926020929190829003018186803b15801561041c57600080fd5b505af4158015610430573d6000803e3d6000fd5b505050506040513d602081101561044657600080fd5b50515b156104575760009250610517565b604080517ff593633c0000000000000000000000000000000000000000000000000000000081526004810186905260248101839052905173__LinkedListLib_________________________9163f593633c916044808301926020929190829003018186803b1580156104c957600080fd5b505af41580156104dd573d6000803e3d6000fd5b505050506040513d60208110156104f357600080fd5b5051156105125760208501805160019081019091528186529250610517565b600092505b505092915050565b5190565b602001516000190190565b90565b6040805180820190915260008082526020820152905600a165627a7a723058204737491283e4fae345836345724f5defb072723835897a37b731aaed1f544c230029",
  "source": "pragma solidity ^0.4.24;\n\nimport \"../../../node_modules/ethereum-libraries-linked-list/contracts/LinkedListLib.sol\";\n\nimport \"./LinkedListIteratorLib.sol\";\nimport \"./LinkedListExtensionLib.sol\";\nimport \"../Uint256Utils.sol\";\n\n/**\n    We need and ExtensionLib and an AdvancedExtensionLib because the IteratorLib builds upon the ExtensionLib and the AdvancedExtension needs the IteratorLib. Moving this function into ExtensionLib would lead to a cyclic dependency between ExtensionLib and IteratorLib.\n*/\nlibrary LinkedListAdvancedExtensionLib {\n    using LinkedListLib for LinkedListLib.LinkedList;\n    using LinkedListExtensionLib for LinkedListLib.LinkedList;\n    using LinkedListIteratorLib for LinkedListIteratorLib.Iterator;\n    using Uint256Utils for uint256;\n\n    function getKeysArray(LinkedListLib.LinkedList storage self)\n    public\n    view\n    returns(uint256[] memory) {\n        uint256[] memory res = new uint256[](self.sizeOf());\n        LinkedListIteratorLib.Iterator memory iterator = self.getIterator();\n        \n        while(iterator.hasNext(self)) {\n            res[iterator.getCounter()] = iterator.next();\n        }\n\n        return res;\n    }\n\n    function getKeysAddressArray(LinkedListLib.LinkedList storage self)\n    public\n    view\n    returns(address[] memory) {\n        address[] memory res = new address[](self.sizeOf());\n        LinkedListIteratorLib.Iterator memory iterator = self.getIterator();\n        \n        while(iterator.hasNext(self)) {\n            res[iterator.getCounter()] = iterator.next().toAddress();\n        }\n\n        return res;\n    }\n}",
  "sourcePath": "/home/vauvenal5/repos/github/ProvNet/eth/contracts/libs/LinkedList/LinkedListAdvancedExtensionLib.sol",
  "compiler": {
    "name": "solc",
    "version": "0.4.24+commit.e67f0147.Emscripten.clang"
  },
  "schemaVersion": "2.0.1",
  "updatedAt": "2019-01-05T22:31:31.068Z"
}