{
  "contractName": "LinkableContract",
  "abi": [
    {
      "constant": true,
      "inputs": [],
      "name": "getUsers",
      "outputs": [
        {
          "name": "",
          "type": "address[]"
        }
      ],
      "payable": false,
      "stateMutability": "view",
      "type": "function"
    },
    {
      "constant": true,
      "inputs": [],
      "name": "getSpecialRoles",
      "outputs": [
        {
          "name": "",
          "type": "uint256[]"
        }
      ],
      "payable": false,
      "stateMutability": "view",
      "type": "function"
    },
    {
      "constant": true,
      "inputs": [
        {
          "name": "_operator",
          "type": "address"
        },
        {
          "name": "_role",
          "type": "string"
        }
      ],
      "name": "checkRole",
      "outputs": [],
      "payable": false,
      "stateMutability": "view",
      "type": "function"
    },
    {
      "constant": false,
      "inputs": [
        {
          "name": "_user",
          "type": "address"
        },
        {
          "name": "_roles",
          "type": "uint256[]"
        }
      ],
      "name": "removeUserWithSpecialRoles",
      "outputs": [],
      "payable": false,
      "stateMutability": "nonpayable",
      "type": "function"
    },
    {
      "constant": false,
      "inputs": [
        {
          "name": "_user",
          "type": "address"
        },
        {
          "name": "_roles",
          "type": "uint256[]"
        }
      ],
      "name": "addUserWithSpecialRoles",
      "outputs": [],
      "payable": false,
      "stateMutability": "nonpayable",
      "type": "function"
    },
    {
      "constant": true,
      "inputs": [
        {
          "name": "_operator",
          "type": "address"
        },
        {
          "name": "_role",
          "type": "string"
        }
      ],
      "name": "hasRole",
      "outputs": [
        {
          "name": "",
          "type": "bool"
        }
      ],
      "payable": false,
      "stateMutability": "view",
      "type": "function"
    },
    {
      "constant": true,
      "inputs": [
        {
          "name": "_address",
          "type": "address"
        }
      ],
      "name": "isOwner",
      "outputs": [
        {
          "name": "",
          "type": "bool"
        }
      ],
      "payable": false,
      "stateMutability": "view",
      "type": "function"
    },
    {
      "constant": false,
      "inputs": [
        {
          "name": "_user",
          "type": "address"
        },
        {
          "name": "_role",
          "type": "string"
        }
      ],
      "name": "addUser",
      "outputs": [],
      "payable": false,
      "stateMutability": "nonpayable",
      "type": "function"
    },
    {
      "constant": false,
      "inputs": [
        {
          "name": "_newSuperuser",
          "type": "address"
        }
      ],
      "name": "transferSuperuser",
      "outputs": [],
      "payable": false,
      "stateMutability": "nonpayable",
      "type": "function"
    },
    {
      "constant": false,
      "inputs": [],
      "name": "renounceOwnership",
      "outputs": [],
      "payable": false,
      "stateMutability": "nonpayable",
      "type": "function"
    },
    {
      "constant": false,
      "inputs": [
        {
          "name": "_user",
          "type": "address"
        },
        {
          "name": "_role",
          "type": "string"
        }
      ],
      "name": "removeUser",
      "outputs": [],
      "payable": false,
      "stateMutability": "nonpayable",
      "type": "function"
    },
    {
      "constant": true,
      "inputs": [],
      "name": "owner",
      "outputs": [
        {
          "name": "",
          "type": "address"
        }
      ],
      "payable": false,
      "stateMutability": "view",
      "type": "function"
    },
    {
      "constant": false,
      "inputs": [
        {
          "name": "_role",
          "type": "string"
        }
      ],
      "name": "setRoleOpen",
      "outputs": [],
      "payable": false,
      "stateMutability": "nonpayable",
      "type": "function"
    },
    {
      "constant": true,
      "inputs": [
        {
          "name": "_addr",
          "type": "address"
        }
      ],
      "name": "isSuperuser",
      "outputs": [
        {
          "name": "",
          "type": "bool"
        }
      ],
      "payable": false,
      "stateMutability": "view",
      "type": "function"
    },
    {
      "constant": true,
      "inputs": [
        {
          "name": "_role",
          "type": "uint256"
        }
      ],
      "name": "getSpecialRole",
      "outputs": [
        {
          "name": "",
          "type": "uint256"
        },
        {
          "name": "",
          "type": "string"
        }
      ],
      "payable": false,
      "stateMutability": "view",
      "type": "function"
    },
    {
      "constant": false,
      "inputs": [
        {
          "name": "_role",
          "type": "string"
        }
      ],
      "name": "setRoleClosed",
      "outputs": [],
      "payable": false,
      "stateMutability": "nonpayable",
      "type": "function"
    },
    {
      "constant": true,
      "inputs": [],
      "name": "ROLE_SUPERUSER",
      "outputs": [
        {
          "name": "",
          "type": "string"
        }
      ],
      "payable": false,
      "stateMutability": "view",
      "type": "function"
    },
    {
      "constant": false,
      "inputs": [
        {
          "name": "_newOwner",
          "type": "address"
        }
      ],
      "name": "transferOwnership",
      "outputs": [],
      "payable": false,
      "stateMutability": "nonpayable",
      "type": "function"
    },
    {
      "inputs": [],
      "payable": false,
      "stateMutability": "nonpayable",
      "type": "constructor"
    },
    {
      "anonymous": false,
      "inputs": [
        {
          "indexed": true,
          "name": "operator",
          "type": "address"
        },
        {
          "indexed": false,
          "name": "role",
          "type": "string"
        }
      ],
      "name": "RoleAdded",
      "type": "event"
    },
    {
      "anonymous": false,
      "inputs": [
        {
          "indexed": true,
          "name": "operator",
          "type": "address"
        },
        {
          "indexed": false,
          "name": "role",
          "type": "string"
        }
      ],
      "name": "RoleRemoved",
      "type": "event"
    },
    {
      "anonymous": false,
      "inputs": [
        {
          "indexed": true,
          "name": "previousOwner",
          "type": "address"
        }
      ],
      "name": "OwnershipRenounced",
      "type": "event"
    },
    {
      "anonymous": false,
      "inputs": [
        {
          "indexed": true,
          "name": "previousOwner",
          "type": "address"
        },
        {
          "indexed": true,
          "name": "newOwner",
          "type": "address"
        }
      ],
      "name": "OwnershipTransferred",
      "type": "event"
    },
    {
      "constant": false,
      "inputs": [
        {
          "name": "_user",
          "type": "address"
        },
        {
          "name": "special",
          "type": "uint256[]"
        },
        {
          "name": "removedSpecial",
          "type": "uint256[]"
        },
        {
          "name": "link",
          "type": "uint256[]"
        },
        {
          "name": "removedLink",
          "type": "uint256[]"
        }
      ],
      "name": "changeUser",
      "outputs": [],
      "payable": false,
      "stateMutability": "nonpayable",
      "type": "function"
    },
    {
      "constant": false,
      "inputs": [
        {
          "name": "_url",
          "type": "string"
        },
        {
          "name": "_contract",
          "type": "address"
        }
      ],
      "name": "addPingback",
      "outputs": [],
      "payable": false,
      "stateMutability": "nonpayable",
      "type": "function"
    },
    {
      "constant": false,
      "inputs": [
        {
          "name": "_url",
          "type": "string"
        },
        {
          "name": "_contract",
          "type": "address"
        },
        {
          "name": "hasProv",
          "type": "bool"
        },
        {
          "name": "_type",
          "type": "uint256"
        }
      ],
      "name": "setHasProvenanceLink",
      "outputs": [],
      "payable": false,
      "stateMutability": "nonpayable",
      "type": "function"
    },
    {
      "constant": false,
      "inputs": [
        {
          "name": "_contract",
          "type": "address"
        },
        {
          "name": "_type",
          "type": "uint256"
        }
      ],
      "name": "addLink",
      "outputs": [],
      "payable": false,
      "stateMutability": "nonpayable",
      "type": "function"
    },
    {
      "constant": true,
      "inputs": [],
      "name": "getLinkList",
      "outputs": [
        {
          "name": "",
          "type": "address[]"
        }
      ],
      "payable": false,
      "stateMutability": "view",
      "type": "function"
    },
    {
      "constant": true,
      "inputs": [
        {
          "name": "link",
          "type": "address"
        }
      ],
      "name": "getLink",
      "outputs": [
        {
          "name": "",
          "type": "address"
        },
        {
          "name": "",
          "type": "uint256[]"
        }
      ],
      "payable": false,
      "stateMutability": "view",
      "type": "function"
    },
    {
      "constant": false,
      "inputs": [
        {
          "name": "_type",
          "type": "uint256"
        },
        {
          "name": "title",
          "type": "string"
        }
      ],
      "name": "addLinkType",
      "outputs": [],
      "payable": false,
      "stateMutability": "nonpayable",
      "type": "function"
    },
    {
      "constant": true,
      "inputs": [
        {
          "name": "_type",
          "type": "uint256"
        }
      ],
      "name": "getLinkType",
      "outputs": [
        {
          "name": "",
          "type": "string"
        }
      ],
      "payable": false,
      "stateMutability": "view",
      "type": "function"
    },
    {
      "constant": true,
      "inputs": [],
      "name": "getLinkTypes",
      "outputs": [
        {
          "name": "",
          "type": "uint256[]"
        }
      ],
      "payable": false,
      "stateMutability": "view",
      "type": "function"
    },
    {
      "constant": false,
      "inputs": [
        {
          "name": "_type",
          "type": "uint256"
        },
        {
          "name": "_title",
          "type": "string"
        }
      ],
      "name": "setTagTitle",
      "outputs": [],
      "payable": false,
      "stateMutability": "nonpayable",
      "type": "function"
    }
  ],
  "bytecode": "0x60016080819052600260a08190526004805460ff19908116841761ff001990811661020090811790935561012060405260c085905260e093909352600361010052600780549091169093179091161762ff00001916620300001790553480156200006857600080fd5b5060008054600160a060020a0319163390811790915560408051808201909152600981527f73757065727573657200000000000000000000000000000000000000000000006020820152620000c7919064010000000062000295810204565b60045460408051808201909152600981527f73757065727573657200000000000000000000000000000000000000000000006020820152620001209160059160ff909116906401000000006200267a620003bb82021704565b60045460408051808201909152600681527f656469746f72000000000000000000000000000000000000000000000000000060208201526200017d9160059161010090910460ff1690640100000000620003bb81026200267a1704565b60078054604080518082019091529182527f74727573746564000000000000000000000000000000000000000000000000006020830152620001d491600a9160ff16906401000000006200267a620003bb82021704565b60075460408051808201909152600581527f6b6e6f776e00000000000000000000000000000000000000000000000000000060208201526200023191600a9161010090910460ff1690640100000000620003bb81026200267a1704565b60075460408051808201909152600881527f70696e676261636b00000000000000000000000000000000000000000000000060208201526200028f91600a916201000090910460ff1690640100000000620003bb81026200267a1704565b6200076b565b62000311826001836040518082805190602001908083835b60208310620002ce5780518252601f199092019160209182019101620002ad565b51815160209384036101000a6000190180199092169116179052920194855250604051938490030190922092915050640100000000620005368102620029d31704565b81600160a060020a03167fbfec83d64eaa953f2708271a023ab9ee82057f8f3578d548c1a4ba0b5b700489826040518080602001828103825283818151815260200191508051906020019080838360005b838110156200037c57818101518382015260200162000362565b50505050905090810190601f168015620003aa5780820380516001836020036101000a031916815260200191505b509250505060405180910390a25050565b604080517ff593633c000000000000000000000000000000000000000000000000000000008152600481018590526024810184905290518491849173__LinkedListLib_________________________9163f593633c916044808301926020929190829003018186803b1580156200043257600080fd5b505af415801562000447573d6000803e3d6000fd5b505050506040513d60208110156200045e57600080fd5b505115620004cd57604080517f08c379a000000000000000000000000000000000000000000000000000000000815260206004820152600f60248201527f54616720646f6573206578697374210000000000000000000000000000000000604482015290519081900360640190fd5b620004e9858560006401000000006200210c6200055b82021704565b604080518082018252858152602080820186815260008881526001808b0184529490208351815590518051939491936200052c93928501929190910190620006c6565b5050505050505050565b600160a060020a0316600090815260209190915260409020805460ff19166001179055565b62000573836000848464010000000062000579810204565b50505050565b60008062000591868564010000000062000616810204565b158015620005af5750620005af868664010000000062000616810204565b156200060857506000848152602086815260408083208515158452909152902054620005e78686868664010000000062000695810204565b620005fe8685838664010000000062000695810204565b600191506200060d565b600091505b50949350505050565b60008181526020838152604080832083805290915281205415801562000652575060008281526020848152604080832060018452909152902054155b156200068b576000808052602084815260408083206001845290915290205482141562000682575060016200068f565b5060006200068f565b5060015b92915050565b6000828152602085815260408083209315808452938252808320869055948252948552838120911581529352912055565b828054600181600116156101000203166002900490600052602060002090601f016020900481019282601f106200070957805160ff191683800117855562000739565b8280016001018555821562000739579182015b82811115620007395782518255916020019190600101906200071c565b50620007479291506200074b565b5090565b6200076891905b8082111562000747576000815560010162000752565b90565b612b85806200077b6000396000f30060806040526004361061014e5763ffffffff60e060020a600035041662ce8e3e8114610153578062fba027146101b857806303b4b6ba1461024557806306a0fb621461026b5780630988ca8c1461028057806312f70d92146102e757806313797c151461034a578063217fe6c6146103ad5780632f54bf6e1461042857806346b09d55146104495780634b68d4311461045e5780634ee7b90f146104c557806357c393fa146104da578063715018a6146104fb57806380026a591461051057806386af6f82146105775780638da5cb5b146105db5780639d6abe4f1461060c578063ac4848641461069a578063b7821188146106f3578063bc17fb1414610751578063bceee05e146107c0578063c106bca9146107e1578063ca376fbb14610878578063cdf2bd02146108d1578063d138e46f1461092f578063ebb4f48414610a3d578063f2fde38b14610a52575b600080fd5b34801561015f57600080fd5b50610168610a73565b60408051602080825283518183015283519192839290830191858101910280838360005b838110156101a457818101518382015260200161018c565b505050509050019250505060405180910390f35b3480156101c457600080fd5b506101d0600435610b5b565b6040805160208082528351818301528351919283929083019185019080838360005b8381101561020a5781810151838201526020016101f2565b50505050905090810190601f1680156102375780820380516001836020036101000a031916815260200191505b509250505060405180910390f35b34801561025157600080fd5b50610269600160a060020a0360043516602435610c01565b005b34801561027757600080fd5b50610168610e35565b34801561028c57600080fd5b5060408051602060046024803582810135601f8101859004850286018501909652858552610269958335600160a060020a0316953695604494919390910191908190840183828082843750949750610e8c9650505050505050565b3480156102f357600080fd5b50604080516020600460248035828101358481028087018601909752808652610269968435600160a060020a031696369660449591949091019291829185019084908082843750949750610efa9650505050505050565b34801561035657600080fd5b50604080516020600460248035828101358481028087018601909752808652610269968435600160a060020a031696369660449591949091019291829185019084908082843750949750610f2e9650505050505050565b3480156103b957600080fd5b5060408051602060046024803582810135601f8101859004850286018501909652858552610414958335600160a060020a0316953695604494919390910191908190840183828082843750949750610f629650505050505050565b604080519115158252519081900360200190f35b34801561043457600080fd5b50610414600160a060020a0360043516610fd7565b34801561045557600080fd5b50610168610feb565b34801561046a57600080fd5b5060408051602060046024803582810135601f8101859004850286018501909652858552610269958335600160a060020a03169536956044949193909101919081908401838280828437509497506110429650505050505050565b3480156104d157600080fd5b50610168611137565b3480156104e657600080fd5b50610269600160a060020a036004351661118e565b34801561050757600080fd5b5061026961122d565b34801561051c57600080fd5b5060408051602060046024803582810135601f8101859004850286018501909652858552610269958335600160a060020a03169536956044949193909101919081908401838280828437509497506112999650505050505050565b34801561058357600080fd5b506040805160206004803580820135601f810184900484028501840190955284845261026994369492936024939284019190819084018382808284375094975050509235600160a060020a031693506112cb92505050565b3480156105e757600080fd5b506105f061136c565b60408051600160a060020a039092168252519081900360200190f35b34801561061857600080fd5b5061062d600160a060020a036004351661137b565b6040518083600160a060020a0316600160a060020a0316815260200180602001828103825283818151815260200191508051906020019060200280838360005b8381101561068557818101518382015260200161066d565b50505050905001935050505060405180910390f35b3480156106a657600080fd5b506040805160206004803580820135601f810184900484028501840190955284845261026994369492936024939284019190819084018382808284375094975061149f9650505050505050565b3480156106ff57600080fd5b5060408051602060046024803582810135601f81018590048502860185019096528585526102699583359536956044949193909101919081908401838280828437509497506115eb9650505050505050565b34801561075d57600080fd5b506040805160206004803580820135601f810184900484028501840190955284845261026994369492936024939284019190819084018382808284375094975050600160a060020a03853516955050505050602081013515159060400135611691565b3480156107cc57600080fd5b50610414600160a060020a03600435166118c8565b3480156107ed57600080fd5b506107f96004356118f7565b6040518083815260200180602001828103825283818151815260200191508051906020019080838360005b8381101561083c578181015183820152602001610824565b50505050905090810190601f1680156108695780820380516001836020036101000a031916815260200191505b50935050505060405180910390f35b34801561088457600080fd5b506040805160206004803580820135601f81018490048402850184019095528484526102699436949293602493928401919081908401838280828437509497506119b59650505050505050565b3480156108dd57600080fd5b5060408051602060046024803582810135601f8101859004850286018501909652858552610269958335953695604494919390910191908190840183828082843750949750611abf9650505050505050565b34801561093b57600080fd5b50604080516020600460248035828101358481028087018601909752808652610269968435600160a060020a031696369660449591949091019291829185019084908082843750506040805187358901803560208181028481018201909552818452989b9a998901989297509082019550935083925085019084908082843750506040805187358901803560208181028481018201909552818452989b9a998901989297509082019550935083925085019084908082843750506040805187358901803560208181028481018201909552818452989b9a998901989297509082019550935083925085019084908082843750949750611af99650505050505050565b348015610a4957600080fd5b506101d0611b54565b348015610a5e57600080fd5b50610269600160a060020a0360043516611b79565b6060600373__LinkedListAdvancedExtensionLib________632fc5efe690916040518263ffffffff1660e060020a0281526004018082815260200191505060006040518083038186803b158015610aca57600080fd5b505af4158015610ade573d6000803e3d6000fd5b505050506040513d6000823e601f3d908101601f191682016040526020811015610b0757600080fd5b810190808051640100000000811115610b1f57600080fd5b82016020810184811115610b3257600080fd5b8151856020820283011164010000000082111715610b4f57600080fd5b50909450505050505b90565b6060610b6e600a8363ffffffff611baa16565b60019081018054604080516020600295841615610100026000190190931694909404601f810183900483028501830190915280845290830182828015610bf55780601f10610bca57610100808354040283529160200191610bf5565b820191906000526020600020905b815481529060010190602001808311610bd857829003601f168201915b50505050509050919050565b80610c13600a8263ffffffff611ca716565b1515610c8f576040805160e560020a62461bcd02815260206004820152602a60248201527f4c696e6b207479706520646f6573206e6f74206578697374206f6e207468697360448201527f20636f6e74726163742e00000000000000000000000000000000000000000000606482015290519081900360840190fd5b610ca0600a8363ffffffff611baa16565b60019081018054604080516020600295841615610100026000190190931694909404601f810183900483028501830190915280845290830182828015610d275780601f10610cfc57610100808354040283529160200191610d27565b820191906000526020600020905b815481529060010190602001808311610d0a57829003601f168201915b50505050506002816040518082805190602001908083835b60208310610d5e5780518252601f199092019160209182019101610d3f565b51815160209384036101000a600019018019909216911617905292019485525060405193849003019092205460ff169150819050610da15750610da13382610f62565b1515610e1d576040805160e560020a62461bcd02815260206004820152603160248201527f526f6c652068617320746f20626520696e616374697665206f7220757365722060448201527f68617320746f206861766520726f6c6521000000000000000000000000000000606482015290519081900360840190fd5b610e2f6008858563ffffffff611d5016565b50505050565b6060600573__TagLib________________________________63469e038e90916040518263ffffffff1660e060020a0281526004018082815260200191505060006040518083038186803b158015610aca57600080fd5b610ef6826001836040518082805190602001908083835b60208310610ec25780518252601f199092019160209182019101610ea3565b51815160209384036101000a6000190180199092169116179052920194855250604051938490030190922092915050611ebb565b5050565b600054600160a060020a0316331480610f175750610f17336118c8565b1515610f2257600080fd5b610ef682826005611ed0565b600054600160a060020a0316331480610f4b5750610f4b336118c8565b1515610f5657600080fd5b610ef682826005611fe4565b6000610fce836001846040518082805190602001908083835b60208310610f9a5780518252601f199092019160209182019101610f7b565b51815160209384036101000a60001901801990921691161790529201948552506040519384900301909220929150506120e1565b90505b92915050565b600054600160a060020a0391821691161490565b6060600873__ProvLinkListLib_______________________6315be85ad90916040518263ffffffff1660e060020a0281526004018082815260200191505060006040518083038186803b158015610aca57600080fd5b600054600160a060020a031633148061105f575061105f336118c8565b151561106a57600080fd5b73__LinkedListLib_________________________63f593633c6003611098600160a060020a038616612100565b6040518363ffffffff1660e060020a028152600401808381526020018281526020019250505060206040518083038186803b1580156110d657600080fd5b505af41580156110ea573d6000803e3d6000fd5b505050506040513d602081101561110057600080fd5b5051151561112d5761112d61111d83600160a060020a0316612100565b600390600063ffffffff61210c16565b610ef68282612119565b6060600a73__TagLib________________________________63469e038e90916040518263ffffffff1660e060020a0281526004018082815260200191505060006040518083038186803b158015610aca57600080fd5b6111bb33604080519081016040528060098152602001600080516020612b3a833981519152815250610e8c565b600160a060020a03811615156111d057600080fd5b6111fd33604080519081016040528060098152602001600080516020612b3a83398151915281525061214b565b61122a81604080519081016040528060098152602001600080516020612b3a83398151915281525061225c565b50565b600054600160a060020a0316331461124457600080fd5b60008054604051600160a060020a03909116917ff8df31144d9c2f0f6b59d69b8b98abd5459d07f2742c4df920b25aae33c6482091a26000805473ffffffffffffffffffffffffffffffffffffffff19169055565b600054600160a060020a03163314806112b657506112b6336118c8565b15156112c157600080fd5b610ef6828261214b565b8060006112df60088363ffffffff61232e16565b60075460ff6201000090910481166000908152600183016020526040902054919250161515611358576040805160e560020a62461bcd02815260206004820152601f60248201527f4c696e6b206973206e6f74206f70656e20666f722070696e676261636b732100604482015290519081900360640190fd5b610e2f60088486600163ffffffff61234c16565b600054600160a060020a031681565b6000606061139060088463ffffffff61232e16565b604080517f5f33ad290000000000000000000000000000000000000000000000000000000081526004810192909252600a60248301525173__ProvLinkLib___________________________91635f33ad29916044808301926000929190829003018186803b15801561140257600080fd5b505af4158015611416573d6000803e3d6000fd5b505050506040513d6000823e601f3d908101601f19168201604090815281101561143f57600080fd5b81516020830180519193928301929164010000000081111561146057600080fd5b8201602081018481111561147357600080fd5b815185602082028301116401000000008211171561149057600080fd5b50949650945050505050915091565b600054600160a060020a03163314806114bc57506114bc336118c8565b15156114c757600080fd5b6040805180820190915260098152600080516020612b3a833981519152602082015281906114fb908263ffffffff6124db16565b15611576576040805160e560020a62461bcd02815260206004820152602960248201527f506172616d65746572206973206e6f7420616c6c6f77656420746f206265207360448201527f7570657275736572210000000000000000000000000000000000000000000000606482015290519081900360840190fd5b60016002836040518082805190602001908083835b602083106115aa5780518252601f19909201916020918201910161158b565b51815160209384036101000a60001901801990921691161790529201948552506040519384900301909220805460ff19169315159390931790925550505050565b816115fd600a8263ffffffff611ca716565b15611652576040805160e560020a62461bcd02815260206004820152601a60248201527f4c696e6b20747970652065786973747320616c6c72656164792e000000000000604482015290519081900360640190fd5b600054600160a060020a031633148061166f575061166f336118c8565b151561167a57600080fd5b61168c600a848463ffffffff61267a16565b505050565b806116a3600a8263ffffffff611ca716565b151561171f576040805160e560020a62461bcd02815260206004820152602a60248201527f4c696e6b207479706520646f6573206e6f74206578697374206f6e207468697360448201527f20636f6e74726163742e00000000000000000000000000000000000000000000606482015290519081900360840190fd5b611730600a8363ffffffff611baa16565b60019081018054604080516020600295841615610100026000190190931694909404601f8101839004830285018301909152808452908301828280156117b75780601f1061178c576101008083540402835291602001916117b7565b820191906000526020600020905b81548152906001019060200180831161179a57829003601f168201915b50505050506002816040518082805190602001908083835b602083106117ee5780518252601f1990920191602091820191016117cf565b51815160209384036101000a600019018019909216911617905292019485525060405193849003019092205460ff16915081905061183157506118313382610f62565b15156118ad576040805160e560020a62461bcd02815260206004820152603160248201527f526f6c652068617320746f20626520696e616374697665206f7220757365722060448201527f68617320746f206861766520726f6c6521000000000000000000000000000000606482015290519081900360840190fd5b6118c0600886888763ffffffff61234c16565b505050505050565b6000610fd182604080519081016040528060098152602001600080516020612b3a833981519152815250610f62565b600060608261190d60058263ffffffff611baa16565b600101808054600181600116156101000203166002900480601f0160208091040260200160405190810160405280929190818152602001828054600181600116156101000203166002900480156119a55780601f1061197a576101008083540402835291602001916119a5565b820191906000526020600020905b81548152906001019060200180831161198857829003601f168201915b5050505050905091509150915091565b600054600160a060020a03163314806119d257506119d2336118c8565b15156119dd57600080fd5b6040805180820190915260098152600080516020612b3a83398151915260208201528190611a11908263ffffffff6124db16565b15611a8c576040805160e560020a62461bcd02815260206004820152602960248201527f506172616d65746572206973206e6f7420616c6c6f77656420746f206265207360448201527f7570657275736572210000000000000000000000000000000000000000000000606482015290519081900360840190fd5b6000600283604051808280519060200190808383602083106115aa5780518252601f19909201916020918201910161158b565b600054600160a060020a0316331480611adc5750611adc336118c8565b1515611ae757600080fd5b610ef6600a838363ffffffff6127ce16565b600054600160a060020a0316331480611b165750611b16336118c8565b1515611b2157600080fd5b611b2d8583600a611fe4565b611b378585610f2e565b611b438582600a611ed0565b611b4d8584610efa565b5050505050565b6040805180820190915260098152600080516020612b3a833981519152602082015281565b600054600160a060020a0316331480611b965750611b96336118c8565b1515611ba157600080fd5b61122a816128c6565b600082828160000173__LinkedListLib_________________________63f593633c9091836040518363ffffffff1660e060020a028152600401808381526020018281526020019250505060206040518083038186803b158015611c0d57600080fd5b505af4158015611c21573d6000803e3d6000fd5b505050506040513d6020811015611c3757600080fd5b50511515611c8f576040805160e560020a62461bcd02815260206004820152601360248201527f54616720646f6573206e6f742065786973742100000000000000000000000000604482015290519081900360640190fd5b50505060009081526001919091016020526040902090565b604080517ff593633c0000000000000000000000000000000000000000000000000000000081526004810184905260248101839052905160009173__LinkedListLib_________________________9163f593633c91604480820192602092909190829003018186803b158015611d1d57600080fd5b505af4158015611d31573d6000803e3d6000fd5b505050506040513d6020811015611d4757600080fd5b50519392505050565b6000838373__LinkedListLib_________________________63f593633c83611d81600160a060020a038516612100565b6040518363ffffffff1660e060020a028152600401808381526020018281526020019250505060206040518083038186803b158015611dbf57600080fd5b505af4158015611dd3573d6000803e3d6000fd5b505050506040513d6020811015611de957600080fd5b505115611e40576040805160e560020a62461bcd02815260206004820152601560248201527f4c696e6b20616c6c726561647920657869737473210000000000000000000000604482015290519081900360640190fd5b611e64611e5586600160a060020a0316612100565b8790600063ffffffff61210c16565b505050600160a060020a039091166000818152600193840160209081526040808320805473ffffffffffffffffffffffffffffffffffffffff1916909417845593825291840190915220805460ff19169091179055565b611ec582826120e1565b1515610ef657600080fd5b600080548190600160a060020a0316331480611ef05750611ef0336118c8565b1515611efb57600080fd5b600091505b8351821015611b4d57611f318483815181101515611f1a57fe5b60209081029091010151849063ffffffff611baa16565b9050611fd985826001018054600181600116156101000203166002900480601f016020809104026020016040519081016040528092919081815260200182805460018160011615610100020316600290048015611fcf5780601f10611fa457610100808354040283529160200191611fcf565b820191906000526020600020905b815481529060010190602001808311611fb257829003601f168201915b5050505050611299565b600190910190611f00565b600080548190600160a060020a03163314806120045750612004336118c8565b151561200f57600080fd5b600091505b8351821015611b4d5761202e8483815181101515611f1a57fe5b90506120d685826001018054600181600116156101000203166002900480601f0160208091040260200160405190810160405280929190818152602001828054600181600116156101000203166002900480156120cc5780601f106120a1576101008083540402835291602001916120cc565b820191906000526020600020905b8154815290600101906020018083116120af57829003601f168201915b5050505050611042565b600190910190612014565b600160a060020a03166000908152602091909152604090205460ff1690565b600160a060020a031690565b610e2f8360008484612943565b600054600160a060020a03163314806121365750612136336118c8565b151561214157600080fd5b610ef6828261225c565b6121b5826001836040518082805190602001908083835b602083106121815780518252601f199092019160209182019101612162565b51815160209384036101000a60001901801990921691161790529201948552506040519384900301909220929150506129b1565b81600160a060020a03167fd211483f91fc6eff862467f8de606587a30c8fc9981056f051b897a418df803a826040518080602001828103825283818151815260200191508051906020019080838360005b8381101561221e578181015183820152602001612206565b50505050905090810190601f16801561224b5780820380516001836020036101000a031916815260200191505b509250505060405180910390a25050565b6122c6826001836040518082805190602001908083835b602083106122925780518252601f199092019160209182019101612273565b51815160209384036101000a60001901801990921691161790529201948552506040519384900301909220929150506129d3565b81600160a060020a03167fbfec83d64eaa953f2708271a023ab9ee82057f8f3578d548c1a4ba0b5b700489826040518080602001828103825283818151815260200191508051906020019080838360008381101561221e578181015183820152602001612206565b600160a060020a031660009081526001919091016020526040902090565b838373__LinkedListLib_________________________63f593633c8361237b600160a060020a038516612100565b6040518363ffffffff1660e060020a028152600401808381526020018281526020019250505060206040518083038186803b1580156123b957600080fd5b505af41580156123cd573d6000803e3d6000fd5b505050506040513d60208110156123e357600080fd5b5051151561243b576040805160e560020a62461bcd02815260206004820152601460248201527f4c696e6b20646f6573206e6f7420657869737421000000000000000000000000604482015290519081900360640190fd5b8286600101600087600160a060020a0316600160a060020a03168152602001908152602001600020600201856040518082805190602001908083835b602083106124965780518252601f199092019160209182019101612477565b51815160209384036101000a60001901801990921691161790529201948552506040519384900301909220805460ff1916931515939093179092555050505050505050565b80518251600091146124ef57506000610fd1565b816040516020018082805190602001908083835b602083106125225780518252601f199092019160209182019101612503565b6001836020036101000a0380198251168184511680821785525050505050509050019150506040516020818303038152906040526040518082805190602001908083835b602083106125855780518252601f199092019160209182019101612566565b51815160209384036101000a60001901801990921691161790526040519190930181900381208851909550889450908301928392508401908083835b602083106125e05780518252601f1990920191602091820191016125c1565b6001836020036101000a0380198251168184511680821785525050505050509050019150506040516020818303038152906040526040518082805190602001908083835b602083106126435780518252601f199092019160209182019101612624565b5181516020939093036101000a60001901801990911692169190911790526040519201829003909120939093149695505050505050565b604080517ff593633c000000000000000000000000000000000000000000000000000000008152600481018590526024810184905290518491849173__LinkedListLib_________________________9163f593633c916044808301926020929190829003018186803b1580156126f057600080fd5b505af4158015612704573d6000803e3d6000fd5b505050506040513d602081101561271a57600080fd5b505115612771576040805160e560020a62461bcd02815260206004820152600f60248201527f54616720646f6573206578697374210000000000000000000000000000000000604482015290519081900360640190fd5b6127838585600063ffffffff61210c16565b604080518082018252858152602080820186815260008881526001808b0184529490208351815590518051939491936127c493928501929190910190612aa1565b5050505050505050565b604080517ff593633c000000000000000000000000000000000000000000000000000000008152600481018590526024810184905290518491849173__LinkedListLib_________________________9163f593633c916044808301926020929190829003018186803b15801561284457600080fd5b505af4158015612858573d6000803e3d6000fd5b505050506040513d602081101561286e57600080fd5b50511515612783576040805160e560020a62461bcd02815260206004820152601360248201527f54616720646f6573206e6f742065786973742100000000000000000000000000604482015290519081900360640190fd5b600160a060020a03811615156128db57600080fd5b60008054604051600160a060020a03808516939216917f8be0079c531659141344cd1fd0a4f28419497f9722a3daafe3b4186f6b6457e091a36000805473ffffffffffffffffffffffffffffffffffffffff1916600160a060020a0392909216919091179055565b60008061295086856129f8565b158015612962575061296286866129f8565b156129a35750600084815260208681526040808320851515845290915290205461298e86868686612a70565b61299a86858386612a70565b600191506129a8565b600091505b50949350505050565b600160a060020a0316600090815260209190915260409020805460ff19169055565b600160a060020a0316600090815260209190915260409020805460ff19166001179055565b600081815260208381526040808320838052909152812054158015612a33575060008281526020848152604080832060018452909152902054155b15612a685760008080526020848152604080832060018452909152902054821415612a6057506001610fd1565b506000610fd1565b506001610fd1565b6000828152602085815260408083209315808452938252808320869055948252948552838120911581529352912055565b828054600181600116156101000203166002900490600052602060002090601f016020900481019282601f10612ae257805160ff1916838001178555612b0f565b82800160010185558215612b0f579182015b82811115612b0f578251825591602001919060010190612af4565b50612b1b929150612b1f565b5090565b610b5891905b80821115612b1b5760008155600101612b2556007375706572757365720000000000000000000000000000000000000000000000a165627a7a7230582084266c6a6fda58caa74ba2f4b3e4952bf0122992e395c614ff0d252e08c032360029",
  "source": "pragma solidity ^0.4.24;\n\nimport \"../libs/StringUtils.sol\";\nimport \"../libs/ProvLink/ProvLinkLib.sol\";\nimport \"../libs/ProvLink/ProvLinkListLib.sol\";\nimport \"../libs/TagLib.sol\";\n\nimport \"./UserAccessControl.sol\";\n\ncontract LinkableContract is UserAccessControl {\n    using ProvLinkLib for ProvLinkLib.Link;\n    using ProvLinkListLib for ProvLinkListLib.LinkList;\n    using StringUtils for string;\n    using TagLib for TagLib.TagList;\n\n    struct ReservedTags {\n        uint8 trusted;\n        uint8 known;\n        uint8 pingback;\n    }\n\n    ReservedTags tags = ReservedTags(1,2,3);\n\n    ProvLinkListLib.LinkList private links;\n    TagLib.TagList private linkTypes;\n\n    constructor() public {\n        //todo-sv: how to handle default tags?\n        //--> fix them?\n        //--> introduce reserved tag slots?\n        linkTypes.addTag(tags.trusted, \"trusted\");\n        linkTypes.addTag(tags.known, \"known\");\n        linkTypes.addTag(tags.pingback, \"pingback\");\n    }\n\n    modifier notReserved(uint256 _type) {\n        require(!linkTypes.hasTag(_type), \"Link type exists allready.\");\n        _;\n    }\n\n    modifier isPingbackable(address _contract) {\n        ProvLinkLib.Link storage link = links.getLink(_contract);\n        require(link.types[tags.pingback], \"Link is not open for pingbacks!\");\n        _;\n    }\n\n    modifier validLinkType(uint256 _type) {\n        require(linkTypes.hasTag(_type), \"Link type does not exist on this contract.\");\n        _;\n    }\n\n    /**\n        Users\n    */\n\n    function changeUser(address _user, uint256[] special, uint256[] removedSpecial, uint256[] link, uint256[] removedLink) \n    public \n    onlyOwnerOrSuperuser() {\n        UserAccessControl.addUserWithTagRoles(_user, link, linkTypes);\n        UserAccessControl.addUserWithSpecialRoles(_user, special);\n        UserAccessControl.removeUserWithTagRoles(_user, removedLink, linkTypes);\n        UserAccessControl.removeUserWithSpecialRoles(_user, removedSpecial);\n    }\n\n    function getLinkRolesForUser(address _user) \n    internal\n    view\n    returns(uint256[]) {\n        return getRoles(_user, linkTypes);\n    }\n\n    /**\n        Links \n    */\n\n    //todo-sv: who is allowed to set that a link has provenance?\n    //--> whoever is allowed to add the link in first place?\n    //--> Do we need a has provenance role?\n    function addPingback(string _url, address _contract) \n    public \n    isPingbackable(_contract) {\n        links.setLinkHasProvenance(_contract, _url, true);\n    }\n\n    function setHasProvenanceLink(string _url, address _contract, bool hasProv, uint256 _type) \n    public \n    validLinkType(_type) \n    onlyRoleOrOpenRole(linkTypes.getTag(_type).title) {\n        links.setLinkHasProvenance(_contract, _url, hasProv);\n    }\n\n    //admin basically first enables new list by creating new role :)\n    function addLink(address _contract, uint256 _type) \n    public \n    validLinkType(_type) \n    onlyRoleOrOpenRole(linkTypes.getTag(_type).title) {\n        links.addLink(_contract, _type);\n    }\n\n    function getLinkList()\n    public\n    view\n    returns(address[]) {\n        return links.toReturnValue();\n    }\n\n    function getLink(address link)\n    public\n    view\n    returns(address, uint256[]) {\n        return links.getLink(link).toReturnValue(linkTypes);\n    }\n\n    /**\n        Tags\n    */\n\n    function addLinkType(uint256 _type, string title)\n    public\n    notReserved(_type)\n    //todo-sv: not existing check!!!\n    onlyOwnerOrSuperuser() {\n        linkTypes.addTag(_type, title);\n    }\n\n    function getLinkType(uint256 _type)\n    public \n    view\n    returns(string) {\n        return linkTypes.getTag(_type).title;\n    }\n\n    function getLinkTypes()\n    public\n    view\n    returns(uint256[]) {\n        return linkTypes.toReturnValue();\n    }\n\n    function setTagTitle(uint256 _type, string _title)\n    public\n    onlyOwnerOrSuperuser() {\n        linkTypes.setTagTitle(_type, _title);\n    }\n}",
  "sourcePath": "/home/vauvenal5/repos/github/ProvNet/eth/contracts/contracts/LinkableContract.sol",
  "compiler": {
    "name": "solc",
    "version": "0.4.24+commit.e67f0147.Emscripten.clang"
  },
  "schemaVersion": "2.0.1",
  "updatedAt": "2019-01-05T17:47:03.066Z"
}