{
  "contractName": "LinkedListAdvancedExtensionLib",
  "abi": [
    {
      "constant": true,
      "inputs": [
        {
          "name": "self",
          "type": "LinkedListLib.LinkedList storage"
        }
      ],
      "name": "getKeysArray",
      "outputs": [
        {
          "name": "",
          "type": "uint256[]"
        }
      ],
      "payable": false,
      "stateMutability": "view",
      "type": "function",
      "signature": "0x1bca78ab"
    },
    {
      "constant": true,
      "inputs": [
        {
          "name": "self",
          "type": "LinkedListLib.LinkedList storage"
        }
      ],
      "name": "getKeysAddressArray",
      "outputs": [
        {
          "name": "",
          "type": "address[]"
        }
      ],
      "payable": false,
      "stateMutability": "view",
      "type": "function",
      "signature": "0x2fc5efe6"
    }
  ],
  "bytecode": "0x61053b610030600b82828239805160001a6073146000811461002057610022565bfe5b5030600052607381538281f30073000000000000000000000000000000000000000030146080604052600436106100495763ffffffff60e060020a6000350416631bca78ab811461004e5780632fc5efe6146100a9575b600080fd5b6100596004356100b4565b60408051602080825283518183015283519192839290830191858101910280838360005b8381101561009557818101518382015260200161007d565b505050509050019250505060405180910390f35b6100596004356101bf565b6060806100bf6104f8565b8373__LinkedListLib_________________________637bfa62fb90916040518263ffffffff1660e060020a0281526004018082815260200191505060206040518083038186803b15801561011357600080fd5b505af4158015610127573d6000803e3d6000fd5b505050506040513d602081101561013d57600080fd5b5051604080518281526020808402820101909152908015610168578160200160208202803883390190505b509150610174846102d8565b90505b610187818563ffffffff6102f916565b156101b857610195816104e6565b8261019f836104ea565b815181106101a957fe5b60209081029091010152610177565b5092915050565b6060806101ca6104f8565b8373__LinkedListLib_________________________637bfa62fb90916040518263ffffffff1660e060020a0281526004018082815260200191505060206040518083038186803b15801561021e57600080fd5b505af4158015610232573d6000803e3d6000fd5b505050506040513d602081101561024857600080fd5b5051604080518281526020808402820101909152908015610273578160200160208202803883390190505b50915061027f846102d8565b90505b610292818563ffffffff6102f916565b156101b8576102a86102a3826104e6565b6104f5565b826102b2836104ea565b815181106102bc57fe5b600160a060020a03909216602092830290910190910152610282565b6102e06104f8565b5050604080518082019091526000808252602082015290565b60008060008373__LinkedListExtensionLib________________63ddf223b9909187600001516040518363ffffffff1660e060020a0281526004018083815260200182815260200192505050604080518083038186803b15801561035d57600080fd5b505af4158015610371573d6000803e3d6000fd5b505050506040513d604081101561038757600080fd5b508051602090910151909250905081158061042657506040805160e060020a63cd9495f90281526004810186905260248101839052905173__LinkedListExtensionLib________________9163cd9495f9916044808301926020929190829003018186803b1580156103f957600080fd5b505af415801561040d573d6000803e3d6000fd5b505050506040513d602081101561042357600080fd5b50515b1561043457600092506104de565b6040805160e260020a633d64d8cf0281526004810186905260248101839052905173__LinkedListLib_________________________9163f593633c916044808301926020929190829003018186803b15801561049057600080fd5b505af41580156104a4573d6000803e3d6000fd5b505050506040513d60208110156104ba57600080fd5b5051156104d957602085018051600190810190915281865292506104de565b600092505b505092915050565b5190565b602001516000190190565b90565b6040805180820190915260008082526020820152905600a165627a7a7230582081e2321ed1be691294ebec94f45ddb529501c9f35a2d7cb9b62638a389dc9bf10029",
  "source": "pragma solidity ^0.4.24;\n\nimport \"../../../node_modules/ethereum-libraries-linked-list/contracts/LinkedListLib.sol\";\n\nimport \"./LinkedListIteratorLib.sol\";\nimport \"./LinkedListExtensionLib.sol\";\nimport \"../Uint256Utils.sol\";\n\n/**\n    We need and ExtensionLib and an AdvancedExtensionLib because the IteratorLib builds upon the ExtensionLib and the AdvancedExtension needs the IteratorLib. Moving this function into ExtensionLib would lead to a cyclic dependency between ExtensionLib and IteratorLib.\n*/\nlibrary LinkedListAdvancedExtensionLib {\n    using LinkedListLib for LinkedListLib.LinkedList;\n    using LinkedListExtensionLib for LinkedListLib.LinkedList;\n    using LinkedListIteratorLib for LinkedListIteratorLib.Iterator;\n    using Uint256Utils for uint256;\n\n    function getKeysArray(LinkedListLib.LinkedList storage self)\n    public\n    view\n    returns(uint256[] memory) {\n        uint256[] memory res = new uint256[](self.sizeOf());\n        LinkedListIteratorLib.Iterator memory iterator = self.getIterator();\n        \n        while(iterator.hasNext(self)) {\n            res[iterator.getCounter()] = iterator.next();\n        }\n\n        return res;\n    }\n\n    function getKeysAddressArray(LinkedListLib.LinkedList storage self)\n    public\n    view\n    returns(address[] memory) {\n        address[] memory res = new address[](self.sizeOf());\n        LinkedListIteratorLib.Iterator memory iterator = self.getIterator();\n        \n        while(iterator.hasNext(self)) {\n            res[iterator.getCounter()] = iterator.next().toAddress();\n        }\n\n        return res;\n    }\n}",
  "sourcePath": "/home/vauvenal5/repos/github/comp/ProvNet/eth/contracts/libs/LinkedList/LinkedListAdvancedExtensionLib.sol",
  "compiler": {
    "name": "solc",
    "version": "0.4.24+commit.e67f0147.Emscripten.clang"
  },
  "schemaVersion": "3.0.1",
  "updatedAt": "2019-01-14T14:51:37.921Z",
  "devdoc": {
    "methods": {}
  },
  "userdoc": {
    "methods": {}
  }
}