{
  "contractName": "LinkedListExtensionLib",
  "abi": [
    {
      "constant": true,
      "inputs": [
        {
          "name": "",
          "type": "LinkedListLib.LinkedList storage"
        },
        {
          "name": "node",
          "type": "uint256"
        }
      ],
      "name": "isHead",
      "outputs": [
        {
          "name": "",
          "type": "bool"
        }
      ],
      "payable": false,
      "stateMutability": "pure",
      "type": "function"
    },
    {
      "constant": true,
      "inputs": [
        {
          "name": "self",
          "type": "LinkedListLib.LinkedList storage"
        },
        {
          "name": "_node",
          "type": "uint256"
        }
      ],
      "name": "getAdjacentNext",
      "outputs": [
        {
          "name": "",
          "type": "bool"
        },
        {
          "name": "",
          "type": "uint256"
        }
      ],
      "payable": false,
      "stateMutability": "view",
      "type": "function"
    }
  ],
  "bytecode": "0x61019e610030600b82828239805160001a6073146000811461002057610022565bfe5b5030600052607381538281f30073000000000000000000000000000000000000000030146080604052600436106100625763ffffffff7c0100000000000000000000000000000000000000000000000000000000600035041663cd9495f98114610067578063ddf223b914610089575b600080fd5b6100756004356024356100b2565b604080519115158252519081900360200190f35b6100976004356024356100b8565b60408051921515835260208301919091528051918290030190f35b15919050565b604080517f574047ac0000000000000000000000000000000000000000000000000000000081526004810184905260248101839052600160448201528151600092839273__LinkedListLib_________________________9263574047ac92606480840193919291829003018186803b15801561013457600080fd5b505af4158015610148573d6000803e3d6000fd5b505050506040513d604081101561015e57600080fd5b5080516020909101519095909450925050505600a165627a7a723058203103bcd90f3a685ac8898804c2e12cba40a9f878bbc016dd2c3f03adb9fe0d6c0029",
  "source": "pragma solidity ^0.4.24;\n\nimport \"../../../node_modules/ethereum-libraries-linked-list/contracts/LinkedListLib.sol\";\n\nimport \"./LinkedListIteratorLib.sol\";\n\nlibrary LinkedListExtensionLib {\n    using LinkedListLib for LinkedListLib.LinkedList;\n    using LinkedListExtensionLib for LinkedListLib.LinkedList;\n\n    //fake constants: this way they are only stored on stack until constants issue gets fixed\n    //https://github.com/ethereum/solidity/issues/1290\n    //we actually want to be abel to do: LinkedListLib.HEAD\n    uint256 constant NULL = 0;\n    uint256 constant HEAD = 0;\n    bool constant PREV = false;\n    bool constant NEXT = true;\n\n    function getIterator(LinkedListLib.LinkedList storage) \n    internal \n    pure \n    returns(LinkedListIteratorLib.Iterator memory) {\n        return LinkedListIteratorLib.Iterator(HEAD, 0);\n    }\n\n    function isHead(LinkedListLib.LinkedList storage, uint256 node) \n    public \n    pure \n    returns(bool) {\n        return node == HEAD;\n    }\n\n    function getAdjacentNext(LinkedListLib.LinkedList storage self, uint256 _node) \n    public \n    view \n    returns(bool, uint256) {\n        return self.getAdjacent(_node, NEXT);\n    }\n}",
  "sourcePath": "/home/vauvenal5/repos/github/ProvNet/eth/contracts/libs/LinkedList/LinkedListExtensionLib.sol",
  "compiler": {
    "name": "solc",
    "version": "0.4.24+commit.e67f0147.Emscripten.clang"
  },
  "schemaVersion": "2.0.1",
  "updatedAt": "2019-01-05T22:33:14.358Z"
}