{
  "contractName": "ProvenanceLinkLibraryMock",
  "abi": [
    {
      "constant": true,
      "inputs": [
        {
          "name": "_expectedAddress",
          "type": "address"
        },
        {
          "name": "types",
          "type": "uint256[]"
        }
      ],
      "name": "getLink",
      "outputs": [
        {
          "name": "",
          "type": "address"
        },
        {
          "name": "",
          "type": "bool[]"
        },
        {
          "name": "",
          "type": "bool"
        }
      ],
      "payable": false,
      "stateMutability": "view",
      "type": "function"
    },
    {
      "constant": true,
      "inputs": [],
      "name": "getListSize",
      "outputs": [
        {
          "name": "",
          "type": "uint256"
        }
      ],
      "payable": false,
      "stateMutability": "view",
      "type": "function"
    },
    {
      "constant": false,
      "inputs": [
        {
          "name": "_contract",
          "type": "address"
        },
        {
          "name": "_type",
          "type": "uint256"
        }
      ],
      "name": "addLink",
      "outputs": [],
      "payable": false,
      "stateMutability": "nonpayable",
      "type": "function"
    },
    {
      "constant": true,
      "inputs": [
        {
          "name": "_eAddress",
          "type": "address"
        },
        {
          "name": "_eUrl",
          "type": "string"
        }
      ],
      "name": "isLinkHasProvenance",
      "outputs": [
        {
          "name": "",
          "type": "bool"
        }
      ],
      "payable": false,
      "stateMutability": "view",
      "type": "function"
    },
    {
      "constant": false,
      "inputs": [
        {
          "name": "_contract",
          "type": "address"
        },
        {
          "name": "_url",
          "type": "string"
        },
        {
          "name": "_hasProvenance",
          "type": "bool"
        }
      ],
      "name": "setLinkHasProvenance",
      "outputs": [],
      "payable": false,
      "stateMutability": "nonpayable",
      "type": "function"
    },
    {
      "constant": false,
      "inputs": [
        {
          "name": "_contract",
          "type": "address"
        },
        {
          "name": "_type",
          "type": "uint256"
        },
        {
          "name": "_url",
          "type": "string"
        }
      ],
      "name": "addLinkWithProvenance",
      "outputs": [],
      "payable": false,
      "stateMutability": "nonpayable",
      "type": "function"
    },
    {
      "constant": true,
      "inputs": [
        {
          "name": "_type",
          "type": "uint256"
        }
      ],
      "name": "getLinkCountForType",
      "outputs": [
        {
          "name": "",
          "type": "uint256"
        }
      ],
      "payable": false,
      "stateMutability": "view",
      "type": "function"
    },
    {
      "constant": true,
      "inputs": [
        {
          "name": "_url",
          "type": "string"
        }
      ],
      "name": "getLinkCountForUrl",
      "outputs": [
        {
          "name": "",
          "type": "uint256"
        }
      ],
      "payable": false,
      "stateMutability": "view",
      "type": "function"
    },
    {
      "constant": true,
      "inputs": [
        {
          "name": "_type",
          "type": "uint256"
        },
        {
          "name": "_url",
          "type": "string"
        }
      ],
      "name": "getLinkCountForUrlAndType",
      "outputs": [
        {
          "name": "",
          "type": "uint256"
        }
      ],
      "payable": false,
      "stateMutability": "view",
      "type": "function"
    },
    {
      "constant": true,
      "inputs": [
        {
          "name": "_type",
          "type": "uint256"
        }
      ],
      "name": "getLinkListForType",
      "outputs": [
        {
          "name": "",
          "type": "address[]"
        }
      ],
      "payable": false,
      "stateMutability": "view",
      "type": "function"
    }
  ],
  "bytecode": "0x608060405234801561001057600080fd5b506112f1806100206000396000f30060806040526004361061008a5763ffffffff60e060020a60003504166303b4b6ba811461008f57806310877c75146100b55780633ef28774146101305780634196431c1461015a5780634a89a6c8146101c557806375c02e92146101da578063821a4e2c146102aa578063a79c074014610313578063adcf835b14610371578063e0bf61ab146103ca575b600080fd5b34801561009b57600080fd5b506100b3600160a060020a0360043516602435610432565b005b3480156100c157600080fd5b5060408051602060046024803582810135601f810185900485028601850190965285855261011c958335600160a060020a03169536956044949193909101919081908401838280828437509497506104489650505050505050565b604080519115158252519081900360200190f35b34801561013c57600080fd5b506101486004356104d3565b60408051918252519081900360200190f35b34801561016657600080fd5b5060408051602060046024803582810135601f81018590048502860185019096528585526100b3958335600160a060020a03169536956044949193909101919081908401838280828437509497505050509135151592506104eb915050565b3480156101d157600080fd5b50610148610503565b3480156101e657600080fd5b5060408051602060046024803582810135848102808701860190975280865261023d968435600160a060020a0316963696604495919490910192918291850190849080828437509497506105a19650505050505050565b60408051600160a060020a0385168152821515918101919091526060602080830182815285519284019290925284516080840191868101910280838360005b8381101561029457818101518382015260200161027c565b5050505090500194505050505060405180910390f35b3480156102b657600080fd5b50604080516020600460443581810135601f81018490048402850184019095528484526100b3948235600160a060020a03169460248035953695946064949201919081908401838280828437509497506107279650505050505050565b34801561031f57600080fd5b5060408051602060046024803582810135601f810185900485028601850190965285855261014895833595369560449491939091019190819084018382808284375094975061073a9650505050505050565b34801561037d57600080fd5b506040805160206004803580820135601f81018490048402850184019095528484526101489436949293602493928401919081908401838280828437509497506107549650505050505050565b3480156103d657600080fd5b506103e2600435610766565b60408051602080825283518183015283519192839290830191858101910280838360005b8381101561041e578181015183820152602001610406565b505050509050019250505060405180910390f35b6104446000838363ffffffff61086a16565b5050565b600160a060020a038216600090815260016020908152604080832090518451919260028401928692918291908401908083835b6020831061049a5780518252601f19909201916020918201910161047b565b51815160209384036101000a600019018019909216911617905292019485525060405193849003019092205460ff169695505050505050565b60006104e5818363ffffffff6109ec16565b92915050565b6104fe600084848463ffffffff610a5f16565b505050565b604080517f7bfa62fb000000000000000000000000000000000000000000000000000000008152600060048201819052915173__LinkedListLib_________________________91637bfa62fb916024808301926020929190829003018186803b15801561057057600080fd5b505af4158015610584573d6000803e3d6000fd5b505050506040513d602081101561059a57600080fd5b5051905090565b600160a060020a0382166000818152600160205260408120909160609183918290849082906105cf90610c05565b925087516040519080825280602002602001820160405280156105fc578160200160208202803883390190505b509150600090505b875181101561066657836001016000898381518110151561062157fe5b6020908102909101810151825281019190915260400160002054825160ff9091169083908390811061064f57fe5b911515602092830290910190910152600101610604565b8354604080517ff593633c00000000000000000000000000000000000000000000000000000000815260006004820152602481018690529051600160a060020a0390921691849173__LinkedListLib_________________________9163f593633c91604480820192602092909190829003018186803b1580156106e957600080fd5b505af41580156106fd573d6000803e3d6000fd5b505050506040513d602081101561071357600080fd5b505191985096509450505050509250925092565b6104fe600084848463ffffffff610c1116565b600061074d81848463ffffffff610c3b16565b9392505050565b60006104e5818363ffffffff610d3016565b604080517f379daa2f00000000000000000000000000000000000000000000000000000000815260006004820181905260248201849052915160609273__ProvLinkQueryLib______________________9263379daa2f9260448083019392829003018186803b1580156107d957600080fd5b505af41580156107ed573d6000803e3d6000fd5b505050506040513d6000823e601f3d908101601f19168201604052602081101561081657600080fd5b81019080805164010000000081111561082e57600080fd5b8201602081018481111561084157600080fd5b815185602082028301116401000000008211171561085e57600080fd5b50909695505050505050565b6000838373__LinkedListLib_________________________63f593633c8361089b600160a060020a038516610c05565b6040518363ffffffff1660e060020a028152600401808381526020018281526020019250505060206040518083038186803b1580156108d957600080fd5b505af41580156108ed573d6000803e3d6000fd5b505050506040513d602081101561090357600080fd5b50511561097157604080517f08c379a000000000000000000000000000000000000000000000000000000000815260206004820152601560248201527f4c696e6b20616c6c726561647920657869737473210000000000000000000000604482015290519081900360640190fd5b61099561098686600160a060020a0316610c05565b8790600063ffffffff610d9816565b505050600160a060020a039091166000818152600193840160209081526040808320805473ffffffffffffffffffffffffffffffffffffffff1916909417845593825291840190915220805460ff19169091179055565b60006109f66112ae565b6000806000610a0487610da5565b935060009250610a1b84888863ffffffff610db616565b915091505b8115610a5457610a3783600163ffffffff610e3c16565b9250610a4a84888863ffffffff610db616565b9092509050610a20565b509095945050505050565b838373__LinkedListLib_________________________63f593633c83610a8e600160a060020a038516610c05565b6040518363ffffffff1660e060020a028152600401808381526020018281526020019250505060206040518083038186803b158015610acc57600080fd5b505af4158015610ae0573d6000803e3d6000fd5b505050506040513d6020811015610af657600080fd5b50511515610b6557604080517f08c379a000000000000000000000000000000000000000000000000000000000815260206004820152601460248201527f4c696e6b20646f6573206e6f7420657869737421000000000000000000000000604482015290519081900360640190fd5b8286600101600087600160a060020a0316600160a060020a03168152602001908152602001600020600201856040518082805190602001908083835b60208310610bc05780518252601f199092019160209182019101610ba1565b51815160209384036101000a60001901801990921691161790529201948552506040519384900301909220805460ff1916931515939093179092555050505050505050565b600160a060020a031690565b610c2284848463ffffffff61086a16565b610c35848483600163ffffffff610a5f16565b50505050565b6000610c456112ae565b600080600080610c5489610da5565b945060009350610c6b858a8a63ffffffff610db616565b925092505b8215610d2357610c86898363ffffffff610e4916565b905080600201876040518082805190602001908083835b60208310610cbc5780518252601f199092019160209182019101610c9d565b51815160209384036101000a600019018019909216911617905292019485525060405193849003019092205460ff16159150610d08905057610d0584600163ffffffff610e3c16565b93505b610d19858a8a63ffffffff610db616565b9093509150610c70565b5091979650505050505050565b6000610d3a6112ae565b6000806000610d4887610da5565b935060009250610d5f84888863ffffffff610e6416565b915091505b8115610a5457610d7b83600163ffffffff610e3c16565b9250610d8e84888863ffffffff610e6416565b9092509050610d64565b610c358360008484610f29565b610dad6112ae565b6104e582610f97565b600080808080610dcc888863ffffffff610fb816565b925092505b8215610e2957610de7878363ffffffff610e4916565b600087815260018201602052604090205490915060ff1615610e0f5760018294509450610e31565b610e1f888863ffffffff610fb816565b9093509150610dd1565b600094508493505b505050935093915050565b818101828110156104e557fe5b600061074d610e57836111e4565b849063ffffffff6111e716565b600080808080610e7a888863ffffffff610fb816565b925092505b8215610e2957610e95878363ffffffff610e4916565b905080600201866040518082805190602001908083835b60208310610ecb5780518252601f199092019160209182019101610eac565b51815160209384036101000a600019018019909216911617905292019485525060405193849003019092205460ff16159150610f0f90505760018294509450610e31565b610f1f888863ffffffff610fb816565b9093509150610e7f565b600080610f368685611205565b158015610f485750610f488686611205565b15610f8957506000848152602086815260408083208515158452909152902054610f748686868661127d565b610f808685838661127d565b60019150610f8e565b600091505b50949350505050565b610f9f6112ae565b5050604080518082019091526000808252602082015290565b8151604080517fddf223b9000000000000000000000000000000000000000000000000000000008152600481018490526024810192909252805160009283928392839273__LinkedListExtensionLib________________9263ddf223b992604480840193829003018186803b15801561103157600080fd5b505af4158015611045573d6000803e3d6000fd5b505050506040513d604081101561105b57600080fd5b50805160209091015190925090508115806111105750604080517fcd9495f90000000000000000000000000000000000000000000000000000000081526004810187905260248101839052905173__LinkedListExtensionLib________________9163cd9495f9916044808301926020929190829003018186803b1580156110e357600080fd5b505af41580156110f7573d6000803e3d6000fd5b505050506040513d602081101561110d57600080fd5b50515b1561112157600093508392506111db565b604080517ff593633c0000000000000000000000000000000000000000000000000000000081526004810187905260248101839052905173__LinkedListLib_________________________9163f593633c916044808301926020929190829003018186803b15801561119357600080fd5b505af41580156111a7573d6000803e3d6000fd5b505050506040513d60208110156111bd57600080fd5b5051156111d357808652600193509150816111db565b600093508392505b50509250929050565b90565b600160a060020a031660009081526001919091016020526040902090565b600081815260208381526040808320838052909152812054158015611240575060008281526020848152604080832060018452909152902054155b15611275576000808052602084815260408083206001845290915290205482141561126d575060016104e5565b5060006104e5565b5060016104e5565b6000828152602085815260408083209315808452938252808320869055948252948552838120911581529352912055565b6040805180820190915260008082526020820152905600a165627a7a72305820518ab041df6c20ac4657098850d7a1d1b8b6ac8c14056898f0cceac93420175d0029",
  "source": "pragma solidity ^0.4.24;\n\nimport \"../libs/ProvLink/ProvLinkLib.sol\";\nimport \"../libs/ProvLink/ProvLinkListLib.sol\";\nimport \"../libs/AddressUtils.sol\";\nimport \"../libs/ProvLink/ProvLinkQueryLib.sol\";\nimport \"../libs/TagLib.sol\";\n\ncontract ProvenanceLinkLibraryMock {\n    using ProvLinkListLib for ProvLinkListLib.LinkList;\n    using ProvLinkQueryLib for ProvLinkListLib.LinkList;\n    using TagLib for TagLib.TagList;\n    using LinkedListLib for LinkedListLib.LinkedList;\n    using AddressUtils for address;\n\n    ProvLinkListLib.LinkList private links;\n\n    function getLink(address _expectedAddress, uint256[] types) public view returns (address, bool[], bool) {\n        ProvLinkLib.Link storage actualLink = links.links[_expectedAddress];\n        uint256 node = _expectedAddress.toUint256();\n        bool[] memory tagValues = new bool[](types.length);\n        \n        for(uint256 i = 0; i < types.length;i ++) {\n            tagValues[i] = actualLink.types[types[i]];\n        }\n\n        return (actualLink.provenanceContract, tagValues, links.keys.nodeExists(node));\n    }\n\n    function getListSize() public view returns (uint256) {\n        return links.keys.sizeOf();\n    }\n\n    //todo-sv: this has to be improved at some point\n    function addLink(address _contract, uint256 _type) public {\n        links.addLink(_contract, _type);\n    }\n\n    // function addLink(address _contract, uint256 _type, string _typeName) internal {\n    //     links.addLink(_contract, TagLib.Tag(_type, _typeName));\n    // }\n\n    function isLinkHasProvenance(address _eAddress, string _eUrl) public view returns (bool) {\n        ProvLinkLib.Link storage actualLink = links.links[_eAddress];\n        return actualLink.hasProvenance[_eUrl];\n    }\n\n    function setLinkHasProvenance(address _contract, string _url, bool _hasProvenance) public {\n        links.setLinkHasProvenance(_contract, _url, _hasProvenance);\n    }\n\n    function addLinkWithProvenance(address _contract, uint256 _type, string _url) public {\n        links.addLink(_contract, _type, _url);\n    }\n\n    function getLinkCountForType(uint256 _type) public view returns (uint256) {\n        return links.getLinkCountForType(_type);\n    }\n\n    function getLinkCountForUrl(string _url) public view returns (uint256) {\n        return links.getLinkCountForUrl(_url);\n    }\n\n    function getLinkCountForUrlAndType(uint256 _type, string _url) public view returns (uint256) {\n        return links.getLinkCountForUrlAndType(_type, _url);\n    }\n\n    function getLinkListForType(uint256 _type) public view returns (address[]) {\n        return links.getLinkListForType(_type);\n    }\n}",
  "sourcePath": "/home/vauvenal5/repos/github/ProvNet/eth/contracts/mocks/ProvenanceLinkLibraryMock.sol",
  "compiler": {
    "name": "solc",
    "version": "0.4.24+commit.e67f0147.Emscripten.clang"
  },
  "schemaVersion": "2.0.1",
  "updatedAt": "2019-01-05T22:33:14.382Z"
}