{
  "contractName": "ProvLinkListLib",
  "abi": [
    {
      "constant": true,
      "inputs": [
        {
          "name": "self",
          "type": "ProvLinkListLib.LinkList storage"
        }
      ],
      "name": "toReturnValue",
      "outputs": [
        {
          "name": "",
          "type": "address[]"
        }
      ],
      "payable": false,
      "stateMutability": "view",
      "type": "function",
      "signature": "0x15be85ad"
    }
  ],
  "bytecode": "0x6101b2610030600b82828239805160001a6073146000811461002057610022565bfe5b5030600052607381538281f300730000000000000000000000000000000000000000301460806040526004361061003e5763ffffffff60e060020a60003504166315be85ad8114610043575b600080fd5b61004e60043561009e565b60408051602080825283518183015283519192839290830191858101910280838360005b8381101561008a578181015183820152602001610072565b505050509050019250505060405180910390f35b60608160000173__LinkedListAdvancedExtensionLib________632fc5efe690916040518263ffffffff1660e060020a0281526004018082815260200191505060006040518083038186803b1580156100f757600080fd5b505af415801561010b573d6000803e3d6000fd5b505050506040513d6000823e601f3d908101601f19168201604052602081101561013457600080fd5b810190808051602060020a81111561014b57600080fd5b8201602081018481111561015e57600080fd5b81518560208202830111602060020a8211171561017a57600080fd5b509096955050505050505600a165627a7a72305820b20ee2331ab8439cc0e2810f97ddf68128b207fd22f06f68c5956826174f92da0029",
  "source": "pragma solidity ^0.4.24;\n\nimport \"../../../node_modules/ethereum-libraries-linked-list/contracts/LinkedListLib.sol\";\nimport \"../AddressUtils.sol\";\nimport \"../TagLib.sol\";\nimport \"../Uint256Utils.sol\";\nimport \"../LinkedList/LinkedListExtensionLib.sol\";\nimport \"../LinkedList/LinkedListIteratorLib.sol\";\nimport \"./ProvLinkLib.sol\";\nimport \"../LinkedList/LinkedListAdvancedExtensionLib.sol\";\n\nlibrary ProvLinkListLib {\n    using ProvLinkLib for ProvLinkLib.Link;\n    using ProvLinkListLib for ProvLinkListLib.LinkList;\n    using LinkedListLib for LinkedListLib.LinkedList;\n    using LinkedListExtensionLib for LinkedListLib.LinkedList;\n    using LinkedListIteratorLib for LinkedListIteratorLib.Iterator;\n    using TagLib for TagLib.TagList;\n    using AddressUtils for address;\n    using Uint256Utils for uint256;\n    using LinkedListAdvancedExtensionLib for LinkedListLib.LinkedList;\n\n    struct LinkList {\n        LinkedListLib.LinkedList keys;\n        mapping (address => ProvLinkLib.Link) links;\n    }\n\n    modifier linkExists(LinkList storage self, address index) {\n        require(self.keys.nodeExists(index.toUint256()), \"Link does not exist!\");\n        _;\n    }\n\n    // modifier linkDoesNotExist(LinkList storage self, address index) {\n    //     require(!self.keys.nodeExists(index.toUint256()), \"Link allready exists!\");\n    //     _;\n    // }\n\n    //todo-sv: read up on function modifiers in libraries; are there any security risks? will the access control in the contract function like expected?\n    function addLink(LinkList storage self, address _contract, uint256 _type) internal {\n    //linkDoesNotExist(self, _contract) {\n        if(!self.keys.nodeExists(_contract.toUint256())) {\n            self.keys.push(_contract.toUint256(), false);\n        }\n        \n        ProvLinkLib.Link storage link = self.links[_contract];\n        link.provenanceContract = _contract;\n        link.types[_type] = true;\n    }\n\n    //todo-sv: check if modifiers get applied to this function\n    function addLink(LinkList storage self, address _contract, uint256 _type, string _url) internal {\n        self.addLink(_contract, _type);\n        self.setLinkHasProvenance(_contract, _url, true);\n    }\n\n    function removeLink(LinkList storage self, address _contract) internal \n    linkExists(self, _contract) {\n        self.keys.remove(_contract.toUint256());\n        //todo: value is only removed from index not from mapping... problem?\n    }\n\n\n    //todo-sv: not a list operation... move to link\n    function setLinkHasProvenance(LinkList storage self, address _contract, string _url, bool _hasProvenance) internal \n    linkExists(self, _contract){\n        self.links[_contract].hasProvenance[_url] = _hasProvenance;\n    }\n\n    function getLink(ProvLinkListLib.LinkList storage self, uint256 _pointer) internal \n    view \n    returns (ProvLinkLib.Link storage) {\n        return self.getLink(_pointer.toAddress());\n    }\n\n    //todo-sv: check exists is missing\n    function getLink(ProvLinkListLib.LinkList storage self, address _pointer) internal \n    view \n    returns (ProvLinkLib.Link storage) {\n        return self.links[_pointer];\n    }\n\n    function getIterator(ProvLinkListLib.LinkList storage self) \n    internal \n    view \n    returns(LinkedListIteratorLib.Iterator) {\n        return self.keys.getIterator();\n    }\n\n    function toReturnValue(ProvLinkListLib.LinkList storage self)\n    public\n    view\n    returns(address[]) {\n        return self.keys.getKeysAddressArray();\n    }\n}",
  "sourcePath": "/home/vauvenal5/repos/github/comp/ProvNet/eth/contracts/libs/ProvLink/ProvLinkListLib.sol",
  "compiler": {
    "name": "solc",
    "version": "0.4.24+commit.e67f0147.Emscripten.clang"
  },
  "schemaVersion": "3.0.1",
  "updatedAt": "2019-01-14T14:51:37.945Z",
  "devdoc": {
    "methods": {}
  },
  "userdoc": {
    "methods": {}
  }
}