{
  "contractName": "ProvenanceLinkLibraryMock",
  "abi": [
    {
      "constant": true,
      "inputs": [
        {
          "name": "_expectedAddress",
          "type": "address"
        },
        {
          "name": "types",
          "type": "uint256[]"
        }
      ],
      "name": "getLink",
      "outputs": [
        {
          "name": "",
          "type": "address"
        },
        {
          "name": "",
          "type": "bool[]"
        },
        {
          "name": "",
          "type": "bool"
        }
      ],
      "payable": false,
      "stateMutability": "view",
      "type": "function"
    },
    {
      "constant": true,
      "inputs": [],
      "name": "getListSize",
      "outputs": [
        {
          "name": "",
          "type": "uint256"
        }
      ],
      "payable": false,
      "stateMutability": "view",
      "type": "function"
    },
    {
      "constant": false,
      "inputs": [
        {
          "name": "_contract",
          "type": "address"
        },
        {
          "name": "_type",
          "type": "uint256"
        }
      ],
      "name": "addLink",
      "outputs": [],
      "payable": false,
      "stateMutability": "nonpayable",
      "type": "function"
    },
    {
      "constant": true,
      "inputs": [
        {
          "name": "_eAddress",
          "type": "address"
        },
        {
          "name": "_eUrl",
          "type": "string"
        }
      ],
      "name": "isLinkHasProvenance",
      "outputs": [
        {
          "name": "",
          "type": "bool"
        }
      ],
      "payable": false,
      "stateMutability": "view",
      "type": "function"
    },
    {
      "constant": false,
      "inputs": [
        {
          "name": "_contract",
          "type": "address"
        },
        {
          "name": "_url",
          "type": "string"
        },
        {
          "name": "_hasProvenance",
          "type": "bool"
        }
      ],
      "name": "setLinkHasProvenance",
      "outputs": [],
      "payable": false,
      "stateMutability": "nonpayable",
      "type": "function"
    },
    {
      "constant": false,
      "inputs": [
        {
          "name": "_contract",
          "type": "address"
        },
        {
          "name": "_type",
          "type": "uint256"
        },
        {
          "name": "_url",
          "type": "string"
        }
      ],
      "name": "addLinkWithProvenance",
      "outputs": [],
      "payable": false,
      "stateMutability": "nonpayable",
      "type": "function"
    },
    {
      "constant": true,
      "inputs": [
        {
          "name": "_type",
          "type": "uint256"
        }
      ],
      "name": "getLinkCountForType",
      "outputs": [
        {
          "name": "",
          "type": "uint256"
        }
      ],
      "payable": false,
      "stateMutability": "view",
      "type": "function"
    },
    {
      "constant": true,
      "inputs": [
        {
          "name": "_url",
          "type": "string"
        }
      ],
      "name": "getLinkCountForUrl",
      "outputs": [
        {
          "name": "",
          "type": "uint256"
        }
      ],
      "payable": false,
      "stateMutability": "view",
      "type": "function"
    },
    {
      "constant": true,
      "inputs": [
        {
          "name": "_type",
          "type": "uint256"
        },
        {
          "name": "_url",
          "type": "string"
        }
      ],
      "name": "getLinkCountForUrlAndType",
      "outputs": [
        {
          "name": "",
          "type": "uint256"
        }
      ],
      "payable": false,
      "stateMutability": "view",
      "type": "function"
    },
    {
      "constant": true,
      "inputs": [
        {
          "name": "_type",
          "type": "uint256"
        }
      ],
      "name": "getLinkListForType",
      "outputs": [
        {
          "name": "",
          "type": "address[]"
        }
      ],
      "payable": false,
      "stateMutability": "view",
      "type": "function"
    }
  ],
  "bytecode": "0x608060405234801561001057600080fd5b506111d7806100206000396000f30060806040526004361061008a5763ffffffff60e060020a60003504166303b4b6ba811461008f57806310877c75146100b55780633ef28774146101305780634196431c1461015a5780634a89a6c8146101c557806375c02e92146101da578063821a4e2c146102aa578063a79c074014610313578063adcf835b14610371578063e0bf61ab146103ca575b600080fd5b34801561009b57600080fd5b506100b3600160a060020a0360043516602435610432565b005b3480156100c157600080fd5b5060408051602060046024803582810135601f810185900485028601850190965285855261011c958335600160a060020a03169536956044949193909101919081908401838280828437509497506104489650505050505050565b604080519115158252519081900360200190f35b34801561013c57600080fd5b506101486004356104d3565b60408051918252519081900360200190f35b34801561016657600080fd5b5060408051602060046024803582810135601f81018590048502860185019096528585526100b3958335600160a060020a03169536956044949193909101919081908401838280828437509497505050509135151592506104eb915050565b3480156101d157600080fd5b50610148610503565b3480156101e657600080fd5b5060408051602060046024803582810135848102808701860190975280865261023d968435600160a060020a03169636966044959194909101929182918501908490808284375094975061058b9650505050505050565b60408051600160a060020a0385168152821515918101919091526060602080830182815285519284019290925284516080840191868101910280838360005b8381101561029457818101518382015260200161027c565b5050505090500194505050505060405180910390f35b3480156102b657600080fd5b50604080516020600460443581810135601f81018490048402850184019095528484526100b3948235600160a060020a03169460248035953695946064949201919081908401838280828437509497506106fb9650505050505050565b34801561031f57600080fd5b5060408051602060046024803582810135601f810185900485028601850190965285855261014895833595369560449491939091019190819084018382808284375094975061070e9650505050505050565b34801561037d57600080fd5b506040805160206004803580820135601f81018490048402850184019095528484526101489436949293602493928401919081908401838280828437509497506107289650505050505050565b3480156103d657600080fd5b506103e260043561073a565b60408051602080825283518183015283519192839290830191858101910280838360005b8381101561041e578181015183820152602001610406565b505050509050019250505060405180910390f35b6104446000838363ffffffff61082616565b5050565b600160a060020a038216600090815260016020908152604080832090518451919260028401928692918291908401908083835b6020831061049a5780518252601f19909201916020918201910161047b565b51815160209384036101000a600019018019909216911617905292019485525060405193849003019092205460ff169695505050505050565b60006104e5818363ffffffff61093116565b92915050565b6104fe600084848463ffffffff6109a416565b505050565b6040805160e060020a637bfa62fb028152600060048201819052915173__LinkedListLib_________________________91637bfa62fb916024808301926020929190829003018186803b15801561055a57600080fd5b505af415801561056e573d6000803e3d6000fd5b505050506040513d602081101561058457600080fd5b5051905090565b600160a060020a0382166000818152600160205260408120909160609183918290849082906105b990610b2d565b925087516040519080825280602002602001820160405280156105e6578160200160208202803883390190505b509150600090505b875181101561065057836001016000898381518110151561060b57fe5b6020908102909101810151825281019190915260400160002054825160ff9091169083908390811061063957fe5b9115156020928302909101909101526001016105ee565b83546040805160e260020a633d64d8cf02815260006004820152602481018690529051600160a060020a0390921691849173__LinkedListLib_________________________9163f593633c91604480820192602092909190829003018186803b1580156106bd57600080fd5b505af41580156106d1573d6000803e3d6000fd5b505050506040513d60208110156106e757600080fd5b505191985096509450505050509250925092565b6104fe600084848463ffffffff610b3916565b600061072181848463ffffffff610b6316565b9392505050565b60006104e5818363ffffffff610c5816565b6040805160e060020a63379daa2f02815260006004820181905260248201849052915160609273__ProvLinkQueryLib______________________9263379daa2f9260448083019392829003018186803b15801561079757600080fd5b505af41580156107ab573d6000803e3d6000fd5b505050506040513d6000823e601f3d908101601f1916820160405260208110156107d457600080fd5b810190808051602060020a8111156107eb57600080fd5b820160208101848111156107fe57600080fd5b81518560208202830111602060020a8211171561081a57600080fd5b50909695505050505050565b600073__LinkedListLib_________________________63f593633c85610855600160a060020a038716610b2d565b6040518363ffffffff1660e060020a028152600401808381526020018281526020019250505060206040518083038186803b15801561089357600080fd5b505af41580156108a7573d6000803e3d6000fd5b505050506040513d60208110156108bd57600080fd5b505115156108e9576108e96108da84600160a060020a0316610b2d565b8590600063ffffffff610cc016565b50600160a060020a0390911660008181526001938401602090815260408083208054600160a060020a031916909417845593825291840190915220805460ff19169091179055565b600061093b611194565b600080600061094987610ccd565b93506000925061096084888863ffffffff610cde16565b915091505b81156109995761097c83600163ffffffff610d6416565b925061098f84888863ffffffff610cde16565b9092509050610965565b509095945050505050565b838373__LinkedListLib_________________________63f593633c836109d3600160a060020a038516610b2d565b6040518363ffffffff1660e060020a028152600401808381526020018281526020019250505060206040518083038186803b158015610a1157600080fd5b505af4158015610a25573d6000803e3d6000fd5b505050506040513d6020811015610a3b57600080fd5b50511515610a8d576040805160e560020a62461bcd0281526020600482015260146024820152606060020a734c696e6b20646f6573206e6f742065786973742102604482015290519081900360640190fd5b8286600101600087600160a060020a0316600160a060020a03168152602001908152602001600020600201856040518082805190602001908083835b60208310610ae85780518252601f199092019160209182019101610ac9565b51815160209384036101000a60001901801990921691161790529201948552506040519384900301909220805460ff1916931515939093179092555050505050505050565b600160a060020a031690565b610b4a84848463ffffffff61082616565b610b5d848483600163ffffffff6109a416565b50505050565b6000610b6d611194565b600080600080610b7c89610ccd565b945060009350610b93858a8a63ffffffff610cde16565b925092505b8215610c4b57610bae898363ffffffff610d7116565b905080600201876040518082805190602001908083835b60208310610be45780518252601f199092019160209182019101610bc5565b51815160209384036101000a600019018019909216911617905292019485525060405193849003019092205460ff16159150610c30905057610c2d84600163ffffffff610d6416565b93505b610c41858a8a63ffffffff610cde16565b9093509150610b98565b5091979650505050505050565b6000610c62611194565b6000806000610c7087610ccd565b935060009250610c8784888863ffffffff610d8c16565b915091505b811561099957610ca383600163ffffffff610d6416565b9250610cb684888863ffffffff610d8c16565b9092509050610c8c565b610b5d8360008484610e51565b610cd5611194565b6104e582610ebf565b600080808080610cf4888863ffffffff610ee016565b925092505b8215610d5157610d0f878363ffffffff610d7116565b600087815260018201602052604090205490915060ff1615610d375760018294509450610d59565b610d47888863ffffffff610ee016565b9093509150610cf9565b600094508493505b505050935093915050565b818101828110156104e557fe5b6000610721610d7f836110ca565b849063ffffffff6110cd16565b600080808080610da2888863ffffffff610ee016565b925092505b8215610d5157610dbd878363ffffffff610d7116565b905080600201866040518082805190602001908083835b60208310610df35780518252601f199092019160209182019101610dd4565b51815160209384036101000a600019018019909216911617905292019485525060405193849003019092205460ff16159150610e3790505760018294509450610d59565b610e47888863ffffffff610ee016565b9093509150610da7565b600080610e5e86856110eb565b158015610e705750610e7086866110eb565b15610eb157506000848152602086815260408083208515158452909152902054610e9c86868686611163565b610ea886858386611163565b60019150610eb6565b600091505b50949350505050565b610ec7611194565b5050604080518082019091526000808252602082015290565b81516040805160e060020a63ddf223b9028152600481018490526024810192909252805160009283928392839273__LinkedListExtensionLib________________9263ddf223b992604480840193829003018186803b158015610f4357600080fd5b505af4158015610f57573d6000803e3d6000fd5b505050506040513d6040811015610f6d57600080fd5b508051602090910151909250905081158061100c57506040805160e060020a63cd9495f90281526004810187905260248101839052905173__LinkedListExtensionLib________________9163cd9495f9916044808301926020929190829003018186803b158015610fdf57600080fd5b505af4158015610ff3573d6000803e3d6000fd5b505050506040513d602081101561100957600080fd5b50515b1561101d57600093508392506110c1565b6040805160e260020a633d64d8cf0281526004810187905260248101839052905173__LinkedListLib_________________________9163f593633c916044808301926020929190829003018186803b15801561107957600080fd5b505af415801561108d573d6000803e3d6000fd5b505050506040513d60208110156110a357600080fd5b5051156110b957808652600193509150816110c1565b600093508392505b50509250929050565b90565b600160a060020a031660009081526001919091016020526040902090565b600081815260208381526040808320838052909152812054158015611126575060008281526020848152604080832060018452909152902054155b1561115b5760008080526020848152604080832060018452909152902054821415611153575060016104e5565b5060006104e5565b5060016104e5565b6000828152602085815260408083209315808452938252808320869055948252948552838120911581529352912055565b6040805180820190915260008082526020820152905600a165627a7a72305820947cc33338ca03d10343b915ec9dae4b7bfc3b5c5e531bbf2bc0c0cfe75c1d130029",
  "source": "pragma solidity ^0.4.24;\n\nimport \"../libs/ProvLink/ProvLinkLib.sol\";\nimport \"../libs/ProvLink/ProvLinkListLib.sol\";\nimport \"../libs/AddressUtils.sol\";\nimport \"../libs/ProvLink/ProvLinkQueryLib.sol\";\nimport \"../libs/TagLib.sol\";\n\ncontract ProvenanceLinkLibraryMock {\n    using ProvLinkListLib for ProvLinkListLib.LinkList;\n    using ProvLinkQueryLib for ProvLinkListLib.LinkList;\n    using TagLib for TagLib.TagList;\n    using LinkedListLib for LinkedListLib.LinkedList;\n    using AddressUtils for address;\n\n    ProvLinkListLib.LinkList private links;\n\n    function getLink(address _expectedAddress, uint256[] types) public view returns (address, bool[], bool) {\n        ProvLinkLib.Link storage actualLink = links.links[_expectedAddress];\n        uint256 node = _expectedAddress.toUint256();\n        bool[] memory tagValues = new bool[](types.length);\n        \n        for(uint256 i = 0; i < types.length;i ++) {\n            tagValues[i] = actualLink.types[types[i]];\n        }\n\n        return (actualLink.provenanceContract, tagValues, links.keys.nodeExists(node));\n    }\n\n    function getListSize() public view returns (uint256) {\n        return links.keys.sizeOf();\n    }\n\n    //todo-sv: this has to be improved at some point\n    function addLink(address _contract, uint256 _type) public {\n        links.addLink(_contract, _type);\n    }\n\n    // function addLink(address _contract, uint256 _type, string _typeName) internal {\n    //     links.addLink(_contract, TagLib.Tag(_type, _typeName));\n    // }\n\n    function isLinkHasProvenance(address _eAddress, string _eUrl) public view returns (bool) {\n        ProvLinkLib.Link storage actualLink = links.links[_eAddress];\n        return actualLink.hasProvenance[_eUrl];\n    }\n\n    function setLinkHasProvenance(address _contract, string _url, bool _hasProvenance) public {\n        links.setLinkHasProvenance(_contract, _url, _hasProvenance);\n    }\n\n    function addLinkWithProvenance(address _contract, uint256 _type, string _url) public {\n        links.addLink(_contract, _type, _url);\n    }\n\n    function getLinkCountForType(uint256 _type) public view returns (uint256) {\n        return links.getLinkCountForType(_type);\n    }\n\n    function getLinkCountForUrl(string _url) public view returns (uint256) {\n        return links.getLinkCountForUrl(_url);\n    }\n\n    function getLinkCountForUrlAndType(uint256 _type, string _url) public view returns (uint256) {\n        return links.getLinkCountForUrlAndType(_type, _url);\n    }\n\n    function getLinkListForType(uint256 _type) public view returns (address[]) {\n        return links.getLinkListForType(_type);\n    }\n}",
  "sourcePath": "/home/vauvenal5/repos/github/comp/ProvNet/eth/contracts/mocks/ProvenanceLinkLibraryMock.sol",
  "compiler": {
    "name": "solc",
    "version": "0.4.24+commit.e67f0147.Emscripten.clang"
  },
  "schemaVersion": "3.0.1",
  "updatedAt": "2019-01-14T14:35:46.460Z",
  "devdoc": {
    "methods": {}
  },
  "userdoc": {
    "methods": {}
  }
}