{
  "contractName": "ProvLinkLib",
  "abi": [
    {
      "constant": true,
      "inputs": [
        {
          "name": "self",
          "type": "ProvLinkLib.Link storage"
        },
        {
          "name": "contractTypes",
          "type": "TagLib.TagList storage"
        }
      ],
      "name": "toReturnValue",
      "outputs": [
        {
          "name": "",
          "type": "address"
        },
        {
          "name": "",
          "type": "uint256[]"
        }
      ],
      "payable": false,
      "stateMutability": "view",
      "type": "function",
      "signature": "0x5f33ad29"
    }
  ],
  "bytecode": "0x61064e610030600b82828239805160001a6073146000811461002057610022565bfe5b5030600052607381538281f300730000000000000000000000000000000000000000301460806040526004361061003e5763ffffffff60e060020a6000350416635f33ad298114610043575b600080fd5b6100516004356024356100be565b6040518083600160a060020a0316600160a060020a0316815260200180602001828103825283818151815260200191508051906020019060200280838360005b838110156100a9578181015183820152602001610091565b50505050905001935050505060405180910390f35b60006060806100cb6105f3565b60008060006100d861060a565b8873__TagLib________________________________636ebb34af90916040518263ffffffff1660e060020a0281526004018082815260200191505060206040518083038186803b15801561012c57600080fd5b505af4158015610140573d6000803e3d6000fd5b505050506040513d602081101561015657600080fd5b5051604080518281526020808402820101909152908015610181578160200160208202803883390190505b50955061018d896102d8565b94506101a861019b8a6102ef565b869063ffffffff6102f216565b93509350600091505b83156102be576101c7898463ffffffff6104dc16565b604080518082018252825481526001808401805484516020600294831615610100026000190190921693909304601f81018290048202840182019095528483529294938386019383018282801561025f5780601f106102345761010080835404028352916020019161025f565b820191906000526020600020905b81548152906001019060200180831161024257829003601f168201915b5050509190925250508151600090815260018d0160205260409020549192505060ff16156102a8578051865187908490811061029757fe5b602090810290910101526001909101905b6102b461019b8a6102ef565b90945092506101b1565b50509654600160a060020a03169792965091945050505050565b6102e06105f3565b6102e9826105d2565b92915050565b90565b81516040805160e060020a63ddf223b9028152600481018490526024810192909252805160009283928392839273__LinkedListExtensionLib________________9263ddf223b992604480840193829003018186803b15801561035557600080fd5b505af4158015610369573d6000803e3d6000fd5b505050506040513d604081101561037f57600080fd5b508051602090910151909250905081158061041e57506040805160e060020a63cd9495f90281526004810187905260248101839052905173__LinkedListExtensionLib________________9163cd9495f9916044808301926020929190829003018186803b1580156103f157600080fd5b505af4158015610405573d6000803e3d6000fd5b505050506040513d602081101561041b57600080fd5b50515b1561042f57600093508392506104d3565b6040805160e260020a633d64d8cf0281526004810187905260248101839052905173__LinkedListLib_________________________9163f593633c916044808301926020929190829003018186803b15801561048b57600080fd5b505af415801561049f573d6000803e3d6000fd5b505050506040513d60208110156104b557600080fd5b5051156104cb57808652600193509150816104d3565b600093508392505b50509250929050565b600082828160000173__LinkedListLib_________________________63f593633c9091836040518363ffffffff1660e060020a028152600401808381526020018281526020019250505060206040518083038186803b15801561053f57600080fd5b505af4158015610553573d6000803e3d6000fd5b505050506040513d602081101561056957600080fd5b505115156105ba576040805160e560020a62461bcd0281526020600482015260136024820152606860020a7254616720646f6573206e6f742065786973742102604482015290519081900360640190fd5b50505060009081526001919091016020526040902090565b6105da6105f3565b5050604080518082019091526000808252602082015290565b604080518082019091526000808252602082015290565b604080518082019091526000815260606020820152905600a165627a7a723058206cc4649550f948323f42d0d5156db1b18fe002855116bff68a848935a738308d0029",
  "source": "pragma solidity ^0.4.24;\n\nimport \"../TagLib.sol\";\nimport \"../LinkedList/LinkedListIteratorLib.sol\";\n\nlibrary ProvLinkLib {\n    using ProvLinkLib for ProvLinkLib.Link;\n    using TagLib for TagLib.TagList;\n    using LinkedListIteratorLib for LinkedListIteratorLib.Iterator;\n\n    struct Link {\n        address provenanceContract;\n        //key is the tag; since the existing tags are allways dependent from the contract holding the link we can in any view layer simply traverse the tags and check for every tag if it is in the link\n        //or I can keep a TagList were the title field is never set since it is not neccessary to set it but I think this way it is cheaper since I am avoiding to keep the unnecessary keys-list\n        mapping (uint256 => bool) types;\n        //todo-sv: is this neccessary? or can we solve hasProvenance by querrying all the contracts for information?\n        mapping (string => bool) hasProvenance;\n    }\n\n    function toReturnValue(Link storage self, TagLib.TagList storage contractTypes)\n    public\n    view\n    returns(address, uint256[]) {\n        uint256[] memory types = new uint256[](contractTypes.sizeOf());\n\n        LinkedListIteratorLib.Iterator memory iterator = contractTypes.getIterator();\n\n        (bool hasNext, uint256 next) = iterator.getNext(contractTypes.getKeyList());\n\n        uint256 counter = 0;\n        while(hasNext) {\n            //todo-sv: hide this behind getter\n            TagLib.Tag memory tag = contractTypes.getTag(next);\n            if(self.types[tag.id]) {\n                types[counter] = tag.id;\n                counter++;\n            }\n            (hasNext, next) = iterator.getNext(contractTypes.getKeyList());\n        }\n\n        return (self.provenanceContract, types);\n    }\n}",
  "sourcePath": "/home/vauvenal5/repos/github/comp/ProvNet/eth/contracts/libs/ProvLink/ProvLinkLib.sol",
  "compiler": {
    "name": "solc",
    "version": "0.4.24+commit.e67f0147.Emscripten.clang"
  },
  "schemaVersion": "3.0.1",
  "updatedAt": "2019-01-14T14:51:37.932Z",
  "devdoc": {
    "methods": {}
  },
  "userdoc": {
    "methods": {}
  }
}