{
  "contractName": "ProvLinkQueryLib",
  "abi": [
    {
      "constant": true,
      "inputs": [
        {
          "name": "self",
          "type": "ProvLinkListLib.LinkList storage"
        },
        {
          "name": "_type",
          "type": "uint256"
        }
      ],
      "name": "getLinkListForType",
      "outputs": [
        {
          "name": "",
          "type": "address[]"
        }
      ],
      "payable": false,
      "stateMutability": "view",
      "type": "function"
    }
  ],
  "bytecode": "0x61052d610030600b82828239805160001a6073146000811461002057610022565bfe5b5030600052607381538281f300730000000000000000000000000000000000000000301460806040526004361061003e5763ffffffff60e060020a600035041663379daa2f8114610043575b600080fd5b6100516004356024356100a1565b60408051602080825283518183015283519192839290830191858101910280838360005b8381101561008d578181015183820152602001610075565b505050509050019250505060405180910390f35b6060806100ac6104ea565b600080806100c0888863ffffffff61017f16565b6040519080825280602002602001820160405280156100e9578160200160208202803883390190505b5094506100f5886101f2565b93506000925061010c84898963ffffffff61020916565b915091505b8115610173576101208161028f565b858481518110151561012e57fe5b600160a060020a0390921660209283029091019091015261015683600163ffffffff61029216565b925061016984898963ffffffff61020916565b9092509050610111565b50929695505050505050565b60006101896104ea565b6000806000610197876101f2565b9350600092506101ae84888863ffffffff61020916565b915091505b81156101e7576101ca83600163ffffffff61029216565b92506101dd84888863ffffffff61020916565b90925090506101b3565b509095945050505050565b6101fa6104ea565b6102038261029f565b92915050565b60008080808061021f888863ffffffff6102c016565b925092505b821561027c5761023a878363ffffffff6104aa16565b600087815260018201602052604090205490915060ff16156102625760018294509450610284565b610272888863ffffffff6102c016565b9093509150610224565b600094508493505b505050935093915050565b90565b8181018281101561020357fe5b6102a76104ea565b5050604080518082019091526000808252602082015290565b81516040805160e060020a63ddf223b9028152600481018490526024810192909252805160009283928392839273__LinkedListExtensionLib________________9263ddf223b992604480840193829003018186803b15801561032357600080fd5b505af4158015610337573d6000803e3d6000fd5b505050506040513d604081101561034d57600080fd5b50805160209091015190925090508115806103ec57506040805160e060020a63cd9495f90281526004810187905260248101839052905173__LinkedListExtensionLib________________9163cd9495f9916044808301926020929190829003018186803b1580156103bf57600080fd5b505af41580156103d3573d6000803e3d6000fd5b505050506040513d60208110156103e957600080fd5b50515b156103fd57600093508392506104a1565b6040805160e260020a633d64d8cf0281526004810187905260248101839052905173__LinkedListLib_________________________9163f593633c916044808301926020929190829003018186803b15801561045957600080fd5b505af415801561046d573d6000803e3d6000fd5b505050506040513d602081101561048357600080fd5b50511561049957808652600193509150816104a1565b600093508392505b50509250929050565b60006104c56104b88361028f565b849063ffffffff6104cc16565b9392505050565b600160a060020a031660009081526001919091016020526040902090565b6040805180820190915260008082526020820152905600a165627a7a72305820970a825ae938c00c17ddde67678441fde6e653d5182cf5cdc440375b907358250029",
  "source": "pragma solidity ^0.4.24;\n\nimport \"../../../node_modules/openzeppelin-solidity/contracts/math/SafeMath.sol\";\n\nimport \"./ProvLinkLib.sol\";\nimport \"./ProvLinkListLib.sol\";\nimport \"../Uint256Utils.sol\";\nimport \"../LinkedList/LinkedListIteratorLib.sol\";\nimport \"./LinkListIteratorExtensionLib.sol\";\n\nlibrary ProvLinkQueryLib {\n    using ProvLinkListLib for ProvLinkListLib.LinkList;\n    using ProvLinkQueryLib for ProvLinkListLib.LinkList;\n    using SafeMath for uint256;\n    using Uint256Utils for uint256;\n    using LinkListIteratorExtensionLib for LinkedListIteratorLib.Iterator;\n\n    function getLinkCountForType(ProvLinkListLib.LinkList storage self, uint256 _type) internal \n    view \n    returns (uint256) {\n        LinkedListIteratorLib.Iterator memory iterator = self.getIterator();\n        uint256 count = 0;\n\n        (bool hasNext, uint256 next) = iterator.getNextByType(self, _type);\n        while(hasNext) {\n            count = count.add(1);\n            (hasNext, next) = iterator.getNextByType(self, _type);\n        }\n\n        return count;\n    }\n\n    function getLinkCountForUrl(ProvLinkListLib.LinkList storage self, string _url) internal \n    view \n    returns (uint256) {\n        LinkedListIteratorLib.Iterator memory iterator = self.getIterator();\n        uint256 count = 0;\n\n        (bool hasNext, uint256 next) = iterator.getNextByUrl(self, _url);\n        while(hasNext) {\n            count = count.add(1);\n            (hasNext, next) = iterator.getNextByUrl(self, _url);\n        }\n\n        return count;\n    }\n\n    function getLinkCountForUrlAndType(ProvLinkListLib.LinkList storage self, uint256 _type, string _url) internal \n    view \n    returns (uint256) {\n        LinkedListIteratorLib.Iterator memory iterator = self.getIterator();\n        uint256 count = 0;\n\n        (bool hasNext, uint256 next) = iterator.getNextByType(self, _type);\n        while(hasNext) {\n            ProvLinkLib.Link storage link = self.getLink(next);\n            if(link.hasProvenance[_url]) {\n                count = count.add(1);\n            }\n            (hasNext, next) = iterator.getNextByType(self, _type);\n        }\n\n        return count;\n    }\n\n    function getLinkListForType(ProvLinkListLib.LinkList storage self, uint256 _type) public \n    view \n    returns (address[]) {\n        address[] memory links = new address[](self.getLinkCountForType(_type));\n        LinkedListIteratorLib.Iterator memory iterator = self.getIterator();\n        uint256 count = 0;\n\n        (bool hasNext, uint256 next) = iterator.getNextByType(self, _type);\n        while(hasNext) {\n            links[count] = next.toAddress();\n            count = count.add(1);\n            (hasNext,next) = iterator.getNextByType(self, _type);\n        }\n\n        return links;\n    }\n}",
  "sourcePath": "/home/vauvenal5/repos/github/comp/ProvNet/eth/contracts/libs/ProvLink/ProvLinkQueryLib.sol",
  "compiler": {
    "name": "solc",
    "version": "0.4.24+commit.e67f0147.Emscripten.clang"
  },
  "schemaVersion": "3.0.1",
  "updatedAt": "2019-01-14T14:35:46.453Z",
  "devdoc": {
    "methods": {}
  },
  "userdoc": {
    "methods": {}
  }
}