{
  "contractName": "ProvLinkQueryLib",
  "abi": [
    {
      "constant": true,
      "inputs": [
        {
          "name": "self",
          "type": "ProvLinkListLib.LinkList storage"
        },
        {
          "name": "_type",
          "type": "uint256"
        }
      ],
      "name": "getLinkListForType",
      "outputs": [
        {
          "name": "",
          "type": "address[]"
        }
      ],
      "payable": false,
      "stateMutability": "view",
      "type": "function"
    }
  ],
  "bytecode": "0x6105a2610030600b82828239805160001a6073146000811461002057610022565bfe5b5030600052607381538281f30073000000000000000000000000000000000000000030146080604052600436106100575763ffffffff7c0100000000000000000000000000000000000000000000000000000000600035041663379daa2f811461005c575b600080fd5b61006a6004356024356100ba565b60408051602080825283518183015283519192839290830191858101910280838360005b838110156100a657818101518382015260200161008e565b505050509050019250505060405180910390f35b6060806100c561055f565b600080806100d9888863ffffffff6101a516565b604051908082528060200260200182016040528015610102578160200160208202803883390190505b50945061010e88610218565b93506000925061012584898963ffffffff61022f16565b915091505b811561019957610139816102b5565b858481518110151561014757fe5b73ffffffffffffffffffffffffffffffffffffffff90921660209283029091019091015261017c83600163ffffffff6102b816565b925061018f84898963ffffffff61022f16565b909250905061012a565b50929695505050505050565b60006101af61055f565b60008060006101bd87610218565b9350600092506101d484888863ffffffff61022f16565b915091505b811561020d576101f083600163ffffffff6102b816565b925061020384888863ffffffff61022f16565b90925090506101d9565b509095945050505050565b61022061055f565b610229826102c5565b92915050565b600080808080610245888863ffffffff6102e616565b925092505b82156102a257610260878363ffffffff61051216565b600087815260018201602052604090205490915060ff161561028857600182945094506102aa565b610298888863ffffffff6102e616565b909350915061024a565b600094508493505b505050935093915050565b90565b8181018281101561022957fe5b6102cd61055f565b5050604080518082019091526000808252602082015290565b8151604080517fddf223b9000000000000000000000000000000000000000000000000000000008152600481018490526024810192909252805160009283928392839273__LinkedListExtensionLib________________9263ddf223b992604480840193829003018186803b15801561035f57600080fd5b505af4158015610373573d6000803e3d6000fd5b505050506040513d604081101561038957600080fd5b508051602090910151909250905081158061043e5750604080517fcd9495f90000000000000000000000000000000000000000000000000000000081526004810187905260248101839052905173__LinkedListExtensionLib________________9163cd9495f9916044808301926020929190829003018186803b15801561041157600080fd5b505af4158015610425573d6000803e3d6000fd5b505050506040513d602081101561043b57600080fd5b50515b1561044f5760009350839250610509565b604080517ff593633c0000000000000000000000000000000000000000000000000000000081526004810187905260248101839052905173__LinkedListLib_________________________9163f593633c916044808301926020929190829003018186803b1580156104c157600080fd5b505af41580156104d5573d6000803e3d6000fd5b505050506040513d60208110156104eb57600080fd5b5051156105015780865260019350915081610509565b600093508392505b50509250929050565b600061052d610520836102b5565b849063ffffffff61053416565b9392505050565b73ffffffffffffffffffffffffffffffffffffffff1660009081526001919091016020526040902090565b6040805180820190915260008082526020820152905600a165627a7a72305820a25748c4aa5025c588d4a21c321ddaa590029079b81bec5718ccdc8555c56aac0029",
  "source": "pragma solidity ^0.4.24;\n\nimport \"../../../node_modules/openzeppelin-solidity/contracts/math/SafeMath.sol\";\n\nimport \"./ProvLinkLib.sol\";\nimport \"./ProvLinkListLib.sol\";\nimport \"../Uint256Utils.sol\";\nimport \"../LinkedList/LinkedListIteratorLib.sol\";\nimport \"./LinkListIteratorExtensionLib.sol\";\n\nlibrary ProvLinkQueryLib {\n    using ProvLinkListLib for ProvLinkListLib.LinkList;\n    using ProvLinkQueryLib for ProvLinkListLib.LinkList;\n    using SafeMath for uint256;\n    using Uint256Utils for uint256;\n    using LinkListIteratorExtensionLib for LinkedListIteratorLib.Iterator;\n\n    function getLinkCountForType(ProvLinkListLib.LinkList storage self, uint256 _type) internal \n    view \n    returns (uint256) {\n        LinkedListIteratorLib.Iterator memory iterator = self.getIterator();\n        uint256 count = 0;\n\n        (bool hasNext, uint256 next) = iterator.getNextByType(self, _type);\n        while(hasNext) {\n            count = count.add(1);\n            (hasNext, next) = iterator.getNextByType(self, _type);\n        }\n\n        return count;\n    }\n\n    function getLinkCountForUrl(ProvLinkListLib.LinkList storage self, string _url) internal \n    view \n    returns (uint256) {\n        LinkedListIteratorLib.Iterator memory iterator = self.getIterator();\n        uint256 count = 0;\n\n        (bool hasNext, uint256 next) = iterator.getNextByUrl(self, _url);\n        while(hasNext) {\n            count = count.add(1);\n            (hasNext, next) = iterator.getNextByUrl(self, _url);\n        }\n\n        return count;\n    }\n\n    function getLinkCountForUrlAndType(ProvLinkListLib.LinkList storage self, uint256 _type, string _url) internal \n    view \n    returns (uint256) {\n        LinkedListIteratorLib.Iterator memory iterator = self.getIterator();\n        uint256 count = 0;\n\n        (bool hasNext, uint256 next) = iterator.getNextByType(self, _type);\n        while(hasNext) {\n            ProvLinkLib.Link storage link = self.getLink(next);\n            if(link.hasProvenance[_url]) {\n                count = count.add(1);\n            }\n            (hasNext, next) = iterator.getNextByType(self, _type);\n        }\n\n        return count;\n    }\n\n    function getLinkListForType(ProvLinkListLib.LinkList storage self, uint256 _type) public \n    view \n    returns (address[]) {\n        address[] memory links = new address[](self.getLinkCountForType(_type));\n        LinkedListIteratorLib.Iterator memory iterator = self.getIterator();\n        uint256 count = 0;\n\n        (bool hasNext, uint256 next) = iterator.getNextByType(self, _type);\n        while(hasNext) {\n            links[count] = next.toAddress();\n            count = count.add(1);\n            (hasNext,next) = iterator.getNextByType(self, _type);\n        }\n\n        return links;\n    }\n}",
  "sourcePath": "/home/vauvenal5/repos/github/ProvNet/eth/contracts/libs/ProvLink/ProvLinkQueryLib.sol",
  "compiler": {
    "name": "solc",
    "version": "0.4.24+commit.e67f0147.Emscripten.clang"
  },
  "schemaVersion": "2.0.1",
  "updatedAt": "2019-01-05T22:33:14.393Z"
}