{
  "contractName": "SimpleProvenanceContract",
  "abi": [
    {
      "constant": true,
      "inputs": [],
      "name": "getUsers",
      "outputs": [
        {
          "name": "",
          "type": "address[]"
        }
      ],
      "payable": false,
      "stateMutability": "view",
      "type": "function"
    },
    {
      "constant": true,
      "inputs": [
        {
          "name": "_type",
          "type": "uint256"
        }
      ],
      "name": "getLinkType",
      "outputs": [
        {
          "name": "",
          "type": "string"
        }
      ],
      "payable": false,
      "stateMutability": "view",
      "type": "function"
    },
    {
      "constant": false,
      "inputs": [
        {
          "name": "_contract",
          "type": "address"
        },
        {
          "name": "_type",
          "type": "uint256"
        }
      ],
      "name": "addLink",
      "outputs": [],
      "payable": false,
      "stateMutability": "nonpayable",
      "type": "function"
    },
    {
      "constant": true,
      "inputs": [],
      "name": "getSpecialRoles",
      "outputs": [
        {
          "name": "",
          "type": "uint256[]"
        }
      ],
      "payable": false,
      "stateMutability": "view",
      "type": "function"
    },
    {
      "constant": true,
      "inputs": [
        {
          "name": "_operator",
          "type": "address"
        },
        {
          "name": "_role",
          "type": "string"
        }
      ],
      "name": "checkRole",
      "outputs": [],
      "payable": false,
      "stateMutability": "view",
      "type": "function"
    },
    {
      "constant": false,
      "inputs": [
        {
          "name": "_user",
          "type": "address"
        },
        {
          "name": "_roles",
          "type": "uint256[]"
        }
      ],
      "name": "removeUserWithSpecialRoles",
      "outputs": [],
      "payable": false,
      "stateMutability": "nonpayable",
      "type": "function"
    },
    {
      "constant": false,
      "inputs": [
        {
          "name": "_user",
          "type": "address"
        },
        {
          "name": "_roles",
          "type": "uint256[]"
        }
      ],
      "name": "addUserWithSpecialRoles",
      "outputs": [],
      "payable": false,
      "stateMutability": "nonpayable",
      "type": "function"
    },
    {
      "constant": true,
      "inputs": [
        {
          "name": "_operator",
          "type": "address"
        },
        {
          "name": "_role",
          "type": "string"
        }
      ],
      "name": "hasRole",
      "outputs": [
        {
          "name": "",
          "type": "bool"
        }
      ],
      "payable": false,
      "stateMutability": "view",
      "type": "function"
    },
    {
      "constant": true,
      "inputs": [
        {
          "name": "_address",
          "type": "address"
        }
      ],
      "name": "isOwner",
      "outputs": [
        {
          "name": "",
          "type": "bool"
        }
      ],
      "payable": false,
      "stateMutability": "view",
      "type": "function"
    },
    {
      "constant": true,
      "inputs": [],
      "name": "getLinkList",
      "outputs": [
        {
          "name": "",
          "type": "address[]"
        }
      ],
      "payable": false,
      "stateMutability": "view",
      "type": "function"
    },
    {
      "constant": false,
      "inputs": [
        {
          "name": "_user",
          "type": "address"
        },
        {
          "name": "_role",
          "type": "string"
        }
      ],
      "name": "addUser",
      "outputs": [],
      "payable": false,
      "stateMutability": "nonpayable",
      "type": "function"
    },
    {
      "constant": true,
      "inputs": [],
      "name": "getLinkTypes",
      "outputs": [
        {
          "name": "",
          "type": "uint256[]"
        }
      ],
      "payable": false,
      "stateMutability": "view",
      "type": "function"
    },
    {
      "constant": false,
      "inputs": [
        {
          "name": "_newSuperuser",
          "type": "address"
        }
      ],
      "name": "transferSuperuser",
      "outputs": [],
      "payable": false,
      "stateMutability": "nonpayable",
      "type": "function"
    },
    {
      "constant": false,
      "inputs": [],
      "name": "renounceOwnership",
      "outputs": [],
      "payable": false,
      "stateMutability": "nonpayable",
      "type": "function"
    },
    {
      "constant": false,
      "inputs": [
        {
          "name": "_user",
          "type": "address"
        },
        {
          "name": "_role",
          "type": "string"
        }
      ],
      "name": "removeUser",
      "outputs": [],
      "payable": false,
      "stateMutability": "nonpayable",
      "type": "function"
    },
    {
      "constant": false,
      "inputs": [
        {
          "name": "_url",
          "type": "string"
        },
        {
          "name": "_contract",
          "type": "address"
        }
      ],
      "name": "addPingback",
      "outputs": [],
      "payable": false,
      "stateMutability": "nonpayable",
      "type": "function"
    },
    {
      "constant": true,
      "inputs": [],
      "name": "owner",
      "outputs": [
        {
          "name": "",
          "type": "address"
        }
      ],
      "payable": false,
      "stateMutability": "view",
      "type": "function"
    },
    {
      "constant": true,
      "inputs": [
        {
          "name": "link",
          "type": "address"
        }
      ],
      "name": "getLink",
      "outputs": [
        {
          "name": "",
          "type": "address"
        },
        {
          "name": "",
          "type": "uint256[]"
        }
      ],
      "payable": false,
      "stateMutability": "view",
      "type": "function"
    },
    {
      "constant": false,
      "inputs": [
        {
          "name": "_role",
          "type": "string"
        }
      ],
      "name": "setRoleOpen",
      "outputs": [],
      "payable": false,
      "stateMutability": "nonpayable",
      "type": "function"
    },
    {
      "constant": false,
      "inputs": [
        {
          "name": "_type",
          "type": "uint256"
        },
        {
          "name": "title",
          "type": "string"
        }
      ],
      "name": "addLinkType",
      "outputs": [],
      "payable": false,
      "stateMutability": "nonpayable",
      "type": "function"
    },
    {
      "constant": false,
      "inputs": [
        {
          "name": "_url",
          "type": "string"
        },
        {
          "name": "_contract",
          "type": "address"
        },
        {
          "name": "hasProv",
          "type": "bool"
        },
        {
          "name": "_type",
          "type": "uint256"
        }
      ],
      "name": "setHasProvenanceLink",
      "outputs": [],
      "payable": false,
      "stateMutability": "nonpayable",
      "type": "function"
    },
    {
      "constant": true,
      "inputs": [
        {
          "name": "_addr",
          "type": "address"
        }
      ],
      "name": "isSuperuser",
      "outputs": [
        {
          "name": "",
          "type": "bool"
        }
      ],
      "payable": false,
      "stateMutability": "view",
      "type": "function"
    },
    {
      "constant": true,
      "inputs": [
        {
          "name": "_role",
          "type": "uint256"
        }
      ],
      "name": "getSpecialRole",
      "outputs": [
        {
          "name": "",
          "type": "uint256"
        },
        {
          "name": "",
          "type": "string"
        }
      ],
      "payable": false,
      "stateMutability": "view",
      "type": "function"
    },
    {
      "constant": false,
      "inputs": [
        {
          "name": "_role",
          "type": "string"
        }
      ],
      "name": "setRoleClosed",
      "outputs": [],
      "payable": false,
      "stateMutability": "nonpayable",
      "type": "function"
    },
    {
      "constant": false,
      "inputs": [
        {
          "name": "_type",
          "type": "uint256"
        },
        {
          "name": "_title",
          "type": "string"
        }
      ],
      "name": "setTagTitle",
      "outputs": [],
      "payable": false,
      "stateMutability": "nonpayable",
      "type": "function"
    },
    {
      "constant": false,
      "inputs": [
        {
          "name": "_user",
          "type": "address"
        },
        {
          "name": "special",
          "type": "uint256[]"
        },
        {
          "name": "removedSpecial",
          "type": "uint256[]"
        },
        {
          "name": "link",
          "type": "uint256[]"
        },
        {
          "name": "removedLink",
          "type": "uint256[]"
        }
      ],
      "name": "changeUser",
      "outputs": [],
      "payable": false,
      "stateMutability": "nonpayable",
      "type": "function"
    },
    {
      "constant": true,
      "inputs": [],
      "name": "ROLE_SUPERUSER",
      "outputs": [
        {
          "name": "",
          "type": "string"
        }
      ],
      "payable": false,
      "stateMutability": "view",
      "type": "function"
    },
    {
      "constant": false,
      "inputs": [
        {
          "name": "_newOwner",
          "type": "address"
        }
      ],
      "name": "transferOwnership",
      "outputs": [],
      "payable": false,
      "stateMutability": "nonpayable",
      "type": "function"
    },
    {
      "inputs": [
        {
          "name": "_title",
          "type": "string"
        }
      ],
      "payable": false,
      "stateMutability": "nonpayable",
      "type": "constructor"
    },
    {
      "anonymous": false,
      "inputs": [
        {
          "indexed": true,
          "name": "operator",
          "type": "address"
        },
        {
          "indexed": false,
          "name": "role",
          "type": "string"
        }
      ],
      "name": "RoleAdded",
      "type": "event"
    },
    {
      "anonymous": false,
      "inputs": [
        {
          "indexed": true,
          "name": "operator",
          "type": "address"
        },
        {
          "indexed": false,
          "name": "role",
          "type": "string"
        }
      ],
      "name": "RoleRemoved",
      "type": "event"
    },
    {
      "anonymous": false,
      "inputs": [
        {
          "indexed": true,
          "name": "previousOwner",
          "type": "address"
        }
      ],
      "name": "OwnershipRenounced",
      "type": "event"
    },
    {
      "anonymous": false,
      "inputs": [
        {
          "indexed": true,
          "name": "previousOwner",
          "type": "address"
        },
        {
          "indexed": true,
          "name": "newOwner",
          "type": "address"
        }
      ],
      "name": "OwnershipTransferred",
      "type": "event"
    },
    {
      "constant": true,
      "inputs": [],
      "name": "getDescription",
      "outputs": [
        {
          "name": "",
          "type": "string"
        }
      ],
      "payable": false,
      "stateMutability": "view",
      "type": "function"
    },
    {
      "constant": false,
      "inputs": [
        {
          "name": "_description",
          "type": "string"
        }
      ],
      "name": "setDescription",
      "outputs": [],
      "payable": false,
      "stateMutability": "nonpayable",
      "type": "function"
    },
    {
      "constant": true,
      "inputs": [],
      "name": "getLogoUrl",
      "outputs": [
        {
          "name": "",
          "type": "string"
        }
      ],
      "payable": false,
      "stateMutability": "view",
      "type": "function"
    },
    {
      "constant": false,
      "inputs": [
        {
          "name": "_logoUrl",
          "type": "string"
        }
      ],
      "name": "setLogoUrl",
      "outputs": [],
      "payable": false,
      "stateMutability": "nonpayable",
      "type": "function"
    },
    {
      "constant": true,
      "inputs": [],
      "name": "getTitle",
      "outputs": [
        {
          "name": "",
          "type": "string"
        }
      ],
      "payable": false,
      "stateMutability": "view",
      "type": "function"
    },
    {
      "constant": false,
      "inputs": [
        {
          "name": "_title",
          "type": "string"
        }
      ],
      "name": "setTitle",
      "outputs": [],
      "payable": false,
      "stateMutability": "nonpayable",
      "type": "function"
    },
    {
      "constant": true,
      "inputs": [
        {
          "name": "_user",
          "type": "address"
        }
      ],
      "name": "getUser",
      "outputs": [
        {
          "name": "",
          "type": "address"
        },
        {
          "name": "",
          "type": "uint256[]"
        },
        {
          "name": "",
          "type": "uint256[]"
        },
        {
          "name": "",
          "type": "bool"
        }
      ],
      "payable": false,
      "stateMutability": "view",
      "type": "function"
    },
    {
      "constant": true,
      "inputs": [],
      "name": "getUrls",
      "outputs": [
        {
          "name": "",
          "type": "uint256[]"
        }
      ],
      "payable": false,
      "stateMutability": "view",
      "type": "function"
    },
    {
      "constant": true,
      "inputs": [
        {
          "name": "_key",
          "type": "uint256"
        }
      ],
      "name": "getUrl",
      "outputs": [
        {
          "name": "",
          "type": "uint256"
        },
        {
          "name": "",
          "type": "string"
        }
      ],
      "payable": false,
      "stateMutability": "view",
      "type": "function"
    },
    {
      "constant": false,
      "inputs": [
        {
          "name": "_url",
          "type": "string"
        },
        {
          "name": "_provenance",
          "type": "string"
        }
      ],
      "name": "putProvenanceRecord",
      "outputs": [],
      "payable": false,
      "stateMutability": "nonpayable",
      "type": "function"
    },
    {
      "constant": true,
      "inputs": [
        {
          "name": "_url",
          "type": "string"
        }
      ],
      "name": "getProvenanceRecords",
      "outputs": [
        {
          "name": "",
          "type": "uint256"
        }
      ],
      "payable": false,
      "stateMutability": "view",
      "type": "function"
    },
    {
      "constant": true,
      "inputs": [
        {
          "name": "_url",
          "type": "string"
        },
        {
          "name": "_index",
          "type": "uint256"
        }
      ],
      "name": "getProvenanceRecord",
      "outputs": [
        {
          "name": "",
          "type": "string"
        }
      ],
      "payable": false,
      "stateMutability": "view",
      "type": "function"
    }
  ],
  "bytecode": "0x60016080819052600260a08190526004805460ff19908116841761ff001990811661020090811790935560c085905260e093909352600361010052600780549091169093179091161762ff0000191662030000179055610160604052600c6101208190527f64656661756c745469746c65000000000000000000000000000000000000000061014090815262000099916013919062000734565b50348015620000a757600080fd5b50604051620043fc380380620043fc833981016040818152825160008054600160a060020a03191633908117909155828401909252600983527f73757065727573657200000000000000000000000000000000000000000000006020840152909201916200011e9164010000000062000303810204565b60045460408051808201909152600981527f73757065727573657200000000000000000000000000000000000000000000006020820152620001779160059160ff90911690640100000000620031156200042982021704565b60045460408051808201909152600681527f656469746f7200000000000000000000000000000000000000000000000000006020820152620001d49160059161010090910460ff1690640100000000620004298102620031151704565b60078054604080518082019091529182527f747275737465640000000000000000000000000000000000000000000000000060208301526200022b91600a9160ff1690640100000000620031156200042982021704565b60075460408051808201909152600581527f6b6e6f776e00000000000000000000000000000000000000000000000000000060208201526200028891600a9161010090910460ff1690640100000000620004298102620031151704565b60075460408051808201909152600881527f70696e676261636b0000000000000000000000000000000000000000000000006020820152620002e691600a916201000090910460ff1690640100000000620004298102620031151704565b8051620002fb90601390602084019062000734565b5050620007d9565b6200037f826001836040518082805190602001908083835b602083106200033c5780518252601f1990920191602091820191016200031b565b51815160209384036101000a6000190180199092169116179052920194855250604051938490030190922092915050640100000000620005a481026200361f1704565b81600160a060020a03167fbfec83d64eaa953f2708271a023ab9ee82057f8f3578d548c1a4ba0b5b700489826040518080602001828103825283818151815260200191508051906020019080838360005b83811015620003ea578181015183820152602001620003d0565b50505050905090810190601f168015620004185780820380516001836020036101000a031916815260200191505b509250505060405180910390a25050565b604080517ff593633c000000000000000000000000000000000000000000000000000000008152600481018590526024810184905290518491849173__LinkedListLib_________________________9163f593633c916044808301926020929190829003018186803b158015620004a057600080fd5b505af4158015620004b5573d6000803e3d6000fd5b505050506040513d6020811015620004cc57600080fd5b5051156200053b57604080517f08c379a000000000000000000000000000000000000000000000000000000000815260206004820152600f60248201527f54616720646f6573206578697374210000000000000000000000000000000000604482015290519081900360640190fd5b620005578585600064010000000062002b78620005c982021704565b604080518082018252858152602080820186815260008881526001808b0184529490208351815590518051939491936200059a9392850192919091019062000734565b5050505050505050565b600160a060020a0316600090815260209190915260409020805460ff19166001179055565b620005e18360008484640100000000620005e7810204565b50505050565b600080620005ff868564010000000062000684810204565b1580156200061d57506200061d868664010000000062000684810204565b156200067657506000848152602086815260408083208515158452909152902054620006558686868664010000000062000703810204565b6200066c8685838664010000000062000703810204565b600191506200067b565b600091505b50949350505050565b600081815260208381526040808320838052909152812054158015620006c0575060008281526020848152604080832060018452909152902054155b15620006f95760008080526020848152604080832060018452909152902054821415620006f057506001620006fd565b506000620006fd565b5060015b92915050565b6000828152602085815260408083209315808452938252808320869055948252948552838120911581529352912055565b828054600181600116156101000203166002900490600052602060002090601f016020900481019282601f106200077757805160ff1916838001178555620007a7565b82800160010185558215620007a7579182015b82811115620007a75782518255916020019190600101906200078a565b50620007b5929150620007b9565b5090565b620007d691905b80821115620007b55760008155600101620007c0565b90565b613c1380620007e96000396000f3006080604052600436106101d25763ffffffff60e060020a600035041662ce8e3e81146101d7578062fba0271461023c57806303b4b6ba146102c957806306a0fb62146102ef5780630988ca8c1461030457806312f70d921461036b57806313797c15146103ce5780631887e433146104315780631a09254114610446578063217fe6c61461045b5780632f54bf6e146104d657806343562a4f146104f757806346b09d55146105625780634b68d431146105775780634ee7b90f146105de57806357c393fa146105f35780636f77926b14610614578063715018a6146106f257806372910be01461070757806380026a591461076057806385604d89146107c757806386af6f821461085e5780638da5cb5b146108c257806390c3f38f146108f35780639d6abe4f1461094c578063ac484864146109da578063b1d9ebfb14610a33578063b782118814610a8e578063bc17fb1414610aec578063bceee05e14610b5b578063bf74823414610b7c578063c106bca914610bd5578063ca376fbb14610bed578063cdf2bd0214610c46578063d138e46f14610ca4578063da06e07f14610db2578063e5e053c814610dc7578063ebb4f48414610e5e578063f2fde38b14610e73578063ff3c1a8f14610e94575b600080fd5b3480156101e357600080fd5b506101ec610ea9565b60408051602080825283518183015283519192839290830191858101910280838360005b83811015610228578181015183820152602001610210565b505050509050019250505060405180910390f35b34801561024857600080fd5b50610254600435610f91565b6040805160208082528351818301528351919283929083019185019080838360005b8381101561028e578181015183820152602001610276565b50505050905090810190601f1680156102bb5780820380516001836020036101000a031916815260200191505b509250505060405180910390f35b3480156102d557600080fd5b506102ed600160a060020a0360043516602435611037565b005b3480156102fb57600080fd5b506101ec61126b565b34801561031057600080fd5b5060408051602060046024803582810135601f81018590048502860185019096528585526102ed958335600160a060020a03169536956044949193909101919081908401838280828437509497506112c29650505050505050565b34801561037757600080fd5b506040805160206004602480358281013584810280870186019097528086526102ed968435600160a060020a0316963696604495919490910192918291850190849080828437509497506113309650505050505050565b3480156103da57600080fd5b506040805160206004602480358281013584810280870186019097528086526102ed968435600160a060020a0316963696604495919490910192918291850190849080828437509497506113649650505050505050565b34801561043d57600080fd5b50610254611398565b34801561045257600080fd5b5061025461142e565b34801561046757600080fd5b5060408051602060046024803582810135601f81018590048502860185019096528585526104c2958335600160a060020a031695369560449491939091019190819084018382808284375094975061148f9650505050505050565b604080519115158252519081900360200190f35b3480156104e257600080fd5b506104c2600160a060020a0360043516611504565b34801561050357600080fd5b506040805160206004803580820135601f81018490048402850184019095528484526105509436949293602493928401919081908401838280828437509497506115189650505050505050565b60408051918252519081900360200190f35b34801561056e57600080fd5b506101ec611580565b34801561058357600080fd5b5060408051602060046024803582810135601f81018590048502860185019096528585526102ed958335600160a060020a03169536956044949193909101919081908401838280828437509497506115d79650505050505050565b3480156105ea57600080fd5b506101ec6116cc565b3480156105ff57600080fd5b506102ed600160a060020a0360043516611723565b34801561062057600080fd5b50610635600160a060020a03600435166117c2565b6040518085600160a060020a0316600160a060020a03168152602001806020018060200184151515158152602001838103835286818151815260200191508051906020019060200280838360005b8381101561069b578181015183820152602001610683565b50505050905001838103825285818151815260200191508051906020019060200280838360005b838110156106da5781810151838201526020016106c2565b50505050905001965050505050505060405180910390f35b3480156106fe57600080fd5b506102ed6117f4565b34801561071357600080fd5b506040805160206004803580820135601f81018490048402850184019095528484526102ed9436949293602493928401919081908401838280828437509497506118609650505050505050565b34801561076c57600080fd5b5060408051602060046024803582810135601f81018590048502860185019096528585526102ed958335600160a060020a031695369560449491939091019190819084018382808284375094975061189b9650505050505050565b3480156107d357600080fd5b506107df6004356118cd565b6040518083815260200180602001828103825283818151815260200191508051906020019080838360005b8381101561082257818101518382015260200161080a565b50505050905090810190601f16801561084f5780820380516001836020036101000a031916815260200191505b50935050505060405180910390f35b34801561086a57600080fd5b506040805160206004803580820135601f81018490048402850184019095528484526102ed94369492936024939284019190819084018382808284375094975050509235600160a060020a0316935061197992505050565b3480156108ce57600080fd5b506108d7611a1a565b60408051600160a060020a039092168252519081900360200190f35b3480156108ff57600080fd5b506040805160206004803580820135601f81018490048402850184019095528484526102ed943694929360249392840191908190840183828082843750949750611a299650505050505050565b34801561095857600080fd5b5061096d600160a060020a0360043516611a64565b6040518083600160a060020a0316600160a060020a0316815260200180602001828103825283818151815260200191508051906020019060200280838360005b838110156109c55781810151838201526020016109ad565b50505050905001935050505060405180910390f35b3480156109e657600080fd5b506040805160206004803580820135601f81018490048402850184019095528484526102ed943694929360249392840191908190840183828082843750949750611b889650505050505050565b348015610a3f57600080fd5b506040805160206004803580820135601f81018490048402850184019095528484526102549436949293602493928401919081908401838280828437509497505093359450611cd49350505050565b348015610a9a57600080fd5b5060408051602060046024803582810135601f81018590048502860185019096528585526102ed958335953695604494919390910191908190840183828082843750949750611dde9650505050505050565b348015610af857600080fd5b506040805160206004803580820135601f81018490048402850184019095528484526102ed94369492936024939284019190819084018382808284375094975050600160a060020a03853516955050505050602081013515159060400135611e84565b348015610b6757600080fd5b506104c2600160a060020a03600435166120bb565b348015610b8857600080fd5b506040805160206004803580820135601f81018490048402850184019095528484526102ed9436949293602493928401919081908401838280828437509497506120ea9650505050505050565b348015610be157600080fd5b506107df600435612125565b348015610bf957600080fd5b506040805160206004803580820135601f81018490048402850184019095528484526102ed9436949293602493928401919081908401838280828437509497506121a89650505050505050565b348015610c5257600080fd5b5060408051602060046024803582810135601f81018590048502860185019096528585526102ed9583359536956044949193909101919081908401838280828437509497506122b29650505050505050565b348015610cb057600080fd5b506040805160206004602480358281013584810280870186019097528086526102ed968435600160a060020a031696369660449591949091019291829185019084908082843750506040805187358901803560208181028481018201909552818452989b9a998901989297509082019550935083925085019084908082843750506040805187358901803560208181028481018201909552818452989b9a998901989297509082019550935083925085019084908082843750506040805187358901803560208181028481018201909552818452989b9a9989019892975090820195509350839250850190849080828437509497506122ec9650505050505050565b348015610dbe57600080fd5b506101ec612347565b348015610dd357600080fd5b506040805160206004803580820135601f81018490048402850184019095528484526102ed94369492936024939284019190819084018382808284375050604080516020601f89358b018035918201839004830284018301909452808352979a99988101979196509182019450925082915084018382808284375094975061239e9650505050505050565b348015610e6a57600080fd5b50610254612572565b348015610e7f57600080fd5b506102ed600160a060020a0360043516612597565b348015610ea057600080fd5b506102546125c8565b6060600373__LinkedListAdvancedExtensionLib________632fc5efe690916040518263ffffffff1660e060020a0281526004018082815260200191505060006040518083038186803b158015610f0057600080fd5b505af4158015610f14573d6000803e3d6000fd5b505050506040513d6000823e601f3d908101601f191682016040526020811015610f3d57600080fd5b810190808051640100000000811115610f5557600080fd5b82016020810184811115610f6857600080fd5b8151856020820283011164010000000082111715610f8557600080fd5b50909450505050505b90565b6060610fa4600a8363ffffffff61262916565b60019081018054604080516020600295841615610100026000190190931694909404601f81018390048302850183019091528084529083018282801561102b5780601f106110005761010080835404028352916020019161102b565b820191906000526020600020905b81548152906001019060200180831161100e57829003601f168201915b50505050509050919050565b80611049600a8263ffffffff61272916565b15156110c5576040805160e560020a62461bcd02815260206004820152602a60248201527f4c696e6b207479706520646f6573206e6f74206578697374206f6e207468697360448201527f20636f6e74726163742e00000000000000000000000000000000000000000000606482015290519081900360840190fd5b6110d6600a8363ffffffff61262916565b60019081018054604080516020600295841615610100026000190190931694909404601f81018390048302850183019091528084529083018282801561115d5780601f106111325761010080835404028352916020019161115d565b820191906000526020600020905b81548152906001019060200180831161114057829003601f168201915b50505050506002816040518082805190602001908083835b602083106111945780518252601f199092019160209182019101611175565b51815160209384036101000a600019018019909216911617905292019485525060405193849003019092205460ff1691508190506111d757506111d7338261148f565b1515611253576040805160e560020a62461bcd02815260206004820152603160248201527f526f6c652068617320746f20626520696e616374697665206f7220757365722060448201527f68617320746f206861766520726f6c6521000000000000000000000000000000606482015290519081900360840190fd5b6112656008858563ffffffff6127bc16565b50505050565b6060600573__TagLib________________________________63469e038e90916040518263ffffffff1660e060020a0281526004018082815260200191505060006040518083038186803b158015610f0057600080fd5b61132c826001836040518082805190602001908083835b602083106112f85780518252601f1990920191602091820191016112d9565b51815160209384036101000a6000190180199092169116179052920194855250604051938490030190922092915050612927565b5050565b600054600160a060020a031633148061134d575061134d336120bb565b151561135857600080fd5b61132c8282600561293c565b600054600160a060020a03163314806113815750611381336120bb565b151561138c57600080fd5b61132c82826005612a50565b60128054604080516020601f60026000196101006001881615020190951694909404938401819004810282018101909252828152606093909290918301828280156114245780601f106113f957610100808354040283529160200191611424565b820191906000526020600020905b81548152906001019060200180831161140757829003601f168201915b5050505050905090565b60118054604080516020601f60026000196101006001881615020190951694909404938401819004810282018101909252828152606093909290918301828280156114245780601f106113f957610100808354040283529160200191611424565b60006114fb836001846040518082805190602001908083835b602083106114c75780518252601f1990920191602091820191016114a8565b51815160209384036101000a6000190180199092169116179052920194855250604051938490030190922092915050612b4d565b90505b92915050565b600054600160a060020a0391821691161490565b60006010826040518082805190602001908083835b6020831061154c5780518252601f19909201916020918201910161152d565b51815160209384036101000a6000190180199092169116179052920194855250604051938490030190922054949350505050565b6060600873__ProvLinkListLib_______________________6315be85ad90916040518263ffffffff1660e060020a0281526004018082815260200191505060006040518083038186803b158015610f0057600080fd5b600054600160a060020a03163314806115f457506115f4336120bb565b15156115ff57600080fd5b73__LinkedListLib_________________________63f593633c600361162d600160a060020a038616612b6c565b6040518363ffffffff1660e060020a028152600401808381526020018281526020019250505060206040518083038186803b15801561166b57600080fd5b505af415801561167f573d6000803e3d6000fd5b505050506040513d602081101561169557600080fd5b505115156116c2576116c26116b283600160a060020a0316612b6c565b600390600063ffffffff612b7816565b61132c8282612b85565b6060600a73__TagLib________________________________63469e038e90916040518263ffffffff1660e060020a0281526004018082815260200191505060006040518083038186803b158015610f0057600080fd5b61175033604080519081016040528060098152602001600080516020613bc88339815191528152506112c2565b600160a060020a038116151561176557600080fd5b61179233604080519081016040528060098152602001600080516020613bc8833981519152815250612bb7565b6117bf81604080519081016040528060098152602001600080516020613bc8833981519152815250612cc8565b50565b60006060806000846117d386612d9a565b6117dc87612da7565b6117e588611504565b93509350935093509193509193565b600054600160a060020a0316331461180b57600080fd5b60008054604051600160a060020a03909116917ff8df31144d9c2f0f6b59d69b8b98abd5459d07f2742c4df920b25aae33c6482091a26000805473ffffffffffffffffffffffffffffffffffffffff19169055565b600054600160a060020a031633148061187d575061187d336120bb565b151561188857600080fd5b805161132c906013906020840190613b18565b600054600160a060020a03163314806118b857506118b8336120bb565b15156118c357600080fd5b61132c8282612bb7565b60006060826118e3600c8263ffffffff612db416565b8054604080516020601f600260001961010060018816150201909516949094049384018190048102820181019092528281529183918301828280156119695780601f1061193e57610100808354040283529160200191611969565b820191906000526020600020905b81548152906001019060200180831161194c57829003601f168201915b5050505050905091509150915091565b80600061198d60088363ffffffff612dc916565b60075460ff6201000090910481166000908152600183016020526040902054919250161515611a06576040805160e560020a62461bcd02815260206004820152601f60248201527f4c696e6b206973206e6f74206f70656e20666f722070696e676261636b732100604482015290519081900360640190fd5b61126560088486600163ffffffff612de716565b600054600160a060020a031681565b600054600160a060020a0316331480611a465750611a46336120bb565b1515611a5157600080fd5b805161132c906011906020840190613b18565b60006060611a7960088463ffffffff612dc916565b604080517f5f33ad290000000000000000000000000000000000000000000000000000000081526004810192909252600a60248301525173__ProvLinkLib___________________________91635f33ad29916044808301926000929190829003018186803b158015611aeb57600080fd5b505af4158015611aff573d6000803e3d6000fd5b505050506040513d6000823e601f3d908101601f191682016040908152811015611b2857600080fd5b815160208301805191939283019291640100000000811115611b4957600080fd5b82016020810184811115611b5c57600080fd5b8151856020820283011164010000000082111715611b7957600080fd5b50949650945050505050915091565b600054600160a060020a0316331480611ba55750611ba5336120bb565b1515611bb057600080fd5b6040805180820190915260098152600080516020613bc883398151915260208201528190611be4908263ffffffff612f7616565b15611c5f576040805160e560020a62461bcd02815260206004820152602960248201527f506172616d65746572206973206e6f7420616c6c6f77656420746f206265207360448201527f7570657275736572210000000000000000000000000000000000000000000000606482015290519081900360840190fd5b60016002836040518082805190602001908083835b60208310611c935780518252601f199092019160209182019101611c74565b51815160209384036101000a60001901801990921691161790529201948552506040519384900301909220805460ff19169315159390931790925550505050565b60606010836040518082805190602001908083835b60208310611d085780518252601f199092019160209182019101611ce9565b51815160209384036101000a6000190180199092169116179052920194855250604051938490030190922080549092508491508110611d4357fe5b600091825260209182902001805460408051601f6002600019610100600187161502019094169390930492830185900485028101850190915281815292830182828015611dd15780601f10611da657610100808354040283529160200191611dd1565b820191906000526020600020905b815481529060010190602001808311611db457829003601f168201915b5050505050905092915050565b81611df0600a8263ffffffff61272916565b15611e45576040805160e560020a62461bcd02815260206004820152601a60248201527f4c696e6b20747970652065786973747320616c6c72656164792e000000000000604482015290519081900360640190fd5b600054600160a060020a0316331480611e625750611e62336120bb565b1515611e6d57600080fd5b611e7f600a848463ffffffff61311516565b505050565b80611e96600a8263ffffffff61272916565b1515611f12576040805160e560020a62461bcd02815260206004820152602a60248201527f4c696e6b207479706520646f6573206e6f74206578697374206f6e207468697360448201527f20636f6e74726163742e00000000000000000000000000000000000000000000606482015290519081900360840190fd5b611f23600a8363ffffffff61262916565b60019081018054604080516020600295841615610100026000190190931694909404601f810183900483028501830190915280845290830182828015611faa5780601f10611f7f57610100808354040283529160200191611faa565b820191906000526020600020905b815481529060010190602001808311611f8d57829003601f168201915b50505050506002816040518082805190602001908083835b60208310611fe15780518252601f199092019160209182019101611fc2565b51815160209384036101000a600019018019909216911617905292019485525060405193849003019092205460ff1691508190506120245750612024338261148f565b15156120a0576040805160e560020a62461bcd02815260206004820152603160248201527f526f6c652068617320746f20626520696e616374697665206f7220757365722060448201527f68617320746f206861766520726f6c6521000000000000000000000000000000606482015290519081900360840190fd5b6120b3600886888763ffffffff612de716565b505050505050565b60006114fe82604080519081016040528060098152602001600080516020613bc883398151915281525061148f565b600054600160a060020a03163314806121075750612107336120bb565b151561211257600080fd5b805161132c906012906020840190613b18565b600060608261213b60058263ffffffff61262916565b600101808054600181600116156101000203166002900480601f0160208091040260200160405190810160405280929190818152602001828054600181600116156101000203166002900480156119695780601f1061193e57610100808354040283529160200191611969565b600054600160a060020a03163314806121c557506121c5336120bb565b15156121d057600080fd5b6040805180820190915260098152600080516020613bc883398151915260208201528190612204908263ffffffff612f7616565b1561227f576040805160e560020a62461bcd02815260206004820152602960248201527f506172616d65746572206973206e6f7420616c6c6f77656420746f206265207360448201527f7570657275736572210000000000000000000000000000000000000000000000606482015290519081900360840190fd5b600060028360405180828051906020019080838360208310611c935780518252601f199092019160209182019101611c74565b600054600160a060020a03163314806122cf57506122cf336120bb565b15156122da57600080fd5b61132c600a838363ffffffff61325316565b600054600160a060020a03163314806123095750612309336120bb565b151561231457600080fd5b6123208583600a612a50565b61232a8585611364565b6123368582600a61293c565b6123408584611330565b5050505050565b6060600c73__UrlLib________________________________63c3f8255590916040518263ffffffff1660e060020a0281526004018082815260200191505060006040518083038186803b158015610f0057600080fd5b60408051808201825260068082527f656469746f72000000000000000000000000000000000000000000000000000060208301908152925160009360029284929182918083835b602083106124045780518252601f1990920191602091820191016123e5565b51815160209384036101000a600019018019909216911617905292019485525060405193849003019092205460ff1691508190506124475750612447338261148f565b15156124c3576040805160e560020a62461bcd02815260206004820152603160248201527f526f6c652068617320746f20626520696e616374697665206f7220757365722060448201527f68617320746f206861766520726f6c6521000000000000000000000000000000606482015290519081900360840190fd5b6124d4600c8563ffffffff61333516565b15156124eb576124eb600c8563ffffffff6133b216565b6010846040518082805190602001908083835b6020831061251d5780518252601f1990920191602091820191016124fe565b51815160209384036101000a60001901801990921691161790529201948552506040519384900381019093208054600181018083556000838152869020895193985090956120b3955091019250870190613b18565b6040805180820190915260098152600080516020613bc8833981519152602082015281565b600054600160a060020a03163314806125b457506125b4336120bb565b15156125bf57600080fd5b6117bf81613512565b60138054604080516020601f60026000196101006001881615020190951694909404938401819004810282018101909252828152606093909290918301828280156114245780601f106113f957610100808354040283529160200191611424565b600082828160000173__LinkedListLib_________________________63f593633c9091836040518363ffffffff1660e060020a028152600401808381526020018281526020019250505060206040518083038186803b15801561268c57600080fd5b505af41580156126a0573d6000803e3d6000fd5b505050506040513d60208110156126b657600080fd5b5051151561270e576040805160e560020a62461bcd02815260206004820152601360248201527f54616720646f6573206e6f742065786973742100000000000000000000000000604482015290519081900360640190fd5b6000848152600186016020526040902092505b505092915050565b6040805160e260020a633d64d8cf0281526004810184905260248101839052905160009173__LinkedListLib_________________________9163f593633c91604480820192602092909190829003018186803b15801561278957600080fd5b505af415801561279d573d6000803e3d6000fd5b505050506040513d60208110156127b357600080fd5b50519392505050565b6000838373__LinkedListLib_________________________63f593633c836127ed600160a060020a038516612b6c565b6040518363ffffffff1660e060020a028152600401808381526020018281526020019250505060206040518083038186803b15801561282b57600080fd5b505af415801561283f573d6000803e3d6000fd5b505050506040513d602081101561285557600080fd5b5051156128ac576040805160e560020a62461bcd02815260206004820152601560248201527f4c696e6b20616c6c726561647920657869737473210000000000000000000000604482015290519081900360640190fd5b6128d06128c186600160a060020a0316612b6c565b8790600063ffffffff612b7816565b505050600160a060020a039091166000818152600193840160209081526040808320805473ffffffffffffffffffffffffffffffffffffffff1916909417845593825291840190915220805460ff19169091179055565b6129318282612b4d565b151561132c57600080fd5b600080548190600160a060020a031633148061295c575061295c336120bb565b151561296757600080fd5b600091505b83518210156123405761299d848381518110151561298657fe5b60209081029091010151849063ffffffff61262916565b9050612a4585826001018054600181600116156101000203166002900480601f016020809104026020016040519081016040528092919081815260200182805460018160011615610100020316600290048015612a3b5780601f10612a1057610100808354040283529160200191612a3b565b820191906000526020600020905b815481529060010190602001808311612a1e57829003601f168201915b505050505061189b565b60019091019061296c565b600080548190600160a060020a0316331480612a705750612a70336120bb565b1515612a7b57600080fd5b600091505b835182101561234057612a9a848381518110151561298657fe5b9050612b4285826001018054600181600116156101000203166002900480601f016020809104026020016040519081016040528092919081815260200182805460018160011615610100020316600290048015612b385780601f10612b0d57610100808354040283529160200191612b38565b820191906000526020600020905b815481529060010190602001808311612b1b57829003601f168201915b50505050506115d7565b600190910190612a80565b600160a060020a03166000908152602091909152604090205460ff1690565b600160a060020a031690565b611265836000848461358f565b600054600160a060020a0316331480612ba25750612ba2336120bb565b1515612bad57600080fd5b61132c8282612cc8565b612c21826001836040518082805190602001908083835b60208310612bed5780518252601f199092019160209182019101612bce565b51815160209384036101000a60001901801990921691161790529201948552506040519384900301909220929150506135fd565b81600160a060020a03167fd211483f91fc6eff862467f8de606587a30c8fc9981056f051b897a418df803a826040518080602001828103825283818151815260200191508051906020019080838360005b83811015612c8a578181015183820152602001612c72565b50505050905090810190601f168015612cb75780820380516001836020036101000a031916815260200191505b509250505060405180910390a25050565b612d32826001836040518082805190602001908083835b60208310612cfe5780518252601f199092019160209182019101612cdf565b51815160209384036101000a600019018019909216911617905292019485525060405193849003019092209291505061361f565b81600160a060020a03167fbfec83d64eaa953f2708271a023ab9ee82057f8f3578d548c1a4ba0b5b7004898260405180806020018281038252838181518152602001915080519060200190808383600083811015612c8a578181015183820152602001612c72565b60606114fe826005613644565b60606114fe82600a613644565b60009081526001919091016020526040902090565b600160a060020a031660009081526001919091016020526040902090565b838373__LinkedListLib_________________________63f593633c83612e16600160a060020a038516612b6c565b6040518363ffffffff1660e060020a028152600401808381526020018281526020019250505060206040518083038186803b158015612e5457600080fd5b505af4158015612e68573d6000803e3d6000fd5b505050506040513d6020811015612e7e57600080fd5b50511515612ed6576040805160e560020a62461bcd02815260206004820152601460248201527f4c696e6b20646f6573206e6f7420657869737421000000000000000000000000604482015290519081900360640190fd5b8286600101600087600160a060020a0316600160a060020a03168152602001908152602001600020600201856040518082805190602001908083835b60208310612f315780518252601f199092019160209182019101612f12565b51815160209384036101000a60001901801990921691161790529201948552506040519384900301909220805460ff1916931515939093179092555050505050505050565b8051825160009114612f8a575060006114fe565b816040516020018082805190602001908083835b60208310612fbd5780518252601f199092019160209182019101612f9e565b6001836020036101000a0380198251168184511680821785525050505050509050019150506040516020818303038152906040526040518082805190602001908083835b602083106130205780518252601f199092019160209182019101613001565b51815160209384036101000a60001901801990921691161790526040519190930181900381208851909550889450908301928392508401908083835b6020831061307b5780518252601f19909201916020918201910161305c565b6001836020036101000a0380198251168184511680821785525050505050509050019150506040516020818303038152906040526040518082805190602001908083835b602083106130de5780518252601f1990920191602091820191016130bf565b5181516020939093036101000a60001901801990911692169190911790526040519201829003909120939093149695505050505050565b6040805160e260020a633d64d8cf028152600481018590526024810184905290518491849173__LinkedListLib_________________________9163f593633c916044808301926020929190829003018186803b15801561317557600080fd5b505af4158015613189573d6000803e3d6000fd5b505050506040513d602081101561319f57600080fd5b5051156131f6576040805160e560020a62461bcd02815260206004820152600f60248201527f54616720646f6573206578697374210000000000000000000000000000000000604482015290519081900360640190fd5b6132088585600063ffffffff612b7816565b604080518082018252858152602080820186815260008881526001808b01845294902083518155905180519394919361324993928501929190910190613b18565b5050505050505050565b6040805160e260020a633d64d8cf028152600481018590526024810184905290518491849173__LinkedListLib_________________________9163f593633c916044808301926020929190829003018186803b1580156132b357600080fd5b505af41580156132c7573d6000803e3d6000fd5b505050506040513d60208110156132dd57600080fd5b50511515613208576040805160e560020a62461bcd02815260206004820152601360248201527f54616720646f6573206e6f742065786973742100000000000000000000000000604482015290519081900360640190fd5b600082600201826040518082805190602001908083835b6020831061336b5780518252601f19909201916020918201910161334c565b51815160209384036101000a6000190180199092169116179052920194855250604051938490030190922054151591506133a99050575060006114fe565b50600192915050565b600382018054600101908190556133d2908390600063ffffffff612b7816565b60038201546000908152600183016020908152604090912082516133f892840190613b18565b50816003015482600201826040518082805190602001908083835b602083106134325780518252601f199092019160209182019101613413565b6001836020036101000a0380198251168184511680821785525050505050509050019150509081526020016040518091039020819055507fcc565ba580681aee2dd844656806e54ac4515b2a1f9b4ce302230d9d0305dec68260030154826040518083815260200180602001828103825283818151815260200191508051906020019080838360005b838110156134d35781810151838201526020016134bb565b50505050905090810190601f1680156135005780820380516001836020036101000a031916815260200191505b50935050505060405180910390a15050565b600160a060020a038116151561352757600080fd5b60008054604051600160a060020a03808516939216917f8be0079c531659141344cd1fd0a4f28419497f9722a3daafe3b4186f6b6457e091a36000805473ffffffffffffffffffffffffffffffffffffffff1916600160a060020a0392909216919091179055565b60008061359c868561382d565b1580156135ae57506135ae868661382d565b156135ef575060008481526020868152604080832085151584529091529020546135da868686866138a5565b6135e6868583866138a5565b600191506135f4565b600091505b50949350505050565b600160a060020a0316600090815260209190915260409020805460ff19169055565b600160a060020a0316600090815260209190915260409020805460ff19166001179055565b60608061364f613b96565b8373__TagLib________________________________636ebb34af90916040518263ffffffff1660e060020a0281526004018082815260200191505060206040518083038186803b1580156136a357600080fd5b505af41580156136b7573d6000803e3d6000fd5b505050506040513d60208110156136cd57600080fd5b50516040805182815260208084028201019091529080156136f8578160200160208202803883390190505b509150613704846138d6565b90505b61372061371385610f8e565b829063ffffffff6138e716565b156138255760008261373183613ae8565b8151811061373b57fe5b602090810290910101526137f38561376261375584613af3565b879063ffffffff61262916565b60019081018054604080516020600295841615610100026000190190931694909404601f8101839004830285018301909152808452908301828280156137e95780601f106137be576101008083540402835291602001916137e9565b820191906000526020600020905b8154815290600101906020018083116137cc57829003601f168201915b505050505061148f565b156138205761380181613af3565b8261380b83613ae8565b8151811061381557fe5b602090810290910101525b613707565b509392505050565b600081815260208381526040808320838052909152812054158015613868575060008281526020848152604080832060018452909152902054155b1561389d5760008080526020848152604080832060018452909152902054821415613895575060016114fe565b5060006114fe565b5060016114fe565b6000828152602085815260408083209315808452938252808320869055948252948552838120911581529352912055565b6138de613b96565b6114fe82613af7565b60008060008373__LinkedListExtensionLib________________63ddf223b9909187600001516040518363ffffffff1660e060020a0281526004018083815260200182815260200192505050604080518083038186803b15801561394b57600080fd5b505af415801561395f573d6000803e3d6000fd5b505050506040513d604081101561397557600080fd5b5080516020909101519092509050811580613a2a5750604080517fcd9495f90000000000000000000000000000000000000000000000000000000081526004810186905260248101839052905173__LinkedListExtensionLib________________9163cd9495f9916044808301926020929190829003018186803b1580156139fd57600080fd5b505af4158015613a11573d6000803e3d6000fd5b505050506040513d6020811015613a2757600080fd5b50515b15613a385760009250612721565b6040805160e260020a633d64d8cf0281526004810186905260248101839052905173__LinkedListLib_________________________9163f593633c916044808301926020929190829003018186803b158015613a9457600080fd5b505af4158015613aa8573d6000803e3d6000fd5b505050506040513d6020811015613abe57600080fd5b505115613add5760208501805160019081019091528186529250612721565b506000949350505050565b602001516000190190565b5190565b613aff613b96565b5050604080518082019091526000808252602082015290565b828054600181600116156101000203166002900490600052602060002090601f016020900481019282601f10613b5957805160ff1916838001178555613b86565b82800160010185558215613b86579182015b82811115613b86578251825591602001919060010190613b6b565b50613b92929150613bad565b5090565b604080518082019091526000808252602082015290565b610f8e91905b80821115613b925760008155600101613bb356007375706572757365720000000000000000000000000000000000000000000000a165627a7a723058200d4a8ff0245cb6a03b1b59c984b8296add94a26a0f74d08a8aa5912edcc1a6510029",
  "source": "pragma solidity ^0.4.24;\n\nimport \"../libs/UrlLib.sol\";\n\nimport \"./LinkableContract.sol\";\n\ncontract SimpleProvenanceContract is LinkableContract {\n    using UrlLib for UrlLib.UrlList;\n    \n    //todo-sv: a url is nothing else then a tag for provenance?\n    // so if we refactor the tagList we should be able to reuse it here\n    // only difference would be that \"normal\" tags are a n-m mapping --> n tags map to m links for example\n    // and in this case we have simply a 1-1 mapping --> one url(tag) maps to one set of provenance\n    UrlLib.UrlList private urls;\n    mapping (string => string[]) provenance;\n\n    string private description;\n    string private logoUrl;\n    string private title = \"defaultTitle\";\n\n    constructor(string _title) public {\n        title = _title;\n    }\n\n    /**\n        Other stuff\n    */\n\n    function getDescription()\n    public\n    view\n    returns (string) {\n        return description;\n    }\n\n    function setDescription(string _description)\n    public \n    onlyOwnerOrSuperuser() {\n        description = _description;\n    }\n\n    function getLogoUrl()\n    public\n    view\n    returns (string) {\n        return logoUrl;\n    }\n\n    function setLogoUrl(string _logoUrl)\n    public \n    onlyOwnerOrSuperuser() {\n        logoUrl = _logoUrl;\n    }\n\n    function getTitle()\n    public\n    view\n    returns (string) {\n        return title;\n    }\n\n    function setTitle(string _title)\n    public \n    onlyOwnerOrSuperuser() {\n        title = _title;\n    }\n\n    /**\n        Users\n    */\n\n    function getUser(address _user)\n    public\n    view\n    returns(address, uint256[], uint256[], bool) {\n        return (_user, getSpecialRolesForUser(_user), getLinkRolesForUser(_user), isOwner(_user));\n    }\n\n\n    /**\n        Provenance\n    */\n\n    function getUrls() public view returns (uint256[]) {\n        return urls.toReturnValue();\n    }\n\n    function getUrl(uint256 _key) public view returns (uint256, string) {\n        return (_key, urls.getUrl(_key));\n    }\n\n    function putProvenanceRecord(string _url, string _provenance) public onlyRoleOrOpenRole(ROLE_EDITOR) {\n        if(!urls.hasUrl(_url)) {\n            urls.add(_url);\n        }\n\n        string[] storage provArray = provenance[_url];\n        provArray.push(_provenance);\n    }\n\n    function getProvenanceRecords(string _url) public view returns (uint256) {\n        return provenance[_url].length;\n    }\n\n    function getProvenanceRecord(string _url, uint256 _index) public view returns (string) {\n        return provenance[_url][_index];\n    }\n}",
  "sourcePath": "/home/vauvenal5/repos/github/ProvNet/eth/contracts/contracts/SimpleProvenanceContract.sol",
  "compiler": {
    "name": "solc",
    "version": "0.4.24+commit.e67f0147.Emscripten.clang"
  },
  "schemaVersion": "2.0.1",
  "updatedAt": "2019-01-05T22:31:31.098Z"
}