{
  "contractName": "SimpleProvenanceContract",
  "abi": [
    {
      "constant": true,
      "inputs": [],
      "name": "getUsers",
      "outputs": [
        {
          "name": "",
          "type": "address[]"
        }
      ],
      "payable": false,
      "stateMutability": "view",
      "type": "function",
      "signature": "0x00ce8e3e"
    },
    {
      "constant": true,
      "inputs": [
        {
          "name": "_type",
          "type": "uint256"
        }
      ],
      "name": "getLinkType",
      "outputs": [
        {
          "name": "",
          "type": "string"
        }
      ],
      "payable": false,
      "stateMutability": "view",
      "type": "function",
      "signature": "0x00fba027"
    },
    {
      "constant": false,
      "inputs": [
        {
          "name": "_contract",
          "type": "address"
        },
        {
          "name": "_type",
          "type": "uint256"
        }
      ],
      "name": "addLink",
      "outputs": [],
      "payable": false,
      "stateMutability": "nonpayable",
      "type": "function",
      "signature": "0x03b4b6ba"
    },
    {
      "constant": true,
      "inputs": [],
      "name": "getSpecialRoles",
      "outputs": [
        {
          "name": "",
          "type": "uint256[]"
        }
      ],
      "payable": false,
      "stateMutability": "view",
      "type": "function",
      "signature": "0x06a0fb62"
    },
    {
      "constant": true,
      "inputs": [
        {
          "name": "_operator",
          "type": "address"
        },
        {
          "name": "_role",
          "type": "string"
        }
      ],
      "name": "checkRole",
      "outputs": [],
      "payable": false,
      "stateMutability": "view",
      "type": "function",
      "signature": "0x0988ca8c"
    },
    {
      "constant": false,
      "inputs": [
        {
          "name": "_user",
          "type": "address"
        },
        {
          "name": "_roles",
          "type": "uint256[]"
        }
      ],
      "name": "removeUserWithSpecialRoles",
      "outputs": [],
      "payable": false,
      "stateMutability": "nonpayable",
      "type": "function",
      "signature": "0x12f70d92"
    },
    {
      "constant": false,
      "inputs": [
        {
          "name": "_user",
          "type": "address"
        },
        {
          "name": "_roles",
          "type": "uint256[]"
        }
      ],
      "name": "addUserWithSpecialRoles",
      "outputs": [],
      "payable": false,
      "stateMutability": "nonpayable",
      "type": "function",
      "signature": "0x13797c15"
    },
    {
      "constant": true,
      "inputs": [
        {
          "name": "_operator",
          "type": "address"
        },
        {
          "name": "_role",
          "type": "string"
        }
      ],
      "name": "hasRole",
      "outputs": [
        {
          "name": "",
          "type": "bool"
        }
      ],
      "payable": false,
      "stateMutability": "view",
      "type": "function",
      "signature": "0x217fe6c6"
    },
    {
      "constant": true,
      "inputs": [
        {
          "name": "_role",
          "type": "string"
        }
      ],
      "name": "isRoleOpen",
      "outputs": [
        {
          "name": "",
          "type": "bool"
        }
      ],
      "payable": false,
      "stateMutability": "view",
      "type": "function",
      "signature": "0x2c897b8b"
    },
    {
      "constant": true,
      "inputs": [
        {
          "name": "_address",
          "type": "address"
        }
      ],
      "name": "isOwner",
      "outputs": [
        {
          "name": "",
          "type": "bool"
        }
      ],
      "payable": false,
      "stateMutability": "view",
      "type": "function",
      "signature": "0x2f54bf6e"
    },
    {
      "constant": true,
      "inputs": [],
      "name": "getLinkList",
      "outputs": [
        {
          "name": "",
          "type": "address[]"
        }
      ],
      "payable": false,
      "stateMutability": "view",
      "type": "function",
      "signature": "0x46b09d55"
    },
    {
      "constant": false,
      "inputs": [
        {
          "name": "_user",
          "type": "address"
        },
        {
          "name": "_role",
          "type": "string"
        }
      ],
      "name": "addUser",
      "outputs": [],
      "payable": false,
      "stateMutability": "nonpayable",
      "type": "function",
      "signature": "0x4b68d431"
    },
    {
      "constant": true,
      "inputs": [],
      "name": "getLinkTypes",
      "outputs": [
        {
          "name": "",
          "type": "uint256[]"
        }
      ],
      "payable": false,
      "stateMutability": "view",
      "type": "function",
      "signature": "0x4ee7b90f"
    },
    {
      "constant": false,
      "inputs": [
        {
          "name": "_newSuperuser",
          "type": "address"
        }
      ],
      "name": "transferSuperuser",
      "outputs": [],
      "payable": false,
      "stateMutability": "nonpayable",
      "type": "function",
      "signature": "0x57c393fa"
    },
    {
      "constant": false,
      "inputs": [],
      "name": "renounceOwnership",
      "outputs": [],
      "payable": false,
      "stateMutability": "nonpayable",
      "type": "function",
      "signature": "0x715018a6"
    },
    {
      "constant": false,
      "inputs": [
        {
          "name": "_user",
          "type": "address"
        },
        {
          "name": "_role",
          "type": "string"
        }
      ],
      "name": "removeUser",
      "outputs": [],
      "payable": false,
      "stateMutability": "nonpayable",
      "type": "function",
      "signature": "0x80026a59"
    },
    {
      "constant": false,
      "inputs": [
        {
          "name": "_url",
          "type": "string"
        },
        {
          "name": "_contract",
          "type": "address"
        }
      ],
      "name": "addPingback",
      "outputs": [],
      "payable": false,
      "stateMutability": "nonpayable",
      "type": "function",
      "signature": "0x86af6f82"
    },
    {
      "constant": true,
      "inputs": [],
      "name": "owner",
      "outputs": [
        {
          "name": "",
          "type": "address"
        }
      ],
      "payable": false,
      "stateMutability": "view",
      "type": "function",
      "signature": "0x8da5cb5b"
    },
    {
      "constant": true,
      "inputs": [
        {
          "name": "link",
          "type": "address"
        }
      ],
      "name": "getLink",
      "outputs": [
        {
          "name": "",
          "type": "address"
        },
        {
          "name": "",
          "type": "uint256[]"
        }
      ],
      "payable": false,
      "stateMutability": "view",
      "type": "function",
      "signature": "0x9d6abe4f"
    },
    {
      "constant": false,
      "inputs": [
        {
          "name": "_role",
          "type": "string"
        }
      ],
      "name": "setRoleOpen",
      "outputs": [],
      "payable": false,
      "stateMutability": "nonpayable",
      "type": "function",
      "signature": "0xac484864"
    },
    {
      "constant": false,
      "inputs": [
        {
          "name": "_type",
          "type": "uint256"
        },
        {
          "name": "title",
          "type": "string"
        }
      ],
      "name": "addLinkType",
      "outputs": [],
      "payable": false,
      "stateMutability": "nonpayable",
      "type": "function",
      "signature": "0xb7821188"
    },
    {
      "constant": false,
      "inputs": [
        {
          "name": "_url",
          "type": "string"
        },
        {
          "name": "_contract",
          "type": "address"
        },
        {
          "name": "hasProv",
          "type": "bool"
        },
        {
          "name": "_type",
          "type": "uint256"
        }
      ],
      "name": "setHasProvenanceLink",
      "outputs": [],
      "payable": false,
      "stateMutability": "nonpayable",
      "type": "function",
      "signature": "0xbc17fb14"
    },
    {
      "constant": true,
      "inputs": [
        {
          "name": "_addr",
          "type": "address"
        }
      ],
      "name": "isSuperuser",
      "outputs": [
        {
          "name": "",
          "type": "bool"
        }
      ],
      "payable": false,
      "stateMutability": "view",
      "type": "function",
      "signature": "0xbceee05e"
    },
    {
      "constant": true,
      "inputs": [
        {
          "name": "_role",
          "type": "uint256"
        }
      ],
      "name": "getSpecialRole",
      "outputs": [
        {
          "name": "",
          "type": "uint256"
        },
        {
          "name": "",
          "type": "string"
        }
      ],
      "payable": false,
      "stateMutability": "view",
      "type": "function",
      "signature": "0xc106bca9"
    },
    {
      "constant": false,
      "inputs": [
        {
          "name": "_role",
          "type": "string"
        }
      ],
      "name": "setRoleClosed",
      "outputs": [],
      "payable": false,
      "stateMutability": "nonpayable",
      "type": "function",
      "signature": "0xca376fbb"
    },
    {
      "constant": false,
      "inputs": [
        {
          "name": "_type",
          "type": "uint256"
        },
        {
          "name": "_title",
          "type": "string"
        }
      ],
      "name": "setTagTitle",
      "outputs": [],
      "payable": false,
      "stateMutability": "nonpayable",
      "type": "function",
      "signature": "0xcdf2bd02"
    },
    {
      "constant": false,
      "inputs": [
        {
          "name": "_user",
          "type": "address"
        },
        {
          "name": "special",
          "type": "uint256[]"
        },
        {
          "name": "removedSpecial",
          "type": "uint256[]"
        },
        {
          "name": "link",
          "type": "uint256[]"
        },
        {
          "name": "removedLink",
          "type": "uint256[]"
        }
      ],
      "name": "changeUser",
      "outputs": [],
      "payable": false,
      "stateMutability": "nonpayable",
      "type": "function",
      "signature": "0xd138e46f"
    },
    {
      "constant": true,
      "inputs": [],
      "name": "ROLE_SUPERUSER",
      "outputs": [
        {
          "name": "",
          "type": "string"
        }
      ],
      "payable": false,
      "stateMutability": "view",
      "type": "function",
      "signature": "0xebb4f484"
    },
    {
      "constant": false,
      "inputs": [
        {
          "name": "_newOwner",
          "type": "address"
        }
      ],
      "name": "transferOwnership",
      "outputs": [],
      "payable": false,
      "stateMutability": "nonpayable",
      "type": "function",
      "signature": "0xf2fde38b"
    },
    {
      "constant": false,
      "inputs": [
        {
          "name": "_contract",
          "type": "address"
        },
        {
          "name": "_type",
          "type": "uint256"
        }
      ],
      "name": "addHardLink",
      "outputs": [],
      "payable": false,
      "stateMutability": "nonpayable",
      "type": "function",
      "signature": "0xfd513629"
    },
    {
      "inputs": [],
      "payable": false,
      "stateMutability": "nonpayable",
      "type": "constructor",
      "signature": "constructor"
    },
    {
      "anonymous": false,
      "inputs": [
        {
          "indexed": true,
          "name": "to",
          "type": "address"
        },
        {
          "indexed": false,
          "name": "tag",
          "type": "uint256"
        }
      ],
      "name": "LinkAdded",
      "type": "event",
      "signature": "0xff39d6a66aa59c7a33c3ad7aa82e56d5cba3c1038afd5575ab842ee55bf20e2e"
    },
    {
      "anonymous": false,
      "inputs": [
        {
          "indexed": true,
          "name": "operator",
          "type": "address"
        },
        {
          "indexed": false,
          "name": "role",
          "type": "string"
        }
      ],
      "name": "RoleAdded",
      "type": "event",
      "signature": "0xbfec83d64eaa953f2708271a023ab9ee82057f8f3578d548c1a4ba0b5b700489"
    },
    {
      "anonymous": false,
      "inputs": [
        {
          "indexed": true,
          "name": "operator",
          "type": "address"
        },
        {
          "indexed": false,
          "name": "role",
          "type": "string"
        }
      ],
      "name": "RoleRemoved",
      "type": "event",
      "signature": "0xd211483f91fc6eff862467f8de606587a30c8fc9981056f051b897a418df803a"
    },
    {
      "anonymous": false,
      "inputs": [
        {
          "indexed": true,
          "name": "previousOwner",
          "type": "address"
        }
      ],
      "name": "OwnershipRenounced",
      "type": "event",
      "signature": "0xf8df31144d9c2f0f6b59d69b8b98abd5459d07f2742c4df920b25aae33c64820"
    },
    {
      "anonymous": false,
      "inputs": [
        {
          "indexed": true,
          "name": "previousOwner",
          "type": "address"
        },
        {
          "indexed": true,
          "name": "newOwner",
          "type": "address"
        }
      ],
      "name": "OwnershipTransferred",
      "type": "event",
      "signature": "0x8be0079c531659141344cd1fd0a4f28419497f9722a3daafe3b4186f6b6457e0"
    },
    {
      "constant": true,
      "inputs": [],
      "name": "getDescription",
      "outputs": [
        {
          "name": "",
          "type": "string"
        }
      ],
      "payable": false,
      "stateMutability": "view",
      "type": "function",
      "signature": "0x1a092541"
    },
    {
      "constant": false,
      "inputs": [
        {
          "name": "_description",
          "type": "string"
        }
      ],
      "name": "setDescription",
      "outputs": [],
      "payable": false,
      "stateMutability": "nonpayable",
      "type": "function",
      "signature": "0x90c3f38f"
    },
    {
      "constant": true,
      "inputs": [],
      "name": "getLogoUrl",
      "outputs": [
        {
          "name": "",
          "type": "string"
        }
      ],
      "payable": false,
      "stateMutability": "view",
      "type": "function",
      "signature": "0x1887e433"
    },
    {
      "constant": false,
      "inputs": [
        {
          "name": "_logoUrl",
          "type": "string"
        }
      ],
      "name": "setLogoUrl",
      "outputs": [],
      "payable": false,
      "stateMutability": "nonpayable",
      "type": "function",
      "signature": "0xbf748234"
    },
    {
      "constant": true,
      "inputs": [],
      "name": "getTitle",
      "outputs": [
        {
          "name": "",
          "type": "string"
        }
      ],
      "payable": false,
      "stateMutability": "view",
      "type": "function",
      "signature": "0xff3c1a8f"
    },
    {
      "constant": false,
      "inputs": [
        {
          "name": "_title",
          "type": "string"
        }
      ],
      "name": "setTitle",
      "outputs": [],
      "payable": false,
      "stateMutability": "nonpayable",
      "type": "function",
      "signature": "0x72910be0"
    },
    {
      "constant": true,
      "inputs": [
        {
          "name": "_user",
          "type": "address"
        }
      ],
      "name": "getUser",
      "outputs": [
        {
          "name": "",
          "type": "address"
        },
        {
          "name": "",
          "type": "uint256[]"
        },
        {
          "name": "",
          "type": "uint256[]"
        },
        {
          "name": "",
          "type": "bool"
        }
      ],
      "payable": false,
      "stateMutability": "view",
      "type": "function",
      "signature": "0x6f77926b"
    },
    {
      "constant": true,
      "inputs": [],
      "name": "getUrls",
      "outputs": [
        {
          "name": "",
          "type": "uint256[]"
        }
      ],
      "payable": false,
      "stateMutability": "view",
      "type": "function",
      "signature": "0xda06e07f"
    },
    {
      "constant": true,
      "inputs": [
        {
          "name": "_key",
          "type": "uint256"
        }
      ],
      "name": "getUrl",
      "outputs": [
        {
          "name": "",
          "type": "uint256"
        },
        {
          "name": "",
          "type": "string"
        }
      ],
      "payable": false,
      "stateMutability": "view",
      "type": "function",
      "signature": "0x85604d89"
    },
    {
      "constant": false,
      "inputs": [
        {
          "name": "_url",
          "type": "string"
        },
        {
          "name": "_provenance",
          "type": "string"
        }
      ],
      "name": "putProvenanceRecord",
      "outputs": [],
      "payable": false,
      "stateMutability": "nonpayable",
      "type": "function",
      "signature": "0xe5e053c8"
    },
    {
      "constant": true,
      "inputs": [
        {
          "name": "_url",
          "type": "string"
        }
      ],
      "name": "getProvenanceRecords",
      "outputs": [
        {
          "name": "",
          "type": "uint256"
        }
      ],
      "payable": false,
      "stateMutability": "view",
      "type": "function",
      "signature": "0x43562a4f"
    },
    {
      "constant": true,
      "inputs": [
        {
          "name": "_url",
          "type": "string"
        },
        {
          "name": "_index",
          "type": "uint256"
        }
      ],
      "name": "getProvenanceRecord",
      "outputs": [
        {
          "name": "",
          "type": "string"
        }
      ],
      "payable": false,
      "stateMutability": "view",
      "type": "function",
      "signature": "0xb1d9ebfb"
    }
  ],
  "bytecode": "0x60016080819052600260a08190526004805460ff19908116841761ff0019908116610200908117845561014060405260c086905260e0949094526003610100526101209290925260078054909116909317161762ff00001916620300001763ff000000191663040000001790553480156200007957600080fd5b5060008054600160a060020a0319163390811790915560408051808201909152600981527f73757065727573657200000000000000000000000000000000000000000000006020820152620000d891906401000000006200033a810204565b60045460408051808201909152600981527f73757065727573657200000000000000000000000000000000000000000000006020820152620001319160059160ff90911690640100000000620034386200046082021704565b60045460408051808201909152600681527f656469746f72000000000000000000000000000000000000000000000000000060208201526200018e9160059161010090910460ff1690640100000000620004608102620034381704565b60078054604080518082019091529182527f74727573746564000000000000000000000000000000000000000000000000006020830152620001e591600a9160ff1690640100000000620034386200046082021704565b60075460408051808201909152600581527f6b6e6f776e00000000000000000000000000000000000000000000000000000060208201526200024291600a9161010090910460ff1690640100000000620004608102620034381704565b60075460408051808201909152600881527f70696e676261636b0000000000000000000000000000000000000000000000006020820152620002a091600a916201000090910460ff1690640100000000620004608102620034381704565b60075460408051808201909152600881527f6c696e6b6261636b0000000000000000000000000000000000000000000000006020820152620002ff91600a91630100000090910460ff1690640100000000620004608102620034381704565b600754620003349062000325906301000000900460ff16640100000000620005db810204565b6401000000006200068f810204565b62000e28565b620003b6826001836040518082805190602001908083835b60208310620003735780518252601f19909201916020918201910162000352565b51815160209384036101000a60001901801990921691161790529201948552506040519384900301909220929150506401000000006200081e8102620039231704565b81600160a060020a03167fbfec83d64eaa953f2708271a023ab9ee82057f8f3578d548c1a4ba0b5b700489826040518080602001828103825283818151815260200191508051906020019080838360005b838110156200042157818101518382015260200162000407565b50505050905090810190601f1680156200044f5780820380516001836020036101000a031916815260200191505b509250505060405180910390a25050565b604080517ff593633c000000000000000000000000000000000000000000000000000000008152600481018590526024810184905290518491849173__LinkedListLib_________________________9163f593633c916044808301926020929190829003018186803b158015620004d757600080fd5b505af4158015620004ec573d6000803e3d6000fd5b505050506040513d60208110156200050357600080fd5b5051156200057257604080517f08c379a000000000000000000000000000000000000000000000000000000000815260206004820152600f60248201527f54616720646f6573206578697374210000000000000000000000000000000000604482015290519081900360640190fd5b6200058e8585600064010000000062002ea16200084382021704565b604080518082018252858152602080820186815260008881526001808b018452949020835181559051805193949193620005d19392850192919091019062000d83565b5050505050505050565b6060620005f8600a83640100000000620029b96200086182021704565b60019081018054604080516020600295841615610100026000190190931694909404601f810183900483028501830190915280845290830182828015620006835780601f10620006575761010080835404028352916020019162000683565b820191906000526020600020905b8154815290600101906020018083116200066557829003601f168201915b50505050509050919050565b600054600160a060020a0316331480620006b85750620006b83364010000000062000992810204565b1515620006c457600080fd5b60408051808201909152600981527f73757065727573657200000000000000000000000000000000000000000000006020820152819062000714908264010000000062003299620009ea82021704565b15620007a757604080517f08c379a000000000000000000000000000000000000000000000000000000000815260206004820152602960248201527f506172616d65746572206973206e6f7420616c6c6f77656420746f206265207360448201527f7570657275736572210000000000000000000000000000000000000000000000606482015290519081900360840190fd5b60016002836040518082805190602001908083835b60208310620007dd5780518252601f199092019160209182019101620007bc565b51815160209384036101000a60001901801990921691161790529201948552506040519384900301909220805460ff19169315159390931790925550505050565b600160a060020a0316600090815260209190915260409020805460ff19166001179055565b6200085b836000848464010000000062000b93810204565b50505050565b600082828160000173__LinkedListLib_________________________63f593633c9091836040518363ffffffff167c0100000000000000000000000000000000000000000000000000000000028152600401808381526020018281526020019250505060206040518083038186803b158015620008de57600080fd5b505af4158015620008f3573d6000803e3d6000fd5b505050506040513d60208110156200090a57600080fd5b505115156200097a57604080517f08c379a000000000000000000000000000000000000000000000000000000000815260206004820152601360248201527f54616720646f6573206e6f742065786973742100000000000000000000000000604482015290519081900360640190fd5b50505060009081526001919091016020526040902090565b6000620009e4826040805190810160405280600981526020017f737570657275736572000000000000000000000000000000000000000000000081525062000c30640100000000026401000000009004565b92915050565b805182516000911462000a0057506000620009e4565b816040516020018082805190602001908083835b6020831062000a355780518252601f19909201916020918201910162000a14565b6001836020036101000a0380198251168184511680821785525050505050509050019150506040516020818303038152906040526040518082805190602001908083835b6020831062000a9a5780518252601f19909201916020918201910162000a79565b51815160209384036101000a60001901801990921691161790526040519190930181900381208851909550889450908301928392508401908083835b6020831062000af75780518252601f19909201916020918201910162000ad6565b6001836020036101000a0380198251168184511680821785525050505050509050019150506040516020818303038152906040526040518082805190602001908083835b6020831062000b5c5780518252601f19909201916020918201910162000b3b565b5181516020939093036101000a60001901801990911692169190911790526040519201829003909120939093149695505050505050565b60008062000bab868564010000000062000cb5810204565b15801562000bc9575062000bc9868664010000000062000cb5810204565b1562000c225750600084815260208681526040808320851515845290915290205462000c018686868664010000000062000d33810204565b62000c188685838664010000000062000d33810204565b6001915062000c27565b600091505b50949350505050565b600062000cae836001846040518082805190602001908083835b6020831062000c6b5780518252601f19909201916020918201910162000c4a565b51815160209384036101000a600019018019909216911617905292019485525060405193849003019092209291505064010000000062000d64810262002e761704565b9392505050565b60008181526020838152604080832083805290915281205415801562000cf1575060008281526020848152604080832060018452909152902054155b1562000d2a576000808052602084815260408083206001845290915290205482141562000d2157506001620009e4565b506000620009e4565b506001620009e4565b6000828152602085815260408083209315808452938252808320869055948252948552838120911581529352912055565b600160a060020a03166000908152602091909152604090205460ff1690565b828054600181600116156101000203166002900490600052602060002090601f016020900481019282601f1062000dc657805160ff191683800117855562000df6565b8280016001018555821562000df6579182015b8281111562000df657825182559160200191906001019062000dd9565b5062000e0492915062000e08565b5090565b62000e2591905b8082111562000e04576000815560010162000e0f565b90565b613f818062000e386000396000f3006080604052600436106101e85763ffffffff60e060020a600035041662ce8e3e81146101ed578062fba0271461025257806303b4b6ba146102df57806306a0fb62146103055780630988ca8c1461031a57806312f70d921461038157806313797c15146103e45780631887e433146104475780631a0925411461045c578063217fe6c6146104715780632c897b8b146104ec5780632f54bf6e1461054557806343562a4f1461056657806346b09d55146105d15780634b68d431146105e65780634ee7b90f1461064d57806357c393fa146106625780636f77926b14610683578063715018a61461076157806372910be01461077657806380026a59146107cf57806385604d891461083657806386af6f82146108cd5780638da5cb5b1461093157806390c3f38f146109625780639d6abe4f146109bb578063ac48486414610a49578063b1d9ebfb14610aa2578063b782118814610afd578063bc17fb1414610b5b578063bceee05e14610bca578063bf74823414610beb578063c106bca914610c44578063ca376fbb14610c5c578063cdf2bd0214610cb5578063d138e46f14610d13578063da06e07f14610e21578063e5e053c814610e36578063ebb4f48414610ecd578063f2fde38b14610ee2578063fd51362914610f03578063ff3c1a8f14610f27575b600080fd5b3480156101f957600080fd5b50610202610f3c565b60408051602080825283518183015283519192839290830191858101910280838360005b8381101561023e578181015183820152602001610226565b505050509050019250505060405180910390f35b34801561025e57600080fd5b5061026a600435611022565b6040805160208082528351818301528351919283929083019185019080838360005b838110156102a457818101518382015260200161028c565b50505050905090810190601f1680156102d15780820380516001836020036101000a031916815260200191505b509250505060405180910390f35b3480156102eb57600080fd5b50610303600160a060020a03600435166024356110c8565b005b34801561031157600080fd5b50610202611451565b34801561032657600080fd5b5060408051602060046024803582810135601f8101859004850286018501909652858552610303958335600160a060020a03169536956044949193909101919081908401838280828437509497506114a89650505050505050565b34801561038d57600080fd5b50604080516020600460248035828101358481028087018601909752808652610303968435600160a060020a0316963696604495919490910192918291850190849080828437509497506115169650505050505050565b3480156103f057600080fd5b50604080516020600460248035828101358481028087018601909752808652610303968435600160a060020a03169636966044959194909101929182918501908490808284375094975061154a9650505050505050565b34801561045357600080fd5b5061026a61157e565b34801561046857600080fd5b5061026a611614565b34801561047d57600080fd5b5060408051602060046024803582810135601f81018590048502860185019096528585526104d8958335600160a060020a03169536956044949193909101919081908401838280828437509497506116759650505050505050565b604080519115158252519081900360200190f35b3480156104f857600080fd5b506040805160206004803580820135601f81018490048402850184019095528484526104d89436949293602493928401919081908401838280828437509497506116ea9650505050505050565b34801561055157600080fd5b506104d8600160a060020a0360043516611755565b34801561057257600080fd5b506040805160206004803580820135601f81018490048402850184019095528484526105bf9436949293602493928401919081908401838280828437509497506117699650505050505050565b60408051918252519081900360200190f35b3480156105dd57600080fd5b506102026117d1565b3480156105f257600080fd5b5060408051602060046024803582810135601f8101859004850286018501909652858552610303958335600160a060020a03169536956044949193909101919081908401838280828437509497506118289650505050505050565b34801561065957600080fd5b5061020261191d565b34801561066e57600080fd5b50610303600160a060020a0360043516611974565b34801561068f57600080fd5b506106a4600160a060020a0360043516611a16565b6040518085600160a060020a0316600160a060020a03168152602001806020018060200184151515158152602001838103835286818151815260200191508051906020019060200280838360005b8381101561070a5781810151838201526020016106f2565b50505050905001838103825285818151815260200191508051906020019060200280838360005b83811015610749578181015183820152602001610731565b50505050905001965050505050505060405180910390f35b34801561076d57600080fd5b50610303611a48565b34801561078257600080fd5b506040805160206004803580820135601f8101849004840285018401909552848452610303943694929360249392840191908190840183828082843750949750611aa79650505050505050565b3480156107db57600080fd5b5060408051602060046024803582810135601f8101859004850286018501909652858552610303958335600160a060020a0316953695604494919390910191908190840183828082843750949750611ae29650505050505050565b34801561084257600080fd5b5061084e600435611b14565b6040518083815260200180602001828103825283818151815260200191508051906020019080838360005b83811015610891578181015183820152602001610879565b50505050905090810190601f1680156108be5780820380516001836020036101000a031916815260200191505b50935050505060405180910390f35b3480156108d957600080fd5b506040805160206004803580820135601f810184900484028501840190955284845261030394369492936024939284019190819084018382808284375094975050509235600160a060020a03169350611bc092505050565b34801561093d57600080fd5b50610946611c67565b60408051600160a060020a039092168252519081900360200190f35b34801561096e57600080fd5b506040805160206004803580820135601f8101849004840285018401909552848452610303943694929360249392840191908190840183828082843750949750611c769650505050505050565b3480156109c757600080fd5b506109dc600160a060020a0360043516611cb1565b6040518083600160a060020a0316600160a060020a0316815260200180602001828103825283818151815260200191508051906020019060200280838360005b83811015610a34578181015183820152602001610a1c565b50505050905001935050505060405180910390f35b348015610a5557600080fd5b506040805160206004803580820135601f8101849004840285018401909552848452610303943694929360249392840191908190840183828082843750949750611dbd9650505050505050565b348015610aae57600080fd5b506040805160206004803580820135601f810184900484028501840190955284845261026a9436949293602493928401919081908401838280828437509497505093359450611ee79350505050565b348015610b0957600080fd5b5060408051602060046024803582810135601f8101859004850286018501909652858552610303958335953695604494919390910191908190840183828082843750949750611ff19650505050505050565b348015610b6757600080fd5b506040805160206004803580820135601f810184900484028501840190955284845261030394369492936024939284019190819084018382808284375094975050600160a060020a03853516955050505050602081013515159060400135612097565b348015610bd657600080fd5b506104d8600160a060020a0360043516612288565b348015610bf757600080fd5b506040805160206004803580820135601f81018490048402850184019095528484526103039436949293602493928401919081908401838280828437509497506122b89650505050505050565b348015610c5057600080fd5b5061084e6004356122f3565b348015610c6857600080fd5b506040805160206004803580820135601f81018490048402850184019095528484526103039436949293602493928401919081908401838280828437509497506123769650505050505050565b348015610cc157600080fd5b5060408051602060046024803582810135601f810185900485028601850190965285855261030395833595369560449491939091019190819084018382808284375094975061245e9650505050505050565b348015610d1f57600080fd5b50604080516020600460248035828101358481028087018601909752808652610303968435600160a060020a031696369660449591949091019291829185019084908082843750506040805187358901803560208181028481018201909552818452989b9a998901989297509082019550935083925085019084908082843750506040805187358901803560208181028481018201909552818452989b9a998901989297509082019550935083925085019084908082843750506040805187358901803560208181028481018201909552818452989b9a9989019892975090820195509350839250850190849080828437509497506124989650505050505050565b348015610e2d57600080fd5b506102026124f3565b348015610e4257600080fd5b506040805160206004803580820135601f810184900484028501840190955284845261030394369492936024939284019190819084018382808284375050604080516020601f89358b018035918201839004830284018301909452808352979a99988101979196509182019450925082915084018382808284375094975061254a9650505050505050565b348015610ed957600080fd5b5061026a6126e6565b348015610eee57600080fd5b50610303600160a060020a036004351661270c565b348015610f0f57600080fd5b50610303600160a060020a036004351660243561273d565b348015610f3357600080fd5b5061026a612958565b6060600373__LinkedListAdvancedExtensionLib________632fc5efe690916040518263ffffffff1660e060020a0281526004018082815260200191505060006040518083038186803b158015610f9357600080fd5b505af4158015610fa7573d6000803e3d6000fd5b505050506040513d6000823e601f3d908101601f191682016040526020811015610fd057600080fd5b810190808051602060020a811115610fe757600080fd5b82016020810184811115610ffa57600080fd5b81518560208202830111602060020a8211171561101657600080fd5b50909450505050505b90565b6060611035600a8363ffffffff6129b916565b60019081018054604080516020600295841615610100026000190190931694909404601f8101839004830285018301909152808452908301828280156110bc5780601f10611091576101008083540402835291602001916110bc565b820191906000526020600020905b81548152906001019060200180831161109f57829003601f168201915b50505050509050919050565b6000816110dc600a8263ffffffff612ab216565b1515611136576040805160e560020a62461bcd02815260206004820152602a6024820152600080516020613f16833981519152604482015260b160020a691031b7b73a3930b1ba1702606482015290519081900360840190fd5b611147600a8463ffffffff6129b916565b60019081018054604080516020600295841615610100026000190190931694909404601f8101839004830285018301909152808452908301828280156111ce5780601f106111a3576101008083540402835291602001916111ce565b820191906000526020600020905b8154815290600101906020018083116111b157829003601f168201915b50505050506002816040518082805190602001908083835b602083106112055780518252601f1990920191602091820191016111e6565b51815160209384036101000a600019018019909216911617905292019485525060405193849003019092205460ff16915081905061124857506112483382611675565b15156112a0576040805160e560020a62461bcd0281526020600482015260316024820152600080516020613ef68339815191526044820152600080516020613f36833981519152606482015290519081900360840190fd5b6112b26008868663ffffffff612b4516565b600754859350600160a060020a03841690632c897b8b906112dc906301000000900460ff16611022565b6040518263ffffffff1660e060020a0281526004018080602001828103825283818151815260200191508051906020019080838360005b8381101561132b578181015183820152602001611313565b50505050905090810190601f1680156113585780820380516001836020036101000a031916815260200191505b5092505050602060405180830381600087803b15801561137757600080fd5b505af115801561138b573d6000803e3d6000fd5b505050506040513d60208110156113a157600080fd5b50511561141d576007546040805160e060020a63fd513629028152306004820152630100000090920460ff16602483015251600160a060020a0385169163fd51362991604480830192600092919082900301818387803b15801561140457600080fd5b505af1158015611418573d6000803e3d6000fd5b505050505b604080518581529051600160a060020a03871691600080516020613eb6833981519152919081900360200190a25050505050565b6060600573__TagLib________________________________63469e038e90916040518263ffffffff1660e060020a0281526004018082815260200191505060006040518083038186803b158015610f9357600080fd5b611512826001836040518082805190602001908083835b602083106114de5780518252601f1990920191602091820191016114bf565b51815160209384036101000a6000190180199092169116179052920194855250604051938490030190922092915050612c50565b5050565b600054600160a060020a0316331480611533575061153333612288565b151561153e57600080fd5b61151282826005612c65565b600054600160a060020a0316331480611567575061156733612288565b151561157257600080fd5b61151282826005612d79565b60128054604080516020601f600260001961010060018816150201909516949094049384018190048102820181019092528281526060939092909183018282801561160a5780601f106115df5761010080835404028352916020019161160a565b820191906000526020600020905b8154815290600101906020018083116115ed57829003601f168201915b5050505050905090565b60118054604080516020601f600260001961010060018816150201909516949094049384018190048102820181019092528281526060939092909183018282801561160a5780601f106115df5761010080835404028352916020019161160a565b60006116e1836001846040518082805190602001908083835b602083106116ad5780518252601f19909201916020918201910161168e565b51815160209384036101000a6000190180199092169116179052920194855250604051938490030190922092915050612e76565b90505b92915050565b60006002826040518082805190602001908083835b6020831061171e5780518252601f1990920191602091820191016116ff565b51815160209384036101000a600019018019909216911617905292019485525060405193849003019092205460ff16949350505050565b600054600160a060020a0391821691161490565b60006010826040518082805190602001908083835b6020831061179d5780518252601f19909201916020918201910161177e565b51815160209384036101000a6000190180199092169116179052920194855250604051938490030190922054949350505050565b6060600873__ProvLinkListLib_______________________6315be85ad90916040518263ffffffff1660e060020a0281526004018082815260200191505060006040518083038186803b158015610f9357600080fd5b600054600160a060020a0316331480611845575061184533612288565b151561185057600080fd5b73__LinkedListLib_________________________63f593633c600361187e600160a060020a038616612e95565b6040518363ffffffff1660e060020a028152600401808381526020018281526020019250505060206040518083038186803b1580156118bc57600080fd5b505af41580156118d0573d6000803e3d6000fd5b505050506040513d60208110156118e657600080fd5b505115156119135761191361190383600160a060020a0316612e95565b600390600063ffffffff612ea116565b6115128282612eae565b6060600a73__TagLib________________________________63469e038e90916040518263ffffffff1660e060020a0281526004018082815260200191505060006040518083038186803b158015610f9357600080fd5b6119a23360408051908101604052806009815260200160b960020a6839bab832b93ab9b2b9028152506114a8565b600160a060020a03811615156119b757600080fd5b6119e53360408051908101604052806009815260200160b960020a6839bab832b93ab9b2b902815250612ee0565b611a138160408051908101604052806009815260200160b960020a6839bab832b93ab9b2b902815250612ff1565b50565b6000606080600084611a27866130c3565b611a30876130d0565b611a3988611755565b93509350935093509193509193565b600054600160a060020a03163314611a5f57600080fd5b60008054604051600160a060020a03909116917ff8df31144d9c2f0f6b59d69b8b98abd5459d07f2742c4df920b25aae33c6482091a260008054600160a060020a0319169055565b600054600160a060020a0316331480611ac45750611ac433612288565b1515611acf57600080fd5b8051611512906013906020840190613e06565b600054600160a060020a0316331480611aff5750611aff33612288565b1515611b0a57600080fd5b6115128282612ee0565b6000606082611b2a600c8263ffffffff6130dd16565b8054604080516020601f60026000196101006001881615020190951694909404938401819004810282018101909252828152918391830182828015611bb05780601f10611b8557610100808354040283529160200191611bb0565b820191906000526020600020905b815481529060010190602001808311611b9357829003601f168201915b5050505050905091509150915091565b806000611bd460088363ffffffff6130f216565b60075460ff6201000090910481166000908152600183016020526040902054919250161515611c4d576040805160e560020a62461bcd02815260206004820152601f60248201527f4c696e6b206973206e6f74206f70656e20666f722070696e676261636b732100604482015290519081900360640190fd5b611c6160088486600163ffffffff61311016565b50505050565b600054600160a060020a031681565b600054600160a060020a0316331480611c935750611c9333612288565b1515611c9e57600080fd5b8051611512906011906020840190613e06565b60006060611cc660088463ffffffff6130f216565b6040805160e060020a635f33ad290281526004810192909252600a60248301525173__ProvLinkLib___________________________91635f33ad29916044808301926000929190829003018186803b158015611d2257600080fd5b505af4158015611d36573d6000803e3d6000fd5b505050506040513d6000823e601f3d908101601f191682016040908152811015611d5f57600080fd5b815160208301805191939283019291602060020a811115611d7f57600080fd5b82016020810184811115611d9257600080fd5b81518560208202830111602060020a82111715611dae57600080fd5b50949650945050505050915091565b600054600160a060020a0316331480611dda5750611dda33612288565b1515611de557600080fd5b604080518082019091526009815260b960020a6839bab832b93ab9b2b90260208201528190611e1a908263ffffffff61329916565b15611e72576040805160e560020a62461bcd0281526020600482015260296024820152600080516020613ed6833981519152604482015260b860020a6875706572757365722102606482015290519081900360840190fd5b60016002836040518082805190602001908083835b60208310611ea65780518252601f199092019160209182019101611e87565b51815160209384036101000a60001901801990921691161790529201948552506040519384900301909220805460ff19169315159390931790925550505050565b60606010836040518082805190602001908083835b60208310611f1b5780518252601f199092019160209182019101611efc565b51815160209384036101000a6000190180199092169116179052920194855250604051938490030190922080549092508491508110611f5657fe5b600091825260209182902001805460408051601f6002600019610100600187161502019094169390930492830185900485028101850190915281815292830182828015611fe45780601f10611fb957610100808354040283529160200191611fe4565b820191906000526020600020905b815481529060010190602001808311611fc757829003601f168201915b5050505050905092915050565b81612003600a8263ffffffff612ab216565b15612058576040805160e560020a62461bcd02815260206004820152601a60248201527f4c696e6b20747970652065786973747320616c6c72656164792e000000000000604482015290519081900360640190fd5b600054600160a060020a0316331480612075575061207533612288565b151561208057600080fd5b612092600a848463ffffffff61343816565b505050565b806120a9600a8263ffffffff612ab216565b1515612103576040805160e560020a62461bcd02815260206004820152602a6024820152600080516020613f16833981519152604482015260b160020a691031b7b73a3930b1ba1702606482015290519081900360840190fd5b612114600a8363ffffffff6129b916565b60019081018054604080516020600295841615610100026000190190931694909404601f81018390048302850183019091528084529083018282801561219b5780601f106121705761010080835404028352916020019161219b565b820191906000526020600020905b81548152906001019060200180831161217e57829003601f168201915b50505050506002816040518082805190602001908083835b602083106121d25780518252601f1990920191602091820191016121b3565b51815160209384036101000a600019018019909216911617905292019485525060405193849003019092205460ff16915081905061221557506122153382611675565b151561226d576040805160e560020a62461bcd0281526020600482015260316024820152600080516020613ef68339815191526044820152600080516020613f36833981519152606482015290519081900360840190fd5b612280600886888763ffffffff61311016565b505050505050565b60006116e48260408051908101604052806009815260200160b960020a6839bab832b93ab9b2b902815250611675565b600054600160a060020a03163314806122d557506122d533612288565b15156122e057600080fd5b8051611512906012906020840190613e06565b600060608261230960058263ffffffff6129b916565b600101808054600181600116156101000203166002900480601f016020809104026020016040519081016040528092919081815260200182805460018160011615610100020316600290048015611bb05780601f10611b8557610100808354040283529160200191611bb0565b600054600160a060020a0316331480612393575061239333612288565b151561239e57600080fd5b604080518082019091526009815260b960020a6839bab832b93ab9b2b902602082015281906123d3908263ffffffff61329916565b1561242b576040805160e560020a62461bcd0281526020600482015260296024820152600080516020613ed6833981519152604482015260b860020a6875706572757365722102606482015290519081900360840190fd5b600060028360405180828051906020019080838360208310611ea65780518252601f199092019160209182019101611e87565b600054600160a060020a031633148061247b575061247b33612288565b151561248657600080fd5b611512600a838363ffffffff61356b16565b600054600160a060020a03163314806124b557506124b533612288565b15156124c057600080fd5b6124cc8583600a612d79565b6124d6858561154a565b6124e28582600a612c65565b6124ec8584611516565b5050505050565b6060600c73__UrlLib________________________________63c3f8255590916040518263ffffffff1660e060020a0281526004018082815260200191505060006040518083038186803b158015610f9357600080fd5b604080518082018252600680825260d160020a6532b234ba37b90260208301908152925160009360029284929182918083835b6020831061259c5780518252601f19909201916020918201910161257d565b51815160209384036101000a600019018019909216911617905292019485525060405193849003019092205460ff1691508190506125df57506125df3382611675565b1515612637576040805160e560020a62461bcd0281526020600482015260316024820152600080516020613ef68339815191526044820152600080516020613f36833981519152606482015290519081900360840190fd5b612648600c8563ffffffff61364616565b151561265f5761265f600c8563ffffffff6136c316565b6010846040518082805190602001908083835b602083106126915780518252601f199092019160209182019101612672565b51815160209384036101000a6000190180199092169116179052920194855250604051938490038101909320805460018101808355600083815286902089519398509095612280955091019250870190613e06565b604080518082019091526009815260b960020a6839bab832b93ab9b2b902602082015281565b600054600160a060020a0316331480612729575061272933612288565b151561273457600080fd5b611a1381613823565b8061274f600a8263ffffffff612ab216565b15156127a9576040805160e560020a62461bcd02815260206004820152602a6024820152600080516020613f16833981519152604482015260b160020a691031b7b73a3930b1ba1702606482015290519081900360840190fd5b6127ba600a8363ffffffff6129b916565b60019081018054604080516020600295841615610100026000190190931694909404601f8101839004830285018301909152808452908301828280156128415780601f1061281657610100808354040283529160200191612841565b820191906000526020600020905b81548152906001019060200180831161282457829003601f168201915b50505050506002816040518082805190602001908083835b602083106128785780518252601f199092019160209182019101612859565b51815160209384036101000a600019018019909216911617905292019485525060405193849003019092205460ff1691508190506128bb57506128bb3382611675565b1515612913576040805160e560020a62461bcd0281526020600482015260316024820152600080516020613ef68339815191526044820152600080516020613f36833981519152606482015290519081900360840190fd5b6129256008858563ffffffff612b4516565b604080518481529051600160a060020a03861691600080516020613eb6833981519152919081900360200190a250505050565b60138054604080516020601f600260001961010060018816150201909516949094049384018190048102820181019092528281526060939092909183018282801561160a5780601f106115df5761010080835404028352916020019161160a565b600082828160000173__LinkedListLib_________________________63f593633c9091836040518363ffffffff1660e060020a028152600401808381526020018281526020019250505060206040518083038186803b158015612a1c57600080fd5b505af4158015612a30573d6000803e3d6000fd5b505050506040513d6020811015612a4657600080fd5b50511515612a97576040805160e560020a62461bcd0281526020600482015260136024820152606860020a7254616720646f6573206e6f742065786973742102604482015290519081900360640190fd5b6000848152600186016020526040902092505b505092915050565b6040805160e260020a633d64d8cf0281526004810184905260248101839052905160009173__LinkedListLib_________________________9163f593633c91604480820192602092909190829003018186803b158015612b1257600080fd5b505af4158015612b26573d6000803e3d6000fd5b505050506040513d6020811015612b3c57600080fd5b50519392505050565b600073__LinkedListLib_________________________63f593633c85612b74600160a060020a038716612e95565b6040518363ffffffff1660e060020a028152600401808381526020018281526020019250505060206040518083038186803b158015612bb257600080fd5b505af4158015612bc6573d6000803e3d6000fd5b505050506040513d6020811015612bdc57600080fd5b50511515612c0857612c08612bf984600160a060020a0316612e95565b8590600063ffffffff612ea116565b50600160a060020a0390911660008181526001938401602090815260408083208054600160a060020a031916909417845593825291840190915220805460ff19169091179055565b612c5a8282612e76565b151561151257600080fd5b600080548190600160a060020a0316331480612c855750612c8533612288565b1515612c9057600080fd5b600091505b83518210156124ec57612cc68483815181101515612caf57fe5b60209081029091010151849063ffffffff6129b916565b9050612d6e85826001018054600181600116156101000203166002900480601f016020809104026020016040519081016040528092919081815260200182805460018160011615610100020316600290048015612d645780601f10612d3957610100808354040283529160200191612d64565b820191906000526020600020905b815481529060010190602001808311612d4757829003601f168201915b5050505050611ae2565b600190910190612c95565b600080548190600160a060020a0316331480612d995750612d9933612288565b1515612da457600080fd5b600091505b83518210156124ec57612dc38483815181101515612caf57fe5b9050612e6b85826001018054600181600116156101000203166002900480601f016020809104026020016040519081016040528092919081815260200182805460018160011615610100020316600290048015612e615780601f10612e3657610100808354040283529160200191612e61565b820191906000526020600020905b815481529060010190602001808311612e4457829003601f168201915b5050505050611828565b600190910190612da9565b600160a060020a03166000908152602091909152604090205460ff1690565b600160a060020a031690565b611c618360008484613893565b600054600160a060020a0316331480612ecb5750612ecb33612288565b1515612ed657600080fd5b6115128282612ff1565b612f4a826001836040518082805190602001908083835b60208310612f165780518252601f199092019160209182019101612ef7565b51815160209384036101000a6000190180199092169116179052920194855250604051938490030190922092915050613901565b81600160a060020a03167fd211483f91fc6eff862467f8de606587a30c8fc9981056f051b897a418df803a826040518080602001828103825283818151815260200191508051906020019080838360005b83811015612fb3578181015183820152602001612f9b565b50505050905090810190601f168015612fe05780820380516001836020036101000a031916815260200191505b509250505060405180910390a25050565b61305b826001836040518082805190602001908083835b602083106130275780518252601f199092019160209182019101613008565b51815160209384036101000a6000190180199092169116179052920194855250604051938490030190922092915050613923565b81600160a060020a03167fbfec83d64eaa953f2708271a023ab9ee82057f8f3578d548c1a4ba0b5b7004898260405180806020018281038252838181518152602001915080519060200190808383600083811015612fb3578181015183820152602001612f9b565b60606116e4826005613948565b60606116e482600a613948565b60009081526001919091016020526040902090565b600160a060020a031660009081526001919091016020526040902090565b838373__LinkedListLib_________________________63f593633c8361313f600160a060020a038516612e95565b6040518363ffffffff1660e060020a028152600401808381526020018281526020019250505060206040518083038186803b15801561317d57600080fd5b505af4158015613191573d6000803e3d6000fd5b505050506040513d60208110156131a757600080fd5b505115156131f9576040805160e560020a62461bcd0281526020600482015260146024820152606060020a734c696e6b20646f6573206e6f742065786973742102604482015290519081900360640190fd5b8286600101600087600160a060020a0316600160a060020a03168152602001908152602001600020600201856040518082805190602001908083835b602083106132545780518252601f199092019160209182019101613235565b51815160209384036101000a60001901801990921691161790529201948552506040519384900301909220805460ff1916931515939093179092555050505050505050565b80518251600091146132ad575060006116e4565b816040516020018082805190602001908083835b602083106132e05780518252601f1990920191602091820191016132c1565b6001836020036101000a0380198251168184511680821785525050505050509050019150506040516020818303038152906040526040518082805190602001908083835b602083106133435780518252601f199092019160209182019101613324565b51815160209384036101000a60001901801990921691161790526040519190930181900381208851909550889450908301928392508401908083835b6020831061339e5780518252601f19909201916020918201910161337f565b6001836020036101000a0380198251168184511680821785525050505050509050019150506040516020818303038152906040526040518082805190602001908083835b602083106134015780518252601f1990920191602091820191016133e2565b5181516020939093036101000a60001901801990911692169190911790526040519201829003909120939093149695505050505050565b6040805160e260020a633d64d8cf028152600481018590526024810184905290518491849173__LinkedListLib_________________________9163f593633c916044808301926020929190829003018186803b15801561349857600080fd5b505af41580156134ac573d6000803e3d6000fd5b505050506040513d60208110156134c257600080fd5b50511561350e576040805160e560020a62461bcd02815260206004820152600f6024820152608860020a6e54616720646f65732065786973742102604482015290519081900360640190fd5b6135208585600063ffffffff612ea116565b604080518082018252858152602080820186815260008881526001808b01845294902083518155905180519394919361356193928501929190910190613e06565b5050505050505050565b6040805160e260020a633d64d8cf028152600481018590526024810184905290518491849173__LinkedListLib_________________________9163f593633c916044808301926020929190829003018186803b1580156135cb57600080fd5b505af41580156135df573d6000803e3d6000fd5b505050506040513d60208110156135f557600080fd5b50511515613520576040805160e560020a62461bcd0281526020600482015260136024820152606860020a7254616720646f6573206e6f742065786973742102604482015290519081900360640190fd5b600082600201826040518082805190602001908083835b6020831061367c5780518252601f19909201916020918201910161365d565b51815160209384036101000a6000190180199092169116179052920194855250604051938490030190922054151591506136ba9050575060006116e4565b50600192915050565b600382018054600101908190556136e3908390600063ffffffff612ea116565b600382015460009081526001830160209081526040909120825161370992840190613e06565b50816003015482600201826040518082805190602001908083835b602083106137435780518252601f199092019160209182019101613724565b6001836020036101000a0380198251168184511680821785525050505050509050019150509081526020016040518091039020819055507fcc565ba580681aee2dd844656806e54ac4515b2a1f9b4ce302230d9d0305dec68260030154826040518083815260200180602001828103825283818151815260200191508051906020019080838360005b838110156137e45781810151838201526020016137cc565b50505050905090810190601f1680156138115780820380516001836020036101000a031916815260200191505b50935050505060405180910390a15050565b600160a060020a038116151561383857600080fd5b60008054604051600160a060020a03808516939216917f8be0079c531659141344cd1fd0a4f28419497f9722a3daafe3b4186f6b6457e091a360008054600160a060020a031916600160a060020a0392909216919091179055565b6000806138a08685613b31565b1580156138b257506138b28686613b31565b156138f3575060008481526020868152604080832085151584529091529020546138de86868686613ba9565b6138ea86858386613ba9565b600191506138f8565b600091505b50949350505050565b600160a060020a0316600090815260209190915260409020805460ff19169055565b600160a060020a0316600090815260209190915260409020805460ff19166001179055565b606080613953613e84565b8373__TagLib________________________________636ebb34af90916040518263ffffffff1660e060020a0281526004018082815260200191505060206040518083038186803b1580156139a757600080fd5b505af41580156139bb573d6000803e3d6000fd5b505050506040513d60208110156139d157600080fd5b50516040805182815260208084028201019091529080156139fc578160200160208202803883390190505b509150613a0884613bda565b90505b613a24613a178561101f565b829063ffffffff613beb16565b15613b2957600082613a3583613dd6565b81518110613a3f57fe5b60209081029091010152613af785613a66613a5984613de1565b879063ffffffff6129b916565b60019081018054604080516020600295841615610100026000190190931694909404601f810183900483028501830190915280845290830182828015613aed5780601f10613ac257610100808354040283529160200191613aed565b820191906000526020600020905b815481529060010190602001808311613ad057829003601f168201915b5050505050611675565b15613b2457613b0581613de1565b82613b0f83613dd6565b81518110613b1957fe5b602090810290910101525b613a0b565b509392505050565b600081815260208381526040808320838052909152812054158015613b6c575060008281526020848152604080832060018452909152902054155b15613ba15760008080526020848152604080832060018452909152902054821415613b99575060016116e4565b5060006116e4565b5060016116e4565b6000828152602085815260408083209315808452938252808320869055948252948552838120911581529352912055565b613be2613e84565b6116e482613de5565b60008060008373__LinkedListExtensionLib________________63ddf223b9909187600001516040518363ffffffff1660e060020a0281526004018083815260200182815260200192505050604080518083038186803b158015613c4f57600080fd5b505af4158015613c63573d6000803e3d6000fd5b505050506040513d6040811015613c7957600080fd5b5080516020909101519092509050811580613d1857506040805160e060020a63cd9495f90281526004810186905260248101839052905173__LinkedListExtensionLib________________9163cd9495f9916044808301926020929190829003018186803b158015613ceb57600080fd5b505af4158015613cff573d6000803e3d6000fd5b505050506040513d6020811015613d1557600080fd5b50515b15613d265760009250612aaa565b6040805160e260020a633d64d8cf0281526004810186905260248101839052905173__LinkedListLib_________________________9163f593633c916044808301926020929190829003018186803b158015613d8257600080fd5b505af4158015613d96573d6000803e3d6000fd5b505050506040513d6020811015613dac57600080fd5b505115613dcb5760208501805160019081019091528186529250612aaa565b506000949350505050565b602001516000190190565b5190565b613ded613e84565b5050604080518082019091526000808252602082015290565b828054600181600116156101000203166002900490600052602060002090601f016020900481019282601f10613e4757805160ff1916838001178555613e74565b82800160010185558215613e74579182015b82811115613e74578251825591602001919060010190613e59565b50613e80929150613e9b565b5090565b604080518082019091526000808252602082015290565b61101f91905b80821115613e805760008155600101613ea15600ff39d6a66aa59c7a33c3ad7aa82e56d5cba3c1038afd5575ab842ee55bf20e2e506172616d65746572206973206e6f7420616c6c6f77656420746f2062652073526f6c652068617320746f20626520696e616374697665206f722075736572204c696e6b207479706520646f6573206e6f74206578697374206f6e207468697368617320746f206861766520726f6c6521000000000000000000000000000000a165627a7a723058200c809d7939cd4d7ddb999eb76b1bdf9f6859bcb3f34b7232e3d4006d8444afcc0029",
  "source": "pragma solidity ^0.4.24;\n\nimport \"../libs/UrlLib.sol\";\n\nimport \"./LinkableContract.sol\";\n\ncontract SimpleProvenanceContract is LinkableContract {\n    using UrlLib for UrlLib.UrlList;\n    \n    //todo-sv: a url is nothing else then a tag for provenance?\n    // so if we refactor the tagList we should be able to reuse it here\n    // only difference would be that \"normal\" tags are a n-m mapping --> n tags map to m links for example\n    // and in this case we have simply a 1-1 mapping --> one url(tag) maps to one set of provenance\n    UrlLib.UrlList private urls;\n    mapping (string => string[]) provenance;\n\n    string private description;\n    string private logoUrl;\n    string private title;\n\n    constructor() public {\n        //open linkback per default\n        setRoleOpen(getLinkType(tags.linkback));\n    }\n\n    /**\n        Other stuff\n    */\n\n    function getDescription()\n    public\n    view\n    returns (string) {\n        return description;\n    }\n\n    function setDescription(string _description)\n    public \n    onlyOwnerOrSuperuser() {\n        description = _description;\n    }\n\n    function getLogoUrl()\n    public\n    view\n    returns (string) {\n        return logoUrl;\n    }\n\n    function setLogoUrl(string _logoUrl)\n    public \n    onlyOwnerOrSuperuser() {\n        logoUrl = _logoUrl;\n    }\n\n    function getTitle()\n    public\n    view\n    returns (string) {\n        return title;\n    }\n\n    function setTitle(string _title)\n    public \n    onlyOwnerOrSuperuser() {\n        title = _title;\n    }\n\n    /**\n        Users\n    */\n\n    function getUser(address _user)\n    public\n    view\n    returns(address, uint256[], uint256[], bool) {\n        return (_user, getSpecialRolesForUser(_user), getLinkRolesForUser(_user), isOwner(_user));\n    }\n\n\n    /**\n        Provenance\n    */\n\n    function getUrls() public view returns (uint256[]) {\n        return urls.toReturnValue();\n    }\n\n    function getUrl(uint256 _key) public view returns (uint256, string) {\n        return (_key, urls.getUrl(_key));\n    }\n\n    function putProvenanceRecord(string _url, string _provenance) public onlyRoleOrOpenRole(ROLE_EDITOR) {\n        if(!urls.hasUrl(_url)) {\n            urls.add(_url);\n        }\n\n        string[] storage provArray = provenance[_url];\n        provArray.push(_provenance);\n    }\n\n    function getProvenanceRecords(string _url) public view returns (uint256) {\n        return provenance[_url].length;\n    }\n\n    function getProvenanceRecord(string _url, uint256 _index) public view returns (string) {\n        return provenance[_url][_index];\n    }\n}",
  "sourcePath": "/home/vauvenal5/repos/github/comp/ProvNet/eth/contracts/contracts/SimpleProvenanceContract.sol",
  "compiler": {
    "name": "solc",
    "version": "0.4.24+commit.e67f0147.Emscripten.clang"
  },
  "schemaVersion": "3.0.1",
  "updatedAt": "2019-01-14T14:59:36.832Z",
  "devdoc": {
    "methods": {
      "checkRole(address,string)": {
        "details": "reverts if addr does not have role",
        "params": {
          "_operator": "address",
          "_role": "the name of the role // reverts"
        }
      },
      "hasRole(address,string)": {
        "details": "determine if addr has role",
        "params": {
          "_operator": "address",
          "_role": "the name of the role"
        },
        "return": "bool"
      },
      "isSuperuser(address)": {
        "details": "getter to determine if address has superuser role"
      },
      "renounceOwnership()": {
        "details": "Allows the current owner to relinquish control of the contract."
      },
      "transferOwnership(address)": {
        "details": "Allows the current superuser or owner to transfer control of the contract to a newOwner.",
        "params": {
          "_newOwner": "The address to transfer ownership to."
        }
      },
      "transferSuperuser(address)": {
        "details": "Allows the current superuser to transfer his role to a newSuperuser.",
        "params": {
          "_newSuperuser": "The address to transfer ownership to."
        }
      }
    }
  },
  "userdoc": {
    "methods": {
      "addHardLink(address,uint256)": {
        "notice": "This function has alos the purpose to allow future proof linking. If the contracts change a lot in future iterations this is a way to link contracts even if they are not linkable any more by addLink standards."
      },
      "addLinkType(uint256,string)": {
        "notice": "Tags"
      },
      "addPingback(string,address)": {
        "notice": "Links "
      },
      "changeUser(address,uint256[],uint256[],uint256[],uint256[])": {
        "notice": "Users"
      },
      "getDescription()": {
        "notice": "Other stuff"
      },
      "getUrls()": {
        "notice": "Provenance"
      },
      "getUser(address)": {
        "notice": "Users"
      },
      "renounceOwnership()": {
        "notice": "Renouncing to ownership will leave the contract without an owner. It will not be possible to call the functions with the `onlyOwner` modifier anymore."
      }
    }
  }
}