{
  "contractName": "StringUtilsLibraryMock",
  "abi": [
    {
      "constant": true,
      "inputs": [
        {
          "name": "_a",
          "type": "string"
        },
        {
          "name": "_b",
          "type": "string"
        }
      ],
      "name": "equalHashWithLengthCheck",
      "outputs": [
        {
          "name": "",
          "type": "bool"
        }
      ],
      "payable": false,
      "stateMutability": "pure",
      "type": "function"
    }
  ],
  "bytecode": "0x608060405234801561001057600080fd5b506102d6806100206000396000f3006080604052600436106100405763ffffffff7c010000000000000000000000000000000000000000000000000000000060003504166321d8e4888114610045575b600080fd5b34801561005157600080fd5b506040805160206004803580820135601f81018490048402850184019095528484526100dc94369492936024939284019190819084018382808284375050604080516020601f89358b018035918201839004830284018301909452808352979a9998810197919650918201945092508291508401838280828437509497506100f09650505050505050565b604080519115158252519081900360200190f35b6000610102838363ffffffff61010b16565b90505b92915050565b805182516000911461011f57506000610105565b816040516020018082805190602001908083835b602083106101525780518252601f199092019160209182019101610133565b6001836020036101000a0380198251168184511680821785525050505050509050019150506040516020818303038152906040526040518082805190602001908083835b602083106101b55780518252601f199092019160209182019101610196565b51815160209384036101000a60001901801990921691161790526040519190930181900381208851909550889450908301928392508401908083835b602083106102105780518252601f1990920191602091820191016101f1565b6001836020036101000a0380198251168184511680821785525050505050509050019150506040516020818303038152906040526040518082805190602001908083835b602083106102735780518252601f199092019160209182019101610254565b5181516020939093036101000a600019018019909116921691909117905260405192018290039091209390931496955050505050505600a165627a7a7230582043a5227820bae141a86ba5010b8b4d92cd3da9dc83e60b7d5d0f4c0de4fcf10d0029",
  "source": "pragma solidity ^0.4.24;\n\nimport \"../libs/StringUtils.sol\";\n\ncontract StringUtilsLibraryMock {\n    using StringUtils for string;\n\n    function equalHashWithLengthCheck(string _a, string _b) public pure returns (bool) {\n        return _a.equalHashWithLengthCheck(_b);\n    }\n}",
  "sourcePath": "/home/vauvenal5/repos/github/ProvNet/eth/contracts/mocks/StringUtilsLibraryMock.sol",
  "compiler": {
    "name": "solc",
    "version": "0.4.24+commit.e67f0147.Emscripten.clang"
  },
  "schemaVersion": "2.0.1",
  "updatedAt": "2019-01-05T17:47:03.109Z"
}