{
  "contractName": "Superuser",
  "abi": [
    {
      "constant": true,
      "inputs": [
        {
          "name": "_operator",
          "type": "address"
        },
        {
          "name": "_role",
          "type": "string"
        }
      ],
      "name": "checkRole",
      "outputs": [],
      "payable": false,
      "stateMutability": "view",
      "type": "function"
    },
    {
      "constant": true,
      "inputs": [
        {
          "name": "_operator",
          "type": "address"
        },
        {
          "name": "_role",
          "type": "string"
        }
      ],
      "name": "hasRole",
      "outputs": [
        {
          "name": "",
          "type": "bool"
        }
      ],
      "payable": false,
      "stateMutability": "view",
      "type": "function"
    },
    {
      "constant": false,
      "inputs": [],
      "name": "renounceOwnership",
      "outputs": [],
      "payable": false,
      "stateMutability": "nonpayable",
      "type": "function"
    },
    {
      "constant": true,
      "inputs": [],
      "name": "owner",
      "outputs": [
        {
          "name": "",
          "type": "address"
        }
      ],
      "payable": false,
      "stateMutability": "view",
      "type": "function"
    },
    {
      "constant": true,
      "inputs": [],
      "name": "ROLE_SUPERUSER",
      "outputs": [
        {
          "name": "",
          "type": "string"
        }
      ],
      "payable": false,
      "stateMutability": "view",
      "type": "function"
    },
    {
      "inputs": [],
      "payable": false,
      "stateMutability": "nonpayable",
      "type": "constructor"
    },
    {
      "anonymous": false,
      "inputs": [
        {
          "indexed": true,
          "name": "operator",
          "type": "address"
        },
        {
          "indexed": false,
          "name": "role",
          "type": "string"
        }
      ],
      "name": "RoleAdded",
      "type": "event"
    },
    {
      "anonymous": false,
      "inputs": [
        {
          "indexed": true,
          "name": "operator",
          "type": "address"
        },
        {
          "indexed": false,
          "name": "role",
          "type": "string"
        }
      ],
      "name": "RoleRemoved",
      "type": "event"
    },
    {
      "anonymous": false,
      "inputs": [
        {
          "indexed": true,
          "name": "previousOwner",
          "type": "address"
        }
      ],
      "name": "OwnershipRenounced",
      "type": "event"
    },
    {
      "anonymous": false,
      "inputs": [
        {
          "indexed": true,
          "name": "previousOwner",
          "type": "address"
        },
        {
          "indexed": true,
          "name": "newOwner",
          "type": "address"
        }
      ],
      "name": "OwnershipTransferred",
      "type": "event"
    },
    {
      "constant": true,
      "inputs": [
        {
          "name": "_addr",
          "type": "address"
        }
      ],
      "name": "isSuperuser",
      "outputs": [
        {
          "name": "",
          "type": "bool"
        }
      ],
      "payable": false,
      "stateMutability": "view",
      "type": "function"
    },
    {
      "constant": false,
      "inputs": [
        {
          "name": "_newSuperuser",
          "type": "address"
        }
      ],
      "name": "transferSuperuser",
      "outputs": [],
      "payable": false,
      "stateMutability": "nonpayable",
      "type": "function"
    },
    {
      "constant": false,
      "inputs": [
        {
          "name": "_newOwner",
          "type": "address"
        }
      ],
      "name": "transferOwnership",
      "outputs": [],
      "payable": false,
      "stateMutability": "nonpayable",
      "type": "function"
    }
  ],
  "bytecode": "0x608060405234801561001057600080fd5b5060008054600160a060020a0319163390811790915560408051808201909152600981527f7375706572757365720000000000000000000000000000000000000000000000602082015261006d9190640100000000610072810204565b6101b5565b6100e9826001836040518082805190602001908083835b602083106100a85780518252601f199092019160209182019101610089565b51815160209384036101000a600019018019909216911617905292019485525060405193849003019092209291505064010000000061019081026107b71704565b81600160a060020a03167fbfec83d64eaa953f2708271a023ab9ee82057f8f3578d548c1a4ba0b5b700489826040518080602001828103825283818151815260200191508051906020019080838360005b8381101561015257818101518382015260200161013a565b50505050905090810190601f16801561017f5780820380516001836020036101000a031916815260200191505b509250505060405180910390a25050565b600160a060020a0316600090815260209190915260409020805460ff19166001179055565b610808806101c46000396000f3006080604052600436106100745763ffffffff60e060020a6000350416630988ca8c8114610079578063217fe6c6146100e257806357c393fa1461015d578063715018a61461017e5780638da5cb5b14610193578063bceee05e146101c4578063ebb4f484146101e5578063f2fde38b1461026f575b600080fd5b34801561008557600080fd5b5060408051602060046024803582810135601f81018590048502860185019096528585526100e0958335600160a060020a03169536956044949193909101919081908401838280828437509497506102909650505050505050565b005b3480156100ee57600080fd5b5060408051602060046024803582810135601f8101859004850286018501909652858552610149958335600160a060020a03169536956044949193909101919081908401838280828437509497506102fe9650505050505050565b604080519115158252519081900360200190f35b34801561016957600080fd5b506100e0600160a060020a0360043516610371565b34801561018a57600080fd5b506100e0610413565b34801561019f57600080fd5b506101a8610472565b60408051600160a060020a039092168252519081900360200190f35b3480156101d057600080fd5b50610149600160a060020a0360043516610481565b3480156101f157600080fd5b506101fa6104b7565b6040805160208082528351818301528351919283929083019185019080838360005b8381101561023457818101518382015260200161021c565b50505050905090810190601f1680156102615780820380516001836020036101000a031916815260200191505b509250505060405180910390f35b34801561027b57600080fd5b506100e0600160a060020a03600435166104dd565b6102fa826001836040518082805190602001908083835b602083106102c65780518252601f1990920191602091820191016102a7565b51815160209384036101000a600019018019909216911617905292019485525060405193849003019092209291505061050e565b5050565b600061036a836001846040518082805190602001908083835b602083106103365780518252601f199092019160209182019101610317565b51815160209384036101000a6000190180199092169116179052920194855250604051938490030190922092915050610523565b9392505050565b61039f3360408051908101604052806009815260200160b960020a6839bab832b93ab9b2b902815250610290565b600160a060020a03811615156103b457600080fd5b6103e23360408051908101604052806009815260200160b960020a6839bab832b93ab9b2b902815250610542565b6104108160408051908101604052806009815260200160b960020a6839bab832b93ab9b2b902815250610653565b50565b600054600160a060020a0316331461042a57600080fd5b60008054604051600160a060020a03909116917ff8df31144d9c2f0f6b59d69b8b98abd5459d07f2742c4df920b25aae33c6482091a260008054600160a060020a0319169055565b600054600160a060020a031681565b60006104b18260408051908101604052806009815260200160b960020a6839bab832b93ab9b2b9028152506102fe565b92915050565b604080518082019091526009815260b960020a6839bab832b93ab9b2b902602082015281565b600054600160a060020a03163314806104fa57506104fa33610481565b151561050557600080fd5b61041081610725565b6105188282610523565b15156102fa57600080fd5b600160a060020a03166000908152602091909152604090205460ff1690565b6105ac826001836040518082805190602001908083835b602083106105785780518252601f199092019160209182019101610559565b51815160209384036101000a6000190180199092169116179052920194855250604051938490030190922092915050610795565b81600160a060020a03167fd211483f91fc6eff862467f8de606587a30c8fc9981056f051b897a418df803a826040518080602001828103825283818151815260200191508051906020019080838360005b838110156106155781810151838201526020016105fd565b50505050905090810190601f1680156106425780820380516001836020036101000a031916815260200191505b509250505060405180910390a25050565b6106bd826001836040518082805190602001908083835b602083106106895780518252601f19909201916020918201910161066a565b51815160209384036101000a60001901801990921691161790529201948552506040519384900301909220929150506107b7565b81600160a060020a03167fbfec83d64eaa953f2708271a023ab9ee82057f8f3578d548c1a4ba0b5b70048982604051808060200182810382528381815181526020019150805190602001908083836000838110156106155781810151838201526020016105fd565b600160a060020a038116151561073a57600080fd5b60008054604051600160a060020a03808516939216917f8be0079c531659141344cd1fd0a4f28419497f9722a3daafe3b4186f6b6457e091a360008054600160a060020a031916600160a060020a0392909216919091179055565b600160a060020a0316600090815260209190915260409020805460ff19169055565b600160a060020a0316600090815260209190915260409020805460ff191660011790555600a165627a7a723058204166881dcde121fae7ad46aff0ba38851c48837cbbbe46706886e081f78fe4af0029",
  "source": "pragma solidity ^0.4.24;\n\n\nimport \"./Ownable.sol\";\nimport \"../access/rbac/RBAC.sol\";\n\n\n/**\n * @title Superuser\n * @dev The Superuser contract defines a single superuser who can transfer the ownership\n * of a contract to a new address, even if he is not the owner.\n * A superuser can transfer his role to a new address.\n */\ncontract Superuser is Ownable, RBAC {\n  string public constant ROLE_SUPERUSER = \"superuser\";\n\n  constructor () public {\n    addRole(msg.sender, ROLE_SUPERUSER);\n  }\n\n  /**\n   * @dev Throws if called by any account that's not a superuser.\n   */\n  modifier onlySuperuser() {\n    checkRole(msg.sender, ROLE_SUPERUSER);\n    _;\n  }\n\n  modifier onlyOwnerOrSuperuser() {\n    require(msg.sender == owner || isSuperuser(msg.sender));\n    _;\n  }\n\n  /**\n   * @dev getter to determine if address has superuser role\n   */\n  function isSuperuser(address _addr)\n    public\n    view\n    returns (bool)\n  {\n    return hasRole(_addr, ROLE_SUPERUSER);\n  }\n\n  /**\n   * @dev Allows the current superuser to transfer his role to a newSuperuser.\n   * @param _newSuperuser The address to transfer ownership to.\n   */\n  function transferSuperuser(address _newSuperuser) public onlySuperuser {\n    require(_newSuperuser != address(0));\n    removeRole(msg.sender, ROLE_SUPERUSER);\n    addRole(_newSuperuser, ROLE_SUPERUSER);\n  }\n\n  /**\n   * @dev Allows the current superuser or owner to transfer control of the contract to a newOwner.\n   * @param _newOwner The address to transfer ownership to.\n   */\n  function transferOwnership(address _newOwner) public onlyOwnerOrSuperuser {\n    _transferOwnership(_newOwner);\n  }\n}\n",
  "sourcePath": "/home/vauvenal5/repos/github/comp/ProvNet/eth/node_modules/openzeppelin-solidity/contracts/ownership/Superuser.sol",
  "compiler": {
    "name": "solc",
    "version": "0.4.24+commit.e67f0147.Emscripten.clang"
  },
  "schemaVersion": "3.0.1",
  "updatedAt": "2019-01-14T14:35:46.468Z",
  "devdoc": {
    "methods": {
      "checkRole(address,string)": {
        "details": "reverts if addr does not have role",
        "params": {
          "_operator": "address",
          "_role": "the name of the role // reverts"
        }
      },
      "hasRole(address,string)": {
        "details": "determine if addr has role",
        "params": {
          "_operator": "address",
          "_role": "the name of the role"
        },
        "return": "bool"
      },
      "isSuperuser(address)": {
        "details": "getter to determine if address has superuser role"
      },
      "renounceOwnership()": {
        "details": "Allows the current owner to relinquish control of the contract."
      },
      "transferOwnership(address)": {
        "details": "Allows the current superuser or owner to transfer control of the contract to a newOwner.",
        "params": {
          "_newOwner": "The address to transfer ownership to."
        }
      },
      "transferSuperuser(address)": {
        "details": "Allows the current superuser to transfer his role to a newSuperuser.",
        "params": {
          "_newSuperuser": "The address to transfer ownership to."
        }
      }
    },
    "title": "Superuser"
  },
  "userdoc": {
    "methods": {
      "renounceOwnership()": {
        "notice": "Renouncing to ownership will leave the contract without an owner. It will not be possible to call the functions with the `onlyOwner` modifier anymore."
      }
    }
  }
}