{
  "contractName": "SwitchableRBACWithSuperuserMock",
  "abi": [
    {
      "constant": true,
      "inputs": [
        {
          "name": "_operator",
          "type": "address"
        },
        {
          "name": "_role",
          "type": "string"
        }
      ],
      "name": "checkRole",
      "outputs": [],
      "payable": false,
      "stateMutability": "view",
      "type": "function"
    },
    {
      "constant": true,
      "inputs": [
        {
          "name": "_operator",
          "type": "address"
        },
        {
          "name": "_role",
          "type": "string"
        }
      ],
      "name": "hasRole",
      "outputs": [
        {
          "name": "",
          "type": "bool"
        }
      ],
      "payable": false,
      "stateMutability": "view",
      "type": "function"
    },
    {
      "constant": true,
      "inputs": [
        {
          "name": "_address",
          "type": "address"
        }
      ],
      "name": "isOwner",
      "outputs": [
        {
          "name": "",
          "type": "bool"
        }
      ],
      "payable": false,
      "stateMutability": "view",
      "type": "function"
    },
    {
      "constant": false,
      "inputs": [
        {
          "name": "_user",
          "type": "address"
        },
        {
          "name": "_role",
          "type": "string"
        }
      ],
      "name": "addUser",
      "outputs": [],
      "payable": false,
      "stateMutability": "nonpayable",
      "type": "function"
    },
    {
      "constant": false,
      "inputs": [
        {
          "name": "_newSuperuser",
          "type": "address"
        }
      ],
      "name": "transferSuperuser",
      "outputs": [],
      "payable": false,
      "stateMutability": "nonpayable",
      "type": "function"
    },
    {
      "constant": false,
      "inputs": [],
      "name": "renounceOwnership",
      "outputs": [],
      "payable": false,
      "stateMutability": "nonpayable",
      "type": "function"
    },
    {
      "constant": false,
      "inputs": [
        {
          "name": "_user",
          "type": "address"
        },
        {
          "name": "_role",
          "type": "string"
        }
      ],
      "name": "removeUser",
      "outputs": [],
      "payable": false,
      "stateMutability": "nonpayable",
      "type": "function"
    },
    {
      "constant": true,
      "inputs": [],
      "name": "owner",
      "outputs": [
        {
          "name": "",
          "type": "address"
        }
      ],
      "payable": false,
      "stateMutability": "view",
      "type": "function"
    },
    {
      "constant": false,
      "inputs": [
        {
          "name": "_role",
          "type": "string"
        }
      ],
      "name": "setRoleOpen",
      "outputs": [],
      "payable": false,
      "stateMutability": "nonpayable",
      "type": "function"
    },
    {
      "constant": true,
      "inputs": [
        {
          "name": "_addr",
          "type": "address"
        }
      ],
      "name": "isSuperuser",
      "outputs": [
        {
          "name": "",
          "type": "bool"
        }
      ],
      "payable": false,
      "stateMutability": "view",
      "type": "function"
    },
    {
      "constant": false,
      "inputs": [
        {
          "name": "_role",
          "type": "string"
        }
      ],
      "name": "setRoleClosed",
      "outputs": [],
      "payable": false,
      "stateMutability": "nonpayable",
      "type": "function"
    },
    {
      "constant": true,
      "inputs": [],
      "name": "ROLE_SUPERUSER",
      "outputs": [
        {
          "name": "",
          "type": "string"
        }
      ],
      "payable": false,
      "stateMutability": "view",
      "type": "function"
    },
    {
      "constant": false,
      "inputs": [
        {
          "name": "_newOwner",
          "type": "address"
        }
      ],
      "name": "transferOwnership",
      "outputs": [],
      "payable": false,
      "stateMutability": "nonpayable",
      "type": "function"
    },
    {
      "anonymous": false,
      "inputs": [
        {
          "indexed": true,
          "name": "operator",
          "type": "address"
        },
        {
          "indexed": false,
          "name": "role",
          "type": "string"
        }
      ],
      "name": "RoleAdded",
      "type": "event"
    },
    {
      "anonymous": false,
      "inputs": [
        {
          "indexed": true,
          "name": "operator",
          "type": "address"
        },
        {
          "indexed": false,
          "name": "role",
          "type": "string"
        }
      ],
      "name": "RoleRemoved",
      "type": "event"
    },
    {
      "anonymous": false,
      "inputs": [
        {
          "indexed": true,
          "name": "previousOwner",
          "type": "address"
        }
      ],
      "name": "OwnershipRenounced",
      "type": "event"
    },
    {
      "anonymous": false,
      "inputs": [
        {
          "indexed": true,
          "name": "previousOwner",
          "type": "address"
        },
        {
          "indexed": true,
          "name": "newOwner",
          "type": "address"
        }
      ],
      "name": "OwnershipTransferred",
      "type": "event"
    },
    {
      "constant": true,
      "inputs": [
        {
          "name": "_role",
          "type": "string"
        }
      ],
      "name": "onlyByRoleOrOpenRole",
      "outputs": [
        {
          "name": "",
          "type": "bool"
        }
      ],
      "payable": false,
      "stateMutability": "view",
      "type": "function"
    }
  ],
  "bytecode": "0x60008054600160a060020a0319163390811790915560c0604052600960809081527f737570657275736572000000000000000000000000000000000000000000000060a052610057919064010000000061005c810204565b61019f565b6100d3826001836040518082805190602001908083835b602083106100925780518252601f199092019160209182019101610073565b51815160209384036101000a600019018019909216911617905292019485525060405193849003019092209291505064010000000061017a8102610faa1704565b81600160a060020a03167fbfec83d64eaa953f2708271a023ab9ee82057f8f3578d548c1a4ba0b5b700489826040518080602001828103825283818151815260200191508051906020019080838360005b8381101561013c578181015183820152602001610124565b50505050905090810190601f1680156101695780820380516001836020036101000a031916815260200191505b509250505060405180910390a25050565b600160a060020a0316600090815260209190915260409020805460ff19166001179055565b61103d806101ae6000396000f3006080604052600436106100cf5763ffffffff7c01000000000000000000000000000000000000000000000000000000006000350416630988ca8c81146100d4578063217fe6c61461013d5780632f54bf6e146101b85780634b68d431146101d957806357c393fa14610240578063715018a61461026157806380026a59146102765780638da5cb5b146102dd578063ac4848641461030e578063bceee05e14610367578063ca376fbb14610388578063d6f96d04146103e1578063ebb4f4841461043a578063f2fde38b146104c4575b600080fd5b3480156100e057600080fd5b5060408051602060046024803582810135601f810185900485028601850190965285855261013b958335600160a060020a03169536956044949193909101919081908401838280828437509497506104e59650505050505050565b005b34801561014957600080fd5b5060408051602060046024803582810135601f81018590048502860185019096528585526101a4958335600160a060020a03169536956044949193909101919081908401838280828437509497506105539650505050505050565b604080519115158252519081900360200190f35b3480156101c457600080fd5b506101a4600160a060020a03600435166105c8565b3480156101e557600080fd5b5060408051602060046024803582810135601f810185900485028601850190965285855261013b958335600160a060020a03169536956044949193909101919081908401838280828437509497506105dc9650505050505050565b34801561024c57600080fd5b5061013b600160a060020a036004351661060e565b34801561026d57600080fd5b5061013b6106ad565b34801561028257600080fd5b5060408051602060046024803582810135601f810185900485028601850190965285855261013b958335600160a060020a03169536956044949193909101919081908401838280828437509497506107199650505050505050565b3480156102e957600080fd5b506102f261074b565b60408051600160a060020a039092168252519081900360200190f35b34801561031a57600080fd5b506040805160206004803580820135601f810184900484028501840190955284845261013b94369492936024939284019190819084018382808284375094975061075a9650505050505050565b34801561037357600080fd5b506101a4600160a060020a03600435166108bd565b34801561039457600080fd5b506040805160206004803580820135601f810184900484028501840190955284845261013b9436949293602493928401919081908401838280828437509497506108ec9650505050505050565b3480156103ed57600080fd5b506040805160206004803580820135601f81018490048402850184019095528484526101a4943694929360249392840191908190840183828082843750949750610a0d9650505050505050565b34801561044657600080fd5b5061044f610b21565b6040805160208082528351818301528351919283929083019185019080838360005b83811015610489578181015183820152602001610471565b50505050905090810190601f1680156104b65780820380516001836020036101000a031916815260200191505b509250505060405180910390f35b3480156104d057600080fd5b5061013b600160a060020a0360043516610b46565b61054f826001836040518082805190602001908083835b6020831061051b5780518252601f1990920191602091820191016104fc565b51815160209384036101000a6000190180199092169116179052920194855250604051938490030190922092915050610b77565b5050565b60006105bf836001846040518082805190602001908083835b6020831061058b5780518252601f19909201916020918201910161056c565b51815160209384036101000a6000190180199092169116179052920194855250604051938490030190922092915050610b8c565b90505b92915050565b600054600160a060020a0391821691161490565b600054600160a060020a03163314806105f957506105f9336108bd565b151561060457600080fd5b61054f8282610bab565b61063b33604080519081016040528060098152602001600080516020610ff28339815191528152506104e5565b600160a060020a038116151561065057600080fd5b61067d33604080519081016040528060098152602001600080516020610ff2833981519152815250610cbc565b6106aa81604080519081016040528060098152602001600080516020610ff2833981519152815250610bab565b50565b600054600160a060020a031633146106c457600080fd5b60008054604051600160a060020a03909116917ff8df31144d9c2f0f6b59d69b8b98abd5459d07f2742c4df920b25aae33c6482091a26000805473ffffffffffffffffffffffffffffffffffffffff19169055565b600054600160a060020a03163314806107365750610736336108bd565b151561074157600080fd5b61054f8282610cbc565b600054600160a060020a031681565b600054600160a060020a03163314806107775750610777336108bd565b151561078257600080fd5b6040805180820190915260098152600080516020610ff2833981519152602082015281906107b6908263ffffffff610d8e16565b1561084857604080517f08c379a000000000000000000000000000000000000000000000000000000000815260206004820152602960248201527f506172616d65746572206973206e6f7420616c6c6f77656420746f206265207360448201527f7570657275736572210000000000000000000000000000000000000000000000606482015290519081900360840190fd5b60016002836040518082805190602001908083835b6020831061087c5780518252601f19909201916020918201910161085d565b51815160209384036101000a60001901801990921691161790529201948552506040519384900301909220805460ff19169315159390931790925550505050565b60006105c282604080519081016040528060098152602001600080516020610ff2833981519152815250610553565b600054600160a060020a03163314806109095750610909336108bd565b151561091457600080fd5b6040805180820190915260098152600080516020610ff283398151915260208201528190610948908263ffffffff610d8e16565b156109da57604080517f08c379a000000000000000000000000000000000000000000000000000000000815260206004820152602960248201527f506172616d65746572206973206e6f7420616c6c6f77656420746f206265207360448201527f7570657275736572210000000000000000000000000000000000000000000000606482015290519081900360840190fd5b60006002836040518082805190602001908083836020831061087c5780518252601f19909201916020918201910161085d565b6000816002816040518082805190602001908083835b60208310610a425780518252601f199092019160209182019101610a23565b51815160209384036101000a600019018019909216911617905292019485525060405193849003019092205460ff169150819050610a855750610a853382610553565b1515610b1857604080517f08c379a000000000000000000000000000000000000000000000000000000000815260206004820152603160248201527f526f6c652068617320746f20626520696e616374697665206f7220757365722060448201527f68617320746f206861766520726f6c6521000000000000000000000000000000606482015290519081900360840190fd5b50600192915050565b6040805180820190915260098152600080516020610ff2833981519152602082015281565b600054600160a060020a0316331480610b635750610b63336108bd565b1515610b6e57600080fd5b6106aa81610f2d565b610b818282610b8c565b151561054f57600080fd5b600160a060020a03166000908152602091909152604090205460ff1690565b610c15826001836040518082805190602001908083835b60208310610be15780518252601f199092019160209182019101610bc2565b51815160209384036101000a6000190180199092169116179052920194855250604051938490030190922092915050610faa565b81600160a060020a03167fbfec83d64eaa953f2708271a023ab9ee82057f8f3578d548c1a4ba0b5b700489826040518080602001828103825283818151815260200191508051906020019080838360005b83811015610c7e578181015183820152602001610c66565b50505050905090810190601f168015610cab5780820380516001836020036101000a031916815260200191505b509250505060405180910390a25050565b610d26826001836040518082805190602001908083835b60208310610cf25780518252601f199092019160209182019101610cd3565b51815160209384036101000a6000190180199092169116179052920194855250604051938490030190922092915050610fcf565b81600160a060020a03167fd211483f91fc6eff862467f8de606587a30c8fc9981056f051b897a418df803a8260405180806020018281038252838181518152602001915080519060200190808383600083811015610c7e578181015183820152602001610c66565b8051825160009114610da2575060006105c2565b816040516020018082805190602001908083835b60208310610dd55780518252601f199092019160209182019101610db6565b6001836020036101000a0380198251168184511680821785525050505050509050019150506040516020818303038152906040526040518082805190602001908083835b60208310610e385780518252601f199092019160209182019101610e19565b51815160209384036101000a60001901801990921691161790526040519190930181900381208851909550889450908301928392508401908083835b60208310610e935780518252601f199092019160209182019101610e74565b6001836020036101000a0380198251168184511680821785525050505050509050019150506040516020818303038152906040526040518082805190602001908083835b60208310610ef65780518252601f199092019160209182019101610ed7565b5181516020939093036101000a60001901801990911692169190911790526040519201829003909120939093149695505050505050565b600160a060020a0381161515610f4257600080fd5b60008054604051600160a060020a03808516939216917f8be0079c531659141344cd1fd0a4f28419497f9722a3daafe3b4186f6b6457e091a36000805473ffffffffffffffffffffffffffffffffffffffff1916600160a060020a0392909216919091179055565b600160a060020a0316600090815260209190915260409020805460ff19166001179055565b600160a060020a0316600090815260209190915260409020805460ff1916905556007375706572757365720000000000000000000000000000000000000000000000a165627a7a7230582030ef86eb5a4fea78712c4c043efe35c9599f4182678c6fed085fd907bf0e48c70029",
  "source": "pragma solidity ^0.4.24;\n\nimport \"../contracts/SwitchableRBACWithSuperuser.sol\";\n\ncontract SwitchableRBACWithSuperuserMock is SwitchableRBACWithSuperuser{\n    function onlyByRoleOrOpenRole(string _role) public\n    view \n    onlyRoleOrOpenRole(_role) \n    returns(bool) {\n        return true;\n    }\n}",
  "sourcePath": "/home/vauvenal5/repos/github/ProvNet/eth/contracts/mocks/SwitchableRBACWithSuperUserMock.sol",
  "compiler": {
    "name": "solc",
    "version": "0.4.24+commit.e67f0147.Emscripten.clang"
  },
  "schemaVersion": "2.0.1",
  "updatedAt": "2019-01-05T17:47:03.110Z"
}