{
  "contractName": "SwitchableRBACWithSuperuser",
  "abi": [
    {
      "constant": true,
      "inputs": [
        {
          "name": "_operator",
          "type": "address"
        },
        {
          "name": "_role",
          "type": "string"
        }
      ],
      "name": "checkRole",
      "outputs": [],
      "payable": false,
      "stateMutability": "view",
      "type": "function"
    },
    {
      "constant": true,
      "inputs": [
        {
          "name": "_operator",
          "type": "address"
        },
        {
          "name": "_role",
          "type": "string"
        }
      ],
      "name": "hasRole",
      "outputs": [
        {
          "name": "",
          "type": "bool"
        }
      ],
      "payable": false,
      "stateMutability": "view",
      "type": "function"
    },
    {
      "constant": false,
      "inputs": [
        {
          "name": "_newSuperuser",
          "type": "address"
        }
      ],
      "name": "transferSuperuser",
      "outputs": [],
      "payable": false,
      "stateMutability": "nonpayable",
      "type": "function"
    },
    {
      "constant": false,
      "inputs": [],
      "name": "renounceOwnership",
      "outputs": [],
      "payable": false,
      "stateMutability": "nonpayable",
      "type": "function"
    },
    {
      "constant": true,
      "inputs": [],
      "name": "owner",
      "outputs": [
        {
          "name": "",
          "type": "address"
        }
      ],
      "payable": false,
      "stateMutability": "view",
      "type": "function"
    },
    {
      "constant": true,
      "inputs": [
        {
          "name": "_addr",
          "type": "address"
        }
      ],
      "name": "isSuperuser",
      "outputs": [
        {
          "name": "",
          "type": "bool"
        }
      ],
      "payable": false,
      "stateMutability": "view",
      "type": "function"
    },
    {
      "constant": true,
      "inputs": [],
      "name": "ROLE_SUPERUSER",
      "outputs": [
        {
          "name": "",
          "type": "string"
        }
      ],
      "payable": false,
      "stateMutability": "view",
      "type": "function"
    },
    {
      "constant": false,
      "inputs": [
        {
          "name": "_newOwner",
          "type": "address"
        }
      ],
      "name": "transferOwnership",
      "outputs": [],
      "payable": false,
      "stateMutability": "nonpayable",
      "type": "function"
    },
    {
      "anonymous": false,
      "inputs": [
        {
          "indexed": true,
          "name": "operator",
          "type": "address"
        },
        {
          "indexed": false,
          "name": "role",
          "type": "string"
        }
      ],
      "name": "RoleAdded",
      "type": "event"
    },
    {
      "anonymous": false,
      "inputs": [
        {
          "indexed": true,
          "name": "operator",
          "type": "address"
        },
        {
          "indexed": false,
          "name": "role",
          "type": "string"
        }
      ],
      "name": "RoleRemoved",
      "type": "event"
    },
    {
      "anonymous": false,
      "inputs": [
        {
          "indexed": true,
          "name": "previousOwner",
          "type": "address"
        }
      ],
      "name": "OwnershipRenounced",
      "type": "event"
    },
    {
      "anonymous": false,
      "inputs": [
        {
          "indexed": true,
          "name": "previousOwner",
          "type": "address"
        },
        {
          "indexed": true,
          "name": "newOwner",
          "type": "address"
        }
      ],
      "name": "OwnershipTransferred",
      "type": "event"
    },
    {
      "constant": false,
      "inputs": [
        {
          "name": "_user",
          "type": "address"
        },
        {
          "name": "_role",
          "type": "string"
        }
      ],
      "name": "addUser",
      "outputs": [],
      "payable": false,
      "stateMutability": "nonpayable",
      "type": "function"
    },
    {
      "constant": false,
      "inputs": [
        {
          "name": "_user",
          "type": "address"
        },
        {
          "name": "_role",
          "type": "string"
        }
      ],
      "name": "removeUser",
      "outputs": [],
      "payable": false,
      "stateMutability": "nonpayable",
      "type": "function"
    },
    {
      "constant": false,
      "inputs": [
        {
          "name": "_role",
          "type": "string"
        }
      ],
      "name": "setRoleOpen",
      "outputs": [],
      "payable": false,
      "stateMutability": "nonpayable",
      "type": "function"
    },
    {
      "constant": false,
      "inputs": [
        {
          "name": "_role",
          "type": "string"
        }
      ],
      "name": "setRoleClosed",
      "outputs": [],
      "payable": false,
      "stateMutability": "nonpayable",
      "type": "function"
    },
    {
      "constant": true,
      "inputs": [
        {
          "name": "_address",
          "type": "address"
        }
      ],
      "name": "isOwner",
      "outputs": [
        {
          "name": "",
          "type": "bool"
        }
      ],
      "payable": false,
      "stateMutability": "view",
      "type": "function"
    }
  ],
  "bytecode": "0x60008054600160a060020a0319163390811790915560c0604052600960809081527f737570657275736572000000000000000000000000000000000000000000000060a052610057919064010000000061005c810204565b61019f565b6100d3826001836040518082805190602001908083835b602083106100925780518252601f199092019160209182019101610073565b51815160209384036101000a600019018019909216911617905292019485525060405193849003019092209291505064010000000061017a8102610e321704565b81600160a060020a03167fbfec83d64eaa953f2708271a023ab9ee82057f8f3578d548c1a4ba0b5b700489826040518080602001828103825283818151815260200191508051906020019080838360005b8381101561013c578181015183820152602001610124565b50505050905090810190601f1680156101695780820380516001836020036101000a031916815260200191505b509250505060405180910390a25050565b600160a060020a0316600090815260209190915260409020805460ff19166001179055565b610ec5806101ae6000396000f3006080604052600436106100c45763ffffffff7c01000000000000000000000000000000000000000000000000000000006000350416630988ca8c81146100c9578063217fe6c6146101325780632f54bf6e146101ad5780634b68d431146101ce57806357c393fa14610235578063715018a61461025657806380026a591461026b5780638da5cb5b146102d2578063ac48486414610303578063bceee05e1461035c578063ca376fbb1461037d578063ebb4f484146103d6578063f2fde38b14610460575b600080fd5b3480156100d557600080fd5b5060408051602060046024803582810135601f8101859004850286018501909652858552610130958335600160a060020a03169536956044949193909101919081908401838280828437509497506104819650505050505050565b005b34801561013e57600080fd5b5060408051602060046024803582810135601f8101859004850286018501909652858552610199958335600160a060020a03169536956044949193909101919081908401838280828437509497506104ef9650505050505050565b604080519115158252519081900360200190f35b3480156101b957600080fd5b50610199600160a060020a0360043516610564565b3480156101da57600080fd5b5060408051602060046024803582810135601f8101859004850286018501909652858552610130958335600160a060020a03169536956044949193909101919081908401838280828437509497506105789650505050505050565b34801561024157600080fd5b50610130600160a060020a03600435166105aa565b34801561026257600080fd5b50610130610649565b34801561027757600080fd5b5060408051602060046024803582810135601f8101859004850286018501909652858552610130958335600160a060020a03169536956044949193909101919081908401838280828437509497506106b59650505050505050565b3480156102de57600080fd5b506102e76106e7565b60408051600160a060020a039092168252519081900360200190f35b34801561030f57600080fd5b506040805160206004803580820135601f81018490048402850184019095528484526101309436949293602493928401919081908401838280828437509497506106f69650505050505050565b34801561036857600080fd5b50610199600160a060020a0360043516610859565b34801561038957600080fd5b506040805160206004803580820135601f81018490048402850184019095528484526101309436949293602493928401919081908401838280828437509497506108889650505050505050565b3480156103e257600080fd5b506103eb6109a9565b6040805160208082528351818301528351919283929083019185019080838360005b8381101561042557818101518382015260200161040d565b50505050905090810190601f1680156104525780820380516001836020036101000a031916815260200191505b509250505060405180910390f35b34801561046c57600080fd5b50610130600160a060020a03600435166109ce565b6104eb826001836040518082805190602001908083835b602083106104b75780518252601f199092019160209182019101610498565b51815160209384036101000a60001901801990921691161790529201948552506040519384900301909220929150506109ff565b5050565b600061055b836001846040518082805190602001908083835b602083106105275780518252601f199092019160209182019101610508565b51815160209384036101000a6000190180199092169116179052920194855250604051938490030190922092915050610a14565b90505b92915050565b600054600160a060020a0391821691161490565b600054600160a060020a0316331480610595575061059533610859565b15156105a057600080fd5b6104eb8282610a33565b6105d733604080519081016040528060098152602001600080516020610e7a833981519152815250610481565b600160a060020a03811615156105ec57600080fd5b61061933604080519081016040528060098152602001600080516020610e7a833981519152815250610b44565b61064681604080519081016040528060098152602001600080516020610e7a833981519152815250610a33565b50565b600054600160a060020a0316331461066057600080fd5b60008054604051600160a060020a03909116917ff8df31144d9c2f0f6b59d69b8b98abd5459d07f2742c4df920b25aae33c6482091a26000805473ffffffffffffffffffffffffffffffffffffffff19169055565b600054600160a060020a03163314806106d257506106d233610859565b15156106dd57600080fd5b6104eb8282610b44565b600054600160a060020a031681565b600054600160a060020a0316331480610713575061071333610859565b151561071e57600080fd5b6040805180820190915260098152600080516020610e7a83398151915260208201528190610752908263ffffffff610c1616565b156107e457604080517f08c379a000000000000000000000000000000000000000000000000000000000815260206004820152602960248201527f506172616d65746572206973206e6f7420616c6c6f77656420746f206265207360448201527f7570657275736572210000000000000000000000000000000000000000000000606482015290519081900360840190fd5b60016002836040518082805190602001908083835b602083106108185780518252601f1990920191602091820191016107f9565b51815160209384036101000a60001901801990921691161790529201948552506040519384900301909220805460ff19169315159390931790925550505050565b600061055e82604080519081016040528060098152602001600080516020610e7a8339815191528152506104ef565b600054600160a060020a03163314806108a557506108a533610859565b15156108b057600080fd5b6040805180820190915260098152600080516020610e7a833981519152602082015281906108e4908263ffffffff610c1616565b1561097657604080517f08c379a000000000000000000000000000000000000000000000000000000000815260206004820152602960248201527f506172616d65746572206973206e6f7420616c6c6f77656420746f206265207360448201527f7570657275736572210000000000000000000000000000000000000000000000606482015290519081900360840190fd5b6000600283604051808280519060200190808383602083106108185780518252601f1990920191602091820191016107f9565b6040805180820190915260098152600080516020610e7a833981519152602082015281565b600054600160a060020a03163314806109eb57506109eb33610859565b15156109f657600080fd5b61064681610db5565b610a098282610a14565b15156104eb57600080fd5b600160a060020a03166000908152602091909152604090205460ff1690565b610a9d826001836040518082805190602001908083835b60208310610a695780518252601f199092019160209182019101610a4a565b51815160209384036101000a6000190180199092169116179052920194855250604051938490030190922092915050610e32565b81600160a060020a03167fbfec83d64eaa953f2708271a023ab9ee82057f8f3578d548c1a4ba0b5b700489826040518080602001828103825283818151815260200191508051906020019080838360005b83811015610b06578181015183820152602001610aee565b50505050905090810190601f168015610b335780820380516001836020036101000a031916815260200191505b509250505060405180910390a25050565b610bae826001836040518082805190602001908083835b60208310610b7a5780518252601f199092019160209182019101610b5b565b51815160209384036101000a6000190180199092169116179052920194855250604051938490030190922092915050610e57565b81600160a060020a03167fd211483f91fc6eff862467f8de606587a30c8fc9981056f051b897a418df803a8260405180806020018281038252838181518152602001915080519060200190808383600083811015610b06578181015183820152602001610aee565b8051825160009114610c2a5750600061055e565b816040516020018082805190602001908083835b60208310610c5d5780518252601f199092019160209182019101610c3e565b6001836020036101000a0380198251168184511680821785525050505050509050019150506040516020818303038152906040526040518082805190602001908083835b60208310610cc05780518252601f199092019160209182019101610ca1565b51815160209384036101000a60001901801990921691161790526040519190930181900381208851909550889450908301928392508401908083835b60208310610d1b5780518252601f199092019160209182019101610cfc565b6001836020036101000a0380198251168184511680821785525050505050509050019150506040516020818303038152906040526040518082805190602001908083835b60208310610d7e5780518252601f199092019160209182019101610d5f565b5181516020939093036101000a60001901801990911692169190911790526040519201829003909120939093149695505050505050565b600160a060020a0381161515610dca57600080fd5b60008054604051600160a060020a03808516939216917f8be0079c531659141344cd1fd0a4f28419497f9722a3daafe3b4186f6b6457e091a36000805473ffffffffffffffffffffffffffffffffffffffff1916600160a060020a0392909216919091179055565b600160a060020a0316600090815260209190915260409020805460ff19166001179055565b600160a060020a0316600090815260209190915260409020805460ff1916905556007375706572757365720000000000000000000000000000000000000000000000a165627a7a7230582078d6183d4e6a2e425e0ae3379a20abc9884c21edeb53b4d1271b8ea2318679080029",
  "source": "pragma solidity ^0.4.24;\n\nimport \"../../node_modules/openzeppelin-solidity/contracts/ownership/Superuser.sol\";\n\nimport \"../libs/StringUtils.sol\";\n\ncontract SwitchableRBACWithSuperuser is Superuser {\n    using StringUtils for string;\n\n    mapping (string => bool) openRoles;\n    \n    modifier onlyRoleOrOpenRole(string _role) {\n        require(openRoles[_role] || hasRole(msg.sender, _role), \"Role has to be inactive or user has to have role!\");\n        _;\n    }\n\n    modifier roleIsNotSuperuser(string _role) {\n        require(!ROLE_SUPERUSER.equalHashWithLengthCheck(_role), \"Parameter is not allowed to be superuser!\");\n        _;\n    }\n\n    function addUser(address _user, string _role) public onlyOwnerOrSuperuser() {\n        addRole(_user, _role);\n    }\n\n    function removeUser(address _user, string _role) public onlyOwnerOrSuperuser() {\n        removeRole(_user, _role);\n    }\n\n    function setRoleOpen(string _role) public onlyOwnerOrSuperuser() roleIsNotSuperuser(_role) {\n        openRoles[_role] = true;\n    }\n\n    function setRoleClosed(string _role) public onlyOwnerOrSuperuser() roleIsNotSuperuser(_role) {\n        openRoles[_role] = false;\n    }\n\n    function isOwner(address _address) public view returns(bool) {\n        return owner == _address;\n    }\n}",
  "sourcePath": "/home/vauvenal5/repos/github/ProvNet/eth/contracts/contracts/SwitchableRBACWithSuperuser.sol",
  "compiler": {
    "name": "solc",
    "version": "0.4.24+commit.e67f0147.Emscripten.clang"
  },
  "schemaVersion": "2.0.1",
  "updatedAt": "2019-01-05T17:47:03.072Z"
}