{
  "contractName": "SwitchableRBACWithSuperuserMock",
  "abi": [
    {
      "constant": true,
      "inputs": [
        {
          "name": "_operator",
          "type": "address"
        },
        {
          "name": "_role",
          "type": "string"
        }
      ],
      "name": "checkRole",
      "outputs": [],
      "payable": false,
      "stateMutability": "view",
      "type": "function"
    },
    {
      "constant": true,
      "inputs": [
        {
          "name": "_operator",
          "type": "address"
        },
        {
          "name": "_role",
          "type": "string"
        }
      ],
      "name": "hasRole",
      "outputs": [
        {
          "name": "",
          "type": "bool"
        }
      ],
      "payable": false,
      "stateMutability": "view",
      "type": "function"
    },
    {
      "constant": true,
      "inputs": [
        {
          "name": "_role",
          "type": "string"
        }
      ],
      "name": "isRoleOpen",
      "outputs": [
        {
          "name": "",
          "type": "bool"
        }
      ],
      "payable": false,
      "stateMutability": "view",
      "type": "function"
    },
    {
      "constant": true,
      "inputs": [
        {
          "name": "_address",
          "type": "address"
        }
      ],
      "name": "isOwner",
      "outputs": [
        {
          "name": "",
          "type": "bool"
        }
      ],
      "payable": false,
      "stateMutability": "view",
      "type": "function"
    },
    {
      "constant": false,
      "inputs": [
        {
          "name": "_user",
          "type": "address"
        },
        {
          "name": "_role",
          "type": "string"
        }
      ],
      "name": "addUser",
      "outputs": [],
      "payable": false,
      "stateMutability": "nonpayable",
      "type": "function"
    },
    {
      "constant": false,
      "inputs": [
        {
          "name": "_newSuperuser",
          "type": "address"
        }
      ],
      "name": "transferSuperuser",
      "outputs": [],
      "payable": false,
      "stateMutability": "nonpayable",
      "type": "function"
    },
    {
      "constant": false,
      "inputs": [],
      "name": "renounceOwnership",
      "outputs": [],
      "payable": false,
      "stateMutability": "nonpayable",
      "type": "function"
    },
    {
      "constant": false,
      "inputs": [
        {
          "name": "_user",
          "type": "address"
        },
        {
          "name": "_role",
          "type": "string"
        }
      ],
      "name": "removeUser",
      "outputs": [],
      "payable": false,
      "stateMutability": "nonpayable",
      "type": "function"
    },
    {
      "constant": true,
      "inputs": [],
      "name": "owner",
      "outputs": [
        {
          "name": "",
          "type": "address"
        }
      ],
      "payable": false,
      "stateMutability": "view",
      "type": "function"
    },
    {
      "constant": false,
      "inputs": [
        {
          "name": "_role",
          "type": "string"
        }
      ],
      "name": "setRoleOpen",
      "outputs": [],
      "payable": false,
      "stateMutability": "nonpayable",
      "type": "function"
    },
    {
      "constant": true,
      "inputs": [
        {
          "name": "_addr",
          "type": "address"
        }
      ],
      "name": "isSuperuser",
      "outputs": [
        {
          "name": "",
          "type": "bool"
        }
      ],
      "payable": false,
      "stateMutability": "view",
      "type": "function"
    },
    {
      "constant": false,
      "inputs": [
        {
          "name": "_role",
          "type": "string"
        }
      ],
      "name": "setRoleClosed",
      "outputs": [],
      "payable": false,
      "stateMutability": "nonpayable",
      "type": "function"
    },
    {
      "constant": true,
      "inputs": [],
      "name": "ROLE_SUPERUSER",
      "outputs": [
        {
          "name": "",
          "type": "string"
        }
      ],
      "payable": false,
      "stateMutability": "view",
      "type": "function"
    },
    {
      "constant": false,
      "inputs": [
        {
          "name": "_newOwner",
          "type": "address"
        }
      ],
      "name": "transferOwnership",
      "outputs": [],
      "payable": false,
      "stateMutability": "nonpayable",
      "type": "function"
    },
    {
      "anonymous": false,
      "inputs": [
        {
          "indexed": true,
          "name": "operator",
          "type": "address"
        },
        {
          "indexed": false,
          "name": "role",
          "type": "string"
        }
      ],
      "name": "RoleAdded",
      "type": "event"
    },
    {
      "anonymous": false,
      "inputs": [
        {
          "indexed": true,
          "name": "operator",
          "type": "address"
        },
        {
          "indexed": false,
          "name": "role",
          "type": "string"
        }
      ],
      "name": "RoleRemoved",
      "type": "event"
    },
    {
      "anonymous": false,
      "inputs": [
        {
          "indexed": true,
          "name": "previousOwner",
          "type": "address"
        }
      ],
      "name": "OwnershipRenounced",
      "type": "event"
    },
    {
      "anonymous": false,
      "inputs": [
        {
          "indexed": true,
          "name": "previousOwner",
          "type": "address"
        },
        {
          "indexed": true,
          "name": "newOwner",
          "type": "address"
        }
      ],
      "name": "OwnershipTransferred",
      "type": "event"
    },
    {
      "constant": true,
      "inputs": [
        {
          "name": "_role",
          "type": "string"
        }
      ],
      "name": "onlyByRoleOrOpenRole",
      "outputs": [
        {
          "name": "",
          "type": "bool"
        }
      ],
      "payable": false,
      "stateMutability": "view",
      "type": "function"
    }
  ],
  "bytecode": "0x60008054600160a060020a0319163390811790915560c0604052600960809081527f737570657275736572000000000000000000000000000000000000000000000060a052610057919064010000000061005c810204565b61019f565b6100d3826001836040518082805190602001908083835b602083106100925780518252601f199092019160209182019101610073565b51815160209384036101000a600019018019909216911617905292019485525060405193849003019092209291505064010000000061017a8102610fb91704565b81600160a060020a03167fbfec83d64eaa953f2708271a023ab9ee82057f8f3578d548c1a4ba0b5b700489826040518080602001828103825283818151815260200191508051906020019080838360005b8381101561013c578181015183820152602001610124565b50505050905090810190601f1680156101695780820380516001836020036101000a031916815260200191505b509250505060405180910390a25050565b600160a060020a0316600090815260209190915260409020805460ff19166001179055565b61104c806101ae6000396000f3006080604052600436106100c15763ffffffff60e060020a6000350416630988ca8c81146100c6578063217fe6c61461012f5780632c897b8b146101aa5780632f54bf6e146102035780634b68d4311461022457806357c393fa1461028b578063715018a6146102ac57806380026a59146102c15780638da5cb5b14610328578063ac48486414610359578063bceee05e146103b2578063ca376fbb146103d3578063d6f96d041461042c578063ebb4f48414610485578063f2fde38b1461050f575b600080fd5b3480156100d257600080fd5b5060408051602060046024803582810135601f810185900485028601850190965285855261012d958335600160a060020a03169536956044949193909101919081908401838280828437509497506105309650505050505050565b005b34801561013b57600080fd5b5060408051602060046024803582810135601f8101859004850286018501909652858552610196958335600160a060020a031695369560449491939091019190819084018382808284375094975061059e9650505050505050565b604080519115158252519081900360200190f35b3480156101b657600080fd5b506040805160206004803580820135601f81018490048402850184019095528484526101969436949293602493928401919081908401838280828437509497506106139650505050505050565b34801561020f57600080fd5b50610196600160a060020a036004351661067e565b34801561023057600080fd5b5060408051602060046024803582810135601f810185900485028601850190965285855261012d958335600160a060020a03169536956044949193909101919081908401838280828437509497506106929650505050505050565b34801561029757600080fd5b5061012d600160a060020a03600435166106c4565b3480156102b857600080fd5b5061012d610766565b3480156102cd57600080fd5b5060408051602060046024803582810135601f810185900485028601850190965285855261012d958335600160a060020a03169536956044949193909101919081908401838280828437509497506107c59650505050505050565b34801561033457600080fd5b5061033d6107f7565b60408051600160a060020a039092168252519081900360200190f35b34801561036557600080fd5b506040805160206004803580820135601f810184900484028501840190955284845261012d9436949293602493928401919081908401838280828437509497506108069650505050505050565b3480156103be57600080fd5b50610196600160a060020a0360043516610930565b3480156103df57600080fd5b506040805160206004803580820135601f810184900484028501840190955284845261012d9436949293602493928401919081908401838280828437509497506109609650505050505050565b34801561043857600080fd5b506040805160206004803580820135601f8101849004840285018401909552848452610196943694929360249392840191908190840183828082843750949750610a489650505050505050565b34801561049157600080fd5b5061049a610b3c565b6040805160208082528351818301528351919283929083019185019080838360005b838110156104d45781810151838201526020016104bc565b50505050905090810190601f1680156105015780820380516001836020036101000a031916815260200191505b509250505060405180910390f35b34801561051b57600080fd5b5061012d600160a060020a0360043516610b62565b61059a826001836040518082805190602001908083835b602083106105665780518252601f199092019160209182019101610547565b51815160209384036101000a6000190180199092169116179052920194855250604051938490030190922092915050610b93565b5050565b600061060a836001846040518082805190602001908083835b602083106105d65780518252601f1990920191602091820191016105b7565b51815160209384036101000a6000190180199092169116179052920194855250604051938490030190922092915050610ba8565b90505b92915050565b60006002826040518082805190602001908083835b602083106106475780518252601f199092019160209182019101610628565b51815160209384036101000a600019018019909216911617905292019485525060405193849003019092205460ff16949350505050565b600054600160a060020a0391821691161490565b600054600160a060020a03163314806106af57506106af33610930565b15156106ba57600080fd5b61059a8282610bc7565b6106f23360408051908101604052806009815260200160b960020a6839bab832b93ab9b2b902815250610530565b600160a060020a038116151561070757600080fd5b6107353360408051908101604052806009815260200160b960020a6839bab832b93ab9b2b902815250610cd8565b6107638160408051908101604052806009815260200160b960020a6839bab832b93ab9b2b902815250610bc7565b50565b600054600160a060020a0316331461077d57600080fd5b60008054604051600160a060020a03909116917ff8df31144d9c2f0f6b59d69b8b98abd5459d07f2742c4df920b25aae33c6482091a260008054600160a060020a0319169055565b600054600160a060020a03163314806107e257506107e233610930565b15156107ed57600080fd5b61059a8282610cd8565b600054600160a060020a031681565b600054600160a060020a0316331480610823575061082333610930565b151561082e57600080fd5b604080518082019091526009815260b960020a6839bab832b93ab9b2b90260208201528190610863908263ffffffff610daa16565b156108bb576040805160e560020a62461bcd0281526020600482015260296024820152600080516020611001833981519152604482015260b860020a6875706572757365722102606482015290519081900360840190fd5b60016002836040518082805190602001908083835b602083106108ef5780518252601f1990920191602091820191016108d0565b51815160209384036101000a60001901801990921691161790529201948552506040519384900301909220805460ff19169315159390931790925550505050565b600061060d8260408051908101604052806009815260200160b960020a6839bab832b93ab9b2b90281525061059e565b600054600160a060020a031633148061097d575061097d33610930565b151561098857600080fd5b604080518082019091526009815260b960020a6839bab832b93ab9b2b902602082015281906109bd908263ffffffff610daa16565b15610a15576040805160e560020a62461bcd0281526020600482015260296024820152600080516020611001833981519152604482015260b860020a6875706572757365722102606482015290519081900360840190fd5b6000600283604051808280519060200190808383602083106108ef5780518252601f1990920191602091820191016108d0565b6000816002816040518082805190602001908083835b60208310610a7d5780518252601f199092019160209182019101610a5e565b51815160209384036101000a600019018019909216911617905292019485525060405193849003019092205460ff169150819050610ac05750610ac0338261059e565b1515610b33576040805160e560020a62461bcd02815260206004820152603160248201527f526f6c652068617320746f20626520696e616374697665206f722075736572206044820152607860020a7068617320746f206861766520726f6c652102606482015290519081900360840190fd5b50600192915050565b604080518082019091526009815260b960020a6839bab832b93ab9b2b902602082015281565b600054600160a060020a0316331480610b7f5750610b7f33610930565b1515610b8a57600080fd5b61076381610f49565b610b9d8282610ba8565b151561059a57600080fd5b600160a060020a03166000908152602091909152604090205460ff1690565b610c31826001836040518082805190602001908083835b60208310610bfd5780518252601f199092019160209182019101610bde565b51815160209384036101000a6000190180199092169116179052920194855250604051938490030190922092915050610fb9565b81600160a060020a03167fbfec83d64eaa953f2708271a023ab9ee82057f8f3578d548c1a4ba0b5b700489826040518080602001828103825283818151815260200191508051906020019080838360005b83811015610c9a578181015183820152602001610c82565b50505050905090810190601f168015610cc75780820380516001836020036101000a031916815260200191505b509250505060405180910390a25050565b610d42826001836040518082805190602001908083835b60208310610d0e5780518252601f199092019160209182019101610cef565b51815160209384036101000a6000190180199092169116179052920194855250604051938490030190922092915050610fde565b81600160a060020a03167fd211483f91fc6eff862467f8de606587a30c8fc9981056f051b897a418df803a8260405180806020018281038252838181518152602001915080519060200190808383600083811015610c9a578181015183820152602001610c82565b8051825160009114610dbe5750600061060d565b816040516020018082805190602001908083835b60208310610df15780518252601f199092019160209182019101610dd2565b6001836020036101000a0380198251168184511680821785525050505050509050019150506040516020818303038152906040526040518082805190602001908083835b60208310610e545780518252601f199092019160209182019101610e35565b51815160209384036101000a60001901801990921691161790526040519190930181900381208851909550889450908301928392508401908083835b60208310610eaf5780518252601f199092019160209182019101610e90565b6001836020036101000a0380198251168184511680821785525050505050509050019150506040516020818303038152906040526040518082805190602001908083835b60208310610f125780518252601f199092019160209182019101610ef3565b5181516020939093036101000a60001901801990911692169190911790526040519201829003909120939093149695505050505050565b600160a060020a0381161515610f5e57600080fd5b60008054604051600160a060020a03808516939216917f8be0079c531659141344cd1fd0a4f28419497f9722a3daafe3b4186f6b6457e091a360008054600160a060020a031916600160a060020a0392909216919091179055565b600160a060020a0316600090815260209190915260409020805460ff19166001179055565b600160a060020a0316600090815260209190915260409020805460ff191690555600506172616d65746572206973206e6f7420616c6c6f77656420746f2062652073a165627a7a7230582018c5a69952fcc4ba6beae302dc95fcc594eeea1e62a1ee144f0d30e283c745c20029",
  "source": "pragma solidity ^0.4.24;\n\nimport \"../contracts/SwitchableRBACWithSuperuser.sol\";\n\ncontract SwitchableRBACWithSuperuserMock is SwitchableRBACWithSuperuser{\n    function onlyByRoleOrOpenRole(string _role) public\n    view \n    onlyRoleOrOpenRole(_role) \n    returns(bool) {\n        return true;\n    }\n}",
  "sourcePath": "/home/vauvenal5/repos/github/comp/ProvNet/eth/contracts/mocks/SwitchableRBACWithSuperUserMock.sol",
  "compiler": {
    "name": "solc",
    "version": "0.4.24+commit.e67f0147.Emscripten.clang"
  },
  "schemaVersion": "3.0.1",
  "updatedAt": "2019-01-14T14:35:46.462Z",
  "devdoc": {
    "methods": {
      "checkRole(address,string)": {
        "details": "reverts if addr does not have role",
        "params": {
          "_operator": "address",
          "_role": "the name of the role // reverts"
        }
      },
      "hasRole(address,string)": {
        "details": "determine if addr has role",
        "params": {
          "_operator": "address",
          "_role": "the name of the role"
        },
        "return": "bool"
      },
      "isSuperuser(address)": {
        "details": "getter to determine if address has superuser role"
      },
      "renounceOwnership()": {
        "details": "Allows the current owner to relinquish control of the contract."
      },
      "transferOwnership(address)": {
        "details": "Allows the current superuser or owner to transfer control of the contract to a newOwner.",
        "params": {
          "_newOwner": "The address to transfer ownership to."
        }
      },
      "transferSuperuser(address)": {
        "details": "Allows the current superuser to transfer his role to a newSuperuser.",
        "params": {
          "_newSuperuser": "The address to transfer ownership to."
        }
      }
    }
  },
  "userdoc": {
    "methods": {
      "renounceOwnership()": {
        "notice": "Renouncing to ownership will leave the contract without an owner. It will not be possible to call the functions with the `onlyOwner` modifier anymore."
      }
    }
  }
}