{
  "contractName": "SwitchableRBACWithSuperuser",
  "abi": [
    {
      "constant": true,
      "inputs": [
        {
          "name": "_operator",
          "type": "address"
        },
        {
          "name": "_role",
          "type": "string"
        }
      ],
      "name": "checkRole",
      "outputs": [],
      "payable": false,
      "stateMutability": "view",
      "type": "function"
    },
    {
      "constant": true,
      "inputs": [
        {
          "name": "_operator",
          "type": "address"
        },
        {
          "name": "_role",
          "type": "string"
        }
      ],
      "name": "hasRole",
      "outputs": [
        {
          "name": "",
          "type": "bool"
        }
      ],
      "payable": false,
      "stateMutability": "view",
      "type": "function"
    },
    {
      "constant": false,
      "inputs": [
        {
          "name": "_newSuperuser",
          "type": "address"
        }
      ],
      "name": "transferSuperuser",
      "outputs": [],
      "payable": false,
      "stateMutability": "nonpayable",
      "type": "function"
    },
    {
      "constant": false,
      "inputs": [],
      "name": "renounceOwnership",
      "outputs": [],
      "payable": false,
      "stateMutability": "nonpayable",
      "type": "function"
    },
    {
      "constant": true,
      "inputs": [],
      "name": "owner",
      "outputs": [
        {
          "name": "",
          "type": "address"
        }
      ],
      "payable": false,
      "stateMutability": "view",
      "type": "function"
    },
    {
      "constant": true,
      "inputs": [
        {
          "name": "_addr",
          "type": "address"
        }
      ],
      "name": "isSuperuser",
      "outputs": [
        {
          "name": "",
          "type": "bool"
        }
      ],
      "payable": false,
      "stateMutability": "view",
      "type": "function"
    },
    {
      "constant": true,
      "inputs": [],
      "name": "ROLE_SUPERUSER",
      "outputs": [
        {
          "name": "",
          "type": "string"
        }
      ],
      "payable": false,
      "stateMutability": "view",
      "type": "function"
    },
    {
      "constant": false,
      "inputs": [
        {
          "name": "_newOwner",
          "type": "address"
        }
      ],
      "name": "transferOwnership",
      "outputs": [],
      "payable": false,
      "stateMutability": "nonpayable",
      "type": "function"
    },
    {
      "anonymous": false,
      "inputs": [
        {
          "indexed": true,
          "name": "operator",
          "type": "address"
        },
        {
          "indexed": false,
          "name": "role",
          "type": "string"
        }
      ],
      "name": "RoleAdded",
      "type": "event"
    },
    {
      "anonymous": false,
      "inputs": [
        {
          "indexed": true,
          "name": "operator",
          "type": "address"
        },
        {
          "indexed": false,
          "name": "role",
          "type": "string"
        }
      ],
      "name": "RoleRemoved",
      "type": "event"
    },
    {
      "anonymous": false,
      "inputs": [
        {
          "indexed": true,
          "name": "previousOwner",
          "type": "address"
        }
      ],
      "name": "OwnershipRenounced",
      "type": "event"
    },
    {
      "anonymous": false,
      "inputs": [
        {
          "indexed": true,
          "name": "previousOwner",
          "type": "address"
        },
        {
          "indexed": true,
          "name": "newOwner",
          "type": "address"
        }
      ],
      "name": "OwnershipTransferred",
      "type": "event"
    },
    {
      "constant": false,
      "inputs": [
        {
          "name": "_user",
          "type": "address"
        },
        {
          "name": "_role",
          "type": "string"
        }
      ],
      "name": "addUser",
      "outputs": [],
      "payable": false,
      "stateMutability": "nonpayable",
      "type": "function"
    },
    {
      "constant": false,
      "inputs": [
        {
          "name": "_user",
          "type": "address"
        },
        {
          "name": "_role",
          "type": "string"
        }
      ],
      "name": "removeUser",
      "outputs": [],
      "payable": false,
      "stateMutability": "nonpayable",
      "type": "function"
    },
    {
      "constant": false,
      "inputs": [
        {
          "name": "_role",
          "type": "string"
        }
      ],
      "name": "setRoleOpen",
      "outputs": [],
      "payable": false,
      "stateMutability": "nonpayable",
      "type": "function"
    },
    {
      "constant": false,
      "inputs": [
        {
          "name": "_role",
          "type": "string"
        }
      ],
      "name": "setRoleClosed",
      "outputs": [],
      "payable": false,
      "stateMutability": "nonpayable",
      "type": "function"
    },
    {
      "constant": true,
      "inputs": [
        {
          "name": "_address",
          "type": "address"
        }
      ],
      "name": "isOwner",
      "outputs": [
        {
          "name": "",
          "type": "bool"
        }
      ],
      "payable": false,
      "stateMutability": "view",
      "type": "function"
    },
    {
      "constant": true,
      "inputs": [
        {
          "name": "_role",
          "type": "string"
        }
      ],
      "name": "isRoleOpen",
      "outputs": [
        {
          "name": "",
          "type": "bool"
        }
      ],
      "payable": false,
      "stateMutability": "view",
      "type": "function"
    }
  ],
  "bytecode": "0x60008054600160a060020a0319163390811790915560c0604052600960809081527f737570657275736572000000000000000000000000000000000000000000000060a052610057919064010000000061005c810204565b61019f565b6100d3826001836040518082805190602001908083835b602083106100925780518252601f199092019160209182019101610073565b51815160209384036101000a600019018019909216911617905292019485525060405193849003019092209291505064010000000061017a8102610e611704565b81600160a060020a03167fbfec83d64eaa953f2708271a023ab9ee82057f8f3578d548c1a4ba0b5b700489826040518080602001828103825283818151815260200191508051906020019080838360005b8381101561013c578181015183820152602001610124565b50505050905090810190601f1680156101695780820380516001836020036101000a031916815260200191505b509250505060405180910390a25050565b600160a060020a0316600090815260209190915260409020805460ff19166001179055565b610ef4806101ae6000396000f3006080604052600436106100b65763ffffffff60e060020a6000350416630988ca8c81146100bb578063217fe6c6146101245780632c897b8b1461019f5780632f54bf6e146101f85780634b68d4311461021957806357c393fa14610280578063715018a6146102a157806380026a59146102b65780638da5cb5b1461031d578063ac4848641461034e578063bceee05e146103a7578063ca376fbb146103c8578063ebb4f48414610421578063f2fde38b146104ab575b600080fd5b3480156100c757600080fd5b5060408051602060046024803582810135601f8101859004850286018501909652858552610122958335600160a060020a03169536956044949193909101919081908401838280828437509497506104cc9650505050505050565b005b34801561013057600080fd5b5060408051602060046024803582810135601f810185900485028601850190965285855261018b958335600160a060020a031695369560449491939091019190819084018382808284375094975061053a9650505050505050565b604080519115158252519081900360200190f35b3480156101ab57600080fd5b506040805160206004803580820135601f810184900484028501840190955284845261018b9436949293602493928401919081908401838280828437509497506105af9650505050505050565b34801561020457600080fd5b5061018b600160a060020a036004351661061a565b34801561022557600080fd5b5060408051602060046024803582810135601f8101859004850286018501909652858552610122958335600160a060020a031695369560449491939091019190819084018382808284375094975061062e9650505050505050565b34801561028c57600080fd5b50610122600160a060020a0360043516610660565b3480156102ad57600080fd5b50610122610702565b3480156102c257600080fd5b5060408051602060046024803582810135601f8101859004850286018501909652858552610122958335600160a060020a03169536956044949193909101919081908401838280828437509497506107619650505050505050565b34801561032957600080fd5b50610332610793565b60408051600160a060020a039092168252519081900360200190f35b34801561035a57600080fd5b506040805160206004803580820135601f81018490048402850184019095528484526101229436949293602493928401919081908401838280828437509497506107a29650505050505050565b3480156103b357600080fd5b5061018b600160a060020a03600435166108cc565b3480156103d457600080fd5b506040805160206004803580820135601f81018490048402850184019095528484526101229436949293602493928401919081908401838280828437509497506108fc9650505050505050565b34801561042d57600080fd5b506104366109e4565b6040805160208082528351818301528351919283929083019185019080838360005b83811015610470578181015183820152602001610458565b50505050905090810190601f16801561049d5780820380516001836020036101000a031916815260200191505b509250505060405180910390f35b3480156104b757600080fd5b50610122600160a060020a0360043516610a0a565b610536826001836040518082805190602001908083835b602083106105025780518252601f1990920191602091820191016104e3565b51815160209384036101000a6000190180199092169116179052920194855250604051938490030190922092915050610a3b565b5050565b60006105a6836001846040518082805190602001908083835b602083106105725780518252601f199092019160209182019101610553565b51815160209384036101000a6000190180199092169116179052920194855250604051938490030190922092915050610a50565b90505b92915050565b60006002826040518082805190602001908083835b602083106105e35780518252601f1990920191602091820191016105c4565b51815160209384036101000a600019018019909216911617905292019485525060405193849003019092205460ff16949350505050565b600054600160a060020a0391821691161490565b600054600160a060020a031633148061064b575061064b336108cc565b151561065657600080fd5b6105368282610a6f565b61068e3360408051908101604052806009815260200160b960020a6839bab832b93ab9b2b9028152506104cc565b600160a060020a03811615156106a357600080fd5b6106d13360408051908101604052806009815260200160b960020a6839bab832b93ab9b2b902815250610b80565b6106ff8160408051908101604052806009815260200160b960020a6839bab832b93ab9b2b902815250610a6f565b50565b600054600160a060020a0316331461071957600080fd5b60008054604051600160a060020a03909116917ff8df31144d9c2f0f6b59d69b8b98abd5459d07f2742c4df920b25aae33c6482091a260008054600160a060020a0319169055565b600054600160a060020a031633148061077e575061077e336108cc565b151561078957600080fd5b6105368282610b80565b600054600160a060020a031681565b600054600160a060020a03163314806107bf57506107bf336108cc565b15156107ca57600080fd5b604080518082019091526009815260b960020a6839bab832b93ab9b2b902602082015281906107ff908263ffffffff610c5216565b15610857576040805160e560020a62461bcd0281526020600482015260296024820152600080516020610ea9833981519152604482015260b860020a6875706572757365722102606482015290519081900360840190fd5b60016002836040518082805190602001908083835b6020831061088b5780518252601f19909201916020918201910161086c565b51815160209384036101000a60001901801990921691161790529201948552506040519384900301909220805460ff19169315159390931790925550505050565b60006105a98260408051908101604052806009815260200160b960020a6839bab832b93ab9b2b90281525061053a565b600054600160a060020a03163314806109195750610919336108cc565b151561092457600080fd5b604080518082019091526009815260b960020a6839bab832b93ab9b2b90260208201528190610959908263ffffffff610c5216565b156109b1576040805160e560020a62461bcd0281526020600482015260296024820152600080516020610ea9833981519152604482015260b860020a6875706572757365722102606482015290519081900360840190fd5b60006002836040518082805190602001908083836020831061088b5780518252601f19909201916020918201910161086c565b604080518082019091526009815260b960020a6839bab832b93ab9b2b902602082015281565b600054600160a060020a0316331480610a275750610a27336108cc565b1515610a3257600080fd5b6106ff81610df1565b610a458282610a50565b151561053657600080fd5b600160a060020a03166000908152602091909152604090205460ff1690565b610ad9826001836040518082805190602001908083835b60208310610aa55780518252601f199092019160209182019101610a86565b51815160209384036101000a6000190180199092169116179052920194855250604051938490030190922092915050610e61565b81600160a060020a03167fbfec83d64eaa953f2708271a023ab9ee82057f8f3578d548c1a4ba0b5b700489826040518080602001828103825283818151815260200191508051906020019080838360005b83811015610b42578181015183820152602001610b2a565b50505050905090810190601f168015610b6f5780820380516001836020036101000a031916815260200191505b509250505060405180910390a25050565b610bea826001836040518082805190602001908083835b60208310610bb65780518252601f199092019160209182019101610b97565b51815160209384036101000a6000190180199092169116179052920194855250604051938490030190922092915050610e86565b81600160a060020a03167fd211483f91fc6eff862467f8de606587a30c8fc9981056f051b897a418df803a8260405180806020018281038252838181518152602001915080519060200190808383600083811015610b42578181015183820152602001610b2a565b8051825160009114610c66575060006105a9565b816040516020018082805190602001908083835b60208310610c995780518252601f199092019160209182019101610c7a565b6001836020036101000a0380198251168184511680821785525050505050509050019150506040516020818303038152906040526040518082805190602001908083835b60208310610cfc5780518252601f199092019160209182019101610cdd565b51815160209384036101000a60001901801990921691161790526040519190930181900381208851909550889450908301928392508401908083835b60208310610d575780518252601f199092019160209182019101610d38565b6001836020036101000a0380198251168184511680821785525050505050509050019150506040516020818303038152906040526040518082805190602001908083835b60208310610dba5780518252601f199092019160209182019101610d9b565b5181516020939093036101000a60001901801990911692169190911790526040519201829003909120939093149695505050505050565b600160a060020a0381161515610e0657600080fd5b60008054604051600160a060020a03808516939216917f8be0079c531659141344cd1fd0a4f28419497f9722a3daafe3b4186f6b6457e091a360008054600160a060020a031916600160a060020a0392909216919091179055565b600160a060020a0316600090815260209190915260409020805460ff19166001179055565b600160a060020a0316600090815260209190915260409020805460ff191690555600506172616d65746572206973206e6f7420616c6c6f77656420746f2062652073a165627a7a72305820c91f970ebd71bceb2ff097ee5b47f18f55b64522f043ce1dc75e38a63e804cf40029",
  "source": "pragma solidity ^0.4.24;\n\nimport \"../../node_modules/openzeppelin-solidity/contracts/ownership/Superuser.sol\";\n\nimport \"../libs/StringUtils.sol\";\n\ncontract SwitchableRBACWithSuperuser is Superuser {\n    using StringUtils for string;\n\n    mapping (string => bool) openRoles;\n    \n    modifier onlyRoleOrOpenRole(string _role) {\n        require(openRoles[_role] || hasRole(msg.sender, _role), \"Role has to be inactive or user has to have role!\");\n        _;\n    }\n\n    modifier roleIsNotSuperuser(string _role) {\n        require(!ROLE_SUPERUSER.equalHashWithLengthCheck(_role), \"Parameter is not allowed to be superuser!\");\n        _;\n    }\n\n    function addUser(address _user, string _role) public onlyOwnerOrSuperuser() {\n        addRole(_user, _role);\n    }\n\n    function removeUser(address _user, string _role) public onlyOwnerOrSuperuser() {\n        removeRole(_user, _role);\n    }\n\n    function setRoleOpen(string _role) public onlyOwnerOrSuperuser() roleIsNotSuperuser(_role) {\n        openRoles[_role] = true;\n    }\n\n    function setRoleClosed(string _role) public onlyOwnerOrSuperuser() roleIsNotSuperuser(_role) {\n        openRoles[_role] = false;\n    }\n\n    function isOwner(address _address) public view returns(bool) {\n        return owner == _address;\n    }\n\n    function isRoleOpen(string _role) public view returns(bool) {\n        return openRoles[_role];\n    }\n}",
  "sourcePath": "/home/vauvenal5/repos/github/comp/ProvNet/eth/contracts/contracts/SwitchableRBACWithSuperuser.sol",
  "compiler": {
    "name": "solc",
    "version": "0.4.24+commit.e67f0147.Emscripten.clang"
  },
  "schemaVersion": "3.0.1",
  "updatedAt": "2019-01-14T14:35:46.439Z",
  "devdoc": {
    "methods": {
      "checkRole(address,string)": {
        "details": "reverts if addr does not have role",
        "params": {
          "_operator": "address",
          "_role": "the name of the role // reverts"
        }
      },
      "hasRole(address,string)": {
        "details": "determine if addr has role",
        "params": {
          "_operator": "address",
          "_role": "the name of the role"
        },
        "return": "bool"
      },
      "isSuperuser(address)": {
        "details": "getter to determine if address has superuser role"
      },
      "renounceOwnership()": {
        "details": "Allows the current owner to relinquish control of the contract."
      },
      "transferOwnership(address)": {
        "details": "Allows the current superuser or owner to transfer control of the contract to a newOwner.",
        "params": {
          "_newOwner": "The address to transfer ownership to."
        }
      },
      "transferSuperuser(address)": {
        "details": "Allows the current superuser to transfer his role to a newSuperuser.",
        "params": {
          "_newSuperuser": "The address to transfer ownership to."
        }
      }
    }
  },
  "userdoc": {
    "methods": {
      "renounceOwnership()": {
        "notice": "Renouncing to ownership will leave the contract without an owner. It will not be possible to call the functions with the `onlyOwner` modifier anymore."
      }
    }
  }
}