{
  "contractName": "TagLib",
  "abi": [
    {
      "constant": true,
      "inputs": [
        {
          "name": "self",
          "type": "TagLib.TagList storage"
        }
      ],
      "name": "sizeOf",
      "outputs": [
        {
          "name": "",
          "type": "uint256"
        }
      ],
      "payable": false,
      "stateMutability": "view",
      "type": "function",
      "signature": "0x6ebb34af"
    },
    {
      "constant": true,
      "inputs": [
        {
          "name": "self",
          "type": "TagLib.TagList storage"
        }
      ],
      "name": "toReturnValue",
      "outputs": [
        {
          "name": "",
          "type": "uint256[]"
        }
      ],
      "payable": false,
      "stateMutability": "view",
      "type": "function",
      "signature": "0x469e038e"
    }
  ],
  "bytecode": "0x610265610030600b82828239805160001a6073146000811461002057610022565bfe5b5030600052607381538281f30073000000000000000000000000000000000000000030146080604052600436106100495763ffffffff60e060020a600035041663469e038e811461004e5780636ebb34af146100a9575b600080fd5b6100596004356100c6565b60408051602080825283518183015283519192839290830191858101910280838360005b8381101561009557818101518382015260200161007d565b505050509050019250505060405180910390f35b6100b46004356101ae565b60408051918252519081900360200190f35b60608160000173__LinkedListAdvancedExtensionLib________631bca78ab90916040518263ffffffff1660e060020a0281526004018082815260200191505060006040518083038186803b15801561011f57600080fd5b505af4158015610133573d6000803e3d6000fd5b505050506040513d6000823e601f3d908101601f19168201604052602081101561015c57600080fd5b810190808051602060020a81111561017357600080fd5b8201602081018481111561018657600080fd5b81518560208202830111602060020a821117156101a257600080fd5b50909695505050505050565b60008160000173__LinkedListLib_________________________637bfa62fb90916040518263ffffffff1660e060020a0281526004018082815260200191505060206040518083038186803b15801561020757600080fd5b505af415801561021b573d6000803e3d6000fd5b505050506040513d602081101561023157600080fd5b5051929150505600a165627a7a72305820c0b0cc4e83297f1fcaa41afb4beeb2da75f9356f6555e7a8faca16fce80368f70029",
  "source": "pragma solidity ^0.4.24;\n\nimport \"../../node_modules/ethereum-libraries-linked-list/contracts/LinkedListLib.sol\";\n\nimport \"./LinkedList/LinkedListExtensionLib.sol\";\nimport \"./LinkedList/LinkedListIteratorLib.sol\";\nimport \"./LinkedList/LinkedListAdvancedExtensionLib.sol\";\n\nlibrary TagLib {\n    using TagLib for TagLib.TagList;\n    using LinkedListLib for LinkedListLib.LinkedList;\n    using LinkedListExtensionLib for LinkedListLib.LinkedList;\n    using LinkedListIteratorLib for LinkedListIteratorLib.Iterator;\n    using LinkedListAdvancedExtensionLib for LinkedListLib.LinkedList;\n\n    struct Tag {\n        uint256 id;\n        string title;\n    }\n\n    struct TagList {\n        LinkedListLib.LinkedList keys;\n        mapping (uint256 => Tag) tags;\n    }\n\n    modifier tagExists(TagList storage self, uint256 tag) {\n        require(self.keys.nodeExists(tag), \"Tag does not exist!\");\n        _;\n    }\n\n    modifier tagDoesNotExist(TagList storage self, uint256 tag) {\n        require(!self.keys.nodeExists(tag), \"Tag does exist!\");\n        _;\n    }\n\n    function addTag(TagList storage self, Tag tag) internal {\n        self.addTag(tag.id, tag.title);\n    }\n\n    function addTag(TagList storage self, uint256 tag, string title) internal \n    tagDoesNotExist(self, tag) {\n        self.keys.push(tag, false);\n        self.tags[tag] = Tag(tag, title);\n    }\n\n    function setTagTitle(TagList storage self, uint256 tag, string title) internal tagExists(self, tag) {\n        self.tags[tag] = Tag(tag, title);\n    }\n\n    function removeTag(TagList storage self, uint256 tag) internal \n    tagExists(self, tag) {\n        self.keys.remove(tag);\n        self.tags[tag] = Tag(0, \"\");\n    }\n\n    function hasTag(TagList storage self, uint256 tagId) internal view returns(bool) {\n        return self.keys.nodeExists(tagId);\n    }\n\n    function getTag(TagList storage self, uint256 tagId) internal \n    view \n    tagExists(self, tagId)\n    returns(Tag storage) {//todo-sv: check return values of all libs if storage is porperly set\n        return self.tags[tagId];\n    }\n\n    function sizeOf(TagList storage self) \n    public \n    view\n    returns(uint256) {\n        return self.keys.sizeOf();\n    }\n\n    function getIterator(TagList storage self)\n    internal\n    view\n    returns(LinkedListIteratorLib.Iterator) {\n        return self.keys.getIterator();\n    }\n\n    function getKeyList(TagList storage self)\n    internal\n    view\n    returns (LinkedListLib.LinkedList storage) {\n        return self.keys;\n    }\n\n    function toReturnValue(TagList storage self) public view returns(uint256[]){\n        return self.keys.getKeysArray();\n    }\n}",
  "sourcePath": "/home/vauvenal5/repos/github/comp/ProvNet/eth/contracts/libs/TagLib.sol",
  "compiler": {
    "name": "solc",
    "version": "0.4.24+commit.e67f0147.Emscripten.clang"
  },
  "schemaVersion": "3.0.1",
  "updatedAt": "2019-01-14T14:51:37.954Z",
  "devdoc": {
    "methods": {}
  },
  "userdoc": {
    "methods": {}
  }
}