{
  "contractName": "TagLibMock",
  "abi": [
    {
      "constant": false,
      "inputs": [
        {
          "name": "tag",
          "type": "uint256"
        },
        {
          "name": "title",
          "type": "string"
        }
      ],
      "name": "addTag",
      "outputs": [],
      "payable": false,
      "stateMutability": "nonpayable",
      "type": "function"
    },
    {
      "constant": true,
      "inputs": [],
      "name": "toReturnValue",
      "outputs": [
        {
          "name": "",
          "type": "uint256[]"
        }
      ],
      "payable": false,
      "stateMutability": "view",
      "type": "function"
    }
  ],
  "bytecode": "0x608060405234801561001057600080fd5b5061051a806100206000396000f3006080604052600436106100325763ffffffff60e060020a60003504166345590ec8811461003757806368839c4b14610097575b600080fd5b34801561004357600080fd5b5060408051602060046024803582810135601f81018590048502860185019096528585526100959583359536956044949193909101919081908401838280828437509497506100fc9650505050505050565b005b3480156100a357600080fd5b506100ac610112565b60408051602080825283518183015283519192839290830191858101910280838360005b838110156100e85781810151838201526020016100d0565b505050509050019250505060405180910390f35b61010e6000838363ffffffff6101f716565b5050565b6040805160e160020a63234f01c7028152600060048201819052915160609273__TagLib________________________________9263469e038e9260248083019392829003018186803b15801561016857600080fd5b505af415801561017c573d6000803e3d6000fd5b505050506040513d6000823e601f3d908101601f1916820160405260208110156101a557600080fd5b810190808051602060020a8111156101bc57600080fd5b820160208101848111156101cf57600080fd5b81518560208202830111602060020a821117156101eb57600080fd5b50909450505050505b90565b6040805160e260020a633d64d8cf028152600481018590526024810184905290518491849173__LinkedListLib_________________________9163f593633c916044808301926020929190829003018186803b15801561025757600080fd5b505af415801561026b573d6000803e3d6000fd5b505050506040513d602081101561028157600080fd5b5051156102cd576040805160e560020a62461bcd02815260206004820152600f6024820152608860020a6e54616720646f65732065786973742102604482015290519081900360640190fd5b6102df8585600063ffffffff61032a16565b604080518082018252858152602080820186815260008881526001808b01845294902083518155905180519394919361032093928501929190910190610456565b5050505050505050565b610337836000848461033d565b50505050565b60008061034a86856103ab565b15801561035c575061035c86866103ab565b1561039d5750600084815260208681526040808320851515845290915290205461038886868686610425565b61039486858386610425565b600191506103a2565b600091505b50949350505050565b6000818152602083815260408083208380529091528120541580156103e6575060008281526020848152604080832060018452909152902054155b1561041b57600080805260208481526040808320600184529091529020548214156104135750600161041f565b50600061041f565b5060015b92915050565b6000828152602085815260408083209315808452938252808320869055948252948552838120911581529352912055565b828054600181600116156101000203166002900490600052602060002090601f016020900481019282601f1061049757805160ff19168380011785556104c4565b828001600101855582156104c4579182015b828111156104c45782518255916020019190600101906104a9565b506104d09291506104d4565b5090565b6101f491905b808211156104d057600081556001016104da5600a165627a7a72305820df5d7e91076022076fd915d4fcf9045c1fc6691840d767c8d45c77e98b01d0b70029",
  "source": "pragma solidity ^0.4.24;\n\nimport \"../libs/TagLib.sol\";\n\ncontract TagLibMock {\n    using TagLib for TagLib.TagList;\n\n    TagLib.TagList private tagList;\n\n    function addTag(uint256 tag, string title)\n    public {\n        tagList.addTag(tag, title);\n    }\n\n    function toReturnValue()\n    public\n    view\n    returns(uint256[]) {\n        return tagList.toReturnValue();\n    }\n}",
  "sourcePath": "/home/vauvenal5/repos/github/comp/ProvNet/eth/contracts/mocks/TagLibMock.sol",
  "compiler": {
    "name": "solc",
    "version": "0.4.24+commit.e67f0147.Emscripten.clang"
  },
  "schemaVersion": "3.0.1",
  "updatedAt": "2019-01-14T14:35:46.462Z",
  "devdoc": {
    "methods": {}
  },
  "userdoc": {
    "methods": {}
  }
}