{
  "contractName": "TagLibMock",
  "abi": [
    {
      "constant": false,
      "inputs": [
        {
          "name": "tag",
          "type": "uint256"
        },
        {
          "name": "title",
          "type": "string"
        }
      ],
      "name": "addTag",
      "outputs": [],
      "payable": false,
      "stateMutability": "nonpayable",
      "type": "function"
    },
    {
      "constant": true,
      "inputs": [],
      "name": "toReturnValue",
      "outputs": [
        {
          "name": "",
          "type": "uint256[]"
        }
      ],
      "payable": false,
      "stateMutability": "view",
      "type": "function"
    }
  ],
  "bytecode": "0x608060405234801561001057600080fd5b50610583806100206000396000f30060806040526004361061004b5763ffffffff7c010000000000000000000000000000000000000000000000000000000060003504166345590ec8811461005057806368839c4b146100b0575b600080fd5b34801561005c57600080fd5b5060408051602060046024803582810135601f81018590048502860185019096528585526100ae9583359536956044949193909101919081908401838280828437509497506101159650505050505050565b005b3480156100bc57600080fd5b506100c561012b565b60408051602080825283518183015283519192839290830191858101910280838360005b838110156101015781810151838201526020016100e9565b505050509050019250505060405180910390f35b6101276000838363ffffffff61022816565b5050565b604080517f469e038e000000000000000000000000000000000000000000000000000000008152600060048201819052915160609273__TagLib________________________________9263469e038e9260248083019392829003018186803b15801561019757600080fd5b505af41580156101ab573d6000803e3d6000fd5b505050506040513d6000823e601f3d908101601f1916820160405260208110156101d457600080fd5b8101908080516401000000008111156101ec57600080fd5b820160208101848111156101ff57600080fd5b815185602082028301116401000000008211171561021c57600080fd5b50909450505050505b90565b604080517ff593633c000000000000000000000000000000000000000000000000000000008152600481018590526024810184905290518491849173__LinkedListLib_________________________9163f593633c916044808301926020929190829003018186803b15801561029e57600080fd5b505af41580156102b2573d6000803e3d6000fd5b505050506040513d60208110156102c857600080fd5b50511561033657604080517f08c379a000000000000000000000000000000000000000000000000000000000815260206004820152600f60248201527f54616720646f6573206578697374210000000000000000000000000000000000604482015290519081900360640190fd5b6103488585600063ffffffff61039316565b604080518082018252858152602080820186815260008881526001808b018452949020835181559051805193949193610389939285019291909101906104bf565b5050505050505050565b6103a083600084846103a6565b50505050565b6000806103b38685610414565b1580156103c557506103c58686610414565b15610406575060008481526020868152604080832085151584529091529020546103f18686868661048e565b6103fd8685838661048e565b6001915061040b565b600091505b50949350505050565b60008181526020838152604080832083805290915281205415801561044f575060008281526020848152604080832060018452909152902054155b15610484576000808052602084815260408083206001845290915290205482141561047c57506001610488565b506000610488565b5060015b92915050565b6000828152602085815260408083209315808452938252808320869055948252948552838120911581529352912055565b828054600181600116156101000203166002900490600052602060002090601f016020900481019282601f1061050057805160ff191683800117855561052d565b8280016001018555821561052d579182015b8281111561052d578251825591602001919060010190610512565b5061053992915061053d565b5090565b61022591905b8082111561053957600081556001016105435600a165627a7a72305820c58b1b331bc3a05579163bfdf8584cbe937e9766510d8f1066f87e29319a31e00029",
  "source": "pragma solidity ^0.4.24;\n\nimport \"../libs/TagLib.sol\";\n\ncontract TagLibMock {\n    using TagLib for TagLib.TagList;\n\n    TagLib.TagList private tagList;\n\n    function addTag(uint256 tag, string title)\n    public {\n        tagList.addTag(tag, title);\n    }\n\n    function toReturnValue()\n    public\n    view\n    returns(uint256[]) {\n        return tagList.toReturnValue();\n    }\n}",
  "sourcePath": "/home/vauvenal5/repos/github/ProvNet/eth/contracts/mocks/TagLibMock.sol",
  "compiler": {
    "name": "solc",
    "version": "0.4.24+commit.e67f0147.Emscripten.clang"
  },
  "schemaVersion": "2.0.1",
  "updatedAt": "2019-01-05T22:33:14.352Z"
}