{
  "contractName": "Uint256UtilsMock",
  "abi": [
    {
      "constant": true,
      "inputs": [
        {
          "name": "_a",
          "type": "uint256"
        }
      ],
      "name": "convert",
      "outputs": [
        {
          "name": "",
          "type": "address"
        }
      ],
      "payable": false,
      "stateMutability": "pure",
      "type": "function"
    }
  ],
  "bytecode": "0x6080604052348015600f57600080fd5b5060998061001e6000396000f30060806040526004361060255763ffffffff60e060020a600035041663a3908e1b8114602a575b600080fd5b348015603557600080fd5b50603f600435605b565b60408051600160a060020a039092168252519081900360200190f35b6000606482606a565b92915050565b905600a165627a7a72305820bc4915473f1c3f05bb4d43e6f27b84f7db861e28999657e8a3609ab0948c8f380029",
  "source": "pragma solidity ^0.4.24;\n\nimport \"../libs/Uint256Utils.sol\";\n\ncontract Uint256UtilsMock {\n    using Uint256Utils for uint256;\n\n    function convert(uint256 _a) public pure returns (address) {\n        return _a.toAddress();\n    }\n}",
  "sourcePath": "/home/vauvenal5/repos/github/comp/ProvNet/eth/contracts/mocks/Uint256UtilsMock.sol",
  "compiler": {
    "name": "solc",
    "version": "0.4.24+commit.e67f0147.Emscripten.clang"
  },
  "schemaVersion": "3.0.1",
  "updatedAt": "2019-01-14T14:35:46.462Z",
  "devdoc": {
    "methods": {}
  },
  "userdoc": {
    "methods": {}
  }
}