{
  "contractName": "Uint256UtilsMock",
  "abi": [
    {
      "constant": true,
      "inputs": [
        {
          "name": "_a",
          "type": "uint256"
        }
      ],
      "name": "convert",
      "outputs": [
        {
          "name": "",
          "type": "address"
        }
      ],
      "payable": false,
      "stateMutability": "pure",
      "type": "function"
    }
  ],
  "bytecode": "0x608060405234801561001057600080fd5b5060bf8061001f6000396000f300608060405260043610603e5763ffffffff7c0100000000000000000000000000000000000000000000000000000000600035041663a3908e1b81146043575b600080fd5b348015604e57600080fd5b5060586004356081565b6040805173ffffffffffffffffffffffffffffffffffffffff9092168252519081900360200190f35b6000608a826090565b92915050565b905600a165627a7a723058203de65a185b6f109be70e96334dc9d68fde17b7cf32559445934b9f4ea3a210ee0029",
  "source": "pragma solidity ^0.4.24;\n\nimport \"../libs/Uint256Utils.sol\";\n\ncontract Uint256UtilsMock {\n    using Uint256Utils for uint256;\n\n    function convert(uint256 _a) public pure returns (address) {\n        return _a.toAddress();\n    }\n}",
  "sourcePath": "/home/vauvenal5/repos/github/ProvNet/eth/contracts/mocks/Uint256UtilsMock.sol",
  "compiler": {
    "name": "solc",
    "version": "0.4.24+commit.e67f0147.Emscripten.clang"
  },
  "schemaVersion": "2.0.1",
  "updatedAt": "2019-01-05T17:47:03.112Z"
}