{
  "contractName": "UrlLib",
  "abi": [
    {
      "anonymous": false,
      "inputs": [
        {
          "indexed": false,
          "name": "key",
          "type": "uint256"
        },
        {
          "indexed": false,
          "name": "url",
          "type": "string"
        }
      ],
      "name": "UrlAdded",
      "type": "event",
      "signature": "0xcc565ba580681aee2dd844656806e54ac4515b2a1f9b4ce302230d9d0305dec6"
    },
    {
      "constant": true,
      "inputs": [
        {
          "name": "self",
          "type": "UrlLib.UrlList storage"
        }
      ],
      "name": "toReturnValue",
      "outputs": [
        {
          "name": "",
          "type": "uint256[]"
        }
      ],
      "payable": false,
      "stateMutability": "view",
      "type": "function",
      "signature": "0xc3f82555"
    }
  ],
  "bytecode": "0x6101b2610030600b82828239805160001a6073146000811461002057610022565bfe5b5030600052607381538281f300730000000000000000000000000000000000000000301460806040526004361061003e5763ffffffff60e060020a600035041663c3f825558114610043575b600080fd5b61004e60043561009e565b60408051602080825283518183015283519192839290830191858101910280838360005b8381101561008a578181015183820152602001610072565b505050509050019250505060405180910390f35b60608160000173__LinkedListAdvancedExtensionLib________631bca78ab90916040518263ffffffff1660e060020a0281526004018082815260200191505060006040518083038186803b1580156100f757600080fd5b505af415801561010b573d6000803e3d6000fd5b505050506040513d6000823e601f3d908101601f19168201604052602081101561013457600080fd5b810190808051602060020a81111561014b57600080fd5b8201602081018481111561015e57600080fd5b81518560208202830111602060020a8211171561017a57600080fd5b509096955050505050505600a165627a7a72305820aa55eecc7106e5b118e2b8d093ffa21edce48624c039ca15099160e171e1d25b0029",
  "source": "pragma solidity ^0.4.24;\n\nimport \"../../node_modules/ethereum-libraries-linked-list/contracts/LinkedListLib.sol\";\nimport \"./LinkedList/LinkedListAdvancedExtensionLib.sol\";\n\nlibrary UrlLib {\n    using UrlLib for UrlLib.UrlList;\n    using LinkedListLib for LinkedListLib.LinkedList;\n    using LinkedListAdvancedExtensionLib for LinkedListLib.LinkedList;\n\n    event UrlAdded(uint256 key, string url);\n    //todo-sv: compare this list library to the tagLis library and think of refactoring tag list into the same way... \n\n    /** \n    This rather complicated list structure allows for iterating over existing urls in views without the need to iterate when checking for existence or when creating a new entry.\n    */\n    struct UrlList {\n        LinkedListLib.LinkedList keys;\n        //mapping (uint256 => Url) urls;\n        mapping (uint256 => string) urls;\n        mapping (string => uint256) keyMap;\n        uint256 keyCount;\n    }\n\n    function add(UrlList storage self, string _url) internal {\n        self.keyCount++;\n        self.keys.push(self.keyCount, false);\n        self.urls[self.keyCount] = _url;\n        self.keyMap[_url] = self.keyCount;\n        emit UrlAdded(self.keyCount, _url);\n    }\n\n    function hasUrl(UrlList storage self, string _url) internal view returns(bool) {\n        if(self.keyMap[_url] == 0) {\n            return false;\n        }\n        return true;\n    }\n\n    function getUrl(UrlList storage self, uint256 _key) internal view returns (string storage) {\n        return self.urls[_key];\n    }\n\n    function toReturnValue(UrlList storage self) public view returns(uint256[]){\n        return self.keys.getKeysArray();\n    }\n}",
  "sourcePath": "/home/vauvenal5/repos/github/comp/ProvNet/eth/contracts/libs/UrlLib.sol",
  "compiler": {
    "name": "solc",
    "version": "0.4.24+commit.e67f0147.Emscripten.clang"
  },
  "schemaVersion": "3.0.1",
  "updatedAt": "2019-01-14T14:51:37.918Z",
  "devdoc": {
    "methods": {}
  },
  "userdoc": {
    "methods": {}
  }
}