{
  "contractName": "UrlLib",
  "abi": [
    {
      "anonymous": false,
      "inputs": [
        {
          "indexed": false,
          "name": "key",
          "type": "uint256"
        },
        {
          "indexed": false,
          "name": "url",
          "type": "string"
        }
      ],
      "name": "UrlAdded",
      "type": "event"
    },
    {
      "constant": true,
      "inputs": [
        {
          "name": "self",
          "type": "UrlLib.UrlList storage"
        }
      ],
      "name": "toReturnValue",
      "outputs": [
        {
          "name": "",
          "type": "uint256[]"
        }
      ],
      "payable": false,
      "stateMutability": "view",
      "type": "function"
    }
  ],
  "bytecode": "0x6101e6610030600b82828239805160001a6073146000811461002057610022565bfe5b5030600052607381538281f30073000000000000000000000000000000000000000030146080604052600436106100575763ffffffff7c0100000000000000000000000000000000000000000000000000000000600035041663c3f82555811461005c575b600080fd5b6100676004356100b7565b60408051602080825283518183015283519192839290830191858101910280838360005b838110156100a357818101518382015260200161008b565b505050509050019250505060405180910390f35b60608160000173__LinkedListAdvancedExtensionLib________631bca78ab90916040518263ffffffff167c01000000000000000000000000000000000000000000000000000000000281526004018082815260200191505060006040518083038186803b15801561012957600080fd5b505af415801561013d573d6000803e3d6000fd5b505050506040513d6000823e601f3d908101601f19168201604052602081101561016657600080fd5b81019080805164010000000081111561017e57600080fd5b8201602081018481111561019157600080fd5b81518560208202830111640100000000821117156101ae57600080fd5b509096955050505050505600a165627a7a723058205c92bfbb7e8df803e8b7cc907834f4ad62c3c4dbb79b04865612c185c68d7f470029",
  "source": "pragma solidity ^0.4.24;\n\nimport \"../../node_modules/ethereum-libraries-linked-list/contracts/LinkedListLib.sol\";\nimport \"./LinkedList/LinkedListAdvancedExtensionLib.sol\";\n\nlibrary UrlLib {\n    using UrlLib for UrlLib.UrlList;\n    using LinkedListLib for LinkedListLib.LinkedList;\n    using LinkedListAdvancedExtensionLib for LinkedListLib.LinkedList;\n\n    event UrlAdded(uint256 key, string url);\n    //todo-sv: compare this list library to the tagLis library and think of refactoring tag list into the same way... \n\n    /** \n    This rather complicated list structure allows for iterating over existing urls in views without the need to iterate when checking for existence or when creating a new entry.\n    */\n    struct UrlList {\n        LinkedListLib.LinkedList keys;\n        //mapping (uint256 => Url) urls;\n        mapping (uint256 => string) urls;\n        mapping (string => uint256) keyMap;\n        uint256 keyCount;\n    }\n\n    function add(UrlList storage self, string _url) internal {\n        self.keyCount++;\n        self.keys.push(self.keyCount, false);\n        self.urls[self.keyCount] = _url;\n        self.keyMap[_url] = self.keyCount;\n        emit UrlAdded(self.keyCount, _url);\n    }\n\n    function hasUrl(UrlList storage self, string _url) internal view returns(bool) {\n        if(self.keyMap[_url] == 0) {\n            return false;\n        }\n        return true;\n    }\n\n    function getUrl(UrlList storage self, uint256 _key) internal view returns (string storage) {\n        return self.urls[_key];\n    }\n\n    function toReturnValue(UrlList storage self) public view returns(uint256[]){\n        return self.keys.getKeysArray();\n    }\n}",
  "sourcePath": "/home/vauvenal5/repos/github/ProvNet/eth/contracts/libs/UrlLib.sol",
  "compiler": {
    "name": "solc",
    "version": "0.4.24+commit.e67f0147.Emscripten.clang"
  },
  "schemaVersion": "2.0.1",
  "updatedAt": "2019-01-05T22:31:31.064Z"
}