{
  "contractName": "UserAccessControl",
  "abi": [
    {
      "constant": true,
      "inputs": [
        {
          "name": "_operator",
          "type": "address"
        },
        {
          "name": "_role",
          "type": "string"
        }
      ],
      "name": "checkRole",
      "outputs": [],
      "payable": false,
      "stateMutability": "view",
      "type": "function"
    },
    {
      "constant": true,
      "inputs": [
        {
          "name": "_operator",
          "type": "address"
        },
        {
          "name": "_role",
          "type": "string"
        }
      ],
      "name": "hasRole",
      "outputs": [
        {
          "name": "",
          "type": "bool"
        }
      ],
      "payable": false,
      "stateMutability": "view",
      "type": "function"
    },
    {
      "constant": true,
      "inputs": [
        {
          "name": "_address",
          "type": "address"
        }
      ],
      "name": "isOwner",
      "outputs": [
        {
          "name": "",
          "type": "bool"
        }
      ],
      "payable": false,
      "stateMutability": "view",
      "type": "function"
    },
    {
      "constant": false,
      "inputs": [
        {
          "name": "_newSuperuser",
          "type": "address"
        }
      ],
      "name": "transferSuperuser",
      "outputs": [],
      "payable": false,
      "stateMutability": "nonpayable",
      "type": "function"
    },
    {
      "constant": false,
      "inputs": [],
      "name": "renounceOwnership",
      "outputs": [],
      "payable": false,
      "stateMutability": "nonpayable",
      "type": "function"
    },
    {
      "constant": false,
      "inputs": [
        {
          "name": "_user",
          "type": "address"
        },
        {
          "name": "_role",
          "type": "string"
        }
      ],
      "name": "removeUser",
      "outputs": [],
      "payable": false,
      "stateMutability": "nonpayable",
      "type": "function"
    },
    {
      "constant": true,
      "inputs": [],
      "name": "owner",
      "outputs": [
        {
          "name": "",
          "type": "address"
        }
      ],
      "payable": false,
      "stateMutability": "view",
      "type": "function"
    },
    {
      "constant": false,
      "inputs": [
        {
          "name": "_role",
          "type": "string"
        }
      ],
      "name": "setRoleOpen",
      "outputs": [],
      "payable": false,
      "stateMutability": "nonpayable",
      "type": "function"
    },
    {
      "constant": true,
      "inputs": [
        {
          "name": "_addr",
          "type": "address"
        }
      ],
      "name": "isSuperuser",
      "outputs": [
        {
          "name": "",
          "type": "bool"
        }
      ],
      "payable": false,
      "stateMutability": "view",
      "type": "function"
    },
    {
      "constant": false,
      "inputs": [
        {
          "name": "_role",
          "type": "string"
        }
      ],
      "name": "setRoleClosed",
      "outputs": [],
      "payable": false,
      "stateMutability": "nonpayable",
      "type": "function"
    },
    {
      "constant": true,
      "inputs": [],
      "name": "ROLE_SUPERUSER",
      "outputs": [
        {
          "name": "",
          "type": "string"
        }
      ],
      "payable": false,
      "stateMutability": "view",
      "type": "function"
    },
    {
      "constant": false,
      "inputs": [
        {
          "name": "_newOwner",
          "type": "address"
        }
      ],
      "name": "transferOwnership",
      "outputs": [],
      "payable": false,
      "stateMutability": "nonpayable",
      "type": "function"
    },
    {
      "inputs": [],
      "payable": false,
      "stateMutability": "nonpayable",
      "type": "constructor"
    },
    {
      "anonymous": false,
      "inputs": [
        {
          "indexed": true,
          "name": "operator",
          "type": "address"
        },
        {
          "indexed": false,
          "name": "role",
          "type": "string"
        }
      ],
      "name": "RoleAdded",
      "type": "event"
    },
    {
      "anonymous": false,
      "inputs": [
        {
          "indexed": true,
          "name": "operator",
          "type": "address"
        },
        {
          "indexed": false,
          "name": "role",
          "type": "string"
        }
      ],
      "name": "RoleRemoved",
      "type": "event"
    },
    {
      "anonymous": false,
      "inputs": [
        {
          "indexed": true,
          "name": "previousOwner",
          "type": "address"
        }
      ],
      "name": "OwnershipRenounced",
      "type": "event"
    },
    {
      "anonymous": false,
      "inputs": [
        {
          "indexed": true,
          "name": "previousOwner",
          "type": "address"
        },
        {
          "indexed": true,
          "name": "newOwner",
          "type": "address"
        }
      ],
      "name": "OwnershipTransferred",
      "type": "event"
    },
    {
      "constant": false,
      "inputs": [
        {
          "name": "_user",
          "type": "address"
        },
        {
          "name": "_roles",
          "type": "uint256[]"
        }
      ],
      "name": "addUserWithSpecialRoles",
      "outputs": [],
      "payable": false,
      "stateMutability": "nonpayable",
      "type": "function"
    },
    {
      "constant": false,
      "inputs": [
        {
          "name": "_user",
          "type": "address"
        },
        {
          "name": "_roles",
          "type": "uint256[]"
        }
      ],
      "name": "removeUserWithSpecialRoles",
      "outputs": [],
      "payable": false,
      "stateMutability": "nonpayable",
      "type": "function"
    },
    {
      "constant": false,
      "inputs": [
        {
          "name": "_user",
          "type": "address"
        },
        {
          "name": "_role",
          "type": "string"
        }
      ],
      "name": "addUser",
      "outputs": [],
      "payable": false,
      "stateMutability": "nonpayable",
      "type": "function"
    },
    {
      "constant": true,
      "inputs": [],
      "name": "getUsers",
      "outputs": [
        {
          "name": "",
          "type": "address[]"
        }
      ],
      "payable": false,
      "stateMutability": "view",
      "type": "function"
    },
    {
      "constant": true,
      "inputs": [],
      "name": "getSpecialRoles",
      "outputs": [
        {
          "name": "",
          "type": "uint256[]"
        }
      ],
      "payable": false,
      "stateMutability": "view",
      "type": "function"
    },
    {
      "constant": true,
      "inputs": [
        {
          "name": "_role",
          "type": "uint256"
        }
      ],
      "name": "getSpecialRole",
      "outputs": [
        {
          "name": "",
          "type": "uint256"
        },
        {
          "name": "",
          "type": "string"
        }
      ],
      "payable": false,
      "stateMutability": "view",
      "type": "function"
    }
  ],
  "bytecode": "0x60c060405260016080819052600260a0526004805460ff191690911761ff0019166102001790553480156200003357600080fd5b5060008054600160a060020a0319163390811790915560408051808201909152600981527f737570657275736572000000000000000000000000000000000000000000000060208201526200009291906401000000006200014e810204565b60045460408051808201909152600981527f73757065727573657200000000000000000000000000000000000000000000006020820152620000eb9160059160ff90911690640100000000620017e46200027482021704565b60045460408051808201909152600681527f656469746f7200000000000000000000000000000000000000000000000000006020820152620001489160059161010090910460ff1690640100000000620002748102620017e41704565b62000624565b620001ca826001836040518082805190602001908083835b60208310620001875780518252601f19909201916020918201910162000166565b51815160209384036101000a6000190180199092169116179052920194855250604051938490030190922092915050640100000000620003ef8102620017161704565b81600160a060020a03167fbfec83d64eaa953f2708271a023ab9ee82057f8f3578d548c1a4ba0b5b700489826040518080602001828103825283818151815260200191508051906020019080838360005b83811015620002355781810151838201526020016200021b565b50505050905090810190601f168015620002635780820380516001836020036101000a031916815260200191505b509250505060405180910390a25050565b604080517ff593633c000000000000000000000000000000000000000000000000000000008152600481018590526024810184905290518491849173__LinkedListLib_________________________9163f593633c916044808301926020929190829003018186803b158015620002eb57600080fd5b505af415801562000300573d6000803e3d6000fd5b505050506040513d60208110156200031757600080fd5b5051156200038657604080517f08c379a000000000000000000000000000000000000000000000000000000000815260206004820152600f60248201527f54616720646f6573206578697374210000000000000000000000000000000000604482015290519081900360640190fd5b620003a285856000640100000000620011456200041482021704565b604080518082018252858152602080820186815260008881526001808b018452949020835181559051805193949193620003e5939285019291909101906200057f565b5050505050505050565b600160a060020a0316600090815260209190915260409020805460ff19166001179055565b6200042c836000848464010000000062000432810204565b50505050565b6000806200044a8685640100000000620004cf810204565b158015620004685750620004688686640100000000620004cf810204565b15620004c157506000848152602086815260408083208515158452909152902054620004a0868686866401000000006200054e810204565b620004b7868583866401000000006200054e810204565b60019150620004c6565b600091505b50949350505050565b6000818152602083815260408083208380529091528120541580156200050b575060008281526020848152604080832060018452909152902054155b156200054457600080805260208481526040808320600184529091529020548214156200053b5750600162000548565b50600062000548565b5060015b92915050565b6000828152602085815260408083209315808452938252808320869055948252948552838120911581529352912055565b828054600181600116156101000203166002900490600052602060002090601f016020900481019282601f10620005c257805160ff1916838001178555620005f2565b82800160010185558215620005f2579182015b82811115620005f2578251825591602001919060010190620005d5565b506200060092915062000604565b5090565b6200062191905b808211156200060057600081556001016200060b565b90565b611a1c80620006346000396000f3006080604052600436106100e15763ffffffff60e060020a600035041662ce8e3e81146100e657806306a0fb621461014b5780630988ca8c1461016057806312f70d92146101c957806313797c151461022c578063217fe6c61461028f5780632f54bf6e1461030a5780634b68d4311461032b57806357c393fa14610392578063715018a6146103b357806380026a59146103c85780638da5cb5b1461042f578063ac48486414610460578063bceee05e146104b9578063c106bca9146104da578063ca376fbb14610571578063ebb4f484146105ca578063f2fde38b14610654575b600080fd5b3480156100f257600080fd5b506100fb610675565b60408051602080825283518183015283519192839290830191858101910280838360005b8381101561013757818101518382015260200161011f565b505050509050019250505060405180910390f35b34801561015757600080fd5b506100fb61075d565b34801561016c57600080fd5b5060408051602060046024803582810135601f81018590048502860185019096528585526101c7958335600160a060020a03169536956044949193909101919081908401838280828437509497506107b49650505050505050565b005b3480156101d557600080fd5b506040805160206004602480358281013584810280870186019097528086526101c7968435600160a060020a0316963696604495919490910192918291850190849080828437509497506108229650505050505050565b34801561023857600080fd5b506040805160206004602480358281013584810280870186019097528086526101c7968435600160a060020a0316963696604495919490910192918291850190849080828437509497506108569650505050505050565b34801561029b57600080fd5b5060408051602060046024803582810135601f81018590048502860185019096528585526102f6958335600160a060020a031695369560449491939091019190819084018382808284375094975061088a9650505050505050565b604080519115158252519081900360200190f35b34801561031657600080fd5b506102f6600160a060020a03600435166108ff565b34801561033757600080fd5b5060408051602060046024803582810135601f81018590048502860185019096528585526101c7958335600160a060020a03169536956044949193909101919081908401838280828437509497506109139650505050505050565b34801561039e57600080fd5b506101c7600160a060020a0360043516610a08565b3480156103bf57600080fd5b506101c7610aa7565b3480156103d457600080fd5b5060408051602060046024803582810135601f81018590048502860185019096528585526101c7958335600160a060020a0316953695604494919390910191908190840183828082843750949750610b139650505050505050565b34801561043b57600080fd5b50610444610b45565b60408051600160a060020a039092168252519081900360200190f35b34801561046c57600080fd5b506040805160206004803580820135601f81018490048402850184019095528484526101c7943694929360249392840191908190840183828082843750949750610b549650505050505050565b3480156104c557600080fd5b506102f6600160a060020a0360043516610ca0565b3480156104e657600080fd5b506104f2600435610ccf565b6040518083815260200180602001828103825283818151815260200191508051906020019080838360005b8381101561053557818101518382015260200161051d565b50505050905090810190601f1680156105625780820380516001836020036101000a031916815260200191505b50935050505060405180910390f35b34801561057d57600080fd5b506040805160206004803580820135601f81018490048402850184019095528484526101c7943694929360249392840191908190840183828082843750949750610d8d9650505050505050565b3480156105d657600080fd5b506105df610e97565b6040805160208082528351818301528351919283929083019185019080838360005b83811015610619578181015183820152602001610601565b50505050905090810190601f1680156106465780820380516001836020036101000a031916815260200191505b509250505060405180910390f35b34801561066057600080fd5b506101c7600160a060020a0360043516610ebc565b6060600373__LinkedListAdvancedExtensionLib________632fc5efe690916040518263ffffffff1660e060020a0281526004018082815260200191505060006040518083038186803b1580156106cc57600080fd5b505af41580156106e0573d6000803e3d6000fd5b505050506040513d6000823e601f3d908101601f19168201604052602081101561070957600080fd5b81019080805164010000000081111561072157600080fd5b8201602081018481111561073457600080fd5b815185602082028301116401000000008211171561075157600080fd5b50909450505050505b90565b6060600573__TagLib________________________________63469e038e90916040518263ffffffff1660e060020a0281526004018082815260200191505060006040518083038186803b1580156106cc57600080fd5b61081e826001836040518082805190602001908083835b602083106107ea5780518252601f1990920191602091820191016107cb565b51815160209384036101000a6000190180199092169116179052920194855250604051938490030190922092915050610eed565b5050565b600054600160a060020a031633148061083f575061083f33610ca0565b151561084a57600080fd5b61081e82826005610f02565b600054600160a060020a0316331480610873575061087333610ca0565b151561087e57600080fd5b61081e8282600561101d565b60006108f6836001846040518082805190602001908083835b602083106108c25780518252601f1990920191602091820191016108a3565b51815160209384036101000a600019018019909216911617905292019485525060405193849003019092209291505061111a565b90505b92915050565b600054600160a060020a0391821691161490565b600054600160a060020a0316331480610930575061093033610ca0565b151561093b57600080fd5b73__LinkedListLib_________________________63f593633c6003610969600160a060020a038616611139565b6040518363ffffffff1660e060020a028152600401808381526020018281526020019250505060206040518083038186803b1580156109a757600080fd5b505af41580156109bb573d6000803e3d6000fd5b505050506040513d60208110156109d157600080fd5b505115156109fe576109fe6109ee83600160a060020a0316611139565b600390600063ffffffff61114516565b61081e8282611158565b610a35336040805190810160405280600981526020016000805160206119d18339815191528152506107b4565b600160a060020a0381161515610a4a57600080fd5b610a77336040805190810160405280600981526020016000805160206119d183398151915281525061118a565b610aa4816040805190810160405280600981526020016000805160206119d183398151915281525061129b565b50565b600054600160a060020a03163314610abe57600080fd5b60008054604051600160a060020a03909116917ff8df31144d9c2f0f6b59d69b8b98abd5459d07f2742c4df920b25aae33c6482091a26000805473ffffffffffffffffffffffffffffffffffffffff19169055565b600054600160a060020a0316331480610b305750610b3033610ca0565b1515610b3b57600080fd5b61081e828261118a565b600054600160a060020a031681565b600054600160a060020a0316331480610b715750610b7133610ca0565b1515610b7c57600080fd5b60408051808201909152600981526000805160206119d183398151915260208201528190610bb0908263ffffffff61136d16565b15610c2b576040805160e560020a62461bcd02815260206004820152602960248201527f506172616d65746572206973206e6f7420616c6c6f77656420746f206265207360448201527f7570657275736572210000000000000000000000000000000000000000000000606482015290519081900360840190fd5b60016002836040518082805190602001908083835b60208310610c5f5780518252601f199092019160209182019101610c40565b51815160209384036101000a60001901801990921691161790529201948552506040519384900301909220805460ff19169315159390931790925550505050565b60006108f9826040805190810160405280600981526020016000805160206119d183398151915281525061088a565b6000606082610ce560058263ffffffff61150c16565b600101808054600181600116156101000203166002900480601f016020809104026020016040519081016040528092919081815260200182805460018160011615610100020316600290048015610d7d5780601f10610d5257610100808354040283529160200191610d7d565b820191906000526020600020905b815481529060010190602001808311610d6057829003601f168201915b5050505050905091509150915091565b600054600160a060020a0316331480610daa5750610daa33610ca0565b1515610db557600080fd5b60408051808201909152600981526000805160206119d183398151915260208201528190610de9908263ffffffff61136d16565b15610e64576040805160e560020a62461bcd02815260206004820152602960248201527f506172616d65746572206973206e6f7420616c6c6f77656420746f206265207360448201527f7570657275736572210000000000000000000000000000000000000000000000606482015290519081900360840190fd5b600060028360405180828051906020019080838360208310610c5f5780518252601f199092019160209182019101610c40565b60408051808201909152600981526000805160206119d1833981519152602082015281565b600054600160a060020a0316331480610ed95750610ed933610ca0565b1515610ee457600080fd5b610aa481611609565b610ef7828261111a565b151561081e57600080fd5b600080548190600160a060020a0316331480610f225750610f2233610ca0565b1515610f2d57600080fd5b600091505b835182101561101657610f638483815181101515610f4c57fe5b60209081029091010151849063ffffffff61150c16565b905061100b85826001018054600181600116156101000203166002900480601f0160208091040260200160405190810160405280929190818152602001828054600181600116156101000203166002900480156110015780601f10610fd657610100808354040283529160200191611001565b820191906000526020600020905b815481529060010190602001808311610fe457829003601f168201915b5050505050610b13565b600190910190610f32565b5050505050565b600080548190600160a060020a031633148061103d575061103d33610ca0565b151561104857600080fd5b600091505b8351821015611016576110678483815181101515610f4c57fe5b905061110f85826001018054600181600116156101000203166002900480601f0160208091040260200160405190810160405280929190818152602001828054600181600116156101000203166002900480156111055780601f106110da57610100808354040283529160200191611105565b820191906000526020600020905b8154815290600101906020018083116110e857829003601f168201915b5050505050610913565b60019091019061104d565b600160a060020a03166000908152602091909152604090205460ff1690565b600160a060020a031690565b6111528360008484611686565b50505050565b600054600160a060020a0316331480611175575061117533610ca0565b151561118057600080fd5b61081e828261129b565b6111f4826001836040518082805190602001908083835b602083106111c05780518252601f1990920191602091820191016111a1565b51815160209384036101000a60001901801990921691161790529201948552506040519384900301909220929150506116f4565b81600160a060020a03167fd211483f91fc6eff862467f8de606587a30c8fc9981056f051b897a418df803a826040518080602001828103825283818151815260200191508051906020019080838360005b8381101561125d578181015183820152602001611245565b50505050905090810190601f16801561128a5780820380516001836020036101000a031916815260200191505b509250505060405180910390a25050565b611305826001836040518082805190602001908083835b602083106112d15780518252601f1990920191602091820191016112b2565b51815160209384036101000a6000190180199092169116179052920194855250604051938490030190922092915050611716565b81600160a060020a03167fbfec83d64eaa953f2708271a023ab9ee82057f8f3578d548c1a4ba0b5b700489826040518080602001828103825283818151815260200191508051906020019080838360008381101561125d578181015183820152602001611245565b8051825160009114611381575060006108f9565b816040516020018082805190602001908083835b602083106113b45780518252601f199092019160209182019101611395565b6001836020036101000a0380198251168184511680821785525050505050509050019150506040516020818303038152906040526040518082805190602001908083835b602083106114175780518252601f1990920191602091820191016113f8565b51815160209384036101000a60001901801990921691161790526040519190930181900381208851909550889450908301928392508401908083835b602083106114725780518252601f199092019160209182019101611453565b6001836020036101000a0380198251168184511680821785525050505050509050019150506040516020818303038152906040526040518082805190602001908083835b602083106114d55780518252601f1990920191602091820191016114b6565b5181516020939093036101000a60001901801990911692169190911790526040519201829003909120939093149695505050505050565b600082828160000173__LinkedListLib_________________________63f593633c9091836040518363ffffffff1660e060020a028152600401808381526020018281526020019250505060206040518083038186803b15801561156f57600080fd5b505af4158015611583573d6000803e3d6000fd5b505050506040513d602081101561159957600080fd5b505115156115f1576040805160e560020a62461bcd02815260206004820152601360248201527f54616720646f6573206e6f742065786973742100000000000000000000000000604482015290519081900360640190fd5b50505060009081526001919091016020526040902090565b600160a060020a038116151561161e57600080fd5b60008054604051600160a060020a03808516939216917f8be0079c531659141344cd1fd0a4f28419497f9722a3daafe3b4186f6b6457e091a36000805473ffffffffffffffffffffffffffffffffffffffff1916600160a060020a0392909216919091179055565b600080611693868561173b565b1580156116a557506116a5868661173b565b156116e6575060008481526020868152604080832085151584529091529020546116d1868686866117b3565b6116dd868583866117b3565b600191506116eb565b600091505b50949350505050565b600160a060020a0316600090815260209190915260409020805460ff19169055565b600160a060020a0316600090815260209190915260409020805460ff19166001179055565b600081815260208381526040808320838052909152812054158015611776575060008281526020848152604080832060018452909152902054155b156117ab57600080805260208481526040808320600184529091529020548214156117a3575060016108f9565b5060006108f9565b5060016108f9565b6000828152602085815260408083209315808452938252808320869055948252948552838120911581529352912055565b604080517ff593633c000000000000000000000000000000000000000000000000000000008152600481018590526024810184905290518491849173__LinkedListLib_________________________9163f593633c916044808301926020929190829003018186803b15801561185a57600080fd5b505af415801561186e573d6000803e3d6000fd5b505050506040513d602081101561188457600080fd5b5051156118db576040805160e560020a62461bcd02815260206004820152600f60248201527f54616720646f6573206578697374210000000000000000000000000000000000604482015290519081900360640190fd5b6118ed8585600063ffffffff61114516565b604080518082018252858152602080820186815260008881526001808b01845294902083518155905180519394919361192e93928501929190910190611938565b5050505050505050565b828054600181600116156101000203166002900490600052602060002090601f016020900481019282601f1061197957805160ff19168380011785556119a6565b828001600101855582156119a6579182015b828111156119a657825182559160200191906001019061198b565b506119b29291506119b6565b5090565b61075a91905b808211156119b257600081556001016119bc56007375706572757365720000000000000000000000000000000000000000000000a165627a7a723058205aa70a7efdce5bcf67f6d11105e01f5baa6a33943312c73ddead0cbabbb983cd0029",
  "source": "pragma solidity ^0.4.24;\n\nimport \"../../node_modules/ethereum-libraries-linked-list/contracts/LinkedListLib.sol\";\nimport \"./SwitchableRBACWithSuperuser.sol\";\nimport \"../libs/TagLib.sol\";\nimport \"../libs/LinkedList/LinkedListIteratorLib.sol\";\nimport \"../libs/LinkedList/LinkedListExtensionLib.sol\";\nimport \"../libs/AddressUtils.sol\";\nimport \"../libs/Uint256Utils.sol\";\nimport \"../libs/LinkedList/LinkedListAdvancedExtensionLib.sol\";\n\ncontract UserAccessControl is SwitchableRBACWithSuperuser {\n    using TagLib for TagLib.TagList;\n    using LinkedListLib for LinkedListLib.LinkedList;\n    using LinkedListExtensionLib for LinkedListLib.LinkedList;\n    using LinkedListIteratorLib for LinkedListIteratorLib.Iterator;\n    using AddressUtils for address;\n    using Uint256Utils for uint256;\n    using LinkedListAdvancedExtensionLib for LinkedListLib.LinkedList;\n\n    LinkedListLib.LinkedList users;\n\n    string constant ROLE_EDITOR = \"editor\";\n\n    struct ReservedRoles {\n        uint8 superUser;\n        uint8 editor;\n    }\n\n    ReservedRoles roles = ReservedRoles(1,2);\n\n    TagLib.TagList private specialRoles;\n\n    constructor() public {\n        specialRoles.addTag(roles.superUser, ROLE_SUPERUSER);\n        specialRoles.addTag(roles.editor, ROLE_EDITOR);\n    }\n\n    function addUserWithSpecialRoles(address _user, uint256[] _roles)\n    public\n    onlyOwnerOrSuperuser() {\n        addUserWithTagRoles(_user, _roles, specialRoles);\n    }\n\n    function addUserWithTagRoles(address _user, uint256[] _roles, TagLib.TagList storage _tags) \n    internal\n    onlyOwnerOrSuperuser() {\n        for(uint256 i = 0; i < _roles.length; i++) {\n            TagLib.Tag storage tag = _tags.getTag(_roles[i]);\n            addUser(_user, tag.title);\n        }\n    }\n\n    function removeUserWithSpecialRoles(address _user, uint256[] _roles)\n    public\n    onlyOwnerOrSuperuser() {\n        removeUserWithTagRoles(_user, _roles, specialRoles);\n    }\n\n    function removeUserWithTagRoles(address _user, uint256[] _roles, TagLib.TagList storage _tags)\n    internal\n    onlyOwnerOrSuperuser() {\n        for(uint256 i = 0; i < _roles.length; i++) {\n            TagLib.Tag storage tag = _tags.getTag(_roles[i]);\n            SwitchableRBACWithSuperuser.removeUser(_user, tag.title);\n        }\n    }\n\n    function addUser(address _user, string _role)\n    public \n    onlyOwnerOrSuperuser() {\n        if(!users.nodeExists(_user.toUint256())) {\n            users.push(_user.toUint256(), false);\n        }\n        SwitchableRBACWithSuperuser.addUser(_user, _role);\n    }\n\n    function getUsers()\n    public\n    view\n    returns(address[]) {\n        return users.getKeysAddressArray();\n    }\n\n    function getSpecialRoles()\n    public \n    view \n    returns(uint256[]) {\n        return specialRoles.toReturnValue();\n    }\n\n    function getSpecialRole(uint256 _role)\n    public\n    view\n    returns(uint256, string) {\n        return (_role, specialRoles.getTag(_role).title);\n    }\n\n    function getRoles(address _user, TagLib.TagList storage _roles)\n    internal\n    view\n    returns(uint256[]) {\n        uint256[] memory resRoles = new uint256[](_roles.sizeOf());\n        LinkedListIteratorLib.Iterator memory iterator = _roles.getIterator();\n\n        while(iterator.hasNext(_roles.getKeyList())) {            \n            resRoles[iterator.getCounter()] = 0;\n            \n            if(hasRole(_user, _roles.getTag(iterator.next()).title)) {\n                resRoles[iterator.getCounter()] = iterator.next();\n            }\n        }\n\n        return resRoles;\n    }\n\n    function getSpecialRolesForUser (address _user)\n    internal\n    view\n    returns(uint256[]) {\n        return getRoles(_user, specialRoles);\n    }\n}",
  "sourcePath": "/home/vauvenal5/repos/github/ProvNet/eth/contracts/contracts/UserAccessControl.sol",
  "compiler": {
    "name": "solc",
    "version": "0.4.24+commit.e67f0147.Emscripten.clang"
  },
  "schemaVersion": "2.0.1",
  "updatedAt": "2019-01-05T17:47:03.073Z"
}