{
  "contractName": "UserAccessControl",
  "abi": [
    {
      "constant": true,
      "inputs": [
        {
          "name": "_operator",
          "type": "address"
        },
        {
          "name": "_role",
          "type": "string"
        }
      ],
      "name": "checkRole",
      "outputs": [],
      "payable": false,
      "stateMutability": "view",
      "type": "function"
    },
    {
      "constant": true,
      "inputs": [
        {
          "name": "_operator",
          "type": "address"
        },
        {
          "name": "_role",
          "type": "string"
        }
      ],
      "name": "hasRole",
      "outputs": [
        {
          "name": "",
          "type": "bool"
        }
      ],
      "payable": false,
      "stateMutability": "view",
      "type": "function"
    },
    {
      "constant": true,
      "inputs": [
        {
          "name": "_role",
          "type": "string"
        }
      ],
      "name": "isRoleOpen",
      "outputs": [
        {
          "name": "",
          "type": "bool"
        }
      ],
      "payable": false,
      "stateMutability": "view",
      "type": "function"
    },
    {
      "constant": true,
      "inputs": [
        {
          "name": "_address",
          "type": "address"
        }
      ],
      "name": "isOwner",
      "outputs": [
        {
          "name": "",
          "type": "bool"
        }
      ],
      "payable": false,
      "stateMutability": "view",
      "type": "function"
    },
    {
      "constant": false,
      "inputs": [
        {
          "name": "_newSuperuser",
          "type": "address"
        }
      ],
      "name": "transferSuperuser",
      "outputs": [],
      "payable": false,
      "stateMutability": "nonpayable",
      "type": "function"
    },
    {
      "constant": false,
      "inputs": [],
      "name": "renounceOwnership",
      "outputs": [],
      "payable": false,
      "stateMutability": "nonpayable",
      "type": "function"
    },
    {
      "constant": false,
      "inputs": [
        {
          "name": "_user",
          "type": "address"
        },
        {
          "name": "_role",
          "type": "string"
        }
      ],
      "name": "removeUser",
      "outputs": [],
      "payable": false,
      "stateMutability": "nonpayable",
      "type": "function"
    },
    {
      "constant": true,
      "inputs": [],
      "name": "owner",
      "outputs": [
        {
          "name": "",
          "type": "address"
        }
      ],
      "payable": false,
      "stateMutability": "view",
      "type": "function"
    },
    {
      "constant": false,
      "inputs": [
        {
          "name": "_role",
          "type": "string"
        }
      ],
      "name": "setRoleOpen",
      "outputs": [],
      "payable": false,
      "stateMutability": "nonpayable",
      "type": "function"
    },
    {
      "constant": true,
      "inputs": [
        {
          "name": "_addr",
          "type": "address"
        }
      ],
      "name": "isSuperuser",
      "outputs": [
        {
          "name": "",
          "type": "bool"
        }
      ],
      "payable": false,
      "stateMutability": "view",
      "type": "function"
    },
    {
      "constant": false,
      "inputs": [
        {
          "name": "_role",
          "type": "string"
        }
      ],
      "name": "setRoleClosed",
      "outputs": [],
      "payable": false,
      "stateMutability": "nonpayable",
      "type": "function"
    },
    {
      "constant": true,
      "inputs": [],
      "name": "ROLE_SUPERUSER",
      "outputs": [
        {
          "name": "",
          "type": "string"
        }
      ],
      "payable": false,
      "stateMutability": "view",
      "type": "function"
    },
    {
      "constant": false,
      "inputs": [
        {
          "name": "_newOwner",
          "type": "address"
        }
      ],
      "name": "transferOwnership",
      "outputs": [],
      "payable": false,
      "stateMutability": "nonpayable",
      "type": "function"
    },
    {
      "inputs": [],
      "payable": false,
      "stateMutability": "nonpayable",
      "type": "constructor"
    },
    {
      "anonymous": false,
      "inputs": [
        {
          "indexed": true,
          "name": "operator",
          "type": "address"
        },
        {
          "indexed": false,
          "name": "role",
          "type": "string"
        }
      ],
      "name": "RoleAdded",
      "type": "event"
    },
    {
      "anonymous": false,
      "inputs": [
        {
          "indexed": true,
          "name": "operator",
          "type": "address"
        },
        {
          "indexed": false,
          "name": "role",
          "type": "string"
        }
      ],
      "name": "RoleRemoved",
      "type": "event"
    },
    {
      "anonymous": false,
      "inputs": [
        {
          "indexed": true,
          "name": "previousOwner",
          "type": "address"
        }
      ],
      "name": "OwnershipRenounced",
      "type": "event"
    },
    {
      "anonymous": false,
      "inputs": [
        {
          "indexed": true,
          "name": "previousOwner",
          "type": "address"
        },
        {
          "indexed": true,
          "name": "newOwner",
          "type": "address"
        }
      ],
      "name": "OwnershipTransferred",
      "type": "event"
    },
    {
      "constant": false,
      "inputs": [
        {
          "name": "_user",
          "type": "address"
        },
        {
          "name": "_roles",
          "type": "uint256[]"
        }
      ],
      "name": "addUserWithSpecialRoles",
      "outputs": [],
      "payable": false,
      "stateMutability": "nonpayable",
      "type": "function"
    },
    {
      "constant": false,
      "inputs": [
        {
          "name": "_user",
          "type": "address"
        },
        {
          "name": "_roles",
          "type": "uint256[]"
        }
      ],
      "name": "removeUserWithSpecialRoles",
      "outputs": [],
      "payable": false,
      "stateMutability": "nonpayable",
      "type": "function"
    },
    {
      "constant": false,
      "inputs": [
        {
          "name": "_user",
          "type": "address"
        },
        {
          "name": "_role",
          "type": "string"
        }
      ],
      "name": "addUser",
      "outputs": [],
      "payable": false,
      "stateMutability": "nonpayable",
      "type": "function"
    },
    {
      "constant": true,
      "inputs": [],
      "name": "getUsers",
      "outputs": [
        {
          "name": "",
          "type": "address[]"
        }
      ],
      "payable": false,
      "stateMutability": "view",
      "type": "function"
    },
    {
      "constant": true,
      "inputs": [],
      "name": "getSpecialRoles",
      "outputs": [
        {
          "name": "",
          "type": "uint256[]"
        }
      ],
      "payable": false,
      "stateMutability": "view",
      "type": "function"
    },
    {
      "constant": true,
      "inputs": [
        {
          "name": "_role",
          "type": "uint256"
        }
      ],
      "name": "getSpecialRole",
      "outputs": [
        {
          "name": "",
          "type": "uint256"
        },
        {
          "name": "",
          "type": "string"
        }
      ],
      "payable": false,
      "stateMutability": "view",
      "type": "function"
    }
  ],
  "bytecode": "0x60c060405260016080819052600260a0526004805460ff191690911761ff0019166102001790553480156200003357600080fd5b5060008054600160a060020a0319163390811790915560408051808201909152600981527f737570657275736572000000000000000000000000000000000000000000000060208201526200009291906401000000006200014e810204565b60045460408051808201909152600981527f73757065727573657200000000000000000000000000000000000000000000006020820152620000eb9160059160ff90911690640100000000620018516200027482021704565b60045460408051808201909152600681527f656469746f7200000000000000000000000000000000000000000000000000006020820152620001489160059161010090910460ff1690640100000000620002748102620018511704565b62000624565b620001ca826001836040518082805190602001908083835b60208310620001875780518252601f19909201916020918201910162000166565b51815160209384036101000a6000190180199092169116179052920194855250604051938490030190922092915050640100000000620003ef8102620017831704565b81600160a060020a03167fbfec83d64eaa953f2708271a023ab9ee82057f8f3578d548c1a4ba0b5b700489826040518080602001828103825283818151815260200191508051906020019080838360005b83811015620002355781810151838201526020016200021b565b50505050905090810190601f168015620002635780820380516001836020036101000a031916815260200191505b509250505060405180910390a25050565b604080517ff593633c000000000000000000000000000000000000000000000000000000008152600481018590526024810184905290518491849173__LinkedListLib_________________________9163f593633c916044808301926020929190829003018186803b158015620002eb57600080fd5b505af415801562000300573d6000803e3d6000fd5b505050506040513d60208110156200031757600080fd5b5051156200038657604080517f08c379a000000000000000000000000000000000000000000000000000000000815260206004820152600f60248201527f54616720646f6573206578697374210000000000000000000000000000000000604482015290519081900360640190fd5b620003a285856000640100000000620011c66200041482021704565b604080518082018252858152602080820186815260008881526001808b018452949020835181559051805193949193620003e5939285019291909101906200057f565b5050505050505050565b600160a060020a0316600090815260209190915260409020805460ff19166001179055565b6200042c836000848464010000000062000432810204565b50505050565b6000806200044a8685640100000000620004cf810204565b158015620004685750620004688686640100000000620004cf810204565b15620004c157506000848152602086815260408083208515158452909152902054620004a0868686866401000000006200054e810204565b620004b7868583866401000000006200054e810204565b60019150620004c6565b600091505b50949350505050565b6000818152602083815260408083208380529091528120541580156200050b575060008281526020848152604080832060018452909152902054155b156200054457600080805260208481526040808320600184529091529020548214156200053b5750600162000548565b50600062000548565b5060015b92915050565b6000828152602085815260408083209315808452938252808320869055948252948552838120911581529352912055565b828054600181600116156101000203166002900490600052602060002090601f016020900481019282601f10620005c257805160ff1916838001178555620005f2565b82800160010185558215620005f2579182015b82811115620005f2578251825591602001919060010190620005d5565b506200060092915062000604565b5090565b6200062191905b808211156200060057600081556001016200060b565b90565b611a6880620006346000396000f3006080604052600436106100ec5763ffffffff60e060020a600035041662ce8e3e81146100f157806306a0fb62146101565780630988ca8c1461016b57806312f70d92146101d457806313797c1514610237578063217fe6c61461029a5780632c897b8b146103155780632f54bf6e1461036e5780634b68d4311461038f57806357c393fa146103f6578063715018a61461041757806380026a591461042c5780638da5cb5b14610493578063ac484864146104c4578063bceee05e1461051d578063c106bca91461053e578063ca376fbb146105d5578063ebb4f4841461062e578063f2fde38b146106b8575b600080fd5b3480156100fd57600080fd5b506101066106d9565b60408051602080825283518183015283519192839290830191858101910280838360005b8381101561014257818101518382015260200161012a565b505050509050019250505060405180910390f35b34801561016257600080fd5b506101066107bf565b34801561017757600080fd5b5060408051602060046024803582810135601f81018590048502860185019096528585526101d2958335600160a060020a03169536956044949193909101919081908401838280828437509497506108169650505050505050565b005b3480156101e057600080fd5b506040805160206004602480358281013584810280870186019097528086526101d2968435600160a060020a0316963696604495919490910192918291850190849080828437509497506108849650505050505050565b34801561024357600080fd5b506040805160206004602480358281013584810280870186019097528086526101d2968435600160a060020a0316963696604495919490910192918291850190849080828437509497506108b89650505050505050565b3480156102a657600080fd5b5060408051602060046024803582810135601f8101859004850286018501909652858552610301958335600160a060020a03169536956044949193909101919081908401838280828437509497506108ec9650505050505050565b604080519115158252519081900360200190f35b34801561032157600080fd5b506040805160206004803580820135601f81018490048402850184019095528484526103019436949293602493928401919081908401838280828437509497506109619650505050505050565b34801561037a57600080fd5b50610301600160a060020a03600435166109cc565b34801561039b57600080fd5b5060408051602060046024803582810135601f81018590048502860185019096528585526101d2958335600160a060020a03169536956044949193909101919081908401838280828437509497506109e09650505050505050565b34801561040257600080fd5b506101d2600160a060020a0360043516610ad5565b34801561042357600080fd5b506101d2610b77565b34801561043857600080fd5b5060408051602060046024803582810135601f81018590048502860185019096528585526101d2958335600160a060020a0316953695604494919390910191908190840183828082843750949750610bd69650505050505050565b34801561049f57600080fd5b506104a8610c08565b60408051600160a060020a039092168252519081900360200190f35b3480156104d057600080fd5b506040805160206004803580820135601f81018490048402850184019095528484526101d2943694929360249392840191908190840183828082843750949750610c179650505050505050565b34801561052957600080fd5b50610301600160a060020a0360043516610d41565b34801561054a57600080fd5b50610556600435610d71565b6040518083815260200180602001828103825283818151815260200191508051906020019080838360005b83811015610599578181015183820152602001610581565b50505050905090810190601f1680156105c65780820380516001836020036101000a031916815260200191505b50935050505060405180910390f35b3480156105e157600080fd5b506040805160206004803580820135601f81018490048402850184019095528484526101d2943694929360249392840191908190840183828082843750949750610e2f9650505050505050565b34801561063a57600080fd5b50610643610f17565b6040805160208082528351818301528351919283929083019185019080838360005b8381101561067d578181015183820152602001610665565b50505050905090810190601f1680156106aa5780820380516001836020036101000a031916815260200191505b509250505060405180910390f35b3480156106c457600080fd5b506101d2600160a060020a0360043516610f3d565b6060600373__LinkedListAdvancedExtensionLib________632fc5efe690916040518263ffffffff1660e060020a0281526004018082815260200191505060006040518083038186803b15801561073057600080fd5b505af4158015610744573d6000803e3d6000fd5b505050506040513d6000823e601f3d908101601f19168201604052602081101561076d57600080fd5b810190808051602060020a81111561078457600080fd5b8201602081018481111561079757600080fd5b81518560208202830111602060020a821117156107b357600080fd5b50909450505050505b90565b6060600573__TagLib________________________________63469e038e90916040518263ffffffff1660e060020a0281526004018082815260200191505060006040518083038186803b15801561073057600080fd5b610880826001836040518082805190602001908083835b6020831061084c5780518252601f19909201916020918201910161082d565b51815160209384036101000a6000190180199092169116179052920194855250604051938490030190922092915050610f6e565b5050565b600054600160a060020a03163314806108a157506108a133610d41565b15156108ac57600080fd5b61088082826005610f83565b600054600160a060020a03163314806108d557506108d533610d41565b15156108e057600080fd5b6108808282600561109e565b6000610958836001846040518082805190602001908083835b602083106109245780518252601f199092019160209182019101610905565b51815160209384036101000a600019018019909216911617905292019485525060405193849003019092209291505061119b565b90505b92915050565b60006002826040518082805190602001908083835b602083106109955780518252601f199092019160209182019101610976565b51815160209384036101000a600019018019909216911617905292019485525060405193849003019092205460ff16949350505050565b600054600160a060020a0391821691161490565b600054600160a060020a03163314806109fd57506109fd33610d41565b1515610a0857600080fd5b73__LinkedListLib_________________________63f593633c6003610a36600160a060020a0386166111ba565b6040518363ffffffff1660e060020a028152600401808381526020018281526020019250505060206040518083038186803b158015610a7457600080fd5b505af4158015610a88573d6000803e3d6000fd5b505050506040513d6020811015610a9e57600080fd5b50511515610acb57610acb610abb83600160a060020a03166111ba565b600390600063ffffffff6111c616565b61088082826111d9565b610b033360408051908101604052806009815260200160b960020a6839bab832b93ab9b2b902815250610816565b600160a060020a0381161515610b1857600080fd5b610b463360408051908101604052806009815260200160b960020a6839bab832b93ab9b2b90281525061120b565b610b748160408051908101604052806009815260200160b960020a6839bab832b93ab9b2b90281525061131c565b50565b600054600160a060020a03163314610b8e57600080fd5b60008054604051600160a060020a03909116917ff8df31144d9c2f0f6b59d69b8b98abd5459d07f2742c4df920b25aae33c6482091a260008054600160a060020a0319169055565b600054600160a060020a0316331480610bf35750610bf333610d41565b1515610bfe57600080fd5b610880828261120b565b600054600160a060020a031681565b600054600160a060020a0316331480610c345750610c3433610d41565b1515610c3f57600080fd5b604080518082019091526009815260b960020a6839bab832b93ab9b2b90260208201528190610c74908263ffffffff6113ee16565b15610ccc576040805160e560020a62461bcd0281526020600482015260296024820152600080516020611a1d833981519152604482015260b860020a6875706572757365722102606482015290519081900360840190fd5b60016002836040518082805190602001908083835b60208310610d005780518252601f199092019160209182019101610ce1565b51815160209384036101000a60001901801990921691161790529201948552506040519384900301909220805460ff19169315159390931790925550505050565b600061095b8260408051908101604052806009815260200160b960020a6839bab832b93ab9b2b9028152506108ec565b6000606082610d8760058263ffffffff61158d16565b600101808054600181600116156101000203166002900480601f016020809104026020016040519081016040528092919081815260200182805460018160011615610100020316600290048015610e1f5780601f10610df457610100808354040283529160200191610e1f565b820191906000526020600020905b815481529060010190602001808311610e0257829003601f168201915b5050505050905091509150915091565b600054600160a060020a0316331480610e4c5750610e4c33610d41565b1515610e5757600080fd5b604080518082019091526009815260b960020a6839bab832b93ab9b2b90260208201528190610e8c908263ffffffff6113ee16565b15610ee4576040805160e560020a62461bcd0281526020600482015260296024820152600080516020611a1d833981519152604482015260b860020a6875706572757365722102606482015290519081900360840190fd5b600060028360405180828051906020019080838360208310610d005780518252601f199092019160209182019101610ce1565b604080518082019091526009815260b960020a6839bab832b93ab9b2b902602082015281565b600054600160a060020a0316331480610f5a5750610f5a33610d41565b1515610f6557600080fd5b610b7481611683565b610f78828261119b565b151561088057600080fd5b600080548190600160a060020a0316331480610fa35750610fa333610d41565b1515610fae57600080fd5b600091505b835182101561109757610fe48483815181101515610fcd57fe5b60209081029091010151849063ffffffff61158d16565b905061108c85826001018054600181600116156101000203166002900480601f0160208091040260200160405190810160405280929190818152602001828054600181600116156101000203166002900480156110825780601f1061105757610100808354040283529160200191611082565b820191906000526020600020905b81548152906001019060200180831161106557829003601f168201915b5050505050610bd6565b600190910190610fb3565b5050505050565b600080548190600160a060020a03163314806110be57506110be33610d41565b15156110c957600080fd5b600091505b8351821015611097576110e88483815181101515610fcd57fe5b905061119085826001018054600181600116156101000203166002900480601f0160208091040260200160405190810160405280929190818152602001828054600181600116156101000203166002900480156111865780601f1061115b57610100808354040283529160200191611186565b820191906000526020600020905b81548152906001019060200180831161116957829003601f168201915b50505050506109e0565b6001909101906110ce565b600160a060020a03166000908152602091909152604090205460ff1690565b600160a060020a031690565b6111d383600084846116f3565b50505050565b600054600160a060020a03163314806111f657506111f633610d41565b151561120157600080fd5b610880828261131c565b611275826001836040518082805190602001908083835b602083106112415780518252601f199092019160209182019101611222565b51815160209384036101000a6000190180199092169116179052920194855250604051938490030190922092915050611761565b81600160a060020a03167fd211483f91fc6eff862467f8de606587a30c8fc9981056f051b897a418df803a826040518080602001828103825283818151815260200191508051906020019080838360005b838110156112de5781810151838201526020016112c6565b50505050905090810190601f16801561130b5780820380516001836020036101000a031916815260200191505b509250505060405180910390a25050565b611386826001836040518082805190602001908083835b602083106113525780518252601f199092019160209182019101611333565b51815160209384036101000a6000190180199092169116179052920194855250604051938490030190922092915050611783565b81600160a060020a03167fbfec83d64eaa953f2708271a023ab9ee82057f8f3578d548c1a4ba0b5b70048982604051808060200182810382528381815181526020019150805190602001908083836000838110156112de5781810151838201526020016112c6565b80518251600091146114025750600061095b565b816040516020018082805190602001908083835b602083106114355780518252601f199092019160209182019101611416565b6001836020036101000a0380198251168184511680821785525050505050509050019150506040516020818303038152906040526040518082805190602001908083835b602083106114985780518252601f199092019160209182019101611479565b51815160209384036101000a60001901801990921691161790526040519190930181900381208851909550889450908301928392508401908083835b602083106114f35780518252601f1990920191602091820191016114d4565b6001836020036101000a0380198251168184511680821785525050505050509050019150506040516020818303038152906040526040518082805190602001908083835b602083106115565780518252601f199092019160209182019101611537565b5181516020939093036101000a60001901801990911692169190911790526040519201829003909120939093149695505050505050565b600082828160000173__LinkedListLib_________________________63f593633c9091836040518363ffffffff1660e060020a028152600401808381526020018281526020019250505060206040518083038186803b1580156115f057600080fd5b505af4158015611604573d6000803e3d6000fd5b505050506040513d602081101561161a57600080fd5b5051151561166b576040805160e560020a62461bcd0281526020600482015260136024820152606860020a7254616720646f6573206e6f742065786973742102604482015290519081900360640190fd5b50505060009081526001919091016020526040902090565b600160a060020a038116151561169857600080fd5b60008054604051600160a060020a03808516939216917f8be0079c531659141344cd1fd0a4f28419497f9722a3daafe3b4186f6b6457e091a360008054600160a060020a031916600160a060020a0392909216919091179055565b60008061170086856117a8565b158015611712575061171286866117a8565b156117535750600084815260208681526040808320851515845290915290205461173e86868686611820565b61174a86858386611820565b60019150611758565b600091505b50949350505050565b600160a060020a0316600090815260209190915260409020805460ff19169055565b600160a060020a0316600090815260209190915260409020805460ff19166001179055565b6000818152602083815260408083208380529091528120541580156117e3575060008281526020848152604080832060018452909152902054155b1561181857600080805260208481526040808320600184529091529020548214156118105750600161095b565b50600061095b565b50600161095b565b6000828152602085815260408083209315808452938252808320869055948252948552838120911581529352912055565b6040805160e260020a633d64d8cf028152600481018590526024810184905290518491849173__LinkedListLib_________________________9163f593633c916044808301926020929190829003018186803b1580156118b157600080fd5b505af41580156118c5573d6000803e3d6000fd5b505050506040513d60208110156118db57600080fd5b505115611927576040805160e560020a62461bcd02815260206004820152600f6024820152608860020a6e54616720646f65732065786973742102604482015290519081900360640190fd5b6119398585600063ffffffff6111c616565b604080518082018252858152602080820186815260008881526001808b01845294902083518155905180519394919361197a93928501929190910190611984565b5050505050505050565b828054600181600116156101000203166002900490600052602060002090601f016020900481019282601f106119c557805160ff19168380011785556119f2565b828001600101855582156119f2579182015b828111156119f25782518255916020019190600101906119d7565b506119fe929150611a02565b5090565b6107bc91905b808211156119fe5760008155600101611a085600506172616d65746572206973206e6f7420616c6c6f77656420746f2062652073a165627a7a7230582012c1e7fb59a123b194c29d77252dc81b84758c71965672ac2b7a0ad8fdbd684a0029",
  "source": "pragma solidity ^0.4.24;\n\nimport \"../../node_modules/ethereum-libraries-linked-list/contracts/LinkedListLib.sol\";\nimport \"./SwitchableRBACWithSuperuser.sol\";\nimport \"../libs/TagLib.sol\";\nimport \"../libs/LinkedList/LinkedListIteratorLib.sol\";\nimport \"../libs/LinkedList/LinkedListExtensionLib.sol\";\nimport \"../libs/AddressUtils.sol\";\nimport \"../libs/Uint256Utils.sol\";\nimport \"../libs/LinkedList/LinkedListAdvancedExtensionLib.sol\";\n\ncontract UserAccessControl is SwitchableRBACWithSuperuser {\n    using TagLib for TagLib.TagList;\n    using LinkedListLib for LinkedListLib.LinkedList;\n    using LinkedListExtensionLib for LinkedListLib.LinkedList;\n    using LinkedListIteratorLib for LinkedListIteratorLib.Iterator;\n    using AddressUtils for address;\n    using Uint256Utils for uint256;\n    using LinkedListAdvancedExtensionLib for LinkedListLib.LinkedList;\n\n    LinkedListLib.LinkedList users;\n\n    string constant ROLE_EDITOR = \"editor\";\n\n    struct ReservedRoles {\n        uint8 superUser;\n        uint8 editor;\n    }\n\n    ReservedRoles roles = ReservedRoles(1,2);\n\n    TagLib.TagList private specialRoles;\n\n    constructor() public {\n        specialRoles.addTag(roles.superUser, ROLE_SUPERUSER);\n        specialRoles.addTag(roles.editor, ROLE_EDITOR);\n    }\n\n    function addUserWithSpecialRoles(address _user, uint256[] _roles)\n    public\n    onlyOwnerOrSuperuser() {\n        addUserWithTagRoles(_user, _roles, specialRoles);\n    }\n\n    function addUserWithTagRoles(address _user, uint256[] _roles, TagLib.TagList storage _tags) \n    internal\n    onlyOwnerOrSuperuser() {\n        for(uint256 i = 0; i < _roles.length; i++) {\n            TagLib.Tag storage tag = _tags.getTag(_roles[i]);\n            addUser(_user, tag.title);\n        }\n    }\n\n    function removeUserWithSpecialRoles(address _user, uint256[] _roles)\n    public\n    onlyOwnerOrSuperuser() {\n        removeUserWithTagRoles(_user, _roles, specialRoles);\n    }\n\n    function removeUserWithTagRoles(address _user, uint256[] _roles, TagLib.TagList storage _tags)\n    internal\n    onlyOwnerOrSuperuser() {\n        for(uint256 i = 0; i < _roles.length; i++) {\n            TagLib.Tag storage tag = _tags.getTag(_roles[i]);\n            SwitchableRBACWithSuperuser.removeUser(_user, tag.title);\n        }\n    }\n\n    function addUser(address _user, string _role)\n    public \n    onlyOwnerOrSuperuser() {\n        if(!users.nodeExists(_user.toUint256())) {\n            users.push(_user.toUint256(), false);\n        }\n        SwitchableRBACWithSuperuser.addUser(_user, _role);\n    }\n\n    function getUsers()\n    public\n    view\n    returns(address[]) {\n        return users.getKeysAddressArray();\n    }\n\n    function getSpecialRoles()\n    public \n    view \n    returns(uint256[]) {\n        return specialRoles.toReturnValue();\n    }\n\n    function getSpecialRole(uint256 _role)\n    public\n    view\n    returns(uint256, string) {\n        return (_role, specialRoles.getTag(_role).title);\n    }\n\n    function getRoles(address _user, TagLib.TagList storage _roles)\n    internal\n    view\n    returns(uint256[]) {\n        uint256[] memory resRoles = new uint256[](_roles.sizeOf());\n        LinkedListIteratorLib.Iterator memory iterator = _roles.getIterator();\n\n        while(iterator.hasNext(_roles.getKeyList())) {            \n            resRoles[iterator.getCounter()] = 0;\n            \n            if(hasRole(_user, _roles.getTag(iterator.next()).title)) {\n                resRoles[iterator.getCounter()] = iterator.next();\n            }\n        }\n\n        return resRoles;\n    }\n\n    function getSpecialRolesForUser (address _user)\n    internal\n    view\n    returns(uint256[]) {\n        return getRoles(_user, specialRoles);\n    }\n}",
  "sourcePath": "/home/vauvenal5/repos/github/comp/ProvNet/eth/contracts/contracts/UserAccessControl.sol",
  "compiler": {
    "name": "solc",
    "version": "0.4.24+commit.e67f0147.Emscripten.clang"
  },
  "schemaVersion": "3.0.1",
  "updatedAt": "2019-01-14T14:35:46.441Z",
  "devdoc": {
    "methods": {
      "checkRole(address,string)": {
        "details": "reverts if addr does not have role",
        "params": {
          "_operator": "address",
          "_role": "the name of the role // reverts"
        }
      },
      "hasRole(address,string)": {
        "details": "determine if addr has role",
        "params": {
          "_operator": "address",
          "_role": "the name of the role"
        },
        "return": "bool"
      },
      "isSuperuser(address)": {
        "details": "getter to determine if address has superuser role"
      },
      "renounceOwnership()": {
        "details": "Allows the current owner to relinquish control of the contract."
      },
      "transferOwnership(address)": {
        "details": "Allows the current superuser or owner to transfer control of the contract to a newOwner.",
        "params": {
          "_newOwner": "The address to transfer ownership to."
        }
      },
      "transferSuperuser(address)": {
        "details": "Allows the current superuser to transfer his role to a newSuperuser.",
        "params": {
          "_newSuperuser": "The address to transfer ownership to."
        }
      }
    }
  },
  "userdoc": {
    "methods": {
      "renounceOwnership()": {
        "notice": "Renouncing to ownership will leave the contract without an owner. It will not be possible to call the functions with the `onlyOwner` modifier anymore."
      }
    }
  }
}